:020000040800F2
:10000000E006002029440008314400083344000879
:100010003544000837440008394400080000000057
:100020000000000000000000000000003B44000849
:100030003D440008000000003F440008414400081F
:100040004344000843440008434400084344000874
:100050004344000843440008434400084344000864
:100060004344000843440008434400084344000854
:100070004344000843440008434400084344000844
:100080004344000843440008434400084344000834
:100090004344000843440008434400084344000824
:1000A0004344000843440008434400084344000814
:1000B0004344000843440008434400084344000804
:1000C00043440008434400084344000843440008F4
:1000D00043440008434400084344000843440008E4
:1000E00043440008434400084344000800F002F879
:1000F00000F03AF80AA090E8000C82448344AAF188
:100100000107DA4501D100F02FF8AFF2090EBAE885
:100110000F0013F0010F18BFFB1A43F0010318473B
:10012000E478000004790000103A24BF78C878C150
:10013000FAD8520724BF30C830C144BF04680C60ED
:10014000704700000023002400250026103A28BF35
:1001500078C1FBD8520728BF30C148BF0B60704739
:100160001FB51FBD10B510BD04F0A2FD1146FFF76D
:10017000F7FF00F008F804F0C0FD03B4FFF7F2FF4A
:1001800003BC04F0C1FD01F012FB482001F04AFA63
:1001900002F05BFE19E000F05CF800F098F800F067
:1001A0003FF900F001FA00F0DDFA00F01BFB00F06F
:1001B00056FB01F095FE02F07FF902F08BF801F09A
:1001C000E4FF02F0C0FA02F004FBE4E73EB50446A7
:1001D0001F200090FE48028814230021084600F0EA
:1001E0004BFD1F200090FA4843880288408814384D
:1001F00081B2002000F040FD4FF6FF70F549088005
:10020000012010211F234FF6FF72CDE9004102901B
:100210000221002001F0B4F901201021EEA2CDE965
:1002200000210290EA484088123881B21F234FF61D
:10023000FF72002001F0A4F900200090E4484088FB
:10024000143883B2E24802881421002000F014FD23
:100250003EBD0EB5E4A0FFF7B9FF01201021E8A2D2
:100260001F23CDE900210290DA021E21002001F0B7
:1002700087F901201021DEA21F23CDE90021029081
:10028000DA023C21002001F07BF901201021DFA2DD
:100290001F23CDE9002102904FF6E0725A21002081
:1002A00001F06EF901201021DEA21F23CDE900210B
:1002B00002901A467821002001F062F940F2DC50E9
:1002C00001F0CAF940F2DC5001F0C6F90EBD0EB5DE
:1002D000DBA0FFF77BFF4FF6FF700090BC48408823
:1002E000143883B2BA4802881421002000F0C4FCFC
:1002F00001201021D7A2CDE900210290B44909883C
:10030000323988B24FF6E0731F221E2101F0A7F8A0
:100310004FF4FA7001F0A0F900200090AC4840883A
:10032000143883B2AA4802881421002000F0A4FCEB
:1003300001201021C9A2CDE900210290A449098819
:10034000323988B24FF6E0731F221E2101F087F880
:100350004FF4FA7001F080F94FF4784000909C4817
:100360004088143883B29A4802881421002000F093
:1003700083FC01201021BBA2CDE900210290944909
:100380000988323988B24FF6E0731F221E2101F02E
:1003900066F84FF4FA7001F05FF94FF4FC600090DA
:1003A0008B484088143883B2894802881421002081
:1003B00000F062FC01201021ABA2CDE900210290E7
:1003C00083490988323988B24FF6E0731F221E2113
:1003D00001F045F84FF4FA7001F03EF91F2000904B
:1003E0007B484088143883B2794802881421002061
:1003F00000F042FC012010219DA2CDE900210290D5
:1004000073490988323988B24FF6E0734FF6FF72AC
:100410001E2101F024F84FF4FA7001F01DF90EBD11
:100420002DE9F843002494A0FFF7D0FE4FF6FF70AB
:10043000009067484088143883B2654802881421C8
:10044000002000F019FC00BF48E0DFF884C1BCF8D0
:10045000025005EBD57C4FEA6C0CACF1500CC4EBB0
:100460000419CC440CF13C0C1FFA8CF3DFF860C18A
:10047000BCF8006006EBD67C4FEA6C0CACF1500C7B
:10048000C4EB0419CC440CF13C0C1FFA8CF2DFF8DD
:1004900040C1BCF8027007EBD77C4FEA6C0CACF1A2
:1004A000500CC4EB0419CC441FFA8CF1DFF820C1C6
:1004B000BCF8008008EBD87C4FEA6C0CACF1500C17
:1004C000C4EB0419CC441FFA8CF000F066FC7048B1
:1004D00030F814003F490880601CC4B2052CB4DB1E
:1004E00040F2DC5001F0B8F84FF6FF700090384849
:1004F0004088143883B2364802881421002000F066
:10050000BBFB002448E0DFF8C8C0BCF8027007EB72
:10051000D77C4FEA6C0CACF1500CC4EB0419CC4402
:100520000CF13C0C1FFA8CF3DFF8A4C0BCF80050AF
:1005300005EBD57C4FEA6C0CACF1500CC4EB041904
:10054000CC440CF13C0C1FFA8CF2DFF884C0BCF8F0
:10055000028008EBD87C4FEA6C0CACF1500CC4EB79
:100560000419CC441FFA8CF1DFF864C0BCF80060B9
:1005700006EBD67C4FEA6C0CACF1500CC4EB0419C2
:10058000CC441FFA8CF000F028FC414830F81400ED
:1005900010490880601CC4B2052CB4DB40F2DC506A
:1005A00001F05AF8BDE8F883F8B5002439A0FFF748
:1005B0000DFE4FF6FF70009005484088143883B256
:1005C000034802881421002000F056FB00BF8DE094
:1005D0007000002026000020514474656368B0E676
:1005E000C8A8CBF9D3D00000C8ABB6AFB5E7D7D316
:1005F000D7DBBACFB2E2CAD4B3CCD0F2000000004D
:10060000C8ABB6AFB5E7D7D300000000332E35270F
:1006100020494C4939343836203438305833323058
:10062000000000007869616F46656E674051447450
:1006300065636820323031342D30352D323500007D
:10064000B2E2CAD4313AB4BFC9ABCCEEB3E4B2E241
:10065000CAD400005768697465000000426C616389
:100660006B00000052656400477265656E00000013
:10067000426C756500000000B2E2CAD4323A4755B8
:1006800049BED8D0CECCEEB3E4B2E2CAD40000006A
:1006900000000020B2E2CAD4333A475549BBADD47A
:1006A000B2CCEEB3E4B2E2CAD40000000020F84BB2
:1006B00000905D8805EBD5735B10323B04EBC407FB
:1006C00007EB0417D919F24B1E8806EBD6735B10A3
:1006D000503B04EBC40707EB0417D819ED4B33F874
:1006E00014201E2300F0CAFB601CC4B2052CDDDB05
:1006F00040F2DC5000F0B0FF4FF6FF700090E4488D
:100700004088143883B2E24802881421002000F0A7
:10071000B3FA00241FE00120DD4B00905D8805EB5B
:10072000D5735B10323B04EBC40707EB0417D919F0
:10073000D74B1E8806EBD6735B10503B04EBC40707
:1007400007EB0417D819D34B33F814201E2300F0FD
:1007500095FB601CC4B2052CDDDB40F2DC5000F0E0
:100760007BFFF8BD08B5CCA0FFF730FD4FF4784013
:10077000CE4908801F20CE4908800020CDA30C223E
:100780001E2100900A2000F050FC0120D4A30C226E
:100790002D2100900A2000F048FC0020DBA30C2251
:1007A0003C2100900A2000F040FC0020DFA3102232
:1007B000502100900A2000F038FC0120E6A310220E
:1007C000642100900A2000F030FC0020EDA31022EC
:1007D000782100900A2000F028FC40F2DC5000F064
:1007E0003BFF08BD0EB5EFA0FFF7F0FC0020102185
:1007F000F1A24FF6E073CDE9002102901F221E21E5
:100800000A2000F02CFE01201021F4A24FF6E07324
:10081000CDE9002102901F2232210A2000F01FFEA4
:1008200001201821F3A24FF6E073CDE900210290D8
:100830001F2246210A2000F012FE01202021F3A2EF
:100840004FF6E073CDE9002102901F2264210A20B7
:1008500000F005FE40F2DC5000F0FEFE0EBD0EB5CD
:10086000EEA0FFF7B3FC4FF6FF7000908848408879
:10087000143883B2864802881421002000F0FCF965
:10088000EB4A1E21084600F09DFE01201021E9A23E
:100890004FF6E073CDE9002102901F224B212A2060
:1008A00000F0DDFDE24A1E215A2000F08BFE0120FF
:1008B0001021E0A24FF6E073CDE9002102901F2243
:1008C0004B21662000F0CBFDD94A1E21962000F076
:1008D00079FE01201021D7A24FF6E073CDE9002167
:1008E00002901F224B21A22000F0B9FD40F2DC5003
:1008F00000F0B2FE0EBD08B500250026002703F06B
:100900003CFD02F037F9CCA0FFF760FC0120604904
:1009100000900988183988B2CBA31022002100F07A
:1009200084FB4FF478405A49009009881E398AB2F6
:1009300057490988343988B21223022100F09CF902
:100940004FF478405949088087E102F02EF90446B7
:10095000BE48416800208847BC48007D00F0800008
:10096000002879D0B948008A49490988884276DA4E
:10097000B648408A46494988884270DAB348018AB5
:10098000434800881838814222DDB048408A102848
:100990001EDAA9A0FFF71AFC01203D490090098842
:1009A000183988B2A8A31022002100F03EFB3F486E
:1009B000078000883649009009881E398AB2344978
:1009C0000988343988B21223022100F055F946E033
:1009D0009E48018A2E4800883C38814234DD9B487D
:1009E000018A2B4800881E3881422DDA9748408AB8
:1009F000142829DA052096FBF0F100FB1160254947
:100A000031F810802249CDF8008009881E398AB259
:100A10001F490988343988B21223022100F02CF9C9
:100A20003046711C8EB2052190FBF1F201FB1200E1
:100A3000184931F810001D490880084607880A2027
:100A400000F00AFE0BE007E0804A518A108A174A3C
:100A5000128802F064FE02E00A2000F0FDFD012C85
:100A60000AD14FF6FF7002F084F903F025F802F086
:100A7000ECFE71A0FFF7AAFB681CC5B2142D06D1CD
:100A800000257348006808B90120E4E0E2E0E4E0F2
:100A90007000002000000020B2E2CAD4343AD3A291
:100AA000CEC4CFD4CABEB2E2CAD400002600002011
:100AB00028000020365831323A6162636465666707
:100AC00068696A6B6C6D6E6F70717273747576772E
:100AD00078797A303132333435363738390000009E
:100AE000365831323A4142434445464748494A4BD9
:100AF0004C4D4E4F505152535455565758595A30E9
:100B00003132333435363738390000003658313217
:100B10003A7E21402324255E262A28295F2B7B7DCF
:100B20003A3C3E3F2F7C2D2B2E00000038583136AA
:100B30003A6162636465666768696A6B6C6D6E6F63
:100B4000707172737475767778797A3031323334A4
:100B50003536373839000000385831363A4142438B
:100B60004445464748494A4B4C4D4E4F50515253CD
:100B70005455565758595A30313233343536373840
:100B800039000000385831363A7E21402324255E52
:100B9000262A28295F2B7B7D3A3C3E3F2F7C2D2B3C
:100BA0002E000000B2E2CAD4353AD6D0CEC4CFD49B
:100BB000CABEB2E2CAD4000031365831363AC8ABA8
:100BC000B6AFB5E7D7D3BCBCCAF5D3D0CFDEB9AB8F
:100BD000CBBEBBB6D3ADC4FA0000000031365831ED
:100BE000363A57656C636F6D65C8ABB6AFB5E7D77E
:100BF000D300000032345832343AC9EEDBDACAD0BE
:100C0000D6D0CEC4B2E2CAD400000000333258338A
:100C1000323AD7D6CCE5B2E2CAD40000B2E2CAD4A6
:100C2000363ACDBCC6ACCFD4CABEB2E2CAD40000FC
:100C30004657000851510000B2E2CAD4373A546F07
:100C4000756368B2E2CAD400525354002C000020ED
:100C5000A001214200200149086076E6A00121425E
:100C600070B505460E4614463146284602F028F86F
:100C7000204602F001F870BD2DE9F05F06460F46F0
:100C800014461D46A01B401C1FFA80FAE81B401C9E
:100C90001FFA80FB681E83B2601E82B2394630465E
:100CA00002F040F84FF000080FE04FF0000906E0B6
:100CB0000A9801F0E1FF09F101001FFA80F9D1451E
:100CC000F6DB08F101001FFA80F8D845EDDBF948A2
:100CD0004088401E83B2F7480088401E82B200213F
:100CE000084602F01FF8BDE8F09F2DE9FF4F85B0E0
:100CF00081468A460020049003900798A0EB0905DE
:100D00000898A0EB0A06CDF80890CDF804A0002DB5
:100D100001DD012705E00DB9002702E04FF0FF37A4
:100D20006D42002E02DD4FF0010806E016B94FF0CB
:100D3000000802E04FF0FF387642B54201DD2C4654
:100D400000E034464FF0000B21E0019A91B2029A84
:100D500090B201F0DBFF04982844049003983044DB
:100D600003900498A04205DD0498001B04900298AB
:100D7000384402900398A04205DD0398001B0390BD
:100D80000198404401900BF101001FFA80FB601CA8
:100D90008345DADD09B0BDE8F08F2DE9F041044666
:100DA0000D4616461F462B46324629462046FFF77B
:100DB0009CFF3B46224629462046FFF796FF3B46CE
:100DC000324639462046FFF790FF3B4632462946D9
:100DD0003046FFF78AFFBDE8F081F8B504460D46BE
:100DE00016461F46B44800883B46324629460090C6
:100DF0002046FFF741FFF8BD2DE9F04104460D46BE
:100E000016461F46DDF81880EA1991B2A21990B271
:100E10004246FFF725FFEA1991B2A21B90B2424663
:100E2000FFF71EFFEA1B91B2A21990B24246FFF7EC
:100E300017FFEA1B91B2A21B90B24246FFF710FFC8
:100E4000AA1991B2E21990B24246FFF709FFAA1916
:100E500091B2E21B90B24246FFF702FFAA1B91B289
:100E6000E21990B24246FFF7FBFEAA1B91B2E21BC9
:100E700090B24246FFF7F4FEBDE8F0812DE9FF4F46
:100E800081B0824617469846DDF838B000244546C2
:100E90004FEA4800C0F10306BBF1000F1FD01BE072
:100EA000A14608E04B462246009750460299FFF7BC
:100EB000A3FF09F10109A945F4DD002E04DA04209D
:100EC00000FB0460861D06E0601B042101FB00603E
:100ED00000F10A066D1E641CAC42E1DD18E015E06D
:100EE0002B462246009750460299FFF785FF002EB9
:100EF00004DA042000FB0460861D06E0601B042168
:100F000001FB006000F10A066D1E641CAC42E7DDC7
:100F100005B0BDE8F08F2DE9FF4F83B081468A46CA
:100F20009346DDE91064644800880290A6F1200031
:100F3000C6B204EBD47009EB6000401E82B20AEB2B
:100F40000400401E83B251464846019401F0EAFE77
:100F5000129850BB002525E00C2C07D106EB46006B
:100F6000564901EB800010F8058004E0544800EB7E
:100F7000061010F8058000270DE008F0010018B1F8
:100F8000584601F079FE02E0069801F075FE4FEA3E
:100F90006808781CC7B204EBD471B7EB610FECDBC7
:100FA000681CC5B2A542D7DB2DE0002529E00C2C3A
:100FB00007D106EB4600414901EB800010F805809F
:100FC00004E03F4800EB061010F80580002711E010
:100FD0003948A0F800B008F0010038B10AEB05026A
:100FE00091B209EB070290B201F090FE4FEA680857
:100FF000781CC7B204EBD471B7EB610FE8DB681C57
:10100000C5B2A542D3DB2C49029808802948408804
:10101000401E83B227480088401E82B20021084645
:1010200001F080FE07B0BDE8F08F2DE9FE430646D3
:101030000F4615461C46DDF828801DE01D48008837
:10104000401EB04204DB1B484088401EB84201DA13
:10105000BDE8FE8320788DE821011A4803881648F0
:10106000028839463046FFF756FF284605EBD07117
:1010700006EB61018EB2641C20787E2802DC2078A9
:101080002028DBDA00BFE3E710B50246012000E0CC
:1010900050430B00A1F10104E1B2F9D110BD2DE9DB
:1010A000FF4F83B0074691461E46109C4FF0000A42
:1010B00000254DE07000002026000020C6630008D7
:1010C0003A68000828000020701B401EC1B20A20A8
:1010D000FFF7DAFFB9FBF0F00A21B0FBF1F201FBF8
:1010E0001208BAF1000F1BD1701EA84218DDB8F12A
:1010F000000F13D100202021A346CDE90014029057
:1011000004EBDB71491001FB057188B2FC490B88C7
:10111000FC490A880499FFF7FEFE17E04FF0010A28
:10112000002108F13000C0B2A346CDE90141009092
:1011300004EBDB71491001FB057188B2F0490B88A3
:10114000F0490A880499FFF7E6FE00BF681CC5B2A3
:10115000B542B9DB07B0BDE8F08F2DE9FC5F05466D
:10116000884691469A46DDF830B0009537200190C8
:1011700000245FE004EB0410E34911F810009BF831
:101180000010884253D104EB0410DF4901EB40000A
:1011900040789BF80110884249D108F10F0083B2D2
:1011A00005F10F0082B24146284601F0BBFD002642
:1011B0003BE0002734E00D9890B904EB0410D249CD
:1011C00001EB4000801C805D80213941084018B14E
:1011D000484601F051FD21E0504601F04DFD1DE073
:1011E000C848A0F8009004EB0410C74901EB400088
:1011F000801C805D80213941084018B14146284655
:1012000001F084FD681C85B20098281A102805D1C9
:10121000009D08F101001FFA80F803E0781CC7B2B6
:10122000082FC8DB00BF701CC6B2202EC1DB00BF78
:10123000601C84B2019884429CDBB4484088401E04
:1012400083B2B2480088401E82B20021084601F0F5
:1012500069FDBDE8FC9F2DE9FC5F05468846914687
:101260009A46DDF830B0009507200190002467E031
:1012700004EB840000EB4410A54911F810009BF822
:101280000010884259D104EB840000EB4410A049BF
:1012900001EB400040789BF8011088424DD108F1E5
:1012A000170083B205F1170082B24146284601F0CB
:1012B00039FD00263FE0002738E00D98A0B904EB87
:1012C000840000EB4410924901EB4000801C805DDB
:1012D00080213941084018B1484601F0CDFC23E097
:1012E000504601F0C9FC1FE08648A0F8009004EBCE
:1012F000840000EB4410864901EB4000801C805DB7
:1013000080213941084018B14146284601F0FEFCD1
:10131000681C85B20098281A182805D1009D08F18C
:1013200001001FFA80F803E0781CC7B2082FC4DB65
:1013300000BF701CC6B2482EBDDB00BF601C84B26B
:101340000198844294DB71484088401E83B26F4804
:101350000088401E82B20021084601F0E3FCBDE88F
:10136000FC9F2DE9FC5F0546884691469A46DDF8CC
:1013700030B000950420019000245FE004EB84105D
:10138000644911F810009BF80010884253D104EB17
:101390008410604901EB400040789BF801108842BE
:1013A00049D108F11F0083B205F11F0082B2414606
:1013B000284601F0B7FC00263BE0002734E00D98FA
:1013C00090B904EB8410534901EB4000801C805D10
:1013D00080213941084018B1484601F04DFC21E018
:1013E000504601F049FC1DE04648A0F8009004EB8F
:1013F0008410484901EB4000801C805D8021394108
:10140000084018B14146284601F080FC681C85B2AE
:101410000098281A202805D1009D08F101001FFA24
:1014200080F803E0781CC7B2082FC8DB00BF701C2F
:10143000C6B2802EC1DB00BF601C84B2019884421A
:101440009CDB32484088401E83B230480088401EF2
:1014500082B20021084601F065FCBDE8FC9F2DE941
:10146000FF4F83B0064688469146DDE91147109D3F
:10147000B2464FF0000B7DE0BBF1000F4CD104EB06
:10148000D471224A1288A2EB6101B14204DB1F49E8
:101490004988091B414502DA07B0BDE8F08F28787A
:1014A000802802DD4FF0010B64E028780D2806D17A
:1014B00008EB04001FFA80F856466D1C1EE0102C45
:1014C0000DDD102128788DE883004A4641463046DC
:1014D000069BFFF720FD06F1080086B20EE0287893
:1014E0008DE891004A4641463046069BFFF713FDC2
:1014F000204604EBD07106EB61018EB26D1C39E021
:1015000028000020260000202A6E0008700000201D
:10151000787500087E77000841480088001BB042BB
:1015200004DB3F484088001B404500DAB4E74FF039
:10153000000B202C08D1CDE900574A4641463046E1
:10154000069BFFF70EFF12E0182C08D1CDE90057DB
:101550004A4641463046069BFFF77DFE07E0CDE94F
:1015600000574A4641463046069BFFF7F6FDAD1C44
:10157000301986B2287800287FF47EAF00BF8BE751
:101580002DE9FF4F83B004460F469046DDE9119ADE
:10159000109D284603F056FB86B221490988A1EB2D
:1015A000C60000EBD071C1F34F0B04EB0B0188B206
:1015B0008DE8200642463946069BFFF750FF07B0EC
:1015C000BDE8F08F2DE9F04706460F46154607F1B6
:1015D000270083B206F1270082B23946304601F077
:1015E000A1FB00240AE015F8149005EB440090F8E4
:1015F000018049EA082001F03FFB641CB4F5C86F84
:10160000F1DB07484088401E83B205480088401E31
:1016100082B20021084601F085FBBDE8F08700009A
:101620007000002010B504466FF0040002F06BFF5C
:10163000E11704EB5171C1F3C701234A1170104641
:10164000007800EB4001C1EBC0104FF6FF7101EADA
:10165000C0001E49088010BD01461C4A12884A433A
:101660004FF0E0235A6100229A6101221A6100BF03
:101670004FF0E022106900F001021AB100F480324C
:10168000002AF5D000224FF0E0231A619A617047DA
:1016900001460D4A12784A434FF0E0235A61002276
:1016A0009A6101221A6100BF4FF0E022106900F038
:1016B00001021AB100F48032002AF5D000224FF066
:1016C000E0231A619A6170470A0000200C00002094
:1016D0000CB50020019000906C48006840F4803008
:1016E0006A49086000BF6948006800F40030009053
:1016F0000198401C0190009818B90198B0F5A06FAE
:10170000F1D16248006800F4003010B1012000906F
:1017100001E0002000900098012843D15C48006857
:1017200040F010005A4908600846006820F00300A5
:1017300008600846006840F00200086053484068AE
:10174000524948600846406848600846406840F48E
:10175000806048600846406820F47C104860084675
:10176000406840F4E81048600846006840F0807027
:10177000086000BF4548006800F000700028F9D0FC
:101780004248406820F003004049486008464068ED
:1017900040F00200486000BF3C48406800F00C0088
:1017A0000828F9D10CBD10B5FFF792FF10BD10B598
:1017B0003648006840F00100344908600846406837
:1017C00034490840314948600846006832490840B9
:1017D0002E4908600846006820F48020086008460A
:1017E000406820F4FE0048604FF41F008860FFF757
:1017F000DAFF4FF000602949086010BD10B50021E4
:1018000000200022214B5B6803F00C0121B1042968
:1018100006D0082928D107E0214B224C236027E07D
:101820001F4B204C236023E0184B5B6803F47010BF
:10183000164B5B6803F48032022303EB904022B91D
:10184000194B4343174C23600DE0104B5B6803F4C6
:10185000003323B1144B4343124C236003E0104B7D
:101860004343104C236003E00D4B0E4C236000BF3C
:1018700000BF064B5B68C3F303130C4CE15C094BE0
:101880001B68CB40074C236010BD000000100240D5
:10189000002002400000FFF8FFFFF6FE08ED00E028
:1018A00000127A001000002000093D001400002002
:1018B00041F2883200FB02F100BF0A00A1F10101F0
:1018C000FBD17047F8B505460E4614460120234665
:1018D0001022314600902846FFF7A7FBF8BDFEB561
:1018E00005460E46144601201021CDE90041029024
:1018F000FE480388FE48028831462846FFF70BFB66
:10190000FEBD70B504460D461646F9480680AA1E6F
:1019100091B2621E90B201F0F9F9F548008801F029
:10192000ABF9F348008801F0A7F96A1E91B2A21E34
:1019300090B201F0EBF9EE48008801F09DF9EC4817
:10194000008801F099F9EA48008801F095F9E84823
:10195000008801F091F9A11E88B2294601F0D6F95C
:10196000E348008801F088F9E148008801F084F933
:10197000DF48008801F080F9DD48008801F07CF93B
:101980006A1C91B2A21E90B201F0C0F9D84800883A
:1019900001F072F9D648008801F06EF9D448008849
:1019A00001F06AF9D248008801F066F9AA1C91B2E8
:1019B000621E90B201F0AAF9CD48008801F05CF9EE
:1019C000CB48008801F058F970BDF8B504460D46C3
:1019D0001646C74806802A1F91B2621E90B201F0D7
:1019E00095F9C348008801F047F9C148008801F023
:1019F00043F96A1E91B2221F90B201F087F9211FAC
:101A000088B2294601F082F96A1C91B2221F90B275
:101A100001F07CF96A1E91B2221D90B201F076F9B4
:101A2000211D88B2294601F071F96A1C91B2221D6C
:101A300090B201F06BF92A1D91B2621E90B201F0D2
:101A400065F9AB48008801F017F9A948008801F052
:101A500013F9EF1CBBB2E71CBAB2EF1EB9B2E71E16
:101A6000B8B20096FFF708F9F8BD2DE9F041044639
:101A70000D4616461F464CF218609D4908802B46BD
:101A8000324629462046FFF730F93B462246294692
:101A90002046FFF72AF94FF6FF709549088005F1B7
:101AA000010C1FFA8CF3A6F1010C1FFA8CF205F160
:101AB000010C1FFA8CF104F1010C1FFA8CF0FFF7F6
:101AC00014F9A7F1010C1FFA8CF304F1010C1FFAB1
:101AD0008CF205F1010C1FFA8CF104F1010C1FFAD4
:101AE0008CF0FFF702F90020814908803B4632461E
:101AF00039462046FFF7F9F83B463246294630463C
:101B0000FFF7F3F848F2104079490880A7F1010C7B
:101B10001FFA8CF3A6F1010C1FFA8CF2A7F1010C4D
:101B20001FFA8CF104F1010C1FFA8CF0FFF7DDF8BD
:101B3000A7F1010C1FFA8CF3A6F1010C1FFA8CF22D
:101B400005F1010C1FFA8CF1A6F1010C1FFA8CF0C3
:101B5000FFF7CBF8BDE8F081F8B505460E46144610
:101B60001F46E2B23B4631462846FFF77EFF4CF265
:101B70001860A7F1020C1FFA8CF3A4F1020C1FFAF3
:101B80008CF206F1020C1FFA8CF105F1020C0090A8
:101B90001FFA8CF0FFF770F8F8BD2DE9F04104460C
:101BA0000D4616461F460020514908802B463246F6
:101BB00029462046FFF799F83B462246294620460B
:101BC000FFF793F848F2104049490880681C83B237
:101BD000701E82B2681C81B2601CFFF786F8781E06
:101BE00083B2681C81B2621C601CFFF77EF84CF265
:101BF00018603F490880781E83B2701E82B2781E3A
:101C000081B2601CFFF771F8A7F1010C1FFA8CF389
:101C1000A6F1010C1FFA8CF205F1010C1FFA8CF1F0
:101C2000A6F1010C1FFA8CF0FFF75FF84FF6FF707A
:101C30002F4908803B46324639462046FFF755F883
:101C40003B46324629463046FFF74FF8BDE8F08163
:101C5000F8B505460C4616461F4648F21040244982
:101C600008802346324621462846FFF73EF8601C8E
:101C700081B23B462A462846FFF737F800201C4928
:101C8000088004F1010C1FFA8CF3A6F1010C1FFA75
:101C90008CF204F1010C1FFA8CF105F1010C1FFA12
:101CA0008CF0FFF722F8A7F1010C1FFA8CF305F175
:101CB000010C1FFA8CF204F1020C1FFA8CF105F1F1
:101CC000010C1FFA8CF0FFF710F84FF6FF7008496F
:101CD00008803B46324639462846FFF706F83B4621
:101CE000324621463046FFF700F803E02800002086
:101CF000260000204CF21860FE490880A7F1010C74
:101D00001FFA8CF3A6F1010C1FFA8CF2A7F1010C5B
:101D10001FFA8CF105F1010C1FFA8CF0FEF7E5FFBC
:101D2000A7F1010C1FFA8CF3A6F1010C1FFA8CF23B
:101D300004F1010C1FFA8CF1A6F1010C1FFA8CF0D2
:101D4000FEF7D3FF4FF6FF70A7F1020C1FFA8CF3DA
:101D5000A6F1020C1FFA8CF204F1020C1FFA8CF1AE
:101D600005F1020C00901FFA8CF0FEF785FFF8BD1C
:101D70002DE9FE4305460C4616461F46DDF8288031
:101D80003B46324621462846FFF7E6FE40F2CF109A
:101D900004F1190C1FFA8CF3A6F1030C1FFA8CF254
:101DA00004F1030C1FFA8CF105F1030C00901FFAEB
:101DB0008CF0FEF761FFA7F1030C1FFA8CF3A6F17C
:101DC000030C1FFA8CF204F11D0C1FFA8CF105F1C3
:101DD000030C1FFA8CF0FFF73BFF4FF6FF70C5496D
:101DE000088040F2CF10C449088001201021A21DB4
:101DF000CDE90081029091B26A1D90B2BE4A13886B
:101E0000BC4A1288FFF72BFBBDE8FE832DE9F041A9
:101E100004460D4616461F46DDF8188048F210406D
:101E2000B44908802B46324629462046FEF75DFF1E
:101E30003B46324639462046FEF757FF3B46224690
:101E400029462046FEF751FF3B463246294630469A
:101E5000FEF74BFF4FF6FF70A649088005F1010C15
:101E60001FFA8CF3A6F1010C1FFA8CF205F1010C9C
:101E70001FFA8CF104F1010C1FFA8CF0FEF735FF0C
:101E8000781C83B281B2721C2046FEF72EFFA7F1A8
:101E9000010C1FFA8CF304F1010C1FFA8CF205F10E
:101EA000010C1FFA8CF104F1010C1FFA8CF0FEF703
:101EB0001CFF781C83B2721C2946701CFEF715FFAC
:101EC00000208C4908804CF218608B490880AA1FBA
:101ED00091B2621D90B24246FFF7F4FCBDE8F0817A
:101EE0002DE9F84F8549088800EBD071C1F347050B
:101EF0008249488800EBD071C1F347061427C7EB2D
:101F0000C7000A2190FBF1F0C4B24FF064097CA035
:101F1000FEF75CF90020009078484088143883B2BE
:101F20007648028814210020FEF7A6FE4FF6FF70C7
:101F300070490880002070490880704AB2F802A0F9
:101F40000AEBDA7207EB62020A3291B26B4A12882C
:101F5000A2F1600B0BEBDB72C2F34F006BA2FFF739
:101F6000B1FC4FF0000897E0F01B81B24FF6FF7212
:101F70002846FFF72AFD4846FFF79AFC321B91B22C
:101F800028194FF6FF72FFF720FD4846FFF790FC37
:101F9000F01B81B200222846FFF717FD4846FFF7E5
:101FA00087FCE8194FF6FF723146FFF70EFD4846F1
:101FB000FFF77EFC321B91B228190022FFF705FDC6
:101FC0004846FFF775FC311928194FF6FF72FFF7E5
:101FD000FCFC4846FFF76CFCE81900223146FFF78D
:101FE000F4FC4846FFF764FCF1194FF6FF722846EF
:101FF000FFF7EBFC4846FFF75BFC3119281900227C
:10200000FFF7E3FC4846FFF753FC31192A1B90B257
:102010004FF6FF72FFF7D9FC4846FFF749FCF1196C
:1020200000222846FFF7D1FC4846FFF741FCE91B98
:1020300088B24FF6FF723146FFF7C7FC4846FFF7FC
:1020400037FC31192A1B90B20022FFF7BEFC48462C
:10205000FFF72EFC321B91B22A1B90B24FF6FF7293
:10206000FFF7B3FC4846FFF723FCE91B88B20022C8
:102070003146FFF7AAFC4846FFF71AFC321B91B223
:102080002A1B90B20022FFF7A0FC4846FFF710FC85
:1020900008F1010000F0FF08B8F1020FFFF664AF8D
:1020A000BDE8F88F38B51F2000F063FE002466E01D
:1020B0004FF6E07064231A46002100900846FEF7B0
:1020C000DBFD4FF4784078231A4600210090084643
:1020D000FEF7D2FD4FF4FC608C231A4600210090DD
:1020E0000846FEF7C9FD4FF61F00A0231A4600213F
:1020F000009013E02600002028000020700000203F
:10210000475549204C6F6164696E67004C6F61648C
:10211000696E672E2E2E2E2E000000000846FEF758
:10212000ABFD48F23040B4231A4600210090084627
:10213000FEF7A2FD4FF60840C8231A460021009082
:102140000846FEF799FD48F21F00C8231A460021F1
:1021500000900846FEF790FD4AF25160C8231A46E7
:10216000002100900846FEF787FD1F20C8231A466D
:10217000002100900846FEF77FFD601CC4B20A2CC7
:1021800096DB1F2000F0F5FD38BD38B5FCA0FEF74A
:102190001DF800200090FE484088143883B2FC48A7
:1021A000028814210020FEF767FD4FF6FF70F94901
:1021B0000880D223142232211046FEF796FD3223E6
:1021C00014223C210A20FEF790FD322314223C21E8
:1021D0001E20FEF78AFDD223DC2219461420FEF7CA
:1021E00084FDD223DC22C8211846FEF77EFDD223CF
:1021F000DC2211461846FEF778FD4FF47840D123D3
:102200003722502100902320FEF736FD4FF6E07074
:10221000D1235F22822100904B20FEF72DFD1F204D
:10222000D12387223C2100907320FEF725FD4FF437
:10223000FC60D123AF225A2100909B20FEF71CFDA9
:102240003220FFF735FB51240CE0002023463722D3
:10225000502100902320FEF70FFD0A20FFF728FBF6
:10226000601C84B2D12CF0DBD0240DE04FF4784018
:10227000D1233722214600902320FEF7FDFC0A20BF
:10228000FFF716FB601E84B2642CEFDC81240DE0A6
:102290004FF6E07082235F22214600904B20FEF72C
:1022A000EBFC0A20FFF704FB601E84B2502CEFDC2D
:1022B00019240CE000202346872218210090732067
:1022C000FEF7DAFC0A20FFF7F3FA601C84B2A02CB8
:1022D000F0DB38BD2DE9FE434FF0010914241E2523
:1022E00096268227ACA0FDF771FF00200090A84839
:1022F0004088143883B2A648028814210020FEF7D3
:10230000BBFC3B46324629462046FFF725FC40F2FF
:10231000CF10A7F14B0C1FFA8CF3A6F1030C1FFA98
:102320008CF2E91C0090E01CFEF7A6FC691D04F18C
:1023300019009AA2FFF7C6FAA7F1050C1FFA8CF351
:10234000A6F14B0C1FFA8CF205F14601601DFFF758
:1023500003FCA7F1050C1FFA8CF3A6F1050C1FFA7C
:102360008CF205F1460104F14B00FFF7F5FB00206C
:10237000884908804CF218608B49088001201021A0
:102380008AA2CDE90021029005F14A0104F10E0074
:10239000854A13887F4A1288FFF761F801201021CF
:1023A00084A2CDE90021029005F14A0104F1540014
:1023B0007D4A1388774A1288FFF751F805F1230107
:1023C00004F150007DA2FFF77DFA04F11A0823E022
:1023D0004FF4784005F1440293B20F3A91B2621D76
:1023E000009090B24246FEF747FC2820FFF760FAC3
:1023F000102005F1230291B204F13E02009090B248
:1024000002234A46FEF74BFE09F1010000F0FF09E6
:1024100008F1010000F0FF08701F4045D8DCBDE85E
:10242000FE8370B504460D4600205A49088005F128
:102430000806B3B204F10E06B2B205F10806B1B255
:10244000A61DB0B2FEF751FC05F10906B3B204F1C6
:102450000D06B2B205F10906B1B2E61DB0B2FEF743
:1024600044FC05F10A06B3B204F10C06B2B205F160
:102470000A06B1B204F10806B0B2FEF736FC05F167
:102480000B0291B2721C90B200F040FC05F10B02FD
:1024900091B2B21C90B200F039FC05F10B0291B27E
:1024A000F21C90B200F032FC05F10C0291B2B21CA9
:1024B00090B200F02BFC70BD08B541A0FDF786FE80
:1024C00048F23040009032484088143883B2304897
:1024D000028814210020FEF7CFFB4923C8223221B5
:1024E0000846FFF7B5FB4723C6223421B320FFF788
:1024F00033FB3421B320FFF794FF4FF4FA70FFF75A
:10250000D7F94FF4FA70FFF7D3F94FF4FA70FFF7E9
:10251000CFF94723C6223421B320FFF73EFB4CF20C
:1025200018604323C22238210090B720FEF7A4FB95
:102530003521B420FFF775FF4FF4FA70FFF7B8F9B3
:102540004FF4FA70FFF7B4F94FF4FA70FFF7B0F9EF
:102550004723C6223421B320FFF787FA4CF21860D4
:102560004323C22238210090B720FEF785FB342197
:10257000B320FFF756FF0020064908808F2325E08F
:10258000475549204261725265706F7274000000B5
:1025900070000020260000204755492050726F67C8
:1025A000726573426172000028000020C8B7B6A8A7
:1025B00000000000C8A1CFFB0000000025000000C3
:1025C00047554920436F6D626F000000C8224A21C1
:1025D0003220FEF7E2FB4FF6FF708E23C7224B211D
:1025E00000903320FEF748FB40F2CF106123C72252
:1025F0004B2100903320FEF73FFB4FF6FF70FE4962
:10260000088040F2CF10FD490880FDA24F213520FF
:10261000FFF758F90020F84908804FF6FF70F74996
:102620000880FBA265213520FFF74CF9FCA27C2134
:102630003520FFF747F94FF4FA70FFF739F94FF4F7
:10264000FA70FFF735F94FF4FA70FFF731F94FF6EA
:10265000FF706123C7224B2100903320FEF70CFB53
:102660000020E54908804FF6FF70E4490880E4A2A5
:102670004F213520FFF726F940F2CF107823C722EB
:10268000622100903320FEF7F7FA4FF6FF70DA4927
:10269000088040F2CF10D9490880DDA2652135209D
:1026A000FFF710F94FF4FA70FFF702F94FF4FA70E0
:1026B000FFF7FEF84FF4FA70FFF7FAF84FF6FF70E5
:1026C0007823C722622100903320FEF7D5FA00203C
:1026D000C94908804FF6FF70C8490880CCA265211F
:1026E0003520FFF7EFF840F2CF108E23C722792173
:1026F00000903320FEF7C0FA4FF6FF70BE49088005
:1027000040F2CF10BD490880C5A27C213520FFF7DB
:10271000D9F84FF4FA70FFF7CBF84FF4FA70FFF7DF
:10272000C7F84FF4FA70FFF7C3F84FF4FA70FFF7E9
:10273000BFF84CF218608F23C8224A210090322043
:10274000FEF79AFA08BD2DE9F84302241E25B74882
:1027500000884000032190FBF1F086B2B348408826
:102760001E3887B28846B2A0FDF730FD48F23040EF
:102770000090AE484088143883B2AC4802881421D7
:102780000020FEF779FA00BFAFF2E0103B46324678
:10279000294600902046FFF7EBFA4FF4FA70FFF756
:1027A00087F84FF4FA70FFF783F804F10F0084B252
:1027B00005F10F0085B2A6F11E0086B2A7F11E003A
:1027C00087B2A8F10100C0B25FEA0008DCD1BDE821
:1027D000F8830EB599A0FDF7F9FC4FF6FF70009055
:1027E00092484088143883B290480288142100200F
:1027F000FEF742FA5A23AA223C211E20FFF728FAAC
:102800005A23E6223C21B420FFF7A6F900207A499A
:1028100008804CF2186079490880012010218AA2B2
:10282000CDE900210290754803887348028843214E
:10283000BB20FEF714FE1F206F4908804FF6FF7083
:102840006E49088082A226211E20FFF73BF837231D
:102850003E2219461E20FEF748FA7FA22621762046
:10286000FFF730F83723962219467620FEF73DFA17
:1028700000206149088079A226214620FFF722F82E
:102880004FF4FA70FFF714F84FF4FA70FFF710F8EE
:102890004FF4FA70FFF70CF8432211462320FFF79C
:1028A0001EF84FF4FA70FFF703F86F2243212B2034
:1028B000FFF715F84FF4FA70FEF7FAFF7222432182
:1028C0003320FFF70CF84FF4FA70FEF7F1FF742293
:1028D00043213A20FFF703F84FF4FA70FEF7E8FFC0
:1028E000652243214220FEF7FAFF4FF4FA70FEF70B
:1028F000DFFF782243214A20FEF7F1FF4FF4FA7000
:10290000FEF7D6FF2D2243215220FEF7E8FF4FF4B9
:10291000FA70FEF7CDFF4D2243215820FEF7DFFF6E
:102920004FF4FA70FEF7C4FF5A23E6223C21B4208C
:10293000FFF733F90020304908804CF218602F4926
:1029400008800120102140A2CDE9002102902B48EF
:102950000388294802884321BB20FEF780FD4FF4FD
:10296000FA70FEF7A5FF5A23E6223C21B420FFF7B8
:102970007CF80020204908804CF218601F4908802C
:102980000120102130A2CDE9002102901B480388CC
:10299000194802884321BB20FEF761FD4FF47840BF
:1029A000154908804FF6FF70144908802DA2642154
:1029B0000C20FEF787FF32A278210C20FEF782FF61
:1029C00037A28C210C20FEF77DFF3DA2A0210C2018
:1029D000FEF778FF41A2B4210C20FEF773FF47A257
:1029E000C8210C20FEF76EFF4FF4FA70FEF760FF6F
:1029F0004FF4FA7092E0000026000020280000202A
:102A000053544D2049435020427269646765000069
:102A100053544D2050502042726964676500000095
:102A20004E6F6E652049535000000000700000207A
:102A30004755492057696E646F7700004755492014
:102A4000427574746F6E0000CBD1CBF700000000AC
:102A50004E65777300000000506963004C61626549
:102A60006C0000005468652041524D20436F727421
:102A700065782D4D20697320612067726F75700035
:102A80006F662033322D62697420524953432041CE
:102A9000524D2070726F636573736F720000000097
:102AA000636F726573206C6963656E736564206221
:102AB000792041524D20486F6C64696E67732E0017
:102AC00054686520636F7265732061726520696E5A
:102AD00074656E64656420666F7220006D69637250
:102AE0006F636F6E74726F6C6C6572207573652C9A
:102AF000616E6420636F6E73697374006F66207417
:102B0000686520436F727465782D4D302F4D312FDD
:102B10004D322F4D332F4D342E000000FEF7C8FEEE
:102B20004FF4FA70FEF7C4FE4FF4FA70FEF7C0FEE1
:102B30004FF4FA70FEF7BCFE4FF4FA70FEF7B8FEE1
:102B40004FF4FA70FEF7B4FE4FF4FA70FEF7B0FEE1
:102B50004FF4FA70FEF7ACFE4FF4FA70FEF7A8FEE1
:102B60004FF4FA70FEF7A4FE4FF4FA70FEF7A0FEE1
:102B70000EBD000008B50121042001F0FFFF4FF455
:102B80002040ADF8000048208DF8030069462E482B
:102B900001F038FD0120ADF8000028208DF8030079
:102BA0006946294801F02EFD08BD10B501212748CE
:102BB00001F0F9FD2648007878B32648006840B156
:102BC00024480830006820B12248343800680128C1
:102BD00024D10A20FEF740FD00201D4908701D4841
:102BE000006828B901211C4801F0DDFD012010BD5D
:102BF00018480830006828B90121174801F0D3FDB2
:102C00000220F4E7134834380068012816D1012166
:102C1000114801F0C8FD0320E9E7FFE70D4800680F
:102C200001280BD10B4808300068012806D109485B
:102C30003438006810B901200549087001210648A0
:102C400001F0B1FD0020D2E700080140000430008F
:102C50002400002034012142000230004FF4807132
:102C6000FB4A516149005161FA4908608021516174
:102C700011618900116170474FF48071F44A11614C
:102C800049005161F3490860802151611161890057
:102C90001161704700B503461846FFF7EDFF00BD10
:102CA00010B504460B462046FFF7D8FF1846FFF73D
:102CB000E3FF10BD00B5E849087AFFF7CFFF00BD7C
:102CC00010B503460C46E449887AFFF7C7FF18128F
:102CD000FFF7D2FFD8B2FFF7CFFF0120FFF7CCFFFD
:102CE0003F20FFF7C9FFDC49087BFFF7B7FF201241
:102CF000FFF7C2FFE0B2FFF7BFFF0120FFF7BCFF05
:102D0000DF20FFF7B9FFFFF7D5FF10BD30B5044650
:102D10000D4629462046FFF7D3FFD0480088FFF72D
:102D2000ABFF30BD70B504460D461646CA49887AD9
:102D3000FFF794FF2012FFF79FFFE0B2FFF79CFF21
:102D40003012FFF799FFF0B2FFF796FFC249087BF8
:102D5000FFF784FF2812FFF78FFFE8B2FFF78CFF21
:102D60001812FFF789FFD8B2FFF786FFFFF7A2FF1F
:102D700070BD30B505460024B7484088401E83B278
:102D8000B5480088401E82B200210846FFF7CAFFFE
:102D900000BF03E02846FFF76FFF641CAE480088C1
:102DA000AD4949884843A042F4D830BD08B5012157
:102DB000192001F0E3FE0121A94801F0F4FC4FF4D1
:102DC000FC60ADF8000010208DF8030003208DF8A2
:102DD000020069469E4801F015FC4FF4F8619C48DA
:102DE00001F0BDFC4FF6FF70ADF800006946994850
:102DF0000C3801F007FC4FF6FF7196480C3801F0D3
:102E0000AEFC08BD10B52020914948616420FEF752
:102E100023FC20208E4908613220FEF71DFC10BDE6
:102E200000B52A208C4948812B2088812C200881DC
:102E3000012088714FF4F07008804FF4A070488032
:102E4000A8213620FFF72CFF00BD10B5FFF7AEFF1D
:102E5000FFF7D8FFF120FFF701FF3620FFF70CFF47
:102E60000420FFF709FF0020FFF706FF3C20FFF7D3
:102E700003FF0F20FFF700FF8F20FFF7FDFEF2207A
:102E8000FFF7ECFE1820FFF7F7FEA320FFF7F4FE94
:102E90001220FFF7F1FE0220FFF7EEFEB220FFF74F
:102EA000EBFE1220FFF7E8FEFF20FFF7E5FE102003
:102EB000FFF7E2FE0020FFF7DFFEF820FFF7CEFE6F
:102EC0002120FFF7D9FE0420FFF7D6FEF920FFF7F7
:102ED000C5FE0020FFF7D0FE0820FFF7CDFE36200C
:102EE000FFF7BCFE0820FFF7C7FEB420FFF7B6FED1
:102EF0000020FFF7C1FEB620FFF7B0FE0220FFF76B
:102F0000BBFE2220FFF7B8FEC120FFF7A7FE41203D
:102F1000FFF7B2FEC520FFF7A1FE0020FFF7ACFED1
:102F20001820FFF7A9FEE020FFF798FE0F20FFF71B
:102F3000A3FE1F20FFF7A0FE1C20FFF79DFE0C2024
:102F4000FFF79AFE0F20FFF797FE0820FFF794FE89
:102F50004820FFF791FE9820FFF78EFE3720FFF7FD
:102F60008BFE0A20FFF788FE1320FFF785FE042062
:102F7000FFF782FE1120FFF77FFE0D20FFF77CFE9A
:102F80000020FFF779FEE120FFF768FE0F20FFF732
:102F900073FE3220FFF770FE2E20FFF76DFE0B2030
:102FA000FFF76AFE0D20FFF767FE0520FFF764FEBE
:102FB0004720FFF761FE7520FFF75EFE3720FFF721
:102FC0005BFE0620FFF758FE1020FFF755FE03209A
:102FD000FFF752FE2420FFF74FFE2020FFF74CFEA4
:102FE0000020FFF749FE3A20FFF738FE5520FFF793
:102FF00043FE1120FFF732FE3620FFF72FFEC820D8
:10300000FFF73AFE7820FEF727FB2920FFF726FE80
:10301000FFF706FF0120134908604FF6FF70FFF726
:10302000A8FE10BD10B50446B4B3012C1CD0022C70
:1030300026D0032C3DD14FF4F070074908804FF49F
:10304000A0704880A8213620FFF72AFE32E0000059
:10305000001001400C0C01407000002026000020F0
:1030600000023000A80122424FF4F070124908809B
:103070004FF4A070488068213620FFF711FE19E058
:103080004FF4A0700C4908804FF4F0704880C821BC
:103090003620FFF705FE0DE0FFE74FF4A07006496C
:1030A00008804FF4F070488008213620FFF7F8FDC3
:1030B00000E000BF00BF10BD7000002008B5012176
:1030C000102001F05BFD4FF4C050ADF8000010205F
:1030D0008DF8030003208DF8020069468A4801F04C
:1030E00091FA0120894908608949C1F8AC0108BDFD
:1030F00010B58548406820F4704083494860084610
:10310000406840F44050486001208049091F086031
:103110007F49C1F8B0010420FEF7BAFA00207B49CC
:10312000091F08600420FEF7B3FA00207849C1F8AF
:10313000B00110BD10B57448406820F47040724969
:1031400048600846406840F44050486000206F499D
:1031500008606F49C1F8AC010420FEF799FA01201C
:103160006A4908606A49C1F8AC010420FEF790FA88
:1031700010BD10B500246448406820F470406249D6
:1031800048600846406840F40040486001205F49BC
:10319000091F0860FEF77CFA01205D49C1F8B00103
:1031A000FEF776FA07E0601CC4B2FA2C03DDFFF7E5
:1031B000C1FF012010BD5548843800680028F2D1B5
:1031C0005249086000BFF5E710B500204F4908607C
:1031D0004D48406820F470404B49486008464068BC
:1031E00040F44050486000204949C1F8AC01022039
:1031F000FEF74EFA0120454908600220FEF748FA22
:1032000000204349C1F8B00110BD10B500203F496E
:1032100008603D48406820F470403B4948600846DB
:10322000406840F44050486001203949C1F8AC0181
:103230000220FEF72DFA0120344908600220FEF733
:1032400027FA00203249C1F8B00110BD70B504461C
:103250002D48406820F470402B494860084640687B
:1032600040F440504860002028490860002517E0DD
:10327000E0092649091F08606006040E0220FEF7D7
:1032800007FA01202249C1F8B0010220FEF700FA36
:1032900000201E4908600220FEF7FAF9681CC5B23A
:1032A000082DE5DB70BD70B5054600241648406862
:1032B00020F47040144948600846406840F40040DB
:1032C0004860002616E00020104908600220FEF742
:1032D000DFF901200E49C1F8B0016006040E0B4869
:1032E0008438006808B1601CC4B20120FEF7D0F930
:1032F000701CC6B2082EE6DB15B9FFF786FF01E0A9
:10330000FFF762FF204670BD00100140B00122426D
:103310000000224210B5FFF7D1FE10BD70B5044683
:103320000026FFF7E5FE2546E11704EB11610912BF
:10333000A02202EB4101C8B2FFF788FFFFF719FF97
:10334000E11704EB11610912A4EB0121C8B2FFF7E8
:103350007DFFFFF70EFFFFF7CBFEA120FFF776FF03
:10336000FFF707FF0020FFF79EFF0646FFF7E2FE8C
:10337000304670BD70B504460E46FFF7B9FE2546CF
:10338000E11704EB11610912A02202EB4101C8B25E
:10339000FFF75CFFFFF7EDFEE11704EB1161091287
:1033A000A4EB0121C8B2FFF751FFFFF7E2FE304660
:1033B000FFF74CFFFFF7DDFEFFF7BCFE0A20FEF72C
:1033C0004BF970BD2DE9F04105460E461746002425
:1033D00009E0E20026FA02F2D1B22A1990B2FFF710
:1033E000C9FF601CC4B2BC42F3DBBDE8F0812DE92B
:1033F000F04107460C460026002509E0360239193F
:10340000491B491E88B2FFF789FF0644681CC5B2F4
:10341000A542F3DB3046BDE8F08110B5FF20FFF791
:103420007DFF0446552C01D1002010BD5521FF2001
:10343000FFF7A0FFFF20FFF771FF0446552C01D1D5
:103440000020F2E70120F0E770B506460C4615466D
:1034500008E03046721C96B2FFF760FF04F8010BDB
:10346000681E85B2002DF4D170BD70B505460C46BE
:10347000164606E021782846FFF77CFF681C85B2D7
:10348000641C3000A6F101018EB2F3D170BD0000C2
:10349000002100BF15E000F080021AB10122FE4BAE
:1034A0001A6002E00022FC4B1A604206100E002255
:1034B000F94B0C3B1A600122F84BC3F880214A1CDF
:1034C000D1B20829E7DB704770B506460025002415
:1034D0000020F1490C390860F049C1F88C01EE492F
:1034E000283108603046FFF7D3FF0620FEF7D0F8FA
:1034F0000020EA49C1F880010120FEF7C9F8012047
:10350000E5490C3908600020E449C1F8800100BF9A
:1035100013E04FF6FF7000EA44040020DE490C3946
:1035200008600120DD49C1F88001DB48843800686B
:1035300008B1601C84B2681CC5B2102DE9DB2411EF
:103540000120D54928310860204670BD2DE9FE4391
:1035500080460027002406E04046FFF7B5FF2DF81F
:103560001400601C84B2052CF6DB002416E0601CFD
:1035700085B20FE03DF814003DF81510884207DDD4
:103580003DF814603DF815002DF814002DF8156075
:10359000681C85B2052DEDDB601C84B2042CE6DBD3
:1035A0000027012405E03DF81400384487B2601C70
:1035B00084B2042CF7DB032097FBF0F086B2304690
:1035C000BDE8FE832DE9F04104460D46B44800787D
:1035D000FFF7BCFF0646B3480078FFF7B7FF074682
:1035E00026802F800120BDE8F0817FB504460D467E
:1035F00002A903A8FFF7E6FF064616B9002004B0AB
:1036000070BD694601A8FFF7DDFF06460EB9002030
:10361000F5E7BDF80400BDF80C10884206DCBDF8E3
:103620000C10BDF80400323081420CDBBDF80C00F8
:10363000BDF80410884236DCBDF80410BDF80C005B
:10364000323081422FDABDF80000BDF80810884200
:1036500006DCBDF80810BDF80000323081420CDBFA
:10366000BDF80800BDF8001088421CDCBDF8001051
:10367000BDF808003230814215DABDF80C10BDF8F3
:103680000420881800EBD071C1F34F012180BDF8F0
:103690000810BDF80020881800EBD071C1F34F016D
:1036A00029800120ABE70020A9E7F8B504460D46C4
:1036B00016467D48068004F10D018AB2193988B298
:1036C0002B462946FDF711FB05F10D0083B2193891
:1036D00081B222462046FDF708FB6A1C91B2621CAB
:1036E00090B2FFF713FB6A1C91B2621E90B2FFF713
:1036F0000DFB6A1E91B2621C90B2FFF707FB6A1EB7
:1037000091B2621E90B2FFF701FB002006230090E9
:103710006548028829462046FDF7B0FBF8BD70B524
:1037200004460D4616466048068029462046FFF7A7
:10373000EDFA611C88B22946FFF7E8FA681C81B2ED
:103740002046FFF7E3FA6A1C91B2621C90B2FFF7C1
:10375000DDFA70BD2DE9F04104464F488838006815
:10376000002853D124B15149881EFFF73EFF3CE0A9
:103770004E49881EFFF739FFB8B34C491239B1F9E9
:10378000200001F073FE074648491239088A01F00B
:1037900085FE8046454812388169404601F092FE18
:1037A0000646394601F002FD054601F03FFE3F495D
:1037B00012390882B1F9220001F058FE07463B4950
:1037C0001239488A01F06AFE804638481238C169C9
:1037D000404601F077FE0646394601F0E7FC054613
:1037E00001F024FE31491239488230481238007DF8
:1037F00000F0800010BBC0202C4912390875084623
:10380000008A88810846408AC88117E02748123814
:10381000007D00F0800040B124481238007D20F087
:10382000800022491239087508E000201F4912392A
:103830008881C8814FF6FF70088248821B48123881
:10384000007D00F08000BDE8F08170B517491239A5
:103850008869174901F036FE054601F0CBFD0446A4
:10386000042221462820FFF7ADFD10491239C8690E
:103870000F4901F027FE054601F0BCFD0446042275
:1038800021462C20FFF79EFD08481238B0F9201081
:10389000022230200EE000008C0122420000224271
:1038A0005400002055000020260000203E0000208B
:1038B00020BCBE4CFFF786FDF748B0F9221002226B
:1038C0003220FFF77FFDF44890F824103420FFF7F2
:1038D00051FD0A2421463520FFF74CFD70BD70B51F
:1038E0003520FFF71BFD04460A2C42D10421282075
:1038F000FFF77DFD0446204601F0B8FD0546E74987
:1039000001F0B6FCE449886104212C20FFF76FFD2B
:103910000446204601F0AAFD0546E04901F0A8FC56
:10392000DD49C86102213020FFF761FD00B2DA49AC
:10393000088402213220FFF75AFD00B2D64948849C
:103940003420FFF7EBFCD44981F82400084690F8B6
:10395000240030B19020D2490870D020D14908709D
:1039600005E0D020CE4908709020CE490870012093
:1039700070BD0020FCE72DE9F84F04460D461746C0
:103980001E46DDE90CABDDE90A894FF47840C649F3
:1039900008800120C5A31022A02100902820FDF757
:1039A00044FB0120C2A31022A02100907820FDF743
:1039B0003CFB0120BFA31022B42100902820FDF77A
:1039C00034FB0120BCA31022B42100907820FDF725
:1039D0002CFB0120B9A31022C82100902820FDF75C
:1039E00024FB0120B6A31022C82100907820FDF707
:1039F0001CFB0120B3A31022DC2100902820FDF73E
:103A000014FB0120B0A31022DC2100907820FDF7E8
:103A10000CFB0120ADA31022F02100902820FDF71F
:103A200004FB102004232246A02100904020FDF733
:103A300036FB102004232A46A02100909020FDF799
:103A40002EFB102004233A46B42100904020FDF7BD
:103A500026FB102004233246B42100909020FDF76D
:103A60001EFB102004234246C82100904020FDF791
:103A700016FB102004234A46C82100909020FDF731
:103A80000EFB102004235246DC2100904020FDF75D
:103A900006FB102004235A46DC2100909020FDF7FD
:103AA000FEFA102000908B480188032360200E9AB4
:103AB000FDF7F5FABDE8F88F00B595B0002010903D
:103AC0000A9010901F20784908804FF6FF708249B5
:103AD0000880FFF74EF94FF47840734908804FF69D
:103AE000FF70FFF746F900206F49088001207BA393
:103AF0001022282100900A20FDF797FA01207FA3C9
:103B00001022382100900A20FDF78FFA012084A3AB
:103B10001022482100900A20FDF787FA012088A38F
:103B20001022582100900A20FDF77FFA4FF47842C6
:103B300014210846FFF7B9FD002057490875886130
:103B400053E2554840680990012009998847524836
:103B5000007D00F0C00040287AD100200A904E4835
:103B6000007D20F040004C4908750846018A11AAE2
:103B7000109822F820104848418A109802EB8000E3
:103B800041801098401CC0B210901098012806D0B7
:103B9000022815D0032829D0042810D141E04FF67F
:103BA000FF7214210846FFF780FD4A480088143848
:103BB00080B24FF4784214210990FFF776FDC7E3F5
:103BC00044480088143880B24FF6FF7214210990DF
:103BD000FFF76BFD3F484088143880B24FF47842BD
:103BE000014609901420FFF760FDB1E33948408891
:103BF000143880B24FF6FF72014609901420FFF787
:103C000054FD34484088143880B209903148008807
:103C1000143880B24FF4784208900999FFF745FDB7
:103C200096E3BDF84400BDF84810401A09900028FA
:103C300001DB099801E0099840420D90BDF846105B
:103C400011A8C088081A0990002802DB099802E030
:103C50007FE3099840420C900D9840430D900C98DA
:103C600040430C90DDE90C100844059001F0B3F8D6
:103C7000CDE9060101F04FF8CDE9080101F07EF829
:103C800080B20F90BDF84C00BDF85010401A09905A
:103C9000002863DB099863E02C00002020BCBE4CA8
:103CA00054000020550000202600002078313A0002
:103CB00079313A0078323A0079323A0078333A0072
:103CC00079333A0078343A0079343A0066616320F7
:103CD00069733A007000002028000020506C656174
:103CE00073652075736520746865207374796C75CD
:103CF0007320636C69636B207468650063726F7313
:103D000073206F6E207468652073637265656E2E14
:103D10005468652063726F73732077696C6C000060
:103D2000616C77617973206D6F766520756E74694B
:103D30006C207468652073637265656E20000000F6
:103D400061646A7573746D656E7420697320636F46
:103D50006D706C657465642E000000000998404227
:103D60000D9011A84189C089081A0990002801DB2B
:103D7000099801E0099840420C900D9840430D903D
:103D80000C9840430C90DDE90C100844059001F0BC
:103D900022F8CDE9060100F0BEFFCDE9080100F0F0
:103DA000EDFF80B20E900E9801F078FB09900F980D
:103DB00001F074FB0890099901F05AFA0B900B98E6
:103DC00001F0C8F94FF06632FE4BCDE9080101F071
:103DD00015F80DD30B9801F0BDF9FB4AFB4BCDE96B
:103DE000080101F09BF803D30F9808B10E98E8BBC7
:103DF00000201090F6484088143880B20990F448AA
:103E00000088143880B24FF6FF7208900999FFF7C6
:103E10004CFC4FF4784214210846FFF746FCED496C
:103E20000B9801F04FFB089001F000FB80B211A944
:103E30000990C989BDF8502011AB5B89CDE90132E9
:103E4000CDE90310BDF84C00009011A8C08808907F
:103E5000BDF848000790BDF846000690BDF8440044
:103E6000059006A90EC9FFF786FD81E2FFE7BDF8C0
:103E70004400BDF84C10401A0990002801DB099855
:103E800001E0099840420D90BDF8461011A8408904
:103E9000081A0990002801DB099801E009984042BE
:103EA0000C900D9840430D900C9840430C90DDE928
:103EB0000C100844059000F08EFFCDE9060100F0DB
:103EC0002AFFCDE9080100F059FF80B20F90BDF83C
:103ED0004800BDF85010401A0990002801DB0998ED
:103EE00001E0099840420D9011A8C188C089081AC4
:103EF0000990002801DB099801E0099840420C90E4
:103F00000D9840430D900C9840430C90DDE90C1047
:103F10000844059000F05FFFCDE9060100F0FBFECC
:103F2000CDE9080100F02AFF80B20E900E9801F052
:103F3000B5FA09900F9801F0B1FA0890099901F0CB
:103F400097F90B900B9801F005F94FF066329D4BF5
:103F5000CDE9080100F052FF09D30B9801F0FAF8FF
:103F6000994A9A4BCDE9080100F0D8FF3ED20020D3
:103F7000109097484088143880B20990944800887F
:103F8000143880B24FF6FF7208900999FFF78DFB45
:103F90004FF4784214210846FFF787FB8D490B98B0
:103FA00001F090FA089001F041FA80B201460990C0
:103FB00011A8C289BDF8500011AB5B89CDE9013071
:103FC000CDE90321BDF84C00009011A8C0880890ED
:103FD000BDF848000790BDF846000690BDF84400C3
:103FE000059006A90EC9FFF7C6FCC1E1BDF848005F
:103FF000BDF84C10401A0990002801DB099801E037
:10400000099840420D9011A8C1884089081A09906A
:10401000002801DB099801E0099840420C900D98B6
:1040200040430D900C9840430C90DDE90C1008447F
:10403000059000F0D0FECDE9060100F06CFECDE960
:10404000080100F09BFE80B20F90BDF84400BDF85F
:104050005010401A0990002801DB099801E00998E6
:1040600040420D90BDF8461011A8C089081A099069
:10407000002801DB099801E0099840420C900D9856
:1040800040430D900C9840430C90DDE90C1008441F
:10409000059000F0A0FECDE9060100F03CFECDE960
:1040A000080100F06BFE80B20E900E9801F0F6F958
:1040B00009900F9801F0F2F90890099901F0D8F8E9
:1040C0000B900B9801F046F84FF066323D4BCDE96E
:1040D000080100F093FE09D30B9801F03BF83A4A2F
:1040E0003A4BCDE9080100F019FF3ED200201090B4
:1040F00037484088143880B2099035480088143811
:1041000080B24FF6FF7208900999FFF7CEFA4FF48C
:10411000784214210846FFF7C8FA2E490B9801F09F
:10412000D1F9089001F082F980B20246099011A8F5
:10413000C089BDF8501011AB5B89CDE90131CDE9E3
:104140000302BDF84C00009011A8C0880890BDF88B
:1041500048000790BDF846000690BDF84400059061
:1041600006A90EC9FFF707FC02E1BDF84800BDF83B
:104170004410401A079001F079F90990144800881A
:104180002838079001F072F90890099901F070F849
:1041900011498861BDF84800BDF8441008440490F6
:1041A00001F064F905900C48806901460490059877
:1041B00001F088F9079006480088059001F06EF933
:1041C00006900BE06666EE3FCDCCCCCCCCCCF03F7D
:1041D000700000200000C8422C000020079901F068
:1041E0003DFA4FF08041089001F042F8099001F04B
:1041F00001F900B27B49088411A84089BDF8461036
:10420000401A079001F032F9099077484088283821
:10421000079001F02BF90890099901F029F87149EC
:10422000C86111A84089BDF846100844049001F007
:104230001DF905906B48C06901460490059801F08E
:1042400041F9079068484088059001F027F90690E9
:10425000079901F003FA4FF08041089001F008F847
:10426000099001F0C7F800B25E49488408468069A9
:10427000079001F0BFF80890002801DB089801E0E2
:104280000898404202280DDC5648C069079001F0AA
:10429000B1F80990002801DB099801E00998404233
:1042A00002283ADD002010904F484088143880B230
:1042B00009904D480088143880B24FF6FF7208907C
:1042C0000999FFF7F2F94FF4784214210846FFF7F5
:1042D000ECF9012045A310221A2100902820FCF7B8
:1042E000A4FE404890F8240008B9012000E0002016
:1042F0003C4981F82400084690F8240030B1902011
:104300003F490870D0203F49087005E0D0203C4963
:10431000087090203B4908702AE01F203A49088025
:104320004FF6FF70FEF725FD012038A310226E2105
:1043300000902320FCF779FE4FF47A70FDF78CF99A
:10434000FFF783FA4FF6FF70FEF713FD15B000BDBF
:1043500000BF0A20FDF780F90A98401C80B20A903D
:104360000A98B0F57A7F02DDFFF7B9FA02E000BFE4
:10437000FFF7E7BB00BF00BFE8E708B50121112048
:1043800000F0FCFB42F20900ADF8000010208DF8AF
:10439000030003208DF802006946224800F032F93C
:1043A0000620ADF8000048208DF8030069461D483E
:1043B00000F028F90B491231881EFFF703F9FEF7C8
:1043C000A9FFFFF78CFA08B1002008BD4FF6FF7077
:1043D000FEF7CFFCFFF770FBFFF737FAFFF77FFA26
:1043E0000120F2E72C000020700000205450204EE5
:1043F00065656420726561646A75737421000000EC
:10440000540000205500002026000020546F7563E2
:10441000682053637265656E2041646A7573742009
:104420004F4B2100001001400948804709480047D0
:10443000FEE7FEE7FEE7FEE7FEE7FEE7FEE7FEE754
:10444000FEE7FEE704480549054A064B70470000B1
:10445000AF170008ED000008E0000020E006002093
:10446000E0020020E002002031490143314A11609E
:10447000704770B5002100230F22C47804B32D4C7F
:10448000246804F4E064C4F5E064210AC1F1040383
:10449000CA40447804FA03F18478144021430901A6
:1044A000254C0678A155047804F01F050124AC4082
:1044B00005786D11AD0005F1E025C5F8004109E072
:1044C000047804F01F050124AC401C4D06787611D9
:1044D00045F8264070BD1A4A0A400243154B1B1F7F
:1044E0001A60704739B1134A121D12680243114B0A
:1044F0001B1D1A6006E00F4A121D126882430D4B05
:104500001B1D1A607047042808D14FF0E02109698B
:1045100041F004014FF0E022116107E04FF0E0218B
:10452000096921F004014FF0E02211617047000099
:104530000000FA050CED00E000E400E080E100E09E
:1045400080FFFF1F10B50446CC48844208D10121EA
:10455000042000F02DFB0021042000F029FB46E0A0
:10456000C748844208D10121082000F021FB002126
:10457000082000F01DFB3AE0C248844208D1012126
:10458000102000F015FB0021102000F011FB2EE0A0
:10459000BD48844208D10121202000F009FB002100
:1045A000202000F005FB22E0B848844208D1012118
:1045B000402000F0FDFA0021402000F0F9FA16E05A
:1045C000B348844208D10121802000F0F1FA002193
:1045D000802000F0EDFA0AE0AE48844207D10121C4
:1045E000801500F0E5FA0021A01500F0E1FA10BDF9
:1045F00010B50121084600F0DBFA0021012000F08F
:10460000D7FA10BD2DE9F041024600250026002012
:1046100000230024002791F803C00CF00F0591F847
:1046200003C00CF0100CBCF1000F03D091F802C0D5
:104630004CEA050591F800C0BCF1000F31D01468B8
:1046400000202BE04FF0010C0CFA00F3B1F800C091
:104650000CEA03069E4220D183004FF00F0C0CFAA7
:1046600003F7BC4305FA03FC4CEA040491F803C0C9
:10467000BCF1280F06D14FF0010C0CFA00FCC2F877
:1046800014C00AE091F803C0BCF1480F05D14FF007
:10469000010C0CFA00FCC2F810C0401C0828D1D351
:1046A0001460B1F800C0BCF1FF0F34DD5468002085
:1046B0002EE000F1080C4FF0010808FA0CF3B1F8F5
:1046C00000C00CEA03069E4221D183004FF00F0C7C
:1046D0000CFA03F7BC4305FA03FC4CEA040491F816
:1046E00003C0BCF1280F05D100F1080C08FA0CF842
:1046F000C2F8148091F803C0BCF1480F07D100F153
:10470000080C4FF0010808FA0CF8C2F81080401CA1
:104710000828CED35460BDE8F0814FF6FF710180C8
:10472000022181700421C170704702460020936805
:104730000B400BB1012000E0002070470146886863
:1047400080B2704702460020D3680B400BB10120B5
:1047500000E0002070470146C86880B270470161E0
:104760007047416170470AB1016100E041617047E3
:10477000C16070474FF480320A4382618161826177
:1047800082698269704702460020434B18684FF6E1
:104790008073184040EA021008433F4B186070478E
:1047A0003E49C8617047F0B50A4600230024002145
:1047B000002500F00046B6F1004F02D1364EF169F7
:1047C00001E0354E7168C0F3034583B200F4401632
:1047D000B6F5401F08D121F070612F4E766826F0A3
:1047E00070662D4F7E6012E000F48016B6F5801FD3
:1047F00006D1032606FA05F4A14341F0706106E0F4
:10480000460D360103FA06F6B14341F0706122B15C
:10481000460D360103FA06F6314300F00046B6F1C4
:10482000004F02D11C4EF16101E01B4E7160F0BDE2
:1048300030B500228B071C0F0F2303FA04F2164B2E
:1048400008338C1053F824309343134C08348D10E4
:1048500044F8253023468C1053F824308C07240F5D
:1048600000FA04F423430C4C08348D1044F825302E
:1048700030BD0A49DC310860704700000008014083
:10488000000C0140001001400014014000180140DC
:10489000001C0140002001400000014000002042B7
:1048A000DF48006840F00100DD49086008464068C4
:1048B000DC490840DA49486008460068DA4908409F
:1048C000D74908600846006820F480200860084640
:1048D000406820F4FE0048604FF41F008860704775
:1048E000CF49096821F48031CD4A11601146096829
:1048F00021F480211160B0F5803F03D0B0F5802F06
:104900000ED106E0C649096841F48031C44A1160FD
:1049100007E0C349096841F4A021C14A116000E0E1
:1049200000BF00BF704710B50146002200230020E1
:104930004A11012A02D1BA4C236806E0022A02D1A8
:10494000B74C236A01E0B64C636A01F01F020124F0
:1049500094401C400CB1012000E0002010BD38B58F
:10496000002000900024002500BF3120FFF7DBFF6E
:1049700005460098401C00900098B0F5A06F01D04B
:10498000002DF2D03120FFF7CEFF08B1012400E066
:104990000024204638BD01460020A14A106820F0BE
:1049A000F80040EAC10010607047A04908607047F5
:1049B000024600209A4B586820F47C1042EA01031A
:1049C0001843974B586070479849086670470146EE
:1049D0000020934A506820F003000843506070475D
:1049E0008F48406800F00C007047014600208C4A58
:1049F000506820F0F00008435060704701460020E6
:104A0000874A506820F4E0600843506070470146D0
:104A10000020834A506820F4605040EAC100506092
:104A2000704729B17E4A527A02437D4B5A7204E0A4
:104A30007B4A527A82437A4B5A7270477B49D8310B
:104A40000860704701460020754A506820F44040D5
:104A50000843506070470021714A20321170704A3B
:104A600082F82010012802D004280AD104E0012194
:104A70006B4A2032117005E00521694A203211701D
:104A800000E000BF00BF7047694908607047644993
:104A9000096A0143624A11627047654944390860F6
:104AA000704730B500210022002400235C4D6D6862
:104AB00005F00C0121B1042905D0082923D105E016
:104AC0005C4D056022E05B4D05601FE0544D6D6854
:104AD00005F47012524D6D6805F48034022505EB23
:104AE00092421CB9544D554305600BE04C4D6D6826
:104AF00005F400351DB1504D5543056002E04D4DA4
:104B00005543056002E04B4D056000BF00BF444DBA
:104B10006D6805F0F0010909484D6B5C0568DD40E2
:104B200045603F4D6D6805F4E061090A434D6B5CDB
:104B30004568DD4085603A4D6D6805F46051C90AED
:104B40003E4D6B5C4568DD40C560354D6D6805F4D4
:104B50004041890B3A4D6B5CC568B5FBF3F50561C7
:104B600030BD29B12E4A526902432D4B5A6104E0EF
:104B70002B4A526982432A4B5A61704729B1284A0D
:104B800092690243264B9A6104E0254A9269824366
:104B9000234B9A61704729B1214AD2690243204BC5
:104BA000DA6104E01E4AD26982431D4BDA61704724
:104BB00029B11B4AD2680243194BDA6004E0184A53
:104BC000D2688243164BDA60704729B1144A1269E1
:104BD0000243134B1A6104E0114A12698243104BDD
:104BE0001A61704712494039086070470F49C8641C
:104BF00070470B49C87170470948406A40F080709F
:104C000007494862704701460020054A92680A40F9
:104C10000AB1012000E00020704701498872704706
:104C2000001002400000FFF8FFFFF6FE00004242C5
:104C30008004424200127A0000093D005C0000201E
:104C40006C00002010B5431C02E010F8011B71B18C
:104C50008107FAD14FF0013202C88C1A8C4314EA52
:104C6000C211F9D0C01A0A0603D0C01E10BDC01A66
:104C700010BD0A0401D0801E10BD0902FCD0401EE8
:104C800010BD70477047704710B500F009F8006814
:104C900010BD10B5044600F003F8046010BD00001C
:104CA00000487047800000200048704780000020C6
:104CB0007546FFF7F9FFAE4605006946534620F0FA
:104CC0000700854618B020B5FFF7BCFBBDE82040C3
:104CD0004FF000064FF000074FF000084FF0000BB8
:104CE00021F00701AC46ACE8C009ACE8C009ACE86B
:104CF000C009ACE8C0098D4670470446AFF3008098
:104D00002046FBF73AFA000001491820ABBEFEE747
:104D10002600020070472DE9F04106460F4600F0DC
:104D200033F904000D4618BF0120284320F000404D
:104D3000C0F17F6000F1E040C00F0ED0301C18BF02
:104D40000120384320F00040C0F17F6000F1E040D6
:104D5000C00F04BF0120FFF79CFF20462946BDE895
:104D6000F081491058BFC1F140415B1058BFC3F1F9
:104D700040438B42EFF30080704700004FEA11532D
:104D8000A3F58063D3F11E03A8BFD3F1200C08DB89
:104D90004FF0004242EAC12252EA505232FA03F086
:104DA000704709420BD4102BC4BF0020704703F595
:104DB000787CBCF1FF3F05D04FF0FF3070474FF0DB
:104DC0000000704770B500F055F800BF499224808C
:104DD00000207047F0E7B0FA80F310FA03F10AD030
:104DE000C3F11D0303F580634FEA41504FEA0352BC
:104DF00002EBD12170474FF00000704751EA030CDD
:104E000017D41CF5801F58BFBCF5801F00F1068029
:104E1000994218BF704708BF9042704707D711F5F5
:104E2000801F58BF13F5801F19D4994270478942DB
:104E300070471CF5801F08D5BCF5801FF7D58B4245
:104E400018BF704708BF824270474FF4001C1CEB2C
:104E5000410F38BF1CEB430F01D28B42704770B536
:104E600000F008F8922449004FF000514FF08053B1
:104E7000FFF777BF0EF1020E2EF0030E5EF8046B03
:104E8000364205D4012A43EB030515F5001F12D85D
:104E9000012841EB010C1CF5001F0CD80ED14FEA84
:104EA000D17C15F5001F0CEB4C0C0CF1020C08BF6B
:104EB0004CEBD37C04E04FF0080C01E04FEAD37CCC
:104EC0000CEB4C0526FA05F606F00706B6F1040CC5
:104ED00006D20EEB860CBDE870404CF0010C60472A
:104EE000DFE80CF0090B02024FF000414FF0000028
:104EF000A1F5002170BD19461046012851EB0104AF
:104F000018BFD4F5001484BF002001F0004170BD2B
:104F10000808A0F500114FEA3101704753EA010C6F
:104F200017D41CF5801F58BFBCF5801F00F1068008
:104F30008B4218BF704708BF8242704707D713F5EE
:104F4000801F58BF11F5801F19D48B4270479B42B8
:104F500070471CF5801F08D5BCF5801FF7D5994216
:104F600018BF704708BF904270474FF4001C1CEBFD
:104F7000430F38BF1CEB410F01D2994270470FB469
:104F80000CBC03BCFFF76BBF2DE9F04101F5801CA1
:104F9000BCF5001FC0F2C3804FEA115C21EA0C513E
:104FA0000CF1FD0C41F480115FEA5C0C0CF5C07C47
:104FB00001D3400049413DA4890241EA9051870252
:104FC0008E0E0A0CA45D04FB04F602FB06F6C6F185
:104FD0004046A4FB0662F60D46EA422606FB06F4AE
:104FE000A4FB01235242C3F1404338BF5B1EA6FB22
:104FF00002420024E6FB0324D20B42EA4446A6FB0D
:105000000623A1FB02E2A3FB07E4A4184FF0000271
:1050100052F10002E3FB01426442C2F1404E38BF4C
:10502000AEF1010EA6FB04234FF00002E6FB0E32A8
:10503000A2FB03464FF00004B61954F10004E2FB52
:105040000264A1FB06E6A4FB07E816EB08064FF096
:10505000000858F10008E4FB01687642C8F14058A6
:1050600038BFA8F10108A2FB06E4A3FB08E52D194F
:105070004FF0000454F10004E2FB0854A1FB05E6E4
:10508000A7FB04E818EB06084FF0000656F10006EF
:10509000E1FB048618F1200556F10006A809A8F1E5
:1050A0001B08B10908F03F08B8F10A0F40EA866012
:1050B0001CD901EB0C51BDE8F08100BFFCF5EEE816
:1050C000E2DDD8D3CFCBC7C3C0BDB9B6B4B1AEACA7
:1050D000A9A7A5A3A19F9D9B9A9896959392908F1F
:1050E0008D8C8B898887868584838281A0FB00686C
:1050F00000FB01F208EB4208B8EB872807D534180B
:1051000058EB0104D5D5401C51F10001D1E7341A08
:1051100078EB0104CDD4401E71F10001C9E75FEACC
:105120004C0C5FEA9C5C0DD105D34FF0000001F000
:105130000041BDE8F081BDE8F04170B5FFF79AFE8F
:105140006DDBFFBEBDE8F0414FF000000049704745
:105150000000F87F43004FEAD30C4FEA3C0C434079
:105160001FBF40070CF1605113F0FE4F70471CF059
:10517000006F03D100200CF0004170470CF0004399
:1051800043EA507010B540EACC0000F01CFA00BFB2
:10519000000000924FEA0001FFF7BABE4FF0004155
:1051A0004FF00000A1F500217047000090EA010FC8
:1051B00048BF81F0004100F15882421A3CBF801A7A
:1051C00089184FEAD0524FF07F4C1CEA410FA2EBF6
:1051D000D15318BF9CEA026F00F03B804FF0004CA7
:1051E0004CEA00204CEA012121FA03FC10EB0C0CE4
:1051F0001ED202F1FF325FEA1C2040EBC25038BFE2
:1052000070471CF07F0F4FEA400C18BFBCF17F4F76
:1052100038BF7047C3F12003994008BF20F0010058
:10522000BCF17F4F38BF7047A0F1C04000F011BA09
:105230004FEA3C00000A40EBC25028BF1CF0FF0FB1
:105240004FEA400CE6D018BFBCF17F4F38BF704723
:10525000EAE79CEA026F05D010EA5C0F08BF00F095
:105260000040704710B500F0AEF900BF64FBBE3ED1
:105270004FF47F0C1CEAD0121EBF1CEAD11392EA35
:105280000C0F93EA0C0F00F0858090EA010F48BFE5
:1052900042F4807240F4000C41F400002CF07F4195
:1052A00020F07F4000B58142A2EB03020FF2081C00
:1052B000ACEB504EC0F100009EF800E04FEA4E0EFD
:1052C00000FB0EFC38BF49004FEA2C1C02F5FA0225
:1052D0000CFB0EF34FEACE1E4FEA112C4FEAC12110
:1052E0000EEB635E42EB22420EFB0CFC4FEA1C53BA
:1052F00000FB03114FEA112C4FEA01310EFB0CFCAD
:105300004FEADC4C00FB0C11C14228BF09184CEBE2
:1053100003335DF804EB10EB410143EBC250B2F5EF
:105320007C0F38BF704729D512F0F00F1CBF00F179
:10533000C04000F0004070470081828384858687EA
:1053400088898B8C8D8E8F919293959697999A9C44
:105350009D9FA0A2A3A5A7A8AAACAEB0B2B3B5B7B3
:10536000B9BCBEC0C2C5C7C9CCCED1D4D7D9DCDF89
:10537000E2E6E9ECF0F3F7FAFE0000004FEA400C39
:105380000CF1807CBCF17E4F28BF7047B0F1C0406B
:1053900000F05FB990EA010F0CEAD11348BF42F464
:1053A0008072624538BF634507D213F47F0F16D071
:1053B00080EA010000F00040704710B500F003F9EA
:1053C000097EFC3E00F005B880EA010000F00040D4
:1053D000704780EA010000F0004000F03AB912F492
:1053E0007F0F04BF0248704780EA010000F031B926
:1053F0000000C07F41000B0ED3F19E0208D950F48B
:1054000000034FEA032323FA02F048BF40427047EB
:1054100010B500F0D8F800BF4992248000207047F2
:105420006FF0004282EA200070470000C10DD1F108
:105430009E0206DB4FEA002343F0004323FA02F00A
:105440007047004207D54FEA4001B1F1FE4F02D24A
:105450004FF00000704710B500F0B5F84992248075
:10546000002070476FEA20007047000010F00041F4
:1054700048BF4042B0FA80F310FA03F2C3F19D0333
:105480000BD051EAC35101EB1220530638BF7047CD
:1054900000F1010008BF20F001007047B0FA80F36E
:1054A00010FA03F2C3F19D030AD0D90501EB1220D3
:1054B000530638BF704700F1010008BF20F001001B
:1054C000704700004FF47F0C1CEAD0121EBF1CEA8C
:1054D000D11392EA0C0F93EA0C0F00F0478090EA88
:1054E000010F48BF42F480724FF0004C4CEA00209C
:1054F0004CEA012102EB0302A0FB0113A2F500021A
:10550000002918BF43F001035B0028BF4FEA3303B3
:1055100042EB22425FEA132C4CEBC2502EBFBCEB95
:10552000436FB2F57C0F70474FEA036CBCF1004F3C
:1055300008BF20F00100B2F57C0F38BF70470BD5D3
:1055400082F0FF0212F5803FC8BF704700F1C040F3
:10555000D8BF00F00040704700F5000C5FEA4C0C2B
:1055600048BF7047B0F1C04000F073B890EA010F37
:105570000CEAD11348BF42F48072624538BF6345DC
:1055800004D280EA010000F00040704710B500F03E
:105590001AF800BF8900013E00F007B800F009B812
:1055A0005FEA410C5FEA1C6C08D080EA010000F061
:1055B00050B85FEA400C5FEA1C6CF6D14FF0004037
:1055C000A0F5800070470EF1020E2EF0030E5EF87B
:1055D000044B244204D44FEA4102B2F17F4F11D868
:1055E0004FEA4003B3F17F4F0CD80ED14FEAD07C85
:1055F000B2F17F4F0CEB4C0C0CF1020C08BF4CEBE2
:10560000D17C04E04FF0080C01E04FEAD17C0CEBB8
:105610004C0324FA03F404F00704B4F1040C06D29A
:105620000EEB840CBDE810404CF0010C6047DFE845
:105630000CF0070802024FF00040A0F5800010BDFA
:105640000846420018BFD2F1807288BF00F00040C7
:1056500010BDFF2141EAD050C005704790EA010F0C
:1056600048BF81F000413FF5A8AD421A04D882F04E
:105670000042A0EB020011444FEAD0524FF07F4CA1
:105680001CEA410FA2EBD15318BF9CEA026F4AD02B
:105690004FF0004C4CEA00204CEA012121FA03FCB7
:1056A000B0EB0C0C0FD412F0FE0F36D05FEA4C00BA
:1056B0001DD5001240EBC25038BF70471CF03F0FA1
:1056C00018BF70470BE0A2F101025FEA1C2040EB1B
:1056D000C25038BF70471CF07F0F18BF7047C3F12E
:1056E0002003994014BF401E20F00100704780083D
:1056F0004FEA122308BF7047B0FA80FCA2EB0C02FD
:10570000CCF1280C60FA0CF093EA122F04BF00EBE6
:10571000C25070474FEAC3707047130A5FEADC104B
:1057200008BF7047F6E79CEA026F04D010EA5C0FEE
:1057300008BF0020704710B5FFF745FF40DFF63E79
:1057400081F000407047FFFFFFFFFFFFFFFFFFFFFB
:10575000FFFFFFFFFFFFFFFFFFFFFFFFFFFFFFFF59
:10576000FFFFFFFFBEF7FFFFDEFF38C6928C8E6B98
:105770006E6B107C96AD3CE7FFFFFFFFFFFFFFFF66
:10578000FFFFFFFFFFFFFFFFFFFFFFFFFFFFFFFF29
:10579000FFFFFFFFFFFFFFFFFFFFFFFFFFFFFFFF19
:1057A000FFFFFFFFFFFFFFFFFFFFFFFFFFFFFFFF09
:1057B000FFFFFFFF5DEF159D4F636C420A328829A2
:1057C000461925194521E8318E6B38C6FFFFFFFFCA
:1057D000FFFFFFFFFFFFFFFFFFFFFFFFFFFFFFFFD9
:1057E000FFFFFFFFFFFFFFFFFFFFFFFFFFFFFFFFC9
:1057F000FFFFFFFFFFFFFFFFFFFFFFFFFFFFFFFFB9
:10580000FFFF36A51053104B51530F4B6C3AE93143
:1058100067212519E410A30862008308CB529AD6A9
:10582000FFFFFFFFFFFFFFFFFFFFFFFFFFFFFFFF88
:10583000FFFFFFFFFFFFFFFFFFFFFFFFFFFFFFFF78
:10584000FFFFFFFFFFFFFFFFFFFFFFFFFFFF3CE743
:105850007063B363B87CF56311434D32EA29882144
:1058600026190519051904110411E4108300A30871
:10587000728CFFFFFFFFFFFFFFFFFFFFFFFFFFFF38
:10588000FFFFFFFFFFFFFFFFFFFFFFFFFFFFFFFF28
:10589000FFFFFFFFFFFFFFFFFFFFFFFFDBDE4B3AD6
:1058A000F042356C544BB1322E2AEB21A9216719F5
:1058B0000519041104110411041104110519E4104F
:1058C0004200AF73FFFFFFFFFFFFFFFFFFFFFFFF80
:1058D000FFFFFFFFFFFFFFFFFFFFFFFFFFFFFFFFD8
:1058E000FFFFFFFFFFFFFFFFFFFF5DEF09324C32BD
:1058F000104B8F324F2A2E2ACC198919892147192A
:10590000051904110411C410C41004110411041168
:10591000E41042003184FFFFFFFFFFFFFFFFFFFFA6
:10592000FFFFFFFFFFFFFFFFFFFFFFFFFFFFFFFF87
:10593000FFFFFFFFFFFFFFFFFFFFEC5247194C3255
:105940000B2AEC21EC210C22915BEE4A0611261960
:105950000419E410E410A7296621A308051904110D
:105960000411E4108200F7BDFFFFFFFFFFFFFFFF00
:10597000FFFFFFFFFFFFFFFFFFFFFFFFFFFFFFFF37
:10598000FFFFFFFFFFFFFFFF35A583088821882168
:105990008921AA218A216B42718CFFFF728C8308B6
:1059A0000411C4082942FBDE5DEFEC5A83080411A0
:1059B000041104118308E831DFFFFFFFFFFFFFFF41
:1059C000FFFFFFFFFFFFFFFFFFFFFFFFFFFFFFFFE7
:1059D000FFFFFFFFFFFFBEF7C731C41025192619CF
:1059E00047194719A8298A52284A55ADFFFFE831BF
:1059F000A30805194D6B4D6BFFFF7DEF4521C410CA
:105A0000041104110411620076ADFFFFFFFFFFFFD8
:105A1000FFFFFFFFFFFFFFFFFFFFFFFFFFFFFFFF96
:105A2000FFFFFFFFFFFF96B5620004110419051187
:105A30000519C4088B4AB6B55DEFF7BDFFFF8E6B45
:105A400062002942AA5A0842FFFFFFFFCC52830896
:105A5000041104110411A308AD52FFFFFFFFFFFF63
:105A6000FFFFFFFFFFFFFFFFFFFFFFFF1CE7FFFF41
:105A7000FFFFFFFFFFFF4E636200041104110411DA
:105A8000E41062008E63FFFFFFFFFFFFFFFFCF7395
:105A90000100F39C2C6396B5FFFFFFFF2D5B830095
:105AA000041104110411E41067213DEFFFFFFFFF13
:105AB000FFFFFFFFFFFFF8BDB7B59EEFCB52B394DA
:105AC000FFFFFFFFDFFFE831A308041104110411F9
:105AD0000411A3084942FFF7FFF7FFFFFFFF6A4ADF
