:020000040800F2
:10000000508A0020AD2F000891040008B72F000887
:1000100093040008970400089B04000800000000F7
:100020000000000000000000000000009F04000825
:10003000A1040008000000001F640008692D0008EA
:10004000C72F0008C72F0008C72F0008C72F0008B8
:10005000C72F0008C72F0008C72F0008C72F0008A8
:10006000C72F0008C72F0008C72F0008C72F000898
:10007000C72F0008C72F0008C72F0008C72F000888
:10008000C72F0008C72F0008C72F0008C72F000878
:10009000C72F0008C72F0008C72F0008C72F000868
:1000A000C72F0008C72F0008C72F0008C72F000858
:1000B000C72F0008C72F0008C72F0008C72F000848
:1000C000C72F0008C72F0008C72F0008C72F000838
:1000D000C72F0008192F0008C72F0008C72F0008D6
:1000E000C72F0008C72F0008C72F0008C72F000818
:1000F000C72F0008C72F0008C72F0008C72F000808
:10010000C72F0008C72F0008C72F0008C72F0008F7
:10011000C72F0008C72F0008C72F0008C72F0008E7
:10012000C72F0008C72F0008C72F0008C72F0008D7
:1001300000F002F800F061F80AA090E8000C824498
:100140008344AAF10107DA4501D100F056F8AFF275
:10015000090EBAE80F0013F0010F18BFFB1A43F0A5
:10016000010318471C7203003C7203000A444FF05D
:10017000000C10F8013B13F0070408BF10F8014B06
:100180001D1108BF10F8015B641E05D010F8016B4B
:10019000641E01F8016BF9D113F0080F1EBF10F8AF
:1001A000014BAD1C0C1B09D16D1E58BF01F801CBD2
:1001B000FAD505E014F8016B01F8016B6D1EF9D555
:1001C0009142D6D37047000000230024002500266A
:1001D000103A28BF78C1FBD8520728BF30C148BFAA
:1001E0000B607047782918F02982002070471FB5EE
:1001F00018F065FA1FBD10B510BD18F0CBFC114604
:10020000FFF7F5FF00F03DF818F0E9FC03B4FFF745
:10021000F2FF03BC02F022FE0B49D1F800C04A688D
:100220005CF8043B1068184442F8040B8C4528BF66
:10023000A1F1DC0C8A4228BFA1F1DC02C1F800C0A8
:100240004A6020F000407047E483002010B502F0BF
:1002500093FD4FF4165002F010FE00F0E5FA00F0A6
:1002600065FA00F0A5F90AF016FB0E490868804708
:10027000002000F084FA0446012C01D101F0F4F8CA
:1002800010BD10B5FFF7E2FF0BE003F0CAFD042339
:10029000054A0021054805F023FC03F0E7FE002095
:1002A00010BDF2E718000020082400206D050008AA
:1002B0000CB50020019000906C48006840F480303C
:1002C0006A49086000BF6948006800F40030009087
:1002D0000198401C0190009818B90198B0F5A06FE2
:1002E000F1D16248006800F4003010B101200090A4
:1002F00001E0002000900098012843D15C4800688C
:1003000040F010005A4908600846006820F00300D9
:1003100008600846006840F00200086053484068E2
:10032000524948600846406848600846406840F4C2
:10033000806048600846406820F47C1048600846A9
:10034000406840F4E81048600846006840F080705B
:10035000086000BF4548006800F000700028F9D030
:100360004248406820F00300404948600846406821
:1003700040F00200486000BF3C48406800F00C00BC
:100380000828F9D10CBD10B5FFF792FF10BD10B5CC
:100390003648006840F0010034490860084640686B
:1003A00034490840314948600846006832490840ED
:1003B0002E4908600846006820F48020086008463E
:1003C000406820F4FE0048604FF41F008860FFF78B
:1003D000DAFF4FF000602949086010BD10B5002118
:1003E00000200022214B5B6803F00C0121B104299D
:1003F00006D0082928D107E0214B224C236027E0B2
:100400001F4B204C236023E0184B5B6803F47010F3
:10041000164B5B6803F48032022303EB904022B951
:10042000194B4343174C23600DE0104B5B6803F4FA
:10043000003323B1144B4343124C236003E0104BB1
:100440004343104C236003E00D4B0E4C236000BF70
:1004500000BF064B5B68C3F303130C4CE15C094B14
:100460001B68CB40074C236010BD00000010024009
:10047000002002400000FFF8FFFFF6FE08ED00E05C
:1004800000127A000000002000093D000400002056
:10049000704700BFFEE700BFFEE700BFFEE7704702
:1004A0007047000007E008F0A2FC0A230022114672
:1004B000104605F08FFEF6E719E00020314908608C
:1004C00001203149C1F88801C82300221146104695
:1004D00005F080FE01202B49086000202A49C1F860
:1004E0008801C82300221146104605F073FEE4E798
:1004F00007E014F0E3FF0A2300221146104605F03E
:1005000069FEF6E700B585B0032000214FF40062D4
:100510001E4BCDE90132CDE90310062003461C4AEB
:1005200000901C4805F033FB032000214FF480723B
:10053000194BCDE90132CDE9031007200346174AD4
:100540000090174805F023FB032000214FF4807230
:10055000144BCDE90132CDE9031005200346124AC0
:100560000090124805F013FB05B000BDFFF7CAFF6D
:1005700006E04FF4FA7300221146104605F02AFEF9
:10058000F7E70000A0012142008022420C24002055
:1005900008440020F10400080C4400200848002012
:1005A000B90400080C480020084C0020A5040008ED
:1005B00010B501F049FA10BD70B50446002601F0EF
:1005C0005DFA2546E11704EB11610912A02202EB46
:1005D0004101C8B201F000FB01F091FAE11704EB10
:1005E00011610912A4EB0121C8B201F0F5FA01F082
:1005F00086FA01F043FAA12001F0EEFA01F07FFA49
:10060000002001F016FB064601F05AFA304670BD94
:1006100070B504460E4601F031FA2546E11704EBA9
:1006200011610912A02202EB4101C8B201F0D4FA13
:1006300001F065FAE11704EB11610912A4EB012145
:10064000C8B201F0C9FA01F05AFA304601F0C4FA12
:1006500001F055FA01F034FA0A2002F0D6FB70BD21
:100660002DE9F04105460E461746002409E0E20058
:1006700026FA02F2D1B22A1990B2FFF7C9FF601C24
:10068000C4B2BC42F3DBBDE8F0812DE9F04107467E
:100690000C460026002509E036023919491B491E7F
:1006A00088B2FFF789FF0644681CC5B2A542F3DB98
:1006B0003046BDE8F08110B5FF20FFF77DFF04460E
:1006C000552C01D1002010BD5521FF20FFF7A0FFC0
:1006D000FF20FFF771FF0446552C01D10020F2E7FF
:1006E0000120F0E770B506460C46154608E0304696
:1006F000721C96B2FFF760FF04F8010B681E85B20A
:10070000002DF4D170BD70B505460C46164606E0C6
:1007100021782846FFF77CFF681C85B2641C3000F6
:10072000A6F101018EB2F3D170BD000008B5012120
:10073000142002F0E5FF0121374802F0F6FD4FF4E6
:100740000040ADF8000048208DF8030069463348AA
:1007500002F01AFD2020ADF8000048208DF80300BB
:1007600069462F4802F010FD0120ADF80000282056
:100770008DF803006946294802F006FD08BD10B552
:10078000044614B10120274908702648007868B350
:100790002021234802F08BFD58B14FF400411F483F
:1007A00002F085FD28B101211C4802F080FD0128DE
:1007B0001CD10A2002F029FB00201A4908702021D0
:1007C000174802F074FD08B9012010BD4FF4004134
:1007D000124802F06CFD08B90220F6E701210F482B
:1007E00002F065FD012815D10320EEE720210C4819
:1007F00002F05DFD01280DD1C103084802F057FD4C
:10080000012807D10121054802F051FD10B901204E
:10081000044908700020D8E70002300000080140B9
:10082000001001401400002008B50121242002F02E
:1008300067FF4FF48070ADF8000010208DF80300C2
:1008400003208DF802006946094802F09DFC4FF430
:100850008071074802F045FD0420ADF800006946AC
:10086000044802F091FC0421024802F03AFD08BD60
:10087000000801400014014010B50A2002F0A2FA5D
:1008800010BD9148806940F010008F4988618F4801
:1008900000684FF20F0188438C49086008460068E1
:1008A00043F203010843894908600846C06840F0E4
:1008B0000200C8600846C06840F00800C860704781
:1008C00010B58248006820F47040804908600846EE
:1008D000006840F44050086001207D4908607D496F
:1008E000C1F88001FFF7C8FF002079490860FFF7D1
:1008F000C3FF00207749C1F8800110BD10B57348CF
:10090000006820F47040714908600846006840F4AF
:100910004050086000206E490C3908606D49C1F8EC
:100920008C01FFF7A9FF012069490C390860FFF726
:10093000A3FF01206749C1F88C0110BD10B5002448
:100940006248006820F4704060490860084600680A
:1009500040F40040086001205D49086002F032FA6E
:1009600001205C49C1F8800102F02CFA07E0601C0C
:10097000C4B2FA2C03DDFFF7C1FF012010BD5448BB
:10098000803800680028F2D151490C39086000BF56
:10099000F4E710B500204E490C3908604B48006858
:1009A00020F47040494908600846006840F440500F
:1009B000086000204749C1F88C01FFF75DFF012066
:1009C00043490C390860FFF757FF00204149C1F83F
:1009D000800110BD10B500203D490C3908603B482E
:1009E000006820F47040394908600846006840F407
:1009F0004050086001203749C1F88C01FFF73CFFE7
:100A0000012033490C390860FFF736FF00203149D7
:100A1000C1F8800110BD70B504462C48006820F470
:100A200070402A4908600846006840F44050086059
:100A3000002027490C390860002512E0E00924490C
:100A400008606006040E01202249C1F88001FFF70A
:100A500013FF00201E490C390860FFF70DFF681CCA
:100A6000C5B2082DEADB70BD70B5054600241748F5
:100A7000006820F47040154908600846006840F49A
:100A800000400860002614E0002011490C3908607D
:100A90001E2002F097F901200E49C1F8800160067E
:100AA000040E0B488038006808B1601CC4B2701C8A
:100AB000C6B2082EE8DB15B9FFF78CFF01E0FFF79F
:100AC00068FF204670BD0000001002400010014089
:100AD0008C012242000022422DE9F04104460E46DC
:100AE00017464FF00008FFF7EBFEB220FFF793FF29
:100AF000FFF724FF2012FFF78EFFFFF71FFFE0B282
:100B0000FFF789FFFFF71AFF00250BE0705DFFF785
:100B100082FFFFF713FF8046B8F1000F00D003E01B
:100B2000681CC5B2BD42F1DB00BFFFF7E7FE4046DF
:100B3000BDE8F0812DE9F04105460F461646FFF766
:100B4000BFFEB220FFF767FFFFF7F8FE2812FFF79E
:100B500062FFFFF7F3FEE8B2FFF75DFFFFF7EEFE7F
:100B6000FFF7AEFEB320FFF756FFFFF7E7FE0024C6
:100B70000BE0711EA14201D0012100E000210846D6
:100B8000FFF772FF3855601CC4B2B442F1DBFFF7C7
:100B9000B5FEBDE8F08138B50446002000900CB1E8
:100BA00080200090012269464FF45060FFF794FFC7
:100BB00038BD1CB5002001900121102002F0A0FDDD
:100BC0000220ADF8000048208DF8030003208DF8C6
:100BD000020069468D4802F0D7FA02218B4802F0E4
:100BE00080FB4FF40050ADF8000010208DF803009A
:100BF0006946864802F0C8FA4FF40051834802F073
:100C000070FBFFF73EFE002081490860642002F07F
:100C1000FCF801207F49C1F8B401642002F0F5F826
:100C20000120FFF7B8FF012201A94FF45060FFF740
:100C300081FF9DF8041078A017F0C0FC9DF8040017
:100C400000F0800008B100201CBD0120FCE72DE968
:100C5000F14F82B04FF0000AD34672480078401C32
:100C600070490870084600780A2190FBF1F201FBF8
:100C7000120018B16B4800780A287DDA012202A917
:100C80000020FFF757FF9DF8080000F01F00002824
:100C900072D09DF8080000F01F0040F0C0006249CB
:100CA00081F820004FF0000A76E05F4890F82000BD
:100CB000012101FA0AF10840002869D05B4931F8A6
:100CC0001A00042201A9FFF735FF574890F83000B9
:100CD00000F0010078B39DF807109DF8062001EBA5
:100CE000022018F024FE0646514A524B18F086FEA8
:100CF000044618F0EFFD81B24B48163020F81A1068
:100D00009DF805109DF8042001EB022018F00FFE5D
:100D10000646494A494B18F071FE80460022484B6E
:100D200018F0A0FF044618F0D5FD81B23E480C3003
:100D300020F81A102CE0FFE79DF807109DF8062018
:100D400001EB022018F0F3FD0646394A394B18F042
:100D500055FE044618F0BEFD81B233480C3020F831
:100D60001A109DF805109DF8042001EB022018F0E0
:100D7000DEFD0646304A00E01EE0304B18F03EFE35
:100D8000044618F0A7FD81B22748163020F81A1043
:100D90000AF1010000F0FF0ABAF1050F85DB4FF000
:100DA000010B2148808920B91F48C08A08B900205A
:100DB000029000201B4908709DF8080000F01F00F9
:100DC000D0B9194890F8200000F0800040B11648D2
:100DD00090F8200020F08000134981F820000BE0FB
:100DE0004FF6FF7010498881C882084690F82000AD
:100DF00000F0E00081F820000A480078F02802DDC9
:100E00000A20084908705846BDE8FE8F00100140CE
:100E1000B4012242000022424354502049443A2562
:100E2000780D0A001500002018000020E6A7010830
:100E30007B14AE47E17AD43FD881734694F6D23F13
:100E400000008940002100BF15E000F080021AB1C7
:100E50000122FE4B1A6002E00022FC4B1A6042069F
:100E6000100E0022F94B0C3B1A600122F84BC3F81C
:100E700080214A1CD1B20829E7DB704770B50646CD
:100E8000002500240020F1490C390860F049C1F820
:100E90008C01EE49283108603046FFF7D3FF062069
:100EA00001F090FF0020EA49C1F88001012001F023
:100EB00089FF0120E5490C3908600020E449C1F8A8
:100EC000800100BF13E04FF6FF7000EA44040020E9
:100ED000DE490C3908600120DD49C1F88001DB489A
:100EE0008438006808B1601C84B2681CC5B2102D3B
:100EF000E9DB24110120D54928310860204670BD66
:100F00002DE9FE4380460027002406E04046FFF717
:100F1000B5FF2DF81400601C84B2052CF6DB00240C
:100F200016E0601C85B20FE03DF814003DF8151086
:100F3000884207DD3DF814603DF815002DF81400D7
:100F40002DF81560681C85B2052DEDDB601C84B2A0
:100F5000042CE6DB0027012405E03DF814003844AA
:100F600087B2601C84B2042CF7DB032097FBF0F0FF
:100F700086B23046BDE8FE832DE9F04104460D46B9
:100F8000B4480078FFF7BCFF0646B3480078FFF787
:100F9000B7FF074626802F800120BDE8F0817FB58E
:100FA00004460D4602A903A8FFF7E6FF064616B958
:100FB000002004B070BD694601A8FFF7DDFF0646BA
:100FC0000EB90020F5E7BDF80400BDF80C1088420A
:100FD00006DCBDF80C10BDF80400323081420CDB99
:100FE000BDF80C00BDF80410884236DCBDF80410D2
:100FF000BDF80C00323081422FDABDF80000BDF898
:101000000810884206DCBDF80810BDF80000323038
:1010100081420CDBBDF80800BDF8001088421CDCE2
:10102000BDF80010BDF808003230814215DABDF875
:101030000C10BDF80420881800EBD071C1F34F01EB
:101040002180BDF80810BDF80020881800EBD07191
:10105000C1F34F0129800120ABE70020A9E770B55B
:1010600004460D4616467D48068004F10D018AB2FD
:10107000193988B22B46294601F02CFC05F10D00E8
:1010800083B2193881B22246204601F023FC6A1C43
:1010900091B2621C90B200F093FF6A1C91B2621E82
:1010A00090B200F08DFF6A1E91B2621C90B200F007
:1010B00087FF6A1E91B2621E90B200F081FF062285
:1010C0002946204601F07CFC70BD70B504460D46F3
:1010D0001646624806802946204600F071FF611CD2
:1010E00088B2294600F06CFF681C81B2204600F0EF
:1010F00067FF6A1C91B2621C90B200F061FF70BD84
:101100002DE9F0410446514888380068002856D13E
:101110002CB15349A1F10A00FFF741FF3DE05049CE
:10112000A1F10A00FFF73BFFB8B34D491639B1F9F9
:101130002C0019F03FF9074649491639888919F0FA
:1011400051F9804646481638416A404619F092F9EE
:101150000646394618F08EFF054619F00BF940494E
:1011600016398881B1F92E0019F024F907463C4957
:101170001639C88A19F036F9804639481638816A16
:10118000404619F077F90646394618F073FF0546D0
:1011900019F0F0F832491639C8823148163890F8FB
:1011A000200000F0800038BBC0202D49163981F89E
:1011B0002000084681898182C18AC1831CE02848B9
:1011C000163890F8200000F0800050B124481638FE
:1011D00090F8200020F080002149163981F8200085
:1011E0000AE000211E4816388182C1834FF6FF7045
:1011F0001B4916398881C8821948163890F8200092
:1012000000F08000BDE8F08110B5154816380422C2
:10121000416A2820FFF724FA114816380422816A0F
:101220002C20FFF71DFA0E481638808D81B202225D
:101230003020FFF715FA0A481638C08D81B2022215
:101240003220FFF70DFA064816380BE08C012242D7
:10125000000022424C0000204D00002054000020DD
:101260002E00002090F830103420FFF7D1F90A2129
:101270003520FFF7CDF910BD10B53520FFF79CF9EB
:1012800004460A2C32D104212820FFF7FEF9FE493A
:10129000486204212C20FFF7F8F9FB4988620221FB
:1012A0003020FFF7F2F900B2F74988850221322099
:1012B000FFF7EBF900B2F449C8853420FFF77CF959
:1012C000F14981F83000084690F8300030B19020A4
:1012D000EE490870D020EE49087005E0D020EB49B7
:1012E00008709020EA490870012010BD0020FCE73A
:1012F0002DE9FC5F04460D4617461E46DDE90EABA0
:10130000DDE90C894FF47840E2490880E2A0102121
:10131000CDE90010E14843880288A021282001F08F
:10132000F0FCDFA01021CDE90010DC4843880288E2
:10133000A021782001F0E5FCDAA01021CDE9001011
:10134000D64843880288B421282001F0DAFCD6A0D0
:101350001021CDE90010D14843880288B4217820BB
:1013600001F0CFFCD1A01021CDE90010CB4843887B
:101370000288C821282001F0C4FCCDA01021CDE9AD
:101380000010C64843880288C821782001F0B9FCC3
:10139000C8A01021CDE90010C04843880288DC2194
:1013A000282001F0AEFCC4A01021CDE90010BB48FC
:1013B00043880288DC21782001F0A3FCBFA0102123
:1013C000CDE90010B54843880288F021282001F0BB
:1013D00098FC102004232246A0210090402001F018
:1013E000DAFB102004232A46A0210090902001F06F
:1013F000D2FB102004233A46B4210090402001F093
:10140000CAFB102004233246B4210090902001F042
:10141000C2FB102004234246C8210090402001F066
:10142000BAFB102004234A46C8210090902001F006
:10143000B2FB102004235246DC210090402001F032
:10144000AAFB102004235A46DC210090902001F0D2
:10145000A2FB102000909148018803236020109A7D
:1014600001F099FBBDE8FC9F2DE9F04F8BB0002403
:10147000002006904FF6FF7000F012FE1F208549F5
:1014800008809048006810216423A022CDE9001054
:101490002821084601F035FC4FF478421421084613
:1014A000FFF7DDFD0020784981F82000486246E220
:1014B00000BF7548416801208847734890F82000B4
:1014C00000F0C00040287DD1002006906E4890F8C2
:1014D000200020F040006C4981F8200008468089F7
:1014E00007A921F824006848C08A01EB84014880DC
:1014F000601CC4B2012C06D0022C14D0032C25D0C1
:10150000042C0FD138E04FF6FF7214210846FFF784
:10151000A6FD62490988143988B24FF47842142133
:10152000FFF79DFDFBE15D490988143988B24FF64C
:10153000FF721421FFF793FD58484088143881B298
:101540004FF478421420FFF78AFDE8E153484088C1
:10155000143881B24FF6FF721420FFF780FD4F4A16
:101560005288143A91B24D4A1288143A90B24FF40C
:101570007842FFF774FDD2E10024F3E0524911F8FC
:10158000241007AA32F821104F4A02EB8402527845
:1015900007AB33F82220881A002801DB014600E05F
:1015A00041420D46484911F8241007AA02EB810177
:1015B0004988454A02EB8402527807AB03EB82026A
:1015C000528800E0ACE1881A002801DB014600E007
:1015D00041420E466D437643A81918F0BFF9CDE994
:1015E000020117F0DBFECDE9040118F073F91FFAD0
:1015F00080F8354901EB8401897807AA32F8211077
:10160000314A02EB8402D27807AB33F82220881AE1
:10161000002801DB014600E041420D462A4901EB6A
:101620008401897807AA02EB81014988264A02EBE6
:101630008402D27807AB03EB82025288881A002812
:1016400001DB014600E041420E466D437643A81996
:1016500018F084F9CDE9020117F0A0FECDE90401EC
:1016600018F038F91FFA80F9484618F0BBFE074613
:10167000404618F0B7FE8346394618F069FD8246A9
:10168000504618F0CBFC21E0180000204C00002050
:101690004D0000205400002078313A000C4C00200E
:1016A00079313A0078323A0079323A0078333A00A8
:1016B00079333A0078343A0079343A00666163202D
:1016C00069733A0050000020F0A701084FF066321D
:1016D000C74BCDE9040118F055F90FD3504618F067
:1016E0009DFCC44AC44BCDE9040118F085FA05D32A
:1016F000B8F1000F02D0B9F1000F31D10024BF4A78
:101700005288143A91B2BD4A1288143A90B24FF6F8
:10171000FF72FFF7A4FC4FF4784214210846FFF74C
:101720009EFCB749504618F0A5FE834618F022FEED
:1017300087B2BDF82A10BDF82800BDF8262002ABFC
:1017400083C30192BDF824000090BDF82230BDF89B
:101750002020BDF81E10BDF81C00FFF7C9FDA8E64B
:10176000601CC4B2032CFFF609AFBDF82010BDF811
:101770001C20881A18F01EFE0746A0490988A1F10E
:10178000280018F017FE8346394618F0E1FC9D4901
:101790004862BDF82010BDF81C20881818F00AFE19
:1017A00003909848416A039818F064FE93490590A5
:1017B000088818F017FE0490059918F027FF834653
:1017C0004FF0804118F0C4FC074618F0B7FD00B296
:1017D0008C498885BDF82610BDF81E20881A18F09F
:1017E000E9FD074685494988A1F1280018F0E2FD86
:1017F0008346394618F0ACFC82498862BDF8261051
:10180000BDF81E20881818F0D5FD03907D48816A28
:10181000039818F02FFE83467849488818F0E2FDB7
:101820005946049018F0F2FE4FF08041059018F0F0
:101830008FFC074618F082FD00B27249C885486ADD
:1018400018F07CFDB0F1000B01DB584601E0CBF154
:10185000000002280ADC6B49886A18F06FFD071E39
:1018600001DB384600E07842022839DD0024634A73
:101870005288143A91B2614A1288143A90B24FF6E3
:10188000FF72FFF7ECFB4FF4784214210846FFF794
:10189000E6FB5DA01021CDE900105848438802887E
:1018A0001A21282001F02DFA564890F8300008B986
:1018B000012000E00020534981F83000084690F8EC
:1018C000300030B1902055490870D020544908703C
:1018D00005E0D020514908709020514908702EE051
:1018E0001F20504908804FF6FF7000F0D9FB4EA032
:1018F0001021CDE900104148438802886E21232041
:1019000001F0FFF94FF47A7001F07FFAFFF77CFCE9
:101910004FF6FF7000F0C4FB0BB0BDE8F08F00BFC6
:101920000A2001F072FA0698401C80B206900698D0
:10193000B0F57A7F02DDFFF79FFC01E000BFB7E55D
:1019400000BF00BFE8E708B52C48808845F2105179
:10195000884218D1FFF72DF939482A4948600846CE
:1019600090F8300040F0800081F83000084690F890
:1019700030002249897901F001010843214981F8A9
:101980003000002008BD0121112001F0B9FE42F213
:101990000900ADF8000010208DF8030003208DF839
:1019A00002006946274801F0EFFB0620ADF8000071
:1019B00048208DF803006946224801F0E5FB1149F3
:1019C0001631A1F10A00FFF7D7FAFEF7F1FDFFF794
:1019D00053FC08B10020D5E74FF6FF7000F060FB24
:1019E000FFF742FDFFF710FCFFF746FC0120C9E7B7
:1019F0006666EE3FCDCCCCCCCCCCF03F0C4C00207E
:101A00000000C842180000205450204E6565642034
:101A1000726561646A757374210000004C000020D7
:101A20004D00002054000020546F756368205363FC
:101A30007265656E2041646A757374204F4B210096
:101A40004F0C00080010014008B50121102001F0E2
:101A500057FE4FF4C050ADF8000010208DF8030081
:101A600003208DF8020069468A4801F08DFB0120B1
:101A7000894908608949C1F8AC0108BD10B585489D
:101A8000406820F47040834948600846406840F44C
:101A90004050486001208049091F08607F49C1F813
:101AA000B001042001F08EF900207B49091F086075
:101AB000042001F087F900207849C1F8B00110BD79
:101AC00010B57448406820F4704072494860084678
:101AD000406840F44050486000206F4908606F49FA
:101AE000C1F8AC01042001F06DF901206A490860D9
:101AF0006A49C1F8AC01042001F064F910BD10B5C9
:101B000000246448406820F47040624948600846F8
:101B1000406840F40040486001205F49091F0860A8
:101B200001F050F901205D49C1F8B00101F04AF916
:101B300007E0601CC4B2FA2C03DDFFF7C1FF0120EF
:101B400010BD5548843800680028F2D15249086019
:101B500000BFF5E710B500204F4908604D484068C8
:101B600020F470404B4948600846406840F44050BB
:101B7000486000204949C1F8AC01022001F022F977
:101B8000012045490860022001F01CF9002043496A
:101B9000C1F8B00110BD10B500203F4908603D48B4
:101BA000406820F470403B4948600846406840F473
:101BB0004050486001203949C1F8AC01022001F0D1
:101BC00001F9012034490860022001F0FBF80020EF
:101BD0003249C1F8B00110BD70B504462D484068C7
:101BE00020F470402B4948600846406840F440505B
:101BF0004860002028490860002517E0E0092649D0
:101C0000091F08606006040E022001F0DBF80120C5
:101C10002249C1F8B001022001F0D4F800201E4989
:101C20000860022001F0CEF8681CC5B2082DE5DB83
:101C300070BD70B5054600241648406820F4704019
:101C4000144948600846406840F400404860002657
:101C500016E0002010490860022001F0B3F80120CE
:101C60000E49C1F8B0016006040E0B4884380068C4
:101C700008B1601CC4B2012001F0A4F8701CC6B207
:101C8000082EE6DB15B9FFF786FF01E0FFF762FFDC
:101C9000204670BD00100140B001224200002242E7
:101CA0004FF48071FA4A51614900516180215161BC
:101CB000F8490860802111618900116170474FF473
:101CC0008071F34A11614900516180215161F149EC
:101CD00008608021116189001161704710B54FF0D3
:101CE0008830EC490C390860091D08600020E9497A
:101CF00008608815E6490861400048614020486155
:101D0000E548808848F68911884202D1022001F016
:101D100059F8E048001F006884B24020DC4908619F
:101D2000C00008614FF03330DA490C390860091DF2
:101D300008604FF6FF70D7490860204610BD10B507
:101D400004460B462046FFF7ABFF4FF48070D049A6
:101D500008614000486180204861CE4803608020CF
:101D600008618000086110BD10B504462046FFF7E9
:101D700097FFFFF7B3FF10BD00B5C7490889FFF70C
:101D80008FFF00BD4FF48071C14A1161490051615C
:101D900080215161BF490860802111618900116172
:101DA000704730B5014601F01F04C1F34513CA0A5C
:101DB000E50205EB43151544A8B230BD70B50446E5
:101DC0000D461646B4494889FFF76AFF4FF4807004
:101DD000AF49086140004861802048612012AD4948
:101DE00008608020AA4908618000086140100861ED
:101DF0004000486180204861E0B2A6490860802028
:101E0000A3490861800008614010086140004861F2
:101E10008020486130129F49086080209C490861F9
:101E200080000861401008614000486180204861DE
:101E3000F0B29849086080209549086180000861E7
:101E400095498889FFF72CFF4FF48070904908610D
:101E5000400048618020486128128E490860802037
:101E60008B490861800008614010086140004861AA
:101E700080204861E8B28749086080208449086171
:101E8000800008614010086140004861802048617E
:101E900018128049086080207D490861800008612F
:101EA000401008614000486180204861D8B27949FB
:101EB000086080207649086180000861FFF75CFFB8
:101EC00070BD30B504460D462B46224629462046B5
:101ED000FFF774FF30BD2DE9F04104460D46294659
:101EE0002046FFF7EEFF2E20FFF7DAFEFFF7F6FEA3
:101EF000FFF7F4FEC6B2FFF7F1FEC7B2FFF7EEFE42
:101F000000F0FF082C20FFF7CBFE4FEAE801C902E2
:101F1000B21041EA421141EAE700FFF742FFBDE893
:101F2000F08100B55C48808849F2413188420BD08D
:101F30005948808846F60401884205D05648808872
:101F400045F21031884203D12920FFF7A9FE0FE0A6
:101F50005148808845F21051884204D14FF42450F2
:101F6000FFF79EFE04E040F273110720FFF7E7FE43
:101F700000BD00B54848808849F2413188420BD005
:101F80004548808846F60401884205D0424880884A
:101F900045F21031884203D12820FFF781FE0EE080
:101FA0003D48808845F21051884204D14FF42050BA
:101FB000FFF776FE03E000210720FFF7C0FE00BD1B
:101FC00030B504460D4629462046FFF77AFF4FF408
:101FD00080702F49086140004861802048612F4887
:101FE00000882C4908608020294908618000086128
:101FF00030BD70B505460E46144631462846FFF7FB
:1020000060FF4FF4807022490861400048618020E1
:10201000486120480460802008618000086170BD2C
:1020200010B504468CB92C201B4908812A20488110
:102030002B2088814FF4A07008804FF4F070488006
:10204000C8213620FFF77BFE12E00120124988717B
:102050002C2008812A2048812B2088814FF4F070A1
:1020600008804FF4A0704880A8213620FFF767FE53
:1020700010BD10B5202006494861642000F0C5FE5F
:10208000202003490861322000F0BFFE10BD00008F
:10209000001001400C0C01400C4C002054000020AA
:1020A00070B504460025FE48068840884643FC4833
:1020B0004088401E83B2FA480088401E82B2002148
:1020C0000846FFF77BFE00BF0EE04FF48070F54935
:1020D00008614000486180204861F3480460802026
:1020E0000861800008616D1CB542EED370BD08B573
:1020F0000121192001F004FB0121EC4801F015F940
:102100004FF4FC60ADF8000010208DF803000320B0
:102110008DF802006946E34801F036F84FF4FC619F
:10212000E04801F0DEF84FF6FF70ADF80000102037
:102130008DF8030003208DF802006946DA480C3858
:1021400001F022F84FF6FF71D7480C3801F0C9F8BA
:10215000FFF78FFFF720FFF7A3FD4FF48070D14901
:1021600008614000486180204861A920CE4908608C
:102170008020CC490861800008614010086140005F
:102180004861802048615120C74908608020C549C6
:1021900008618000086140100861400048618020AB
:1021A00048612C20C04908608020BE490861800039
:1021B0000861401008614000486180204861822029
:1021C000B94908608020B749086180000861C020D3
:1021D000FFF766FD4FF48070B24908614000486126
:1021E000802048611120B04908608020AD49086115
:1021F000800008614010086140004861802048610B
:102200000920A94908608020A6490861800008616A
:10221000C120FFF745FD4FF48070A24908614000DE
:1022200048618020486141209F49086080209D4985
:10223000086180000861C520FFF732FD4FF480700F
:102240009849086140004861802048610020964913
:10225000086080209349086180000861401008618F
:1022600040004861802048610A208F490860802032
:102270008C49086180000861401008614000486195
:1022800080204861884908608649086180000861AB
:10229000B120FFF705FD4FF48070824908614000CE
:1022A000486180204861B0207F49086080207D49D6
:1022B000086180000861401008614000486180208A
:1022C00048611120784908608020764908618000C3
:1022D0000861B420FFF7E4FC4FF480707149086195
:1022E000400048618020486102206F4908608020DA
:1022F0006C49086180000861B620FFF7D1FC4FF4FB
:10230000807068490861400048618020486102206F
:1023100065490860802063490861800008614010B9
:102320000861400048618020486122205E490860C1
:1023300080205C49086180000861B720FFF7B0FC8D
:102340004FF480705749086140004861802048611F
:10235000C620554908608020524908618000086104
:10236000BE20FFF79DFC4FF480704E49086140008D
:1023700048618020486100204B490860802049491D
:1023800008618000086140100861400048618020B9
:102390004861042044490860802042490861800067
:1023A0000861E920FFF77CFC4FF480703D4908612B
:1023B000400048618020486100203B49086080203F
:1023C00038490861800008613620FFF769FC4FF446
:1023D00080703449086140004861802048610820CD
:1023E0003149086080202F490861800008613A2047
:1023F000FFF756FC4FF480702A490861400048619D
:1024000080204861552028490860802025490861BE
:1024100080000861E020FFF743FC4FF48070214901
:102420000861400048618020486100201E49086022
:1024300080201C490861800008614010086140004C
:1024400048618020486107201749086080201549AD
:1024500008618000086140100861400048618020E8
:10246000486110201049086080200E4908618000F2
:1024700008614010086140004861802048610920DF
:102480000949086080200749086180000861401000
:10249000086140004861802048611720024907E038
:1024A0000C4C0020001001400C0C014000023000D8
:1024B00008608020FE4908618000086140100861C2
:1024C00040004861802048610B20FA490860802064
:1024D000F7490861800008614010086140004861C8
:1024E000802048614120F34908608020F04908615C
:1024F0008000086140100861400048618020486108
:102500008920EC4908608020E94908618000086161
:102510004010086140004861802048614B20E54937
:1025200008608020E249086180000861401008616D
:1025300040004861802048610A20DE490860802010
:10254000DB49086180000861401008614000486173
:10255000802048610C20D74908608020D449086158
:102560008000086140100861400048618020486197
:102570000E20D04908608020CD49086180000861A4
:102580004010086140004861802048611820C94916
:1025900008608020C6490861800008614010086119
:1025A00040004861802048611B20C24908608020AB
:1025B000BF4908618000086140100861400048611F
:1025C000802048610F20BB4908608020B84908611D
:1025D00080000861E120FFF763FB4FF48070B4498D
:1025E000086140004861802048610020B1490860CE
:1025F0008020AF49086180000861401008614000F8
:102600004861802048611720AA4908608020A849B5
:102610000861800008614010086140004861802026
:1026200048611A20A34908608020A1490861800000
:102630000861401008614000486180204861042022
:102640009C49086080209A49086180000861401018
:10265000086140004861802048610E20954908606B
:1026600080209349086180000861401008614000A3
:1026700048618020486106208E49086080208C498E
:1026800008618000086140100861400048618020B6
:1026900048612F20874908608020854908618000B3
:1026A0000861401008614000486180204861452071
:1026B0008049086080207E490861800008614010E0
:1026C00008614000486180204861432079490860E2
:1026D000802077490861800008614010086140004F
:1026E000486180204861022072490860802070495A
:1026F0000861800008614010086140004861802046
:1027000048610A206B49086080206949086180009F
:10271000086140100861400048618020486109203C
:1027200064490860802062490861800008614010A7
:102730000861400048618020486132205D4908609E
:1027400080205B49086180000861401008614000FA
:1027500048618020486136205649086080205449ED
:1027600008618000086140100861400048618020D5
:1027700048610F204F49086080204D490861800062
:1027800008611120FFF78CFA782000F03EFB292029
:10279000FFF786FA0120FFF743FC01204649086055
:1027A0004FF6FF70FFF77CFC08BD2DE9F84F04469B
:1027B0000D4616461F46DDF828A0301B401C80B28F
:1027C0000090781B401C1FFA80FB3B46324629468E
:1027D0002046FFF7F3FA4FF000081CE04FF0000925
:1027E00012E04FF480703249086140004861802057
:1027F00048613048C0F800A080200861800008616E
:1028000009F101001FFA80F900988145E9DB08F120
:1028100001001FFA80F8D845E0DB28484088401EB8
:1028200083B226480088401E82B200210846FFF786
:10283000C5FABDE8F88F2DE9F84F06460F469046D9
:102840009946DDF828B0A8EB0600401C1FFA80FA74
:10285000A9EB0700401C80B200904B464246394627
:102860003046FFF7ABFA00241AE0002514E04FF4DD
:1028700080700F490861400048618020486104FB76
:102880000A503BF810000B49086080200849086195
:1028900080000861681C85B25545E8DB601C84B285
:1028A00000988442E1DB05484088401E83B207E07F
:1028B000001001400C0C0140A80122420C4C0020E9
:1028C000FC480088401E82B200210846FFF776FAD5
:1028D000BDE8F88F2DE9FF4F84B081468A4600207D
:1028E000039002900698A0EB09050798A0EB0A0652
:1028F000CDF80490CDF800A0002D01DD012705E002
:102900000DB9002702E04FF0FF376D42002E02DDC7
:102910004FF0010806E016B94FF0000802E04FF052
:10292000FF387642B54201DD2C4600E034464FF0D8
:10293000000B21E0009A91B2019A90B2FFF740FBA0
:102940000398284403900298304402900398A042D0
:1029500005DD0398001B039001983844019002980C
:10296000A04205DD0298001B0290009840440090B0
:102970000BF101001FFA80FB601C8345DADD08B013
:10298000BDE8F08FF0B504460D4616461F462B46AF
:10299000324629462046FFF79DFF3B462246294600
:1029A0002046FFF797FF3B46324639462046FFF761
:1029B00091FF3B46324629463046FFF78BFFF0BD7C
:1029C0002DE9F04306460F46904600244546032075
:1029D000A0EB480948E03A1B91B2721B90B2FFF796
:1029E000EFFA3A1B91B2721990B2FFF7E9FA7A192D
:1029F00091B2321B90B2FFF7E3FA3A1B91B2721B0D
:102A000090B2FFF7DDFA7A1B91B2321B90B2FFF75A
:102A1000D7FA3A1991B2721990B2FFF7D1FA7A1B2C
:102A200091B2321990B2FFF7CBFA7A1991B23219FA
:102A300090B2FFF7C5FA3A1991B2721B90B2FFF744
:102A4000BFFA641CB9F1000F03DAA000801D8144B5
:102A500004E0601B80000A3081446D1E7A1991B237
:102A6000321990B2FFF7ACFAAC42B4DDBDE8F083A6
:102A70002DE9F84F0746884616461C46C3462046B1
:102A8000E31704EB5373DB1021464FEAE47C04EBBD
:102A90005C7C4FEAEC0CA4EBCC0CBCF1000F02D038
:102AA0004FF0010C01E04FF0000C6344224604EBB0
:102AB000D27C4FEA6C0C03FB0CF3DBB20093A6F163
:102AC0002000C6B2002556E00C2C07D106EB4600CC
:102AD000794901EB800010F8059013E0102C05D126
:102AE000764800EB061010F805900BE0182C07D183
:102AF00006EBC600724901EB800010F8059001E07A
:102B0000BDE8F88F4FF0000A2FE009F0800030B1E7
:102B10006C48028841463846FFF76BFA07E00A988E
:102B200028B96948028841463846FFF762FA4FEAF9
:102B300049604FEA106908F101001FFA80F85D480A
:102B40000088B84200DCDBE7A8EB0B00A04208D10C
:102B5000D846781C87B257480088B84200DCCFE7D7
:102B600006E00AF1010000F0FF0ABAF1080FCCDB21
:102B700000BF681CC5B200988542A5DB00BFBFE757
:102B800010B50246012000E050430B00A1F1010402
:102B9000E1B2F9D110BD2DE9FF4F81B00746914652
:102BA0001E460E9D4FF0000A002439E0301B401EE7
:102BB000C1B20A20FFF7E4FFB9FBF0F00A21B0FB35
:102BC000F1F201FB1208BAF1000F16D1701EA042FB
:102BD00013DDB8F1000F0ED10020AB4605EBDB7121
:102BE000491001FB0471009088B22B462022029903
:102BF000FFF73EFF12E04FF0010A0020AB4605EB65
:102C0000DB71491001FB0471009088B208F13001BA
:102C1000CAB22B460299FFF72BFF00BF601CC4B25B
:102C2000B442C3DB05B0BDE8F08F2DE9FF4F82B0A1
:102C3000064692461F46DDE90F4800200190002518
:102C40005AE0781B401EC1B20A20FFF799FFBAFB79
:102C5000F0F00A21B0FBF1F201FB1209019840BB30
:102C6000781EA84234DDB9F1000F2FD108F08000A2
:102C700078B108F00100A34604EBDB71491001FBB9
:102C80000561009088B2234630220399FFF7F0FED9
:102C90000EE008F00100A34604EBDB71491001FBD4
:102CA0000561009088B2234620220399FFF7E0FED9
:102CB00020E00DE00C4C0020FCA7010870AC0108DE
:102CC00060B201085400002056000020012001904D
:102CD00008F00100A34604EBDB71491001FB05611C
:102CE000009088B209F13001CAB223460399FFF778
:102CF000BFFE00BF681CC5B2BD42A2DB06B0BDE886
:102D0000F08F2DE9F84704460D4690469946DDE9D7
:102D1000096704F0FF0A08EB04001FFA80F809EBCA
:102D200005001FFA80F916E0444502DB5446A81955
:102D300085B24D4500DB14E0002000903A78334620
:102D400029462046FFF794FE304606EBD07104EB8F
:102D500061018CB27F1C38787E2802DC387820280C
:102D6000E2DA00BFBDE8F88710B501F070F801F0B5
:102D7000B4F901F087F810BD10B56FF0040000F051
:102D800084F9314800683149B0FBF1F030490870EE
:102D90002D4800682D49B0FBF1F44FF47A7044439C
:102DA00001202C4908804FF0E020006940F002002B
:102DB0004FF0E021086108464461006940F00100DD
:102DC000086110BD70B5034600224FF0E02675691A
:102DD0001F4E367803FB06F400BF4FF0E026B169C2
:102DE00010E04FF0E026B06988420BD0884202D252
:102DF0000E1A324402E02E1A0E4432440146A24218
:102E000000D300E0EDE700BF70BD70B50446124886
:102E10000078012811D10F480088844206DB0D4854
:102E2000008894FBF0F5284603F0A2F909480088D1
:102E300094FBF0F100FB114084B24FF47A7104FB73
:102E400001F0FFF7BFFF70BD0000002000127A0004
:102E5000580000205A0000209E000020014600BFBC
:102E6000704700BF4D4A128802F04002002AF9D094
:102E7000C2B24A4B1B1D1A80704710B586B004467B
:102E8000012144F2040000F03BFC444800F09CFCAB
:102E90004FF40070ADF8140003208DF816001820D0
:102EA0008DF8170005A93E4800F06EF94FF48060D8
:102EB000ADF8140004208DF8170005A9384800F07B
:102EC00063F925208DF8000003208DF801008DF8AE
:102ED000020001208DF80300684600F08CF8019490
:102EE0000020ADF80800ADF80A00ADF80C00ADF810
:102EF00010000C20ADF80E0001A9284800F0A7FC36
:102F0000012240F22551254800F039FD01212348D6
:102F100000F029FD06B010BD10B500F098FF40F29A
:102F200025511E4800F010FE10B31C4800F08CFD27
:102F3000C4B21C48008800F40040C8B91948008891
:102F400000F4804060B10A2C03D0002015490880AD
:102F500020E01448008840F400401249088019E03D
:102F60000D2C06D10F48008840F480400D490880A0
:102F700010E00C480088C0F30D000B490C540948C0
:102F80000088401C0749088008460088C72801DDE2
:102F90000020088000F076FF10BD000000380140DE
:102FA00000080140600000201A4C002009488047BA
:102FB00009480047FEE7FEE7FEE7FEE7FEE7FEE71B
:102FC000FEE7FEE7FEE7FEE704480549054A064B33
:102FD000704700008F030008310100085084002072
:102FE000508A00205086002050860020314901433D
:102FF000314A1160704770B5002100230F22C47858
:1030000004B32D4C246804F4E064C4F5E064210AA0
:10301000C1F10403CA40447804FA03F184781440EF
:1030200021430901254C0678A155047804F01F05B9
:103030000124AC4005786D11AD0005F1E025C5F81F
:10304000004109E0047804F01F050124AC401C4D48
:103050000678761145F8264070BD1A4A0A400243A8
:10306000154B1B1F1A60704739B1134A121D1268A5
:103070000243114B1B1D1A6006E00F4A121D126815
:1030800082430D4B1B1D1A607047042808D14FF076
:10309000E021096941F004014FF0E022116107E0ED
:1030A0004FF0E021096921F004014FF0E0221161A5
:1030B000704700000000FA050CED00E000E400E0BD
:1030C00080E100E080FFFF1F10B50446CC48844239
:1030D00008D10121042000F02DFB0021042000F084
:1030E00029FB46E0C748844208D10121082000F0AE
:1030F00021FB0021082000F01DFB3AE0C248844279
:1031000008D10121102000F015FB0021102000F053
:1031100011FB2EE0BD48844208D10121202000F09F
:1031200009FB0021202000F005FB22E0B848844282
:1031300008D10121402000F0FDFA0021402000F0DC
:10314000F9FA16E0B348844208D10121802000F04A
:10315000F1FA0021802000F0EDFA0AE0AE48844246
:1031600007D10121801500F0E5FA0021A01500F03B
:10317000E1FA10BD10B50121084600F0DBFA00218C
:10318000012000F0D7FA10BD2DE9F04102460025DC
:103190000026002000230024002791F803C00CF033
:1031A0000F0591F803C00CF0100CBCF1000F03D018
:1031B00091F802C04CEA050591F800C0BCF1000F7F
:1031C00031D0146800202BE04FF0010C0CFA00F312
:1031D000B1F800C00CEA03069E4220D183004FF0F4
:1031E0000F0C0CFA03F7BC4305FA03FC4CEA040489
:1031F00091F803C0BCF1280F06D14FF0010C0CFA76
:1032000000FCC2F814C00AE091F803C0BCF1480FFA
:1032100005D14FF0010C0CFA00FCC2F810C0401CA4
:103220000828D1D31460B1F800C0BCF1FF0F34DD21
:10323000546800202EE000F1080C4FF0010808FA55
:103240000CF3B1F800C00CEA03069E4221D18300C2
:103250004FF00F0C0CFA03F7BC4305FA03FC4CEAE1
:10326000040491F803C0BCF1280F05D100F1080C4B
:1032700008FA0CF8C2F8148091F803C0BCF1480FAA
:1032800007D100F1080C4FF0010808FA0CF8C2F859
:103290001080401C0828CED35460BDE8F0814FF662
:1032A000FF710180022181700421C17070470246C4
:1032B000002093680B400BB1012000E00020704714
:1032C0000146886880B2704702460020D3680B40F0
:1032D0000BB1012000E0002070470146C86880B2B1
:1032E000704701617047416170470AB1016100E0B8
:1032F00041617047C16070474FF480320A43826178
:103300008161826182698269704702460020434B75
:1033100018684FF68073184040EA021008433F4B8C
:10332000186070473E49C8617047F0B50A460023EF
:1033300000240021002500F00046B6F1004F02D124
:10334000364EF16901E0354E7168C0F3034583B232
:1033500000F44016B6F5401F08D121F070612F4EE1
:10336000766826F070662D4F7E6012E000F48016BD
:10337000B6F5801F06D1032606FA05F4A14341F0F5
:10338000706106E0460D360103FA06F6B14341F0DE
:10339000706122B1460D360103FA06F6314300F0A2
:1033A0000046B6F1004F02D11C4EF16101E01B4E08
:1033B0007160F0BD30B500228B071C0F0F2303FA9C
:1033C00004F2164B08338C1053F824309343134CFB
:1033D00008348D1044F8253023468C1053F82430DF
:1033E0008C07240F00FA04F423430C4C08348D108E
:1033F00044F8253030BD0A49DC31086070470000D0
:1034000000080140000C0140001001400014014080
:1034100000180140001C0140002001400000014054
:1034200000002042DF48006840F00100DD490860EC
:1034300008464068DC490840DA49486008460068A8
:10344000DA490840D74908600846006820F480201F
:1034500008600846406820F4FE0048604FF41F00F2
:1034600088607047CF49096821F48031CD4A1160E6
:103470001146096821F480211160B0F5803F03D026
:10348000B0F5802F0ED106E0C649096841F48031BD
:10349000C44A116007E0C349096841F4A021C14A48
:1034A000116000E000BF00BF704710B50146002268
:1034B000002300204A11012A02D1BA4C236806E0F9
:1034C000022A02D1B74C236A01E0B64C636A01F0CC
:1034D0001F02012494401C400CB1012000E0002098
:1034E00010BD38B5002000900024002500BF312019
:1034F000FFF7DBFF05460098401C00900098B0F5F0
:10350000A06F01D0002DF2D03120FFF7CEFF08B11F
:10351000012400E00024204638BD01460020A14AD5
:10352000106820F0F80040EAC10010607047A04920
:1035300008607047024600209A4B586820F47C10BF
:1035400042EA01031843974B586070479849086650
:10355000704701460020934A506820F0030008435A
:10356000506070478F48406800F00C00704701467B
:1035700000208C4A506820F0F000084350607047EB
:1035800001460020874A506820F4E06008435060FC
:10359000704701460020834A506820F4605040EA9A
:1035A000C1005060704729B17E4A527A02437D4B78
:1035B0005A7204E07B4A527A82437A4B5A727047BD
:1035C0007B49D8310860704701460020754A506831
:1035D00020F440400843506070470021714A203277
:1035E0001170704A82F82010012802D004280AD1F4
:1035F00004E001216B4A2032117005E00521694A7F
:103600002032117000E000BF00BF704769490860B8
:1036100070476449096A0143624A1162704765490B
:1036200044390860704730B500210022002400238F
:103630005C4D6D6805F00C0121B1042905D0082905
:1036400023D105E05C4D056022E05B4D05601FE085
:10365000544D6D6805F47012524D6D6805F4803458
:10366000022505EB92421CB9544D554305600BE011
:103670004C4D6D6805F400351DB1504D5543056046
:1036800002E04D4D5543056002E04B4D056000BF23
:1036900000BF444D6D6805F0F0010909484D6B5CB1
:1036A0000568DD4045603F4D6D6805F4E061090A3D
:1036B000434D6B5C4568DD4085603A4D6D6805F4AF
:1036C0006051C90A3E4D6B5C4568DD40C560354DB3
:1036D0006D6805F44041890B3A4D6B5CC568B5FBDC
:1036E000F3F5056130BD29B12E4A526902432D4BD5
:1036F0005A6104E02B4A526982432A4B5A6170474F
:1037000029B1284A92690243264B9A6104E0254A6E
:1037100092698243234B9A61704729B1214AD26949
:103720000243204BDA6104E01E4AD26982431D4BFA
:10373000DA61704729B11B4AD2680243194BDA603B
:1037400004E0184AD2688243164BDA60704729B108
:10375000144A12690243134B1A6104E0114A1269B8
:103760008243104B1A617047124940390860704714
:103770000F49C86470470B49C87170470948406ACF
:1037800040F0807007494862704701460020054AB2
:1037900092680A400AB1012000E000207047014908
:1037A00088727047001002400000FFF8FFFFF6FE2D
:1037B000000042428004424200127A0000093D00AB
:1037C000620000207200002010B50446FB488442CD
:1037D00009D101218803FFF7ADFF00214FF480409C
:1037E000FFF7A8FF32E0F648844209D101214804DE
:1037F000FFF7ADFF00214FF40030FFF7A8FF25E0F1
:10380000F048844209D101218804FFF7A0FF00217C
:103810004FF48020FFF79BFF18E0EB48844209D16A
:103820000121C804FFF793FF00214FF40020FFF7A8
:103830008EFF0BE0E548844208D101210805FFF71F
:1038400086FF00214FF48010FFF781FF10BD2DE9A6
:10385000F04786B005460E460024A24600BFA146AA
:103860000027B08900B100BF2F462C8A4CF6FF70AC
:103870000440F08804432C82AC894EF6F3100440D7
:10388000B08831890843718908430443AC81AC8A0C
:103890004FF6FF400440B0890443AC8201A8FFF713
:1038A000C2FEC648874202D1DDF810A001E0DDF873
:1038B0000CA0A88900F4004040B10AEBCA0000EB5C
:1038C0000A1031684900B0FBF1F807E00AEBCA00C2
:1038D00000EB0A1031688900B0FBF1F86420B8FBF6
:1038E000F0F004012009642101FB1089A88900F48B
:1038F000004040B1322000EBC900B0FBF1F000F015
:103900000700044308E0322000EB09106421B0FBFB
:10391000F1F000F00F0004432C8106B0BDE8F08701
:103920004FF41651016000218180C18001810C217A
:10393000418100218181704710B502460020108A24
:103940004FF2FF0318400B884C8823438C88234395
:10395000CC8823431843108210BD00210180418090
:103960008180C180704721B1828942F400528281F6
:1039700004E082894DF6FF731A4082817047F0B5EA
:103980000346002400260025002040F66A17B942AD
:1039900000D100BF1846C1F3421401F01F060127F1
:1039A00007FA06F5012C01D10C3004E0022C01D1FC
:1039B000103000E014301AB107682F43076002E0AE
:1039C0000768AF430760F0BD1AB1838A0B43838257
:1039D00002E0838A8B4383827047028A4FF6F0733A
:1039E0001A400282028A0A430282704782894FF299
:1039F000FF731A40828182890A438281704721B114
:103A0000828942F00202828104E082894FF6FD73CE
:103A10001A4082817047028A4FF6DF731A40028291
:103A2000028A0A430282704721B1028A42F480422C
:103A3000028204E0028A4BF6FF731A40028270474A
:103A4000C1F308028280704701468888C0F30800ED
:103A50007047818941F0010181817047028BD2B2A8
:103A60000283028B42EA012202837047028B02F436
:103A70007F420283028B0A430283704721B1828A0C
:103A800042F02002828204E0828A4FF6DF731A40FD
:103A90008282704721B1828A42F01002828204E061
:103AA000828A4FF6EF731A408282704721B1828A70
:103AB00042F00802828204E0828A4FF6F7731A40CD
:103AC0008282704721B1828942F40042828103E000
:103AD0008289C2F30E028281704721B1828A42F448
:103AE0000062828204E0828A4FF2FF731A4082826F
:103AF0007047828A4FF6FB731A408282828A0A4399
:103B00008282704721B1828A42F00202828204E0FE
:103B1000828A4FF6FD731A40828270470246002067
:103B2000B1F5007F00D100BF13880B400BB101201D
:103B300000E00020704701F40072B2F5007F00D170
:103B400000BFCA430280704770B5024600240023BC
:103B50000025002040F66A16B14200D100BFC1F333
:103B6000421501F01F03012606FA03F3012D02D1CD
:103B70009689334006E0022D02D1168A334001E0D7
:103B8000968A33400C12012606FA04F41688344053
:103B900013B10CB1012000E0002070BD10B500226F
:103BA000002340F66A14A14200D100BF0A1201248A
:103BB0009440A3B2DC43048010BD000000380140F3
:103BC0000044004000480040004C004000500040CD
:103BD0007CB5002514E06946284602F0BFF9064688
:103BE00066B9F74850F8254044B1012C06D0D4E915
:103BF000020100EB810060640198A064681CC5B2FA
:103C00003F2DE8D97CBD002400BF02E0C82002F0AF
:103C1000AFFAEC4800780028F8D0EB48006864213F
:103C2000B0FBF1F0E84908600846006828B90020B8
:103C3000E6490870FF2002F0D3F900BF02F0C8FB8C
:103C40000446E3480068E34908600020E049086052
:103C5000204602F0C1FBDF480068DB490968B0FB81
:103C6000F1F0C0F16400D949087002F05EFBFFF783
:103C7000AFFF642002F07CFAE0E700B587B00320D4
:103C800000218022D44BCDE90132CDE903104FF65B
:103C9000FE703E23D14A0090AFF2950001F077FF0D
:103CA00006AACFA13E2002F0DBF807B000BD002439
:103CB00000BF00BF02F08CFB0446C5480068401CF2
:103CC000C3490860204602F087FB02F02DFBF1E7B4
:103CD00000B587B0032000218022C54BCDE9013219
:103CE000CDE903104FF6FF703F23C24A0090AFF2B8
:103CF000410001F04CFF06AABFA13F2002F0B0F83E
:103D000007B000BD04E0002200F8012B4A1E91B26A
:103D10000029F8D1704770B5C821BB48FFF7F2FF02
:103D200000230FE0581C85B203EB8300B64901EB7A
:103D3000800405EB850001EB8006002020706660A2
:103D4000581C83B2092BEDD303EB8300AE4901EB82
:103D500080040020207060600846AC49086070BD97
:103D600070B54FF47C71AA48FFF7CCFF4FF4807117
:103D70009348FFF7C7FF002413E0601CC5B2C4EBF3
:103D8000C40000EB4000A24901EB8003C5EBC50075
:103D900000EB400001EB80065E619EA0D864601CD1
:103DA000C4B20B2CE9D3C4EBC40000EB400098492B
:103DB00001EB80030020586196A0D864002096494A
:103DC000086093489549086070BD0021944A1170BD
:103DD000002004E00021934A1154411CC8B2082875
:103DE000F8D30021904A1170904A1170904A1160E6
:103DF000904A1160704700208F4908608F49087011
:103E00008F4908708F4908708F4908708F49086082
:103E10006F4908606F4908606B490860694908701C
:103E2000704710B502F07CFAFFF7E5FFFFF7CDFF12
:103E3000FFF796FFFFF76FFF00F0EAFE01F0C7FB08
:103E4000FFF746FFFFF719FF02F06BFA10BD7E483F
:103E50000078012808D179480078FF2804D27748F3
:103E60000078401C75490870704779496C4A12788F
:103E7000885C6C49095C764A515C01EBC0016B4A75
:103E80001170704710B500246F480078012830D1B8
:103E900002F09EFA04466948007820B1674800782D
:103EA000401E6649087065480078F8B96448007893
:103EB000E0B9FFF7DAFF42485C49097850F8210081
:103EC0005B490860594800785749097888420DD005
:103ED00057480068806B401C5549096888635B48F7
:103EE0000068401C5949086002F091FA204602F02F
:103EF00073FA10BD10B5002453480078012811D181
:103F000002F066FA04464D48007840B94C48007803
:103F1000FF2804D24A480078401C494908702046CE
:103F200002F05AFA10BD10B5002402F051FA04460E
:103F300042480078F8B942480078E0B9FFF795FFA9
:103F40001F483A49097850F8210039490860374834
:103F500000783549097888420DD035480068806B73
:103F6000401C33490968886338480068401C374959
:103F7000086002F045FA204602F02EFA10BD10B596
:103F800000243148007801286FD102F021FA04465C
:103F90002B48007880B12A480078401E28490870D4
:103FA0000846007848B92548007838B9204602F01C
:103FB00013FAFFF7B8FF58E054E04FE04AE0000082
:103FC000FC51002090000020880000208400002088
:103FD000A00000208C000020FC4D0020F84F0020A5
:103FE00075432F4F532D49492053746174000000CD
:103FF000FC4F0020F851002075432F4F532D4949A5
:104000002049646C65000000E44C00207C00002026
:10401000FC5200203F000000B0000020A80000205B
:1040200095000020960000209300002094000020BE
:10403000AC000020A4000020BC0000209100002063
:10404000920000209F0000209E00002078000020A9
:10405000BCBF0108204602F0BFF906E0204602F08E
:10406000BBF902E0204602F0B7F910BD10B5EB48ED
:10407000007890B9FFF7F9FEE9480078E94908703F
:10408000E948E749097850F82100E84908600846FE
:104090000068E749086002F0A2F910BD10B50024DD
:1040A000022002F065F802F093F904460020E1498D
:1040B0000860204602F090F9642002F059F802F0FE
:1040C00087F90446DB480068DB4908600120DB49CA
:1040D0000870204602F080F910BD70B5002602F08D
:1040E00074F902F075F90646D5480068401CD449B9
:1040F0000860304602F070F9C8480078012853D1B2
:10410000D048007820B1012804D0022809D103E06A
:1041100001250BE0002509E001250120C9490870AF
:1041200004E001250020C749087000BF00BF05B9A1
:1041300070BDC548046833E002F04AF90646E06AFB
:1041400050B3E06A401EE062E06A28BB94F8300099
:1041500000F0370040B114F8300F00F0C8002070B4
:1041600001206070303C02E0002084F8310094F8B7
:10417000300000F0080078B93434A078B3490978E9
:104180000843B24908702078B149085C6178084357
:1041900014F83419AE4A50546469304602F01CF9E0
:1041A00094F832003F28C7D100BFC1E740F2231086
:1041B0007047704710B590F8342001F10B039B5CF9
:1041C00090F83540A34301F10B04A35423469B5CB4
:1041D00023B98B7A90F83640A3438B7210BD2DE93A
:1041E000F04F05460F4690469946A87A99490E5CCD
:1041F00005F10B00805D11F800B00BEBC60000F07C
:10420000FF0A894850F82A4000202034E0602760E7
:10421000207C20EA0800207484F81190207C203C47
:1042200000F0080068B994F8360088490978084316
:10423000864908708648805D94F8351008438449A3
:10424000885529462046FFF7B5FF5046BDE8F08F58
:1042500010B5774A1268D061754A126892F8343006
:1042600000F10B02D25C724B1B6893F835301A4395
:104270006F4B1B6893F8344000F10B031A55827A98
:104280006B4B1B6893F836301A438272684A126887
:1042900092F834106E4A525C654B1B6893F83530C7
:1042A0009A436B4B5A541A46525C42B9604A1268A0
:1042B00092F83630654A12789A43644B1A7010BDF2
:1042C000014600228A72002005E0002301F10B0262
:1042D0001354421CD0B20828F7D3704705E011F8F8
:1042E000013B00F8013B531E9AB2002AF7D17047F8
:1042F0000146002002E0491C421CD0B20A78002A84
:10430000F9D170472DE9F84F05460F46904699467A
:10431000DDE90AAB0020009002F05AF800904E4808
:104320000468002C75D0183454F8040C4A4908600D
:10433000009802F051F844F8187CA5760020207609
:104340006076606144F814BC44F80CAC44F8108CFE
:104350000C9824F8080C24F8069C0020E077E8105C
:10436000207705F00700E076217F01208840A077C4
:10437000E17E01208840607700206060E060A060FE
:104380002062A0626062E0622063AFF27830606316
:10439000183C002606E0002104F1500040F82610E9
:1043A000701CC6B2002EF6D0204602F00DF8204652
:1043B00001F0B8FF02F00CF800901B4840F82540CF
:1043C0002148006860610020A0611F48006810B1AA
:1043D0001D48006884611C4804603434A0781B497F
:1043E000097808431949087020781949085C6178F0
:1043F000084314F83419164A505418480078401CE1
:1044000016490870009801F0E7FF0020BDE8F88F1A
:10441000FFE7009801F0E0FF4220F7E79E00002050
:104420009400002093000020FC510020AC000020EC
:10443000A4000020A00000208800002090000020A0
:10444000BC000020B4000020B00000209500002037
:1044500096000020BCBF0108A80000209F0000209B
:104460002DE9F05F04460F4691461E464FF0000BC3
:104470002078052804D0012030700020BDE8F09F8E
:1044800009F0800ABAF1000F04D029F080094FF03A
:10449000010801E04FF000080020307001F098FFA3
:1044A0008346B9F1000F2CD0B9F1010F3BD0B9F11F
:1044B000020F03D0B9F1030F46D111E0208900EAC1
:1044C0000705BD4206D1B8F1010F05D12089A843E7
:1044D000208101E070203070584601F07DFF3AE005
:1044E000208900EA070535B1B8F1010F05D120890F
:1044F000A843208101E070203070584601F06CFF25
:1045000029E0208927EA0005BD4206D1B8F1010F54
:1045100005D120892843208101E070203070584661
:1045200001F05AFF17E0208927EA000535B1B8F1FC
:10453000010F05D120892843208101E070203070CF
:10454000584601F049FF06E0584601F045FF0025B6
:104550006F20307000BF00BF28468FE72DE9F04183
:1045600006460D460027FA48007820B11020287032
:104570000020BDE8F08101F02BFF0746F5480468F4
:1045800084B100684068F3490860052020702681E6
:1045900000206060F0A0E060384601F01DFF0020C0
:1045A000287004E0384601F017FF7220287020467A
:1045B000DFE730B501464A6808682AB9CC68606010
:1045C00028B10025456002E0106000B142608B68B0
:1045D00000255D6230BDF0B506460F46B468002088
:1045E000283460602780207A00F0DF0020720020ED
:1045F0006072207A283C88B93434A078D749097889
:104600000843D64908702078D549085C617808438A
:1046100014F83419D24A5054012500E000253046E0
:10462000FFF7C7FF2846F0BD2DE9F047044689464D
:1046300015464FF0000AC648007820B10F202870B8
:104640002046BDE8F0872078052803D00120287097
:104650002046F6E701F0BCFE8246606808B10127FB
:1046600000E00027B9F1000F03D0B9F1010F3CD1F0
:1046700019E08FB9B8A0E06000202070B54800684C
:10468000606000202081B3480460504601F0A4FE21
:1046900000202870002605E0504601F09DFE4920CC
:1046A0002870264628E0D4F8048005E00021404622
:1046B000FFF791FFD8F80080B8F1000FF6D1A6A05F
:1046C000E06000202070A348006860600020208126
:1046D000A0480460504601F07FFE012F01D1FFF792
:1046E00022FC00202870002606E0504601F074FEEF
:1046F00007202870264600BF00BF3046A1E72DE9FD
:10470000F04105460E46144600279148007820B136
:10471000112020700020BDE8F08101F059FE07460D
:104720002878052806D0384601F056FE0120207072
:104730000020F0E7E86830603068FFF7D9FD804678
:10474000384601F049FE002020704046E3E72DE99D
:10475000F04105460E46144600277D48007818B102
:1047600012202070BDE8F08101F032FE0746287863
:10477000052805D0384601F02FFE01202070F1E712
:10478000EE60384601F028FE0020207000BFE9E707
:10479000F0B51446059E734F3F6897F8307047F0A8
:1047A0002007DFF8C0C1DCF800C08CF830700027AB
:1047B000DFF8B0C1DCF800C08CF83170694F3F6899
:1047C000FE62684F3F6879620C828B74654F3F6868
:1047D0008F6047680F6000274F60C860456805B16B
:1047E000696041605F4F3F6897F834205C4FBF5C61
:1047F000DFF870C1DCF800C09CF835C027EA0C0770
:10480000DFF85CC10CF802706746BF5C5FB9554FBA
:104810003F6897F836C0514F3F7827EA0C07DFF81A
:104820003CC18CF80070F0BD2DE9F04F89B0054611
:104830000F4691469A46129E002002904448007806
:1048400028B102203070002009B0BDE8F08F464842
:10485000007818B10D2030700020F5E72878052881
:1048600003D0012030700020EEE709F0800BBBF18F
:10487000000F04D009F07F094FF0010801E04FF06C
:10488000000801F0A5FD0290B9F1000F4AD0B9F17E
:10489000010F78D0B9F1020F03D0B9F1030F71D134
:1048A00020E0288900EA0704BC420FD1B8F1010FCB
:1048B00002D12889A04328812A48006804850298EB
:1048C00001F08AFD002030702046BDE74B463A4695
:1048D00004A92846CDF800A0FFF75AFF029801F07E
:1048E0007BFD78E0288900EA07047CB1B8F1010F6C
:1048F00002D12889A04328811A48006804850298BB
:1049000001F06AFD0020307020469DE74B463A4694
:1049100004A92846CDF800A0FFF73AFF029801F05D
:104920005BFD58E0288927EA0004BC421ED1B8F19B
:10493000010F02D12889204328810A480068048594
:10494000029801F049FD0020307020467CE71AE013
:1049500091000020800000203F0000009500002012
:1049600096000020A4000020920000204B463A460A
:1049700004A92846CDF800A0FFF70AFF029801F02D
:104980002BFD28E01FE0288927EA00047CB1B8F15C
:10499000010F02D1288920432881B148006804858D
:1049A000029801F019FD0020307020464CE74B467C
:1049B0003A4604A92846CDF800A0FFF7E9FE029880
:1049C00001F00AFD07E0029801F006FD00246F20C7
:1049D0003070204638E700BFFFF7A5FA01F0F8FC79
:1049E00002909F48006890F8310020B39C4800680E
:1049F00090F83100039000209949096881F831004E
:104A000004A8FFF7D6FD00209549096881F8300019
:104A1000029801F0E1FC00240398012805D0022847
:104A200002D10E20307003E000BF0A20307000BFBA
:104A300000BF204608E78A480068048DB8F1010FDE
:104A40001ED1B9F1000F0ED0B9F1010F0CD0B9F1A0
:104A5000020F03D0B9F1030F0AD100E000BF28898B
:104A6000A04328810BE000BF28892043288106E06D
:104A7000029801F0B1FC6F2030700020E4E600BF26
:104A8000029801F0A9FC002030702046DCE670B5E9
:104A9000002501F09DFC054671480068048D2846FC
:104AA00001F09AFC204670BD2DE9FC5F0446894662
:104AB00092461E46002000902078052804D0012050
:104AC00030700020BDE8FC9F01F082FC0090BAF13C
:104AD000000F03D0BAF1010F0AD104E0208920EAC7
:104AE000090020810BE0208940EA0900208106E0CE
:104AF000009801F071FC712030700020E2E700BFE7
:104B00004FF0000B656855E0A87C40B3012838D011
:104B1000022802D0032844D111E02089298A00EA22
:104B20000107288AB84209D139462846FFF753FDC4
:104B30008046B8F1010F01D14FF0010B38E0208918
:104B4000298A00EA01074FB139462846FFF743FD9D
:104B50008046B8F1010F01D14FF0010B28E0288AFF
:104B6000218920EA0107288AB84209D13946284616
:104B7000FFF731FD8046B8F1010F01D14FF0010B75
:104B800016E0288A218920EA01074FB139462846D4
:104B9000FFF721FD8046B8F1010F01D14FF0010B65
:104BA00006E0009801F018FC6F203070002089E7C3
:104BB00000BF2D68002DA7D1009801F00DFCBBF1BE
:104BC000010F01D1FFF7AFF901F002FC009020893D
:104BD0000190009801F000FC00203070019871E70E
:104BE0002DE9F04104460D4600272078052804D021
:104BF000012028700020BDE8F08101F0E9FB0746A4
:104C00002689384601F0E8FB002028703046F2E79C
:104C10002DE9F04150211348FFF774F800250EE00C
:104C2000681C86B20F4800EB051400EB0617002045
:104C300020706760AFF2E020E060681C85B2042D50
:104C4000EED3084800EB0514002020706060AFF23E
:104C5000F820E060034804490860BDE8F0810000E6
:104C6000A4000020AC4D00208000002070B5044658
:104C700000262078012801D0002070BD01F0A8FB9B
:104C80000646656800206060304601F0A5FB2846B6
:104C9000F3E770B505460026E348007808B1002028
:104CA00070BD01F095FB0646E0480468006820B13D
:104CB000DE4800684068DD490860304601F08CFB42
:104CC0003CB1012020700020208165602046FFF764
:104CD000F7FA2046E4E72DE9F047044688461546F2
:104CE0004FF000092078012804D0012028702046C8
:104CF000BDE8F087CC48007818B10F202870204616
:104D0000F6E701F065FB8146A07A08B1012700E0D3
:104D10000027B8F1000F03D0B8F1010F35D117E02B
:104D20007FB900202070C1480068606000202081A9
:104D3000BE480460484601F04FFB00202870002662
:104D400005E0484601F048FB49202870264623E04C
:104D500005E00023022219462046FFF740FAA07A18
:104D60000028F6D12070B1480068606000202081E2
:104D7000AE480460484601F02FFB012F01D1FFF738
:104D8000D2F800202870002606E0484601F024FBF7
:104D900007202870264600BF00BF3046A8E72DE94F
:104DA000F04105460F4614464FF0000828780128C8
:104DB00004D0012020700020BDE8F0819A480078DE
:104DC00018B1022020700020F6E79948007818B149
:104DD0000D2020700020EFE701F0FAFA80466E689F
:104DE00046B100206860404601F0F6FA00202070CD
:104DF0003046E1E78F48006890F8300040F002004C
:104E00008C49096881F8300000208A49096881F8D6
:104E1000310088480068C7622846FFF719FA404603
:104E200001F0DAFAFFF77FF801F0D2FA8046814804
:104E3000006890F8310020B101280DD002280AD175
:104E400005E07C480068066A002020700DE000261E
:104E50000E20207009E000BF294676480068FFF761
:104E6000A9F900260A20207000BF00BF0020714968
:104E7000096881F830006F49096881F831006D498F
:104E80000968C8616B4909680862404601F0A4FAE4
:104E9000304691E72DE9F04104460F4615464FF0A4
:104EA00000082078012804D0012028700020BDE8E7
:104EB000F08101F08DFA8046A07A20B300267FB100
:104EC000012F0CD107E002231A4600212046FFF7EC
:104ED00086F9701CC6B2A07A0028F4D109E000BFA0
:104EE00002231A4600212046FFF779F9701CC6B24A
:104EF00000BF00BF404601F06FFAFFF714F80E2024
:104F000028703046D3E7404601F066FA002028704A
:104F100000BFCCE770B504460D4600262078012876
:104F200001D0012070BD01F053FA0646A07A60B1AD
:104F30000023022229462046FFF751F9304601F0AE
:104F40004BFAFEF7F0FF0020ECE7606820B1304636
:104F500001F042FA1420E5E76560304601F03CFAC2
:104F60000020DFE72DE9F04104460E4615460027F4
:104F70002078012802D00120BDE8F08101F028FA54
:104F80000746A07AE8B105F0010050B105E0002322
:104F9000022231462046FFF722F9A07A0028F6D1F6
:104FA00005E00023022231462046FFF718F9384673
:104FB00001F012FA05F0040008B9FEF7B4FF002072
:104FC000DAE7606820B1384601F006FA1420D3E72A
:104FD0006660384601F000FA0020CDE72DE9F04781
:104FE00004460D464FF000092078012802D0012028
:104FF000BDE8F08701F0ECF98146A07A287304F14E
:105000000B0705F10408002605E017F8010B08F866
:10501000010B701CC6B2082EF7D3606828604846A2
:1050200001F0DAF90020E3E7910000207C00002085
:1050300092000020A40000202DE9F04106460D4614
:105040004FF000083078022804D00120287000209A
:10505000BDE8F08101F0BCF980467468E08A78B15F
:105060002169081D20610F68E08A401EE082A16866
:105070002069884201D1606820610020287002E028
:105080001F2028700027404601F0A6F93846DFE7C8
:105090002DE9F04106460F464FF00008F74800782A
:1050A00010B10020BDE8F08101F092F98046F4488B
:1050B0000568006820B1F24800684068F04908605F
:1050C000404601F089F93DB301F082F98046ED4890
:1050D0000468C4B100680068EA490860404601F00D
:1050E0007BF9666006EB8700A060E6602661A78218
:1050F0000020E08202202870002028816C60284671
:10510000FFF7DEF808E0DE4800686860DC4805600C
:10511000404601F061F900252846C3E72DE9F04734
:105120000446894615464FF0000A2078022804D02C
:10513000012028702046BDE8F087D048007818B1DB
:105140000F2028702046F6E701F042F98246A07A47
:1051500010B14FF0010801E04FF00008B9F1000F65
:1051600003D0B9F1010F45D11FE0B8F1000F15D1FF
:105170006668C44800683060C2480660002020703D
:10518000BF480068606000202081BD480460504630
:1051900001F022F900202870002705E0504601F0B8
:1051A0001BF94920287027462BE005E00023042244
:1051B00019462046FFF713F8A07A0028F6D1666852
:1051C000B04800683060AF48066000202070AC48EE
:1051D0000068606000202081A9480460504601F00A
:1051E000FBF8B8F1010F01D1FEF79DFE00202870F9
:1051F000002706E0504601F0EFF807202870274608
:1052000000BF00BF384696E770B50546002601F09E
:10521000DFF806466C686068E06060682061002026
:10522000E082304601F0D8F8002070BD2DE9F0474B
:105230000746884615464FF000093878022804D002
:10524000012028700020BDE8F0878C48007818B154
:10525000022028700020F6E78B48007818B10D2056
:1052600028700020EFE701F0B3F881467C68E08AFF
:1052700098B12169081D20610E68E08A401EE08215
:10528000A1682069884201D160682061484601F028
:10529000A3F8002028703046D5E77C48006890F8D5
:1052A000300040F004007949096881F8300000209E
:1052B0007649096881F8310074480068C0F82C808C
:1052C0003846FEF7C5FF484601F086F8FEF72BFE8C
:1052D00001F07EF881466D48006890F8310020B1F9
:1052E00001280DD002280AD105E068480068066A46
:1052F000002028700DE000260E20287009E000BF75
:10530000394662480068FEF755FF00260A202870DB
:1053100000BF00BF00205D49096881F830005B498B
:10532000096881F8310059490968C8615749096815
:105330000862484601F050F8304684E72DE9F04114
:1053400004460F4615464FF000082078022804D086
:10535000012028700020BDE8F08101F039F8804676
:10536000A07A20B300267FB1012F0CD107E00223E1
:10537000042200212046FEF732FF701CC6B2A07A3C
:105380000028F4D109E000BF0223042200212046B6
:10539000FEF725FF701CC6B200BF00BF404601F0FB
:1053A0001BF8FEF7C0FD0E2028703046D3E74046BC
:1053B00001F012F80020287000BFCCE72DE9F04181
:1053C00005460E4600272878022802D00120BDE8B5
:1053D000F08100F0FDFF0746A87A60B100230422A7
:1053E00031462846FEF7FBFE384600F0F5FFFEF793
:1053F0009AFD0020EBE76C68E08AA18A884204DB12
:10540000384600F0E9FF1E20E1E7E168081DE06092
:105410000E60E08A401CE082D4E90210884201D18B
:105420006068E060384600F0D7FF0020CFE72DE944
:10543000F04105460E4600272878022802D00120B8
:10544000BDE8F08100F0C4FF0746A87A60B10023F0
:10545000042231462846FEF7C2FE384600F0BCFF63
:10546000FEF761FD0020EBE76C68E08AA18A8842C4
:105470000EDB384600F0B0FF1E20E1E7910000206F
:105480007C000020B800002092000020A400002032
:1054900061682069884201D1A06820612069001FED
:1054A000206120690660E08A401CE082384600F0F6
:1054B00093FF0020C4E72DE9F04105460F4616464C
:1054C0004FF000082878022802D00120BDE8F081C2
:1054D00000F07EFF8046A87AE8B106F0010050B1E6
:1054E00005E00023042239462846FEF778FEA87A14
:1054F0000028F6D105E00023042239462846FEF7AD
:105500006EFE404600F068FF06F0040008B9FEF7A2
:105510000AFD0020DAE76C68E08AA18A884204DB91
:10552000404600F059FF1E20D0E706F0020058B1B7
:1055300061682069884201D1A06820612069001F4C
:1055400020612069076009E0E168081DE0600F60E4
:10555000D4E90210884201D16068E060E08A401C12
:10556000E082404600F038FF0020AFE72DE9F04729
:1055700005460C464FF0000A2878022802D0012088
:10558000BDE8F08700F024FF8246A87A207405F178
:105590000B0804F10809002705E018F8010B09F8C9
:1055A000010B781CC7B2082FF7D36E68F08A18B1C8
:1055B00030690068206001E000202060F08AA0804F
:1055C000B08AE080504600F007FF0020D8E72DE9C0
:1055D000F04178211048FEF795FB00240DE0601C97
:1055E00086B204EB44000C4901EBC00506EB460013
:1055F00001EBC0072F60601C84B2042CEFD304EBD6
:105600004400054901EBC005002028600846034915
:105610000860BDE8F0810000EC560020B8000020D2
:1056200070B5044600262078032801D0002070BD04
:1056300000F0CEFE0646258915B12089401E208146
:10564000304600F0C9FE2846F1E770B50546002651
:10565000D248007808B1002070BD00F0B9FE0646BF
:10566000CF480468006820B1CD4800684068CC4944
:105670000860304600F0B0FE3CB103202070258168
:10568000002060602046FEF71BFE2046E4E72DE97F
:10569000F0470446884615464FF000092078032855
:1056A00004D0012028702046BDE8F087BB48007870
:1056B00018B10F2028702046F6E700F089FE8146D9
:1056C000A07A08B1012700E00027B8F1000F03D04D
:1056D000B8F1010F35D117E07FB900202070B04834
:1056E0000068606000202081AD480460484600F0FA
:1056F00073FE00202870002605E0484600F06CFE8E
:1057000049202870264623E005E00023012219469F
:105710002046FEF764FDA07A0028F6D12070A0484C
:1057200000686060002020819D480460484600F0C9
:1057300053FE012F01D1FEF7F6FB00202870002652
:1057400006E0484600F048FE07202870264600BFC5
:1057500000BF3046A8E72DE9F04105460E46144645
:1057600000272878032803D001202070BDE8F081AD
:105770008A48007810B102202070F7E78948007845
:1057800010B10D202070F1E700F022FE07462889B5
:1057900040B12889401E2881384600F01DFE0020B7
:1057A0002070E3E78048006890F8300040F0010086
:1057B0007D49096881F8300000207B49096881F83B
:1057C000310079480068C6622846FEF741FD384638
:1057D00000F002FEFEF7A7FB00F0FAFD0746724854
:1057E000006890F8310020B1012809D0022806D1C4
:1057F00002E0002020700BE00E20207008E000BFC7
:10580000294669480068FEF7D5FC0A20207000BFD1
:1058100000BF00206449096881F8300062490968C6
:1058200081F8310060490968C861384600F0D4FD4C
:1058300000BF9BE72DE9F04104460F4615464FF0A7
:1058400000082078032804D0012028700020BDE83B
:10585000F08100F0BDFD8046A07A20B300267FB124
:10586000012F0CD107E00223012200212046FEF780
:10587000B6FC701CC6B2A07A0028F4D109E000BFC3
:105880000223012200212046FEF7A9FC701CC6B2AB
:1058900000BF00BF404600F09FFDFEF744FB0E2016
:1058A00028703046D3E7404600F096FD002028706F
:1058B00000BFCCE770B5044600252078032801D04E
:1058C000012070BD00F084FD0546A07A60B1002380
:1058D000012219462046FEF782FC284600F07CFD96
:1058E000FEF721FB0020ECE720894FF6FF7188428C
:1058F00007D22089401C2081284600F06DFD002041
:10590000DFE7284600F068FD3320DAE72DE9F047AD
:1059100004460D464FF000092078032802D00120EC
:10592000BDE8F08700F054FD8146A07AA87204F12A
:105930000B0705F10208002605E017F8010B08F82F
:10594000010B701CC6B2082EF7D320892880484668
:1059500000F042FD0020E3E72DE9F04104460E4649
:10596000154600272078032803D001202870BDE8C1
:10597000F08100F02DFD074600202870208908B135
:10598000268105E0A07A08B9268101E04920287027
:10599000384600F021FD00BFE9E70000910000203B
:1059A0007C00002092000020A40000202DE9FF5F71
:1059B000814688460020009000F00AFD0090F948DA
:1059C00050F8280030B1009800F006FD282004B0FF
:1059D000BDE8F09FB9F1FF0F03D1F348006890F8DC
:1059E0003290F04850F8294024B9009800F0F4FCB7
:1059F0002920ECE7012C04D1009800F0EDFC4320B5
:105A0000E5E74FEAE80708F0070003900120B840F7
:105A100000F0FF0A01210398814001F0FF0B0020F4
:105A2000E04941F82900084640F8284014F8346F4E
:105A3000A07802906078343C0190DC48815D019848
:105A40000140D1B1D948805D01998843D749885533
:105A50000846805D28B9D648007802998843D44921
:105A60000870D348007840EA0A00D1490870CF484E
:105A7000C05D40EA0B00CD49C855E569D5B105F1D7
:105A80000B00805D0199884305F10B01885508469C
:105A9000805D18B9A87A02998843A872A87A40EA6A
:105AA0000A00A87205F10B00C05D40EA0B0005F189
:105AB0000B01C85584F8328084F83470039884F858
:105AC000330084F836A084F835B0009800F084FCE8
:105AD000B8480078012801D1FEF725FA002076E7C2
