:030000000238DAE9
:0C38DA00787FE4F6D8FD758107023921E3
:103D9A00687474703A2F2F74746D63752E74616F22
:103DAA0062616F2E636F6D004C43445F573A004C5B
:103DBA0043445F483A0056583A0056793A00434815
:083DCA00583A004348593A0041
:043E67004100960080
:103BB200123ED8EF701E74FFFFFE123C1074FF908D
:103BC2000094F0A3F090009274F8F0A3E4F01235A0
:103BD200EC7F012220B2061213737F01227F0020A4
:103BE200B32B7EF8123C107FB87E0B123E057FE0AD
:103BF2007E07123C107FB87E0B123E057F1F7E00AF
:0E3C0200123C107FB87E0B123E057F0122227D
:102A0D0074FF900094F0A3F090009274F8F0A3E49A
:102A1D00F0FBFDFC7F0AFE1236C57B01E4FDFC7F59
:102A2D002DFE1236C57BFF7A3D799A7D237C007F82
:102A3D000A7E001238397BFF7A3D79B27D377C00F2
:102A4D007F0A7E001238399000471225DB00000006
:102A5D00F090004B7403F07D377C007F467E0012B2
:102A6D00350B7BFF7A3D79B97D377C007F6E7E001B
:102A7D001238399000471225DB0000014090004BC1
:102A8D007403F07D377C007FA07E0012350B900023
:102A9D0006E4F0A3740AF0A3E4F0A3744BF07BFFFB
:102AAD007A3D79C0FD7C007F0A7E00123839900096
:102ABD0007E02428F0900006E03400F090008EE04E
:102ACD00FEA3E0FFE4FCFD9000471225CF90004BE4
:102ADD007405F0900008E0FCA3E0FD900006E0FE18
:102AED00A3E0FF12350B900007E0243CF0900006A8
:102AFD00E03400F0E0FEA3E0FFA3E0FCA3E0FD7BEB
:102B0D00FF7A3D79C4123839900007E02428F090FF
:102B1D000006E03400F0900090E0FEA3E0FFE4FC3E
:102B2D00FD9000471225CF90004B7405F0900008E2
:102B3D00E0FCA3E0FD900006E0FEA3E0FF12350BE4
:102B4D00900006E4F0A3740AF0A3E4F0A3745FF020
:102B5D007BFF7A3D79C8FD7C007F0A7E00123839F3
:102B6D00900007E02428F0900006E03400F090007B
:102B7D0082E0FEA3E0FFE4FCFD9000471225CF901C
:102B8D00004B7405F0900008E0FCA3E0FD900006FA
:102B9D00E0FEA3E0FF12350B900007E0243CF0901F
:102BAD000006E03400F0E0FEA3E0FFA3E0FCA3E0AC
:102BBD00FD7BFF7A3D79CD123839900007E024284E
:102BCD00F0900006E03400F0900084E0FEA3E0FFFA
:102BDD00E4FCFD9000471225CF90004B7405F0905A
:102BED000008E0FCA3E0FD900006E0FEA3E0FF027C
:022BFD00350B96
:10320B0074FFFFFE123C10122A0D900004E4F0A391
:10321B007403F0E4900002F0A3F0900002E0FAA334
:10322B00E0FB7C007D28FFAE021223F7C006C0072F
:10323B00A3E0FEA3E0FF1223F7C006C007AF03AE67
:10324B00021223F7EF2427FBE43EFA900004E0FE82
:10325B00A3E0FF1223F7EF2427FFE43E900069F071
:10326B00A3EFF0D005D004D007D006123D53E49065
:10327B000000F0A3F0123BB2EF60079000967401D0
:10328B00F022900001E025E0FD900000E033FC749B
:10329B00042DF58274003CF583E493FF74032DF544
:1032AB008274003CF583E493FD123EDE900001E056
:1032BB0004F07006900000E004F0C3900001E0946D
:1032CB0040900000E06480948640AA900003E004E4
:1032DB00F07006900002E004F0C3900003E0940647
:1032EB00900002E064809480500302322590000528
:1032FB00E004F07006900004E004F0C3900005E0D9
:10330B009408900004E064809480500302321EE421
:04331B00900096F098
:01331F00228B
:103DD200123EC012260C74FFFFFE123C10E490004B
:103DE20094F0A3F074FF900092F0A3F012320B1241
:103DF2003BB2EF600312320B900096E060F1123298
:033E02000B80EC46
:023EE8002000B8
:0F3EA7008FA0C2B6D2B6AF058FA0C2B6D2B622D8
:073ED1008FA0C2B6D2B62299
:053EDE00D2B5023EA771
:053E9700E0FEA3E0FFC6
:0B3E9C00AD07AC06D2B5ECFF023EA75C
:053EB600123EBB7F037A
:053EBB00D2B5023ED16A
:053EE300C2B5023ED152
:083EC900123EE3AF05023EBB0F
:103D5300900063EEF0A3EFF07F2A123EE39000633E
:103D6300E0FF123EBBA3E0FF123EBBEAFF123EBBE5
:103D7300AF03123EBB7F2B123EE3ECFF123EBBAF01
:103D830005123EBB900069E0FF123EBBA3E0FF12A9
:073D93003EBB7F2C023EE362
:10260C00D290209057E4FDFF123EC97BFF7A3E79B1
:10261C00E8FCFFFE1238399000471225DB00000061
:10262C0000E490004BF0FDFCFFFE12350BE4900033
:10263C0006F0FBFAFDFCFFFE123966E4FDFCFFFE22
:10264C00123CBEE4900006F0A3F0FBFAFDFCFFFE8A
:10265C0012378FE4FBFDFCFFFE122816D2B7D2B660
:10266C00C2927F147E00123E05D2927F147E00121D
:10267C003E05C2907FCF123EE3E4FF123EBB7FC10A
:10268C00123EBB7F30123EBB7FED123EE37F6412E5
:10269C003EB67F12123EBB7F81123EBB7FCB123EF9
:1026AC00E37F39123EBB7F2C123EBBFF123EBB7F39
:1026BC0034123EBB7F02123EBB7FEA123EE3FF1296
:1026CC003EBB123EBB7FE8123EE37F85123EBB7FD2
:1026DC0010123EBB7F79123EBB7FC0123EE37F23BC
:1026EC00123EBB7FC1123EE37F11123EBB7FC21272
:1026FC003EE37F11123EBB7FC5123EE37F3D123E8F
:10270C00BB7F30123EBB7FC7123EE37FAA123EBB9B
:10271C007F3A123EE37F55123EBB7F36123EE37F7B
:10272C0008123EBB7FB1123EE3FF123EBB7F11127B
:10273C003EBB7FB6123EE37F0A123EBB7FA2123E27
:10274C00BB7FF2123EE3FF123EBB7FF7123EE37FEC
:10275C0020123EBB7FF1123EE37F01123EBB7F3065
:10276C00123EBB7F26123EE37F01123EBB7FE0127E
:10277C003EE37F0F123EBB7F3F123EBB7F2F123ECC
:10278C00BB7F0C123EBB7F10123EBB7F0A123EBBBE
:10279C007F53123EBB7FD5123EBB7F40123EBB7FA8
:1027AC000A123EBB7F13123EB67F08123EB6FF12D2
:1027BC003EBB7FE1123EE3FF123EBB123EBB7F10DD
:1027CC00123EB67F0F123EBB7F05123EBB7F2C1212
:1027DC003EBB7FA2123EBB7F3F123EBB7F05123E2B
:1027EC00BB7F0E123EBB7F0C123EBB7F37123EBB33
:1027FC007F3C123EBB7F0F123EBB7F11123EE37F2C
:0A280C0050FE123E057F29023EE354
:023C1000AC0600
:103C1200EC90004AF0A9079000697401F0A3743F88
:103C2200F07BEF7A00E4FDFCFFFE123D53E49000CE
:103C32004BF0A3F0E4FBFA90004AE0FFAD01123E24
:103C4200DE0BBB00010ABA01EEBB40EB90004CE078
:103C520004F0700690004BE004F0C390004CE09436
:093C6200F090004BE0940040CB0F
:013C6B002236
:1036C50090000AEEF0A3EFF090000EEBF090000CE6
:0536D500ECF0A3EDF094
:1036DA0090001174FFF0A3740CF0A37483F09000AF
:1036EA000AE0FAA3E0FFAE02C006C007241FFBE40B
:1036FA003AFAA3E0FEA3E0241FFFE43E900069F03B
:10370A00A3EFF0D007D006123D5390000EE075F0FB
:10371A0080A4FF900012E5F08FF012245EE490007E
:10372A0010F0E490000FF090000FE0FFC3940850EF
:10373A003D900011E0FBA3E0FAA3E0F91223DEFDBD
:10374A007C0074017E00A807088005C333CE33CEFF
:10375A00D8F9FFEE5CFEEF5D4E60059000928003A3
:10376A00900094123E9790000FE004F080B9900008
:10377A0012E475F00112245E900010E004F0E0C338
:04378A009480409E49
:01378E002218
:103C6C00900004E0FEA3E0FF900001E02FFF900025
:103C7C0000E03E900006FEE0FCA3E0FD900003E0B7
:083C8C002DFD900002E03CFC5C
:103C9400AB07AA068D828C83C006C007AE83AF82B1
:103CA400900069EEF0A3EFF0D007D006123D5390D8
:0A3CB4000092E0FEA3E0FF023E9C38
:103CBE00AB07AA068D828C83EB24FFFFEA34FFFE4E
:103CCE00C006C007E58224FFFDE58334FFFCEB242C
:103CDE0001FBE43AFAAE83AF82EF2401FFE43E909B
:103CEE000010F0A3EFF0900092E0FFA3E09000121E
:0C3CFE00CFF0A3EFF0D007D0060239E8A9
:1039E80090000AEEF0A3EFF0A3ECF0A3EDF0A3EA49
:0439F800F0A3EBF05D
:1039FC00C007A3E0FFA3E0900069CFF0A3EFF0D0E5
:103A0C0007123D5390000CE0FFA3E0900014CFF0A0
:103A1C00A3EFF0900010E0FEA3E0FFD3900015E0C0
:103A2C009F900014E09E503490000AE0FEA3E0FB4F
:103A3C00AA06C390000FE09B90000EE09A400D90F8
:103A4C000012123E970BBB00010A80E6900015E0B5
:0C3A5C0004F070BF900014E004F080B78C
:013A6800223B
:0E2BFF00900047EEF0A3EFF0A3ECF0A3EDF092
:102C0D00E4900051F0A3F0A3F0A3F0900047E0FE94
:102C1D00A3E0FFC3EB9FFFEA9E900055F0A3EFF0FA
:102C2D00900049E0FAA3E0FBC390004EE09BFE90BC
:102C3D00004DE09A900057F0A3CEF0900047E0FFD2
:102C4D00A3E090005FCFF0A3EFF0A3EAF0A3EBF0C9
:102C5D00900055E0FEA3E0FFD39400EE64809480D5
:102C6D00400A90005BE4F0A304F08021EF4E700861
:102C7D0090005BF0A3F0801574FF90005BF0A3F063
:102C8D00C3E49FFFE49E900055F0A3EFF090005732
:102C9D00E0FEA3E0FFD39400EE64809480400A90A0
:102CAD00005DE4F0A304F08021EF4E700890005D0C
:102CBD00F0A3F0801574FF90005DF0A3F0C3E49FC6
:102CCD00FFE49E900057F0A3EFF0900057E0FEA3B5
:102CDD00E0FF900055E0FCA3E0FDD39FEE6480F88B
:102CED00EC6480989000594007ECF0A3EDF080055E
:102CFD00EEF0A3EFF0E490004FF0A3F090005AE057
:102D0D002401FF900059E03400FED3900050E09F65
:102D1D0090004FE09E4003022DE990005FE0FEA37E
:102D2D00E0FFA3E0FCA3E0FD123C94900055E0FE13
:102D3D00A3E0FF900052E02FF0900051E03EF090A4
:102D4D000057E0FEA3E0FF900054E02FF0900053F9
:102D5D00E03EF0900059E0FEA3E0FF900051E0FC52
:102D6D00A3E0FDD39FEE6480F8EC6480984020EDE5
:102D7D009FFFEC9E900051F0A3EFF090005BE0FE02
:102D8D00A3E0FF900060E02FF090005FE03EF09038
:102D9D000059E0FEA3E0FF900053E0FCA3E0FDD35B
:102DAD009FEE6480F8EC6480984020ED9FFFEC9ED0
:102DBD00900053F0A3EFF090005DE0FEA3E0FF90D4
:102DCD000062E02FF0900061E03EF0900050E004D2
:0C2DDD00F0700690004FE004F0022D0999
:012DE90022C7
:10378F00900004EAF0A3EBF0900000EEF0A3EFF04E
:10379F00A3ECF0A3EDF0C007A3E0FAA3E0FB9000C9
:1037AF0002E0FFA3E090004DCFF0A3EFF0D007129F
:1037BF002BFF900000E0FAA3E0FBFFAE02C007A3CF
:1037CF00E0FCA3E0FD900006E0FFA3E090004DCFEA
:1037DF00F0A3EFF0D007122BFF900006E0FCA3E060
:1037EF00FD900004E0FAA3E0FBA3E0FFA3E090004C
:1037FF004DCFF0A3EFF0900000E0FEA3E0FF122BFF
:10380F00FF900004E0FAA3E0FBFFAE02C0079000B8
:10381F0002E0FCA3E0FD900006E0FFA3E090004D66
:0A382F00CFF0A3EFF0D007022BFF4B
:0E281600900000EEF0A3EFF0A3ECF0A3EDF0C5
:10282400E4A3F0A3F0EBFF7E00A3EEF0A3EFF0250A
:10283400E0FFEE33FEC374039F900009F0E49E9022
:102844000008F0900006E0FEA3E0FFD3900005E04E
:102854009FEE6480F8900004E06480984003022AAC
:102864000CC3900001E09FFF900000E09EFE9000EA
:1028740004E0FCA3E0FDC3900003E09DFD90000292
:10288400E09CFC123C94900006E0FEA3E0FF900064
:1028940001E02FFF900000E03EFE900004E0FCA366
:1028A400E0FDC3900003E09DFD900002E09CFC125B
:1028B4003C94900004E0FEA3E0FFC3900001E09F7D
:1028C400FF900000E09E123C7F900006E0FEA3E033
:1028D400FFC3900001E09FFF900000E09EFE900087
:1028E40004E0FCA3E0FDC3900003E09DFD90000222
:1028F400E09CFC123C94900004E0FEA3E0FFC39033
:102904000001E09FFF900000E09EFE900006E0FCC6
:10291400A3E0FDC3900003E09DFD900002E09CFC59
:10292400123C94900006E0FEA3E0FF900001E02F2B
:10293400FF900000E03E900004123C82900004E00E
:10294400FEA3E0FF900001E02FFF900000E03EFEB8
:10295400900006E0FCA3E0FDC3900003E09DFD9021
:102964000002E09CFC123C94123C6C900006E0FED9
:10297400A3E0FFC3900001E09FFF900000E09EFEF3
:10298400900004123C83900005E004F0700690006F
:1029940004E004F0C3900008E06480948050249024
:1029A4000004E0FEA3E07802C333CE33CED8F9248A
:1029B40006FFE43EFE900009E02FF0900008E03EA0
:1029C400F0803F900006E0FEA3E0FFC3900005E026
:1029D4009FFF900004E09EFEEF7802C333CE33CE17
:1029E400D8F9240AFFE43EFE900009E02FF090009D
:1029F40008E03EF0900007E024FFF0900006E03489
:082A0400FFF0123C6C022847B0
:012A0C0022A7
:062DEA00FBE4900054F030
:102DF00090004FEEF0A3EFF0A3ECF0A3EDF0A3EB07
:012E0000F0E1
:102E010090004FE0FEA3E0FF900057EEF0A3EFF03B
:102E1100900092E0FDA3E0900059CDF0A3EDF0D336
:102E2100EF94E0EE94004003022F82900051E0FC09
:102E3100A3E0FD9430EC94014003022F82900053F3
:102E4100E024E0F090004FE0FAA3E0FFAE02C006FC
:102E5100C0072407FBE43AFAA3E0FEA3E0240FFF36
:102E6100E43E900069F0A3EFF0D007D006123D5385
:102E7100900054E06003022F0AF9900053E075F0CE
:102E810010A4FFE97C002FFFEC35F0FE74832FF5D1
:102E910082740D3EF583E493900055F0E4A3F09025
:102EA1000055E030E0059000598003900094E0FF68
:102EB100A3E0900092CFF0A3EFF0900092123E9722
:102EC100900055E0C313F0900050E004F0700690BC
:102ED100004FE004F0900056E004F0E0C394084095
:102EE100BE900057E0FFA3E090004FCFF0A3EFF0BA
:102EF100900052E004F07006900051E004F009E9FE
:102F010064106003022E7B8069E4F9900053E07540
:102F1100F010A4FFE97C002FFFEC35F0FE74832F45
:102F2100F582740D3EF583E493900055F0E4A3F02F
:102F3100900056E0FFC394085033900055E030E014
:102F41001F900050E02FFF90004FE03400FEE9FD9C
:102F5100900052E02DFD900051E03400FC123C94B1
:102F6100900055E0C313F0A3E004F080C309E9B475
:102F71001099900059E0FFA3E0900092CFF0A3EFE9
:012F8100F05F
:012F8200222C
:083D0A0090004FEFF0A3EDF073
:103D1200A31225DB00000001900050E0FF14F0EF39
:103D22006020A3E0F8A3E0F9A3E0FAA3E0FB90008F
:103D32004FE0FFE4FCFDFE1224939000511225CFC8
:103D420080D6900051E0FCA3E0FDA3E0FEA3E0FFDB
:013D5200224E
:0E350B00900043EEF0A3EFF0A3ECF0A3EDF080
:10351900E490004EF0900047A3A3E0FEA3E0FFE48F
:10352900FCFD9000471225CFE490004CF090004B31
:10353900E0FFA3E0FEC39F40030235EBC3EF9E14F7
:10354900FD7F0A123D0AA804A905AA06AB07900047
:1035590047E0FCA3E0FDA3E0FEA3E0FF12251EE483
:103569007B0AFAF9F812251E90004DEBF0A3E070E2
:103579003B90004BE014FFA3E0FEC39F502EA3E055
:103589007024EE75F008A4FF900044E02FFF90002E
:1035990043E035F0FE900045E0FCA3E0FDE4900037
:1035A90054F07B20803090004E7401F090004CE084
:1035B90075F008A4FF900044E02FFF900043E03528
:1035C900F0FE900045E0FCA3E0FD90004DE02430C2
:1035D900FBE4900054F0122DF090004CE004F0024E
:0235E900353675
:0135EB0022BD
:10396600900000EEF0A3EFF0A3ECF0A3EDF0A3EAD5
:04397600F0A3EBF0DF
:10397A00E4900007F0900006E0F9A3E0FFC3995035
:10398A005CC3E99F14FD7F0A123D0AA804A905AA8F
:10399A0006AB07900004E0FEA3E0FFE4FCFD12255D
:1039AA001EE47B0AFAF9F812251EAF03900008EF0D
:1039BA00F0900007E075F008A4FF900001E02FFFE7
:1039CA00900000E035F0FE900002E0FCA3E0FDEB81
:0D39DA002430122DEA900007E004F08098E0
:0139E70022BD
:10383900900043EEF0A3EFF0A3ECF0A3EDF0A3EBBF
:10384900F0A3EAF0A3E9F0900047E0FBA3E0FAA3B4
:10385900E0F91223DE6079D3900044E094E090000F
:1038690043E094004012E4F0A3F0900046E02410F5
:10387900F0900045E03400F0D3900046E094309099
:103889000045E094014011E4900043F0A3F0A3F057
:10389900A3F0FF7EF8123C10900043E0FEA3E0FF86
:1038A900A3E0FCA3E0FDA3E0FBA3E0FAA3E0F91287
:1038B90023DE122DEA900044E02408F0900043E052
:1038C9003400F0900048E475F00112245E0238508B
:0138D90022CC
:103E0500E4FDFCC3ED9FEE6480F8EC6480985015EA
:103E1500E4FBFA0BBB00010ABA03F8BBE8F50DBDDC
:053E250000010C80DE2D
:013E2A002275
:10000300FFFFFFFFFFFFFFFFFFFFFFFFFFFFFFFFFD
:10001300FFFFFFFFFFFFFFFFFFFFFFFFBEF77DEFC8
:10002300BAD6B6B5F39CB294B39CB29434A5F7BDDB
:10003300FBDE7DEFFFFFFFFFFFFFFFFFFFFFFFFF84
:10004300FFFFFFFFFFFFFFFFFFFFFFFFFFFFFFFFBD
:10005300FFFFFFFFFFFFFFFFFFFFFFFFFFFFFFFFAD
:10006300FFFFFFFFFFFFFFFFBEF7FBDEF39CCB5A53
:10007300C7390421821042104210410883184529D0
:10008300C7390C6375AD3CE7BEF7FFFFFFFFFFFF0A
:10009300FFFFFFFFFFFFFFFFFFFFFFFFFFFFFFFF6D
:1000A300FFFFFFFFFFFFFFFFFFFFFFFFFFFFFFFF5D
:1000B300FFFFFFFFFFFF3CE7B2940842C318821023
:1000C300042145298631863186318631452904212B
:1000D30082104108C3180842F39C3CE7FFFFFFFF6F
:1000E300FFFFFFFFFFFFFFFFFFFFFFFFFFFFFFFF1D
:1000F300FFFFFFFFFFFFFFFFFFFFFFFFFFFFFFFF0D
:10010300FFFFFFFFFBDE0C63C318C3184529C73984
:10011300084208420842084208420842C739C73920
:1001230086318631042141088210CB5ABAD6FFFFAB
:10013300FFFFFFFFFFFFFFFFFFFFFFFFFFFFFFFFCC
:10014300FFFFFFFFFFFFFFFFFFFFFFFFFFFFFFFFBC
:10015300FFFFFBDECB5A82104529C739084208420C
:10016300094A494A494A494A494A494A0842C73910
:10017300C739C7398631452983180000C84138C6B5
:10018300FFFFFFFFFFFFFFFFFFFFFFFFFFFFFFFF7C
:10019300FFFFFFFFFFFFFFFFFFFFFFFFFFFFFFFF6C
:1001A3007DEF8E7382104529C7390842094A8A5266
:1001B3003084CF7B8A52494A4A52494ACB5ACF7B31
:1001C3000C630842C73986314529C3180000494AE0
:1001D300BAD6FFFFFFFFFFFFFFFFFFFFFFFFFFFF9A
:1001E300FFFFFFFFFFFFFFFFFFFFFFFFFFFFFFFF1C
:1001F300F39CC3180421C7390842494A494A7294F7
:100203007DEF7DEFB2944A52494A8A5275ADBEF7EB
:10021300BAD64D6BC739C73986314529C31841084A
:10022300CF7B7CE7FFFFFFFFFFFFFFFFFFFFFFFF2A
:10023300FFFFFFFFFFFFFFFFFFFFFFFFFFFFBAD639
:1002430008428210C7390842494A494A8E73FBDE85
:10025300FFFFBEF7BAD68E73084230843CE77DEFCA
:10026300FFFFB6B5494AC7398631452904214108FC
:100273004529B6B5FFFFFFFFFFFFFFFFFFFFFFFFAE
:10028300FFFFFFFFFFFFFFFFFFFFFFFFBEF7718CC5
:10029300410845290842494A494A4A52B294BEF79D
:1002A300BEF7B294CF7BCF7B494AB6B5F39C0C63C0
:1002B30038C6BAD60C638739C73986314529C3187E
:1002C300410830847DEFFFFFFFFFFFFFFFFFFFFFCC
:1002D300FFFFFFFFFFFFFFFFFFFFFFFF3CE7CB5ADF
:1002E3004108C7390842494A4A528A52F39CFFFFE0
:1002F3007DEFC739C3180C63CB5AB6B5B294CB5A4A
:1003030075ADFAD64D6B8739C73986314529042136
:1003130041088A5279CEFFFFFFFFFFFFFFFFFFFF78
:10032300FFFFFFFFFFFFFFFFFFFFFFFF38C6863121
:100333000421C841494A494A4A52494AB18CBEF745
:10034300BEF7B294CF7BCF7B494A74A57DEF7CE7A0
:10035300BEF779CE0C63C739C739863145290421E5
:100363008210452975ADBEF7FFFFFFFFFFFFFFFFBB
:10037300FFFFFFFFFFFFFFFFFFFFFFFF34A582101B
:1003830086310842494A494A8A52494A4D6BBAD68C
:10039300FFFFFFFF79CE0D63C739CF7B7DEFFFFFF3
:1003A300FFFF75AD08428631C73986314529452996
:1003B300C318C318B2947DEFFFFFFFFFFFFFFFFFDA
:1003C300FFFFFFFFFFFFFFFFFFFFBEF7B28C4108F8
:1003D300C7390842494A494A8A528A524A4AD07B13
:1003E3007AC67BBE906BC9398831C939B384BBC621
:1003F300F8B5CC5A8631C739C739863145294529DD
:10040300C420410830843CE7FFFFFFFFFFFFFFFFED
:10041300FFFFFFFFFFFFFFFFFFFF3CE78A4AC31019
:10042300C7390842494A494A4A4A4A42093A084AA4
:10043300096B497BC67A05834683C57AC672097BF5
:10044300485A8731882188298631863145294529AB
:10045300042141084A4ABAD6FFFFFFFFFFFFFFFF0F
:10046300FFFFFFFFFFFFFFFFFFFFF7C582500541BF
:10047300C7290842494A4A42494A097B889BC6B36D
:1004830021D4A0DCE1E461ED61ED21EDA0E420DC09
:1004930080CB43ABC482065A472146294529042908
:1004A300041982108218F39C7DEFFFFFFFFFFFFF0B
:1004B300FFFFFFFFFFFFFFFF7DEF4D9300A082B81B
:1004C300C7310932494A867A43C36BEDF4F6EBFD33
:1004D30020FD20FD60FDA0FDA0FD60FD60FD20FD71
:1004E300E0FCA0FC60F4C1DB839AC54945290419EB
:1004F300C42082380050CB6ABAD6FFFFFFFFFFFF4C
:10050300FFFFFFFFFFFFFFFFFBEE04A100C000F0B2
:10051300C3A0C8414942059B20FCA4FC69FDE8FD3A
:1005230063FD20FD60FD60FD60FD20FD20FDE0FC1E
:10053300E0FCA0FC60FC20FC41D3C5494519C4384C
:10054300826841880070495A79CEFFFFFFFFFFFFA1
:10055300FFFFFFFFFFFFFFFFFBF682C000D086C156
:1005630046F141C8457989528862866AC67AC4BB16
:10057300E1FC60FD60FDA0FDA0FD60FD60FDE0FC11
:1005830060E403938472446AC5414529C35841A872
:10059300409800B000600C6B79CEFFFFFFFFFFFFB8
:1005A300FFFFFFFFFFFF7DEFCE83828800F8C4D8F3
:1005B3000CF38AFA82E882B04569C7510842083AC7
:1005C300865A839BA2BC22CD21CDA1C422B4C47A76
:1005D300063A862945290531C450419000C000A838
:1005E30000A000A800304A4ABAD6FFFFFFFFFFFF72
:1005F300FFFFFFFF7DEF8E73C318053982A800F854
:10060300C3F84DFB4DFBC7F9C3F082D8C3B00481D7
:1006130045614651864986494641454145414541E3
:1006230005490461829041B000D000C800A800A829
:1006330000B8415882108210B294BEF7FFFFFFFF4B
:10064300FFFFBEF7CF7B82100421862986410499E0
:1006530040E841F886F9CBFA49FA82F800F800F04D
:1006630000E841D841D041C041C041C041C041C868
:1006730000D000E000E000D800D000B800A8418816
:100683008248821082100000452979CEFFFFFFFFC8
:10069300BEF7F39C8210C31845298631C731307CDD
:1006A300F3DC86E100F000F841F841F800F800F8C7
:1006B30000F800F800F800F800F800F800F800F877
:1006C30000E800E000E000D800C841A08A9A0C636B
:1006D300041182108210410800004D6B7DEFFFFF73
:1006E300FBDE08424210452986318631494A38BE2D
:1006F300FFFF38D686A900C800E000F000F800F834
:1007030000F800F800F800F800F800F800F000F036
:1007130000E800E000D0C3988A8AB2A4BAC6F7B54D
:10072300084241088210410800004529F7BDFFFF38
:10073300718C410804214529863186310C633CE7DD
:10074300FFFF79D646B900E042C882A882B041D8FB
:1007530082E882F041E841E841E841F041E841D8CC
:1007630004C108924D8B34A5FBC6FBD6BACE3CE739
:100773003084C3184108410800004108CF7B7DEF56
:10078300494A000004214529463186313084FFFF60
:10079300FFF7F7DD09DA83F801F042C08298499A3E
:1007A300F3B4F3CC71BC8EBB8EBB30BC71BCF3BC59
:1007B300B6BDFBCEBEE77DE73BDFBAD679CEFBDE27
:1007C30075AD86314108410800000000494AFBDE4F
:1007D300042141080421452945298739B294FFFFA3
:1007E300BEF734DD0CEB09FA00F001D800D88BD248
:1007F3007DE7FFFFFFFFFFFFFFFFFFFFFFFFFFFFA0
:10080300FFFFBEFF7DEFFBDEFBDEBAD679CEBAD6A5
:1008130078C6C7390000410800000000C73979CE07
:1008230000008210C318042105298631B39CFFFF01
:10083300FFF775DDC7E9C7F901F801F000E849E200
:10084300FBEEFFFFFFFFFFFFFFFFFFFFFFFFFFFFCA
:10085300FFFFBEF77DEFFBDEFBDEBAD679CEBAD65D
:10086300B9CE08420000000000000000C73938C6B6
:100873000000821082100421042145293084FFFFE7
:10088300FFFF38DEC4D000F001F800F800F008D212
:10089300FBE6FFFFFFFFFFFFFFFFFFFFFFFFFFFF82
:1008A300FFFFBEF77DEFFBDEBAD679CE79CEBAD69F
:1008B30079CEC7394108000000000000863138C6F0
:1008C30000000000C318CB5A8631C318CB5A7DEF02
:1008D300FFFF7DEFCFBBC3B041D041D082B84DB352
:1008E3007DE7FFFFFFFFFFFFFFFFFFFFFFFFFFFFAF
:1008F300BEF7BEF73DEFFBDEBAD679CE79CEFAD698
:10090300F7BD04218631042100000000863138C67A
:100913008631C318CB5A75ADCF7B41088631F7BDFD
:10092300FFFFFFFFBEEF74B5309C309C72A4BBD6B3
:10093300FFFFFFFFFFFFFFFFFFFFFFFFFFFFFFFFC4
:10094300BEF77DEF3CE7FBDEBAD679CE79CE3CE746
:10095300718C81080C63CF7B821000008A5238C6E9
:1009630075AD718CB6B53CE7FBDEC7390000CF73BC
:10097300FFFFFFFFFFFFFFFFFFFFFFFFFFFFFFFF84
:10098300FFFFFFFFFFFFFFFFFFFFFFFFFFFFBEF7BD
:100993007DEF7DEF3BDFFAD679CE79CEFBDEB9CEA4
:1009A300C739C420718CBAD6718CCB5AB294BAD6DB
:1009B300FFFF7DEF7DEFFFFFFFFFB6B5462905196A
:1009C30075A5FFFFFFFFFFFFFFFFFFFFFFFFFFFF18
:1009D300FFFFFFFFFFFFFFFFFFFFFFFFFFFFBEF76D
:1009E3007DEF3CE7FBDEBAD679CEBAD6FCDE4E63AA
:1009F30042080C63F7BDBEF7FFFFFBDEFBDEBEF76D
:100A0300FFFFFFFFFFFFFFFFFFFFFFFFF49C04213A
:100A13000521B6A5FFFFFFFFFFFFFFFFFFFFFFFF5E
:100A2300FFFFFFFFFFFFFFFFFFFFBEF7BEF77DEFF7
:100A33003CE7FBDEBAD679CEFBDEBBD6D173831897
:100A43008639349DBDEFFFFFFFFFFFFFFFFFFFFF71
:100A5300FFFFFFFFFFFFFFFFBEFF35D6EBCC43B326
:100A630040510519F58CBEEFFFFFFFFFFFFFFFFFAE
:100A7300FFFFFFFFFFFFBEF7BEF77DEF7DEF3CE714
:100A8300FBDEBADEBAD63CDF3ABE4F63824940A3EF
:100A930023B4CC833ABEFFFFFFFFFFFFFFFFFFFF3F
:100AA300FFFFFFFFFFFFBFF7B5BD829220F4A0FC5D
:100AB30060E4408284418F6B77AD3DE7FFFFFFFF2A
:100AC300FEFFBEF7BEF7BEF77DEF7DEF3CE7FBDE33
:100AD300FBDE3DE7BBCE369D0B6B416A60C420FE57
:100AE30060F5008BC76A38C6BEF7FFFFFFFFFFFF45
:100AF300FFFFFFFFFFFF7DEF4B7B80B2A0FCA0FC5D
:100B0300E0FCE0FCC0CBC18A45624D6BB394F7BDFA
:100B13003DDFFFF7FFFFBEF77DEF7DEF7DE73DDFB5
:100B2300BAC675A58D7B847A40B3E0ECE0FDE0FDA9
:100B330060F520E5A0D40A6BFBDEFFFFFFFFFFFF9C
:100B4300FFFFFFFFFFFF7DEFCC9340EB60FCA0FCBA
:100B5300E0FC20FD60FD20F5A0D4C0BB429B458B8B
:100B63006B9CAE9C718CB394339D34A5F2A4F0B40A
:100B7300CA9B049B40BB20E420FDA0FDA0FDE0FD3B
:100B8300E0FDE0FD20C4885A38BEFFFFFFFFFFFFF2
:100B9300FFFFFFFFFFFFFFFF78D646AB40DB20F4EC
:100BA30060FCA0FCE0FC60FDA0FD60FD20F5A0DC86
:100BB300C0B3C05186290D638F7B0D5BC741018292
:100BC30000C3C0E360FCA0FCE0FCE0FC60F560F562
:100BD30020E5809B8662308479CEFFFFFFFFFFFF15
:100BE300FFFFFFFFFFFFFFFFFFFF38C62D9C0593AD
:100BF30043A382B3C2BBC2BB22B482A34293C37AD0
:100C030085620B637184B6B579CE79C6B5AD709440
:100C13004A8B06830493049B439B439B4393048324
:100C230008738D73B39479CE7DEFFFFFFFFFFFFF52
:100C3300FFFFFFFFFFFFFFFFFFFFFFFF3CDF38BEAC
:100C430075B533A533A5F39CF39CF39CF394F39C04
:100C530035A5F8BDFBDEBEF7FFFFFFFFFFFF7EEF0D
:100C6300BBD6F8BDB6AD75AD34A5339D349D35A562
:100C7300B7AD79C63CE7BEF7FFFFFFFFFFFFFFFFFE
:100C830000000000000000000000800000FEFF01E3
:100C930000FEFF010006C0000006C0000006C00001
:100CA30000FEFF000006C0000006C0000006C000F2
:100CB30000FEFF000006C0000006C00000020000A6
:100CC30030300C1CF07FFC3F30300C1C30300C1CDF
:100CD30030300C1C30300C1CF03FFC1F30300C1C2F
:100CE30030300C1C30300C1C30300C1CF03FFC1F1F
:100CF300F03FFC1F30300C1C3010040C00000000CF
:100D03000000000000000000C0000808C0F1FF1F41
:100D1300C0F0FF1FC0484C1CC4DCCC1DCCDC8D1DB7
:100D2300DC8E8D1DD8060E1FF8C3EF1DF8F1EC1CE9
:100D3300D0601D1CC01C770CFE9FE7003483E30CBE
:100D430030C3FF1F30C3610030E3610030E361064D
:100D530030F3FF0F30DB610030FB610438DB610EE1
:100D630018CFFF0F18C7610098C761000CC3613823
:100D730004C2FF3F06C0010002C0010000000000E2
:100D83000000000000000000000000000000000060
:100D930000000008080808080808000018180000E8
:100DA30000486C2412000000000000000000000056
:100DB3000000002424247F1212127F12121200005A
:100DC3000000081C2A2A0A0C1828282A2A1C0808AA
:100DD30000000022251515152A58545454220000EA
:100DE3000000000C1212120A76252911916E0000E0
:100DF30000060604030000000000000000000000DD
:100E030000402010100808080808081010204000AF
:100E13000002040808101010101010080804020043
:100E23000000000008086B1C1C6B08080000000091
:100E330000000000080808087F08080808000000F0
:100E4300000000000000000000000000060604038C
:100E53000000000000000000FE0000000000000091
:100E63000000000000000000000000000606000073
:100E730000008040402020101008080404020200F3
:100E83000000001824424242424242422418000019
:100E9300000000080E08080808080808083E0000BB
:100EA3000000003C4242422020100804427E000021
:100EB3000000003C4242201820404042221C000017
:100EC300000000203028242422227E2020780000E5
:100ED3000000007E0202021A26404042221C00004B
:100EE300000000382402021A26424242241800005D
:100EF3000000007E222210100808080808080000DD
:100F03000000003C4242422418244242423C00007A
:100F1300000000182442424264584040241C000050
:100F2300000000000000181800000000181800005E
:100F33000000000000000008000000000008080492
:100F430000000040201008040204081020400000A4
:100F53000000000000007F0000007F000000000090
:100F630000000002040810204020100804020000C2
:100F73000000003C424246402010100018180000B8
:100F83000000001C225A555555552D42221C0000C5
:100F93000000000808181414243C224242E7000011
:100FA3000000001F2222221E22424242221F000072
:100FB3000000007C4242010101010142221C0000A9
:100FC3000000001F2242424242424242221F0000CE
:100FD3000000003F4212121E12120242423F000062
:100FE3000000003F4212121E12120202020700000A
:100FF3000000003C2222010101712122221C000079
:10100300000000E7424242427E42424242E7000081
:101013000000003E0808080808080808083E000009
:101023000000007C10101010101010101010110F81
:101033000000007722120A0E0A1212222277000001
:10104300000000070202020202020202427F0000C5
:1010530000000077363636362A2A2A2A2A6B000001
:10106300000000E346464A4A525252626247000079
:101073000000001C2241414141414141221C00002A
:101083000000003F424242423E02020202070000C9
:101093000000001C2241414141414D53321C60007C
:1010A3000000003F4242423E1212222242C7000089
:1010B3000000007C4242020418204042423E0000ED
:1010C3000000007F4908080808080808081C0000F9
:1010D300000000E74242424242424242423C000098
:1010E300000000E7424222242414141808080000D8
:1010F3000000006B49494949555536222222000018
:10110300000000E7422424181818242442E70000B2
:10111300000000772222141408080808081C0000A5
:101123000000007E2120101008040442423F00000A
:10113300007808080808080808080808080878005C
:101143000000020204040808081010202020404078
:10115300001E1010101010101010101010101E0090
:101163000038440000000000000000000000000000
:10117300000000000000000000000000000000FF6D
:10118300000608000000000000000000000000004E
:10119300000000000000003C4278444242FC000092
:1011A300000000030202021A26424242261A0000ED
:1011B300000000000000003844020202443800002E
:1011C30000000060404040784442424264D800003E
:1011D300000000000000003C427E0202423C00008E
:1011E300000000F08808087E08080808083E000090
:1011F300000000000000007C22221C023C42423C12
:10120300000000030202023A4642424242E7000063
:101213000000000C0C00000E08080808083E00003F
:101223000000003030000038202020202020221E23
:101233000000000302020272120A16122277000053
:101243000000000E0808080808080808083E000007
:10125300000000000000007F9292929292B700007B
:10126300000000000000003B4642424242E700000B
:10127300000000000000003C42424242423C0000A9
:10128300000000000000001B26424242221E02070B
:10129300000000000000007844424242447840E0ED
:1012A30000000000000000774C040404041F000049
:1012B300000000000000007C42023C40423E00006F
:1012C300000000000008083E080808080830000075
:1012D30000000000000000634242424262DC000062
:1012E30000000000000000E7422424140808000066
:1012F30000000000000000EB494955552222000080
:10130300000000000000007624181818246E000066
:1013130000000000000000E7422424141808080716
:10132300000000000000007E22100808447E000038
:1013330000C0202020202010202020202020C000BA
:10134300101010101010101010101010101010109A
:101353000006080808080810080808080808060016
:101363000C32C2000000000000000000000000007A
:103AE4005658313A005679313A00434858313A0031
:103AF400434859313A005658323A005679323A001E
:103B0400434858323A00434859323A0056583A002A
:103B140056793A004348583A004348593A004164B8
:103B24006A757374204F4B212020546F756368208D
:103B3400416E79776865726520546F20436F6E74A7
:0B3B4400696E756500583A00593A00A0
:103E6B0042008E3C814200902B6242008200C7428E
:043E7B0000840F1F91
:063ED800A2B4E433FF2256
:093EC000D294D297D2B0D297221D
:103E4D00E4FEC297EF25E0FF92B0C297000000D2CA
:093E5D00970000000EEEB408EB22
:013E66002239
:103E2B00E4FDFFFEEF25E0FFEE33FED2970000002E
:103E3B00C29700000030B104EF4401FF0DEDB40C4C
:013E4B00E393
:013E4C002253
:103E8000C294123E4DD29700000000C2970000007D
:063E900000123E2BD2944B
:013E96002209
:022F8300A9079C
:102F8500E490007EF0A3F0FBFAAF01123E80AC06A0
:102F9500AD07EB25E0FFEA33FE74602FF582740080
:102FA5003EF583ECF0A3EDF00BBB00010AEB640FDB
:102FB5004A70D6E4FAFBEB2401FEE43A90005EF099
:102FC500A3CEF090005EE0FEA3E0FFC3940FEE9465
:102FD50000400302307FEF25E0FFEE33FE74602FE3
:102FE500F58274003EF583E0FCA3E0FDEB25E0FFF0
:102FF500EA33FE74602FF58274003EF583E0FEA38C
:10300500E0FFD39DEE9C405E900080EEF0A3EFF0D4
:1030150090005FE025E0FF90005EE033FE74602FD6
:10302500F58274003EF583E0FCA3E0FDEB25E0FFAF
:10303500EA33FE74602FF58274003EF583ECF0A34D
:10304500EDF0900080E0FCA3E0FD90005FE025E05E
:10305500FF90005EE033FE74602FF58274003EF54C
:1030650083ECF0A3EDF090005FE004F06003022F25
:10307500C890005EE004F0022FC80BBB00010AEB0C
:10308500640E4A6003022FBBE490007EF0A3F0FAC1
:103095007B05EB25E0FFEA33FE74602FF5827400B3
:1030A5003EF583E0FEA3E0FF90007FE02FF0900067
:1030B5007EE03EF00BBB00010AEB640A4A70D39038
:1030C500007EE0FEA3E0FF7C007D05122409A3EE4F
:0430D500F0A3EFF085
:0130D90022D4
:0B3B4F00900056EBF0A3EAF0A3E9F0B1
:103B5A007FD0122F8390005CEEF0A3EFF07F9012DB
:103B6A002F83C390005DE0946490005CE094004071
:103B7A0008EF9464EE940050037F002290005CE00A
:103B8A00F9A3E0FD900056E0FBA3E0FAA3E0C98D9B
:103B9A00F0122474900059E0FBA3E0FAA3E0F9EED6
:073BAA008FF01224747F016B
:013BB10022F1
:0B30DA00900048EBF0A3EAF0A3E9F03F
:1030E5009000597401F0A37400F0A37450F07B01B3
:1030F5007A00794E123B4FEF7002FF22900059740F
:1031050001F0A37400F0A37454F07B017A007952A6
:10311500123B4FEF7002FF2290004EE0FEA3E0FF4E
:10312500900052E0FCA3E0FDD39FEC9E500EED24F1
:1031350014FDE43CFCC3EF9DEE9C402A900052E058
:10314500FEA3E0FF90004EE0FCA3E0FDD39FEC9EC4
:103155004003023208ED2414FDE43CFCC3EF9DEE70
:103165009C4003023208900050E0FEA3E0FF90006F
:1031750054E0FCA3E0FDD39FEC9E500EED2414FD1E
:10318500E43CFCC3EF9DEE9C4024900054E0FEA37C
:10319500E0FF900050E0FCA3E0FDD39FEC9E506360
:1031A500ED2414FDE43CFCC3EF9DEE9C50559000CE
:1031B50052E0FEA3E0FF90004FE02FFF90004EE0AD
:1031C5003EC313F9EF13FF900048E0FBA3E0FAA319
:1031D500E0C98FF0122474900054E0FEA3E0FF9044
:1031E5000051E02FFF900050E03EC313F9EF13FFAD
:1031F50090004BE0FBA3E0FAA3E0C98FF012247422
:053205007F01227F00A3
:01320A0022A1
:103A6900E4900043F0900043E0706A90004B7401C9
:103A7900F0A37400F0A3748CF07B017A00798A12A8
:103A890030DAEF60E67F0A7E00123E0590004B7443
:103A990001F0A37400F0A37446F07B017A00794425
:103AA9001230DAEF60E6900044E0FEA3E0FF9000F8
:103AB9008AE0B506B0A3E0B507AB900046E0FEA3E7
:103AC900E0FF90008CE06E7003A3E06F70979000A8
:0A3AD9004304F08090900043E0FFEA
:013AE30022C0
:10342300900043EEF0A3EFF0A3ECF0A3EDF09000D7
:1034330043E0FAA3E0FB24F4FFEA34FFFEC007EB0A
:10344300240DFBE43AFAA3E0FFA3E090004DCFF094
:10345300A3EFF0D007122BFF900043E0FAA3E0FBA9
:10346300FFAE02C006C007900046E024F4FD9000C2
:1034730045E034FFFCE0FEA3E0240DFFE43E9000B2
:103483004DF0A3EFF0D007D006122BFF900044E0DD
:103493002401FF900043E03400FE900046E0240145
:1034A300FD900045E03400FC123C94900044E0247D
:1034B300FFFF900043E034FFFE900046E02401FD4F
:1034C300900045E03400FC123C94900044E0240159
:1034D300FF900043E03400FE900046E024FFFD909F
:1034E3000045E034FFFC123C94900044E024FFFFCD
:1034F300900043E034FFFE900046E024FFFD90007F
:0835030045E034FFFC023C949A
:10332000E490000AF07B0190004B04F0A37400F0DD
:10333000A3748CF07A00798A1230DAEF70030234C9
:103340001D90000A7401F0900082E0FEA3E0FFD31C
:1033500090008BE09F90008AE09E400BAB07AA068E
:10336000E0FEA3E0FF801390008AE0FEA3E0FBAA4A
:1033700006900082E0FEA3E0FFC3EF9BFFEE9AFE03
:10338000E49400FDE49400FCE47BE87A03F9F8128D
:103390002493C006C00790008EE0FEA3E0FBAA06BF
:1033A000E4F9F8D007D00612251E900086EEF0A3AF
:1033B000EFF0900084E0FEA3E0FFD390008DE09F4B
:1033C00090008CE09E400BAB07AA06E0FEA3E0FF56
:1033D000801390008CE0FEA3E0FBAA06900084E03E
:1033E000FEA3E0FFC3EF9BFFEE9AFEE49400FDE432
:1033F0009400FCE47BE87A03F9F8122493C006C039
:1034000007900090E0FEA3E0FBAA06E4F9F8D007DD
:10341000D00612251E900088EEF0A3EFF090000A6F
:02342000E0FFCB
:013422002287
:10137300E4900042F0F0900092F0A3741FF074FF29
:10138300900094F0A3F0FFFE123C1090009274F8CA
:10139300F0A3E4021A9020B4FD123A69EF60429080
:1013A300008AE0FEA3E0FFE4FCFD900042E0FB7551
:1013B300F008A42422F582E43400F5831225CF90AB
:1013C300008CE0FEA3E0FFE4FCFDEB75F008A42431
:1013D30026F582E43400F5831225CF900042E00421
:1013E300F0900042E024FE601A1460281460382450
:1013F3000370A374FFFFFE123C1030B4FD7D327CFA
:1014030000801F74FFFFFE123C1030B4FD7D0D7C85
:1014130001021A9C74FFFFFE123C1030B4FD7D0DD7
:101423007C017FBD021A9E74FFFFFE123C1030B494
:10143300FD900022E0FCA3E0FDA3E0FEA3E0FF900B
:10144300002AE0F8A3E0F9A3E0FAA3E0FBD3122516
:10145300BE4034900022E0F8A3E0F9A3E0FAA3E051
:10146300FB90002AE0FCA3E0FDA3E0FEA3E09BFFCA
:10147300EE9AFEED99FDEC98FCEF2401FFE43EFEAD
:10148300E43DFDE43C803690002AE0F8A3E0F9A3B4
:10149300E0FAA3E0FB900022E0FCA3E0FDA3E0FE62
:1014A300A3E0C39BFFEE9AFEED99FDEC98FCEF24BD
:1014B300FFFFEE34FFFEED34FFFDEC34FFFCE47B75
:1014C300E87A03F9F8122493E47B8CFAF9F81225ED
:1014D3001EE412231F9000061225CF900022E0FC89
:1014E300A3E0FDA3E0FEA3E0FF90002AE0F8A3E061
:1014F300F9A3E0FAA3E0FBD31225BEE4FFFE7D4887
:101503007C42900006E0F8A3E0F9A3E0FAA3E0FB35
:10151300403412210CE4FBFA797A7844122215C084
:1015230004C005C006C007900022E0FCA3E0FDA3B1
:10153300E0FEA3E0FFE412231FD003D002D001D0CA
:1015430000122017803212210CE4FBFA797A7844D6
:10155300122215C004C005C006C007900022E0FC9B
:10156300A3E0FDA3E0FEA3E0FFE412231FD003D01A
:1015730002D001D00012201B12235D900016EEF062
:10158300A3EFF0900026E0FCA3E0FDA3E0FEA3E0C0
:10159300FF900036E0F8A3E0F9A3E0FAA3E0FBD361
:1015A3001225BE401D900026E0F8A3E0F9A3E0FA5F
:1015B300A3E0FB900036E0FCA3E0FDA3E0FEA3E084
:1015C300801C900036E0F8A3E0F9A3E0FAA3E0FB67
:1015D300900026E0FCA3E0FDA3E0FEA3E0C39BFF95
:1015E300EE9AFEED99FDEC98FCEF24FFFFEE34FF3D
:1015F300FEED34FFFDEC34FFFCE47BE87A03F9F8FD
:10160300122493E47BDCFAF9F812251EE412231F5B
:1016130090000E1225CF900026E0FCA3E0FDA3E08E
:10162300FEA3E0FF900036E0F8A3E0F9A3E0FAA3FD
:10163300E0FBD31225BEE4FFFE7D487C4290000E02
:10164300E0F8A3E0F9A3E0FAA3E0FB403412210C95
:10165300E4FBFA797A7844122215C004C005C00667
:10166300C007900026E0FCA3E0FDA3E0FEA3E0FF9B
:10167300E412231FD003D002D001D0001220178020
:101683003212210CE4FBFA797A7844122215C00451
:10169300C005C006C007900026E0FCA3E0FDA3E060
:1016A300FEA3E0FFE412231FD003D002D001D00039
:1016B30012201B12235D90001AEEF0A3EFF09000AE
:1016C30032E0FCA3E0FDA3E0FEA3E0FF90003AE0DC
:1016D300F8A3E0F9A3E0FAA3E0FBD31225BE40345C
:1016E300900032E0F8A3E0F9A3E0FAA3E0FB900056
:1016F3003AE0FCA3E0FDA3E0FEA3E09BFFEE9AFE2D
:10170300ED99FDEC98FCEF2401FFE43EFEE43DFD82
:10171300E43C803690003AE0F8A3E0F9A3E0FAA3B2
:10172300E0FB900032E0FCA3E0FDA3E0FEA3E0C3F6
:101733009BFFEE9AFEED99FDEC98FCEF24FFFFEE84
:1017430034FFFEED34FFFDEC34FFFCE47BE87A0369
:10175300F9F8122493E47B8CFAF9F812251EE412AB
:10176300231F90000A1225CF900032E0FCA3E0FD76
:10177300A3E0FEA3E0FF90003AE0F8A3E0F9A3E0C2
:10178300FAA3E0FBD31225BEE4FFFE7D487C429022
:10179300000AE0F8A3E0F9A3E0FAA3E0FB40341267
:1017A300210CE4FBFA797A7844122215C004C005AF
:1017B300C006C007900032E0FCA3E0FDA3E0FEA357
:1017C300E0FFE412231FD003D002D001D000122087
:1017D30017803212210CE4FBFA797A78441222152D
:1017E300C004C005C006C007900032E0FCA3E0FDC2
:1017F300A3E0FEA3E0FFE412231FD003D002D00135
:10180300D00012201B12235D900018EEF0A3EFF01E
:1018130090002EE0FCA3E0FDA3E0FEA3E0FF900018
:101823003EE0F8A3E0F9A3E0FAA3E0FBD31225BE60
:10183300401D90002EE0F8A3E0F9A3E0FAA3E0FB3B
:1018430090003EE0FCA3E0FDA3E0FEA3E0801C903B
:10185300003EE0F8A3E0F9A3E0FAA3E0FB90002E3A
:10186300E0FCA3E0FDA3E0FEA3E0C39BFFEE9AFE32
:10187300ED99FDEC98FCEF24FFFFEE34FFFEED3411
:10188300FFFDEC34FFFCE47BE87A03F9F8122493C0
:10189300E47BDCFAF9F812251EE412231F900012F0
:1018A3001225CF90002EE0FCA3E0FDA3E0FEA3E011
:1018B300FF90003EE0F8A3E0F9A3E0FAA3E0FBD336
:1018C3001225BEE4FFFE7D487C42900012E0F8A39F
:1018D300E0F9A3E0FAA3E0FB403412210CE4FBFAA5
:1018E300797A7844122215C004C005C006C0079057
:1018F300002EE0FCA3E0FDA3E0FEA3E0FFE412233F
:101903001FD003D002D001D0001220178032122141
:101913000CE4FBFA797A7844122215C004C005C09E
:1019230006C00790002EE0FCA3E0FDA3E0FEA3E0C9
:10193300FFE412231FD003D002D001D00012201BDA
:1019430012235D90001CEEF0A3EFF090000AE0FC80
:10195300A3E0FDA3E0FEA3E0FF900006E0F8A3E010
:10196300F9A3E0FAA3E0FB1222B260324030E4FFB5
:10197300FE7D7A7C4490000AE0F8A3E0F9A3E0FA44
:10198300A3E0FB12201B900006E0F8A3E0F9A3E01C
:10199300FAA3E0FB1222B260054003021A8C900006
:1019A3000AE0FCA3E0FDA3E0FEA3E0FF900006E055
:1019B300F8A3E0F9A3E0FAA3E0FB1222B2502EE46D
:1019C300FFFE7D7A7CC490000AE0F8A3E0F9A3E06F
:1019D300FAA3E0FB12201B900006E0F8A3E0F9A3B2
:1019E300E0FAA3E0FB1222B25003021A8C90001219
:1019F300E0FCA3E0FDA3E0FEA3E0FF90000EE0F80F
:101A0300A3E0F9A3E0FAA3E0FB1222B2602F402D7A
:101A1300E4FFFE7D7A7C44900012E0F8A3E0F9A392
:101A2300E0FAA3E0FB12201B90000EE0F8A3E0F91C
:101A3300A3E0FAA3E0FB1222B26002504C90001222
:101A4300E0FCA3E0FDA3E0FEA3E0FF90000EE0F8BE
:101A5300A3E0F9A3E0FAA3E0FB1222B25045E4FFAE
:101A6300FE7D7A7CC4900012E0F8A3E0F9A3E0FACB
:101A7300A3E0FB12201B90000EE0F8A3E0F9A3E023
:101A8300FAA3E0FB1222B2501AE4900042F074FF72
:101A9300FFFE123C107D327C007F327E0012342325
:101AA30002139990000AE0FCA3E0FDA3E0FEA3E08B
:101AB300FF900006E0F8A3E0F9A3E0FAA3E0FB122D
:101AC300201BE4FBFAF9784012221512235D9000E3
:101AD3008EEEF0A3EFF0900012E0FCA3E0FDA3E094
:101AE300FEA3E0FF90000EE0F8A3E0F9A3E0FAA361
:101AF300E0FB12201BE4FBFAF978401222151223B3
:101B03005D900090EEF0A3EFF0900018E0FEA3E0EC
:101B1300FF900017E02FFF900016E03EC313FEEF87
:101B230013FF900082EEF0A3EFF090001CE0FEA301
:101B3300E0FF90001BE02FFF90001AE03EC313FE6E
:101B4300EF13FF900084EEF0A3EFF074FFFFFE129B
:101B53003C10E4900092F0A3F0900094F0A3741F63
:101B6300F0E490001EF0A3F0A3F0A37432F07BFF27
:101B73007A3A79E4FD7C00E4FFFE12383990001FC5
:101B8300E02428F090001EE03400F0900006E0FC12
:101B9300A3E0FDA3E0FEA3E0FF12235D9000471244
:101BA30025CF90004B7404F0900020E0FCA3E0FDEF
:101BB30090001EE0FEA3E0FF12350BE490001EF040
:101BC300A3F0900021E02414F0900020E03400F012
:101BD300E0FCA3E0FD7BFF7A3A79E9E4FFFE1238EB
:101BE3003990001FE02428F090001EE03400F090AC
:101BF300000EE0FCA3E0FDA3E0FEA3E0FF12235DE3
:101C03009000471225CF90004B7404F0900020E021
:101C1300FCA3E0FD90001EE0FEA3E0FF12350BE401
:101C230090001EF0A3F0900021E02414F090002017
:101C3300E03400F0E0FCA3E0FD7BFF7A3A79EEE4C8
:101C4300FFFE12383990001FE02428F090001EE0B8
:101C53003400F0900016E0FEA3E0FFE4FCFD9000EA
:101C6300471225CF90004B7404F0900020E0FCA3B2
:101C7300E0FD90001EE0FEA3E0FF12350BE49000B0
:101C83001EF0A3F0900021E02414F0900020E03433
:101C930000F0E0FCA3E0FD7BFF7A3A79F4E4FFFE79
:101CA30012383990001FE02428F090001EE0340021
:101CB300F090001AE0FEA3E0FFE4FCFD9000471261
:101CC30025CF90004B7404F0900020E0FCA3E0FDCE
:101CD30090001EE0FEA3E0FF12350B90001EE4F01F
:101CE300A37464F0A3E4F0A37432F07BFF7A3A792F
:101CF300FAFD7C007F647E0012383990001FE024D7
:101D030028F090001EE03400F090000AE0FCA3E00D
:101D1300FDA3E0FEA3E0FF12235D9000471225CF51
:101D230090004B7404F0900020E0FCA3E0FD9000D1
:101D33001EE0FEA3E0FF12350B90001EE4F0A37437
:101D430064F0900021E02414F0900020E03400F0CF
:101D5300E0FCA3E0FD7BFF7A3A79FF7F647E00120B
:101D6300383990001FE02428F090001EE03400F082
:101D7300900012E0FCA3E0FDA3E0FEA3E0FF12232A
:101D83005D9000471225CF90004B7404F090002023
:101D9300E0FCA3E0FD90001EE0FEA3E0FF12350B84
:101DA30090001EE4F0A37464F0900021E02414F08A
:101DB300900020E03400F0E0FCA3E0FD7BFF7A3BE1
:101DC30079047F647E0012383990001FE02428F0E4
:101DD30090001EE03400F0900018E0FEA3E0FFE462
:101DE300FCFD9000471225CF90004B7404F0900047
:101DF30020E0FCA3E0FD90001EE0FEA3E0FF12350F
:101E03000B90001EE4F0A37464F0900021E024140E
:101E1300F0900020E03400F0E0FCA3E0FD7BFF7ACB
:101E23003B790A7F647E0012383990001FE0242832
:101E3300F090001EE03400F090001CE0FEA3E0FFF1
:101E4300E4FCFD9000471225CF90004B7404F09002
:101E53000020E0FCA3E0FD90001EE0FEA3E0FF12E3
:101E6300350B90001EE4F0A37432F0A3E4F0A374E6
:101E730096F07BFF7A3B7910FD7C007F327E001267
:101E8300383990001FE02428F090001EE03400F061
:101E930090008EE0FEA3E0FFE4FCFD9000471225D6
:101EA300CF90004B7404F0900020E0FCA3E0FD9081
:101EB300001EE0FEA3E0FF12350B90001EE4F0A32A
:101EC3007432F0900021E02414F0900020E03400FC
:101ED300F0E0FCA3E0FD7BFF7A3B79147F327E00C8
:101EE30012383990001FE02428F090001EE03400DF
:101EF300F0900090E0FEA3E0FFE4FCFD90004712A9
:101F030025CF90004B7404F0900020E0FCA3E0FD8B
:101F130090001EE0FEA3E0FF12350B90001EE4F0DC
:101F2300A37432F0900021E02414F0900020E034F8
:101F330000F0E0FCA3E0FD7BFF7A3B79187F327E63
:101F43000012383990001FE02428F090001EE0347E
:101F530000F0900082E0FEA3E0FFE4FCFD90004768
:101F63001225CF90004B7404F0900020E0FCA3E016
:101F7300FD90001EE0FEA3E0FF12350B90001EE46F
:101F8300F0A37432F0900021E02414F0900020E0DC
:101F93003400F0E0FCA3E0FD7BFF7A3B791D7F3248
:101FA3007E0012383990001FE02428F090001EE0D4
:101FB3003400F0900084E0FEA3E0FFE4FCFD900019
:101FC300471225CF90004B7404F0900020E0FCA34F
:101FD300E0FD90001EE0FEA3E0FF12350B90001E13
:101FE300E4F0A3741EF0900021E0241EF090002082
:101FF300E03400F0E0FCA3E0FD7BFF7A3B79227F35
:102003001E7E00123839123A6974FFFFFE123C102B
:0120130022AA
:1035EC009000061225DB0000000030B40302368682
:1035FC009000061225DB00000000123320EF60EA79
:10360C007BFF7A3B79497DFA7C007F0A7E00123879
:10361C003990008AE0FEA3E0FFE4FCFD9000471225
:10362C0025CF90004B7404F07DFA7C007F1E7E0049
:10363C0012350B7BFF7A3B794C7DFA7C007FB47E94
:10364C000012383990008CE0FEA3E0FFE4FCFD9002
:10365C0000471225CF90004B7404F07DFA7C007F5C
:10366C00C87E0012350B900086E0FEA3E0FFA3E0BD
:10367C00FCA3E0FD123CBE0235F6900006E0FCA374
:10368C00E0FDA3E0FEA3E0FFE4FBFA7980783F12B3
:10369C00201B9000061225CF7F007EE87D7D7C47A5
:1036AC00900006E0F8A3E0F9A3E0FAA3E0FB1222F5
:0936BC00B2600250030235F6224F
:102014000223C9E86480F8E933E83360110460F00E
:10202400ED33EC337009E8FCE9FDEAFEEBFF220432
:1020340060DED3EB9FEA9EE99DE8C2E78CF0C2F72D
:1020440095F0400CE8CCF8E9CDF9EACEFAEBCFFBF9
:1020540012239485D0F05804700320D5B3E804709B
:10206400075002B2D50223D392D5EC0460F7E4CC36
:10207400C0E0C398F8603B94186008400DD0E0FBC2
:102084000223ABE4FBFAC9FC8028E830E406E4C987
:10209400FBE4CAFCE830E305E4C9CACBFCE8540716
:1020A4006010F8C3E913F9EA13FAEB13FBEC13FC21
:1020B400D8F130F52FC3E49CFCEF9BFFEE9AFEEDC4
:1020C40099FDD0E0FBEF4E4D4C701222DB0302234E
:1020D400D0EC2CFCEF33FFEE33FEED33FDED30E7B7
:1020E400EB0223ABEF2BFFEE3AFEED39FDD0E0FB24
:1020F40050130BBB00030223D3ED13FDEE13FEEFCD
:0821040013FFEC13FC0223ABF6
:10210C00EC4D6011E8497017ED33EC3304600DE4CD
:10211C00FCFFFEFD22E933E8330470F80223C912F8
:10212C00239458046009E4CC2481500628500902F9
:10213C0023D32840030223D0C0E0EB4A7044B9807B
:10214C0006D0E0FB0223BFEF4E701CBD8008EBFFF6
:10215C00EAFEE9FD80EBE98DF0A4FEE5F00221F545
:10216C00E9CDF9EAFEEBFFEF89F0A4FCE5F0CE89AE
:10217C00F0A42EFFE435F0CD89F0A42DFEE435F06B
:10218C008067EF4E7005BD80D780C3EF8BF0A4AC99
:10219C00F0EE8BF0A42CFCE435F0F8EF8AF0A42CD4
:1021AC00E5F038FCE433CB8DF0A42CFCE5F03BF8E7
:1021BC00EE8AF0A42CFCE5F038F8E433CF89F0A4D7
:1021CC002CFCE5F038CF3400CE89F0A42FFFE5F0DD
:1021DC003EFEE433C98DF0A42EFEE5F039CD8AF035
:1021EC00A42FFFE5F03EFEE43DFD33D0E0FB5007AD
:1021FC000BBB000F0223D3EC2CFCEF33FFEE33FEB2
:06220C00ED33FD0223ABDF
:102212000223D3EC5D046005E8590470030223C96C
:10222200122394580460F6EC4860F2EC7004FDFE50
:10223200FF22C860DB2481C85009C398600250069F
:102242000223D09850CAF582E9294B4A7005AB8225
:102252000223BF75F0007C1A7880C3EF9BEE9AEDE3
:1022620099400DC3EF9BFFEE9AFEED99FDE842F017
:10227200DC23ACF0D0E0FFD0E0FED0E0FDAB82206A
:10228200E7101BEB60BAEC2CFCEF33FFEE33FEEDF4
:1022920033FD0223ABE803F830E705C0F075F00028
:1022A200EF2FFFEE33FEED33FD40B830E7C280AAD8
:1022B20074F8CC6480CCC86480C8F582046043C3DF
:1022C200EB9FF5F0EA9E42F0E99D42F0E89C45F072
:1022D20060305018E5825FFFE582F42B5582FB5097
:1022E200210ABA001D09B90019088016E5825BFBB4
:1022F200E582F42F5582FF50090EBE00050DBD0088
:10230200010CC3EB9FF5F0EA9E42F0E99D42F0E832
:0D2312009C45F06007CC4820E701B3EC22A9
:10231F0075F020800E75F010800575F0087D007E39
:10232F00007F003392D530D5031225B0EC33401027
:10233F00EF33FFEE33FEED33FDEC33FCD5F0ED2242
:0E234F00E5F0247EA2D513CC92E7CDCEFF227E
:10235D00EDD2E7CD33EC3392D524814006E4FFFE78
:10236D00FDFC22FCE4CFCECDCC24E0501174FF80D7
:10237D00EDC3CC13CCCD13CDCE13CECF13CF047074
:07238D00F030D5DE0225B09F
:10239400E9D2E7C933E833F892D5EDD2E7CD33EC8F
:0723A40033FC5002B2D52208
:1023AB00EC30E7100FBF000C0EBE00080DBD000493
:1023BB000BEB6014A2D5EB13FCED92E7FD2274FF3F
:1023CB00FCFDFEFF22E480F8A2D574FF13FC7D8098
:0323DB00E480EFAC
:1038E600023DD2E493A3F8E493A34003F68001F2E9
:1038F60008DFF48029E493A3F85407240CC8C333E3
:10390600C4540F4420C8834004F456800146F6DFB1
:10391600E4800B0102040810204080903E67E47E9C
:10392600019360BCA3FF543F30E509541FFEE493A6
:10393600A360010ECF54C025E060A840B8E493A36D
:10394600FAE493A3F8E493A3C8C582C8CAC583CA98
:10395600F0A3C8C582C8CAC583CADFE9DEE780BE50
:013E7F000042
:1023DE00BB010689828A83E0225002E722BBFE02FD
:0923EE00E32289828A83E4932230
:1023F700EF8DF0A4A8F0CF8CF0A428CE8DF0A42EFA
:02240700FE22B3
:10240900BC000BBE0029EF8DF084FFADF022E4CCB7
:10241900F875F008EF2FFFEE33FEEC33FCEE9DEC80
:10242900984005FCEE9DFE0FD5F0E9E4CEFD22EDC6
:10243900F8F5F0EE8420D21CFEADF075F008EF2F10
:10244900FFED33FD4007985006D5F0F222C398FD01
:052459000FD5F0EA229E
:10245E00C5F0F8A3E028F0C5F0F8E5821582700209
:06246E001583E038F022A6
:10247400BB010A89828A83F0E5F0A3F0225006F7B3
:0F24840009A7F01922BBFE06F3E5F009F31922B0
:10249300E88FF0A4CC8BF0A42CFCE98EF0A42CFCE8
:1024A3008AF0EDA42CFCEA8EF0A4CDA8F08BF0A466
:1024B3002DCC3825F0FDE98FF0A42CCD35F0FCEBC5
:1024C3008EF0A4FEA9F0EB8FF0A4CFC5F02ECD398A
:0F24D300FEE43CFCEAA42DCE35F0FDE43CFC22F7
:1024E20075F008758200EF2FFFEE33FECD33CDCCB1
:1024F20033CCC58233C5829BED9AEC99E582984034
:102502000CF582EE9BFEED9AFDEC99FC0FD5F0D610
:10251200E4CEFBE4CDFAE4CCF9A88222B800C1B93A
:102522000059BA002DEC8BF084CFCECDFCE5F0CB78
:10253200F97818EF2FFFEE33FEED33FDEC33FCEBB1
:1025420033FB10D703994004EB99FB0FD8E5E4F96C
:10255200FA227818EF2FFFEE33FEED33FDEC33FC59
:10256200C933C910D7059BE99A4007EC9BFCE99A4D
:10257200F90FD8E0E4C9FAE4CCFB2275F010EF2F92
:10258200FFEE33FEED33FDCC33CCC833C810D70792
:102592009BEC9AE899400AED9BFDEC9AFCE899F8CD
:0E25A2000FD5F0DAE4CDFBE4CCFAE4C8F92260
:0E25B000C3E49FFFE49EFEE49DFDE49CFC223C
:1025BE00EB9FF5F0EA9E42F0E99D42F0E89C45F073
:0125CE0022EA
:0C25CF00ECF0A3EDF0A3EEF0A3EFF0227F
:1025DB00A8828583F0D083D0821225F21225F212C5
:1025EB0025F21225F2E473E493A3C583C5F0C583EA
:1025FB00C8C582C8F0A3C583C5F0C583C8C582C84A
:01260B0022AC
:00000001FF
