:020000040800F2
:1000000060400020BD2F0008CD030008CF0300088A
:10001000D3030008D7030008DB030008000000003A
:10002000000000000000000000000000DF030008E6
:10003000E103000800000000E3030008E5030008F6
:1000400099070008D72F0008D72F0008D72F0008DE
:10005000D72F0008D72F00082B1100080B1D000810
:10006000D72F0008D72F0008D72F0008D72F000858
:10007000D72F0008D72F0008D72F0008D72F000848
:10008000D72F0008D72F0008D72F0008D72F000838
:10009000D72F0008D72F0008D72F0008D72F000828
:1000A000D72F0008D72F0008D72F0008D72F000818
:1000B000D72F00081F080008D72F0008D72F0008E7
:1000C000D72F0008D72F0008D72F0008D72F0008F8
:1000D000D72F0008332F0008D72F0008D72F00088C
:1000E000D72F0008D72F0008D72F000800F002F8FC
:1000F00000F05AF80AA090E8000C82448344AAF168
:100100000107DA4501D100F04FF8AFF2090EBAE865
:100110000F0013F0010F18BFFB1A43F0010318473B
:1001200004C0000024C000000A444FF0000C10F886
:10013000013B13F0070408BF10F8014B1D1108BF65
:1001400010F8015B641E05D010F8016B641E01F805
:10015000016BF9D113F0080F1EBF10F8014BAD1C55
:100160000C1B09D16D1E58BF01F801CBFAD505E073
:1001700014F8016B01F8016B6D1EF9D59142D6D3CD
:10018000704700000023002400250026103A28BFF5
:1001900078C1FBD8520728BF30C148BF0B607047F9
:1001A0001FB51FBD10B510BD0AF0E6F91146FFF7E7
:1001B000F7FF00F080F80AF004FA03B4FFF7F2FF4B
:1001C00003BC02F05BFE0000D2B0054662484790D7
:1001D0004FF4807048904FF4967002F00DFE4FF689
:1001E000074000F0C2FB65E0294649A806F01EFF63
:1001F0000646002E5ED100BF41A949A806F04FFF78
:10020000064616B99DF80D0100B952E09DF80D01A2
:100210002E2800D1F0E74798007808B1479801E010
:100220000DF20D1007469DF80C0100F01000E0BB28
:10023000294601A80AF0E5F848A101A80AF005F945
:100240004FF6FF7000F091FB394601A80AF0FDF867
:1002500080464FF4F0704FF4A073002211460090D6
:1002600040460AF026F8044604B9C5E74FF4784042
:100270003B490880012010233A460021009008469F
:1002800008F021F94FF47A7002F0B6FD4FF47A705D
:1002900002F0B2FD4FF47A7002F0AEFD4FF47A70C6
:1002A00002F0AAFD4FF47A7000E001E002F0A4FD34
:1002B000A2E700BF98E7ADF5147D142229A18FA80D
:1002C0000AF0CFF800F0FFF8482002F07BFD02F0C2
:1002D000CFFD4FF4165002F0E0FD00F075F900F08C
:1002E000A5F900F0AEFB01F0BFF902A9002006F06D
:1002F000B2F94FF478401A490880002010231EA25A
:10030000322100903C2008F0DEF80020102320A2CB
:10031000462100903C2008F0D6F80020102320A2AF
:100320005A2100903C2008F0CEF80020102320A293
:100330006E2100903C2008F0C6F8002010231FA278
:10034000822100903C2008F0BEF84FF47A7002F051
:1003500053FD8FA8FFF738FF0C0200202F0000008C
:1003600016000020303A2F504943545552452F3340
:1003700032303438300000004D696E692053544DDE
:10038000333220446576656C6F70426F6172640031
:100390005069634465636F64652044656D6F000058
:1003A0007869616F46656E674051447465636800A3
:1003B000323031342F30352F3032000053746172B7
:1003C00020446973706C61792E2E2E00704700BF37
:1003D000FEE700BFFEE700BFFEE700BFFEE7704795
:1003E00070477047704700000CB5002001900090E6
:1003F0006C48006840F480306A49086000BF694872
:10040000006800F4003000900198401C01900098B2
:1004100018B90198B0F5A06FF1D16248006800F4F6
:10042000003010B10120009001E000200090009801
:10043000012843D15C48006840F010005A49086028
:100440000846006820F0030008600846006840F095
:1004500002000860534840685249486008464068B6
:1004600048600846406840F480604860084640683C
:1004700020F47C1048600846406840F4E81048606A
:100480000846006840F08070086000BF454800687A
:1004900000F000700028F9D04248406820F00300C6
:1004A000404948600846406840F00200486000BF8C
:1004B0003C48406800F00C000828F9D10CBD10B58C
:1004C000FFF792FF10BD10B53648006840F00100FC
:1004D000344908600846406834490840314948605A
:1004E00008460068324908402E49086008460068FE
:1004F00020F4802008600846406820F4FE00486030
:100500004FF41F008860FFF7DAFF4FF000602949C1
:10051000086010BD10B5002100200022214B5B684F
:1005200003F00C0121B1042906D0082928D107E0E5
:10053000214B224C236027E01F4B204C236023E0FB
:10054000184B5B6803F47010164B5B6803F4803241
:10055000022303EB904022B9194B4343174C23600D
:100560000DE0104B5B6803F4003323B1144B43439D
:10057000124C236003E0104B4343104C236003E014
:100580000D4B0E4C236000BF00BF064B5B68C3F3EE
:1005900003130C4CE15C094B1B68CB40074C2360F8
:1005A00010BD000000100240002002400000FFF8D3
:1005B000FFFFF6FE08ED00E000127A0000000020C8
:1005C00000093D000400002008B50121042003F0CB
:1005D000B3F94FF48070ADF8000010208DF80300DF
:1005E00003208DF8020069460E4802F063FE4FF4C6
:1005F00080710C4802F00BFF0121202003F09CF9D0
:100600000420ADF8000010208DF8030003208DF8C1
:1006100002006946044802F04DFE0421024802F03F
:10062000F6FE08BD000801400014014008B5012194
:10063000042003F081F94FF42040ADF80000482079
:100640008DF8030069462E4802F034FE0120ADF813
:10065000000028208DF803006946294802F02AFE90
:1006600008BD10B50121274802F0F5FE26480078A4
:1006700078B32648006840B124480830006820B1AB
:10068000224834380068012824D10A2002F0B4FB43
:1006900000201D4908701D48006828B901211C4828
:1006A00002F0D9FE012010BD18480830006828B9B2
:1006B0000121174802F0CFFE0220F4E71348343836
:1006C0000068012816D10121114802F0C4FE032060
:1006D000E9E7FFE70D48006801280BD10B48083017
:1006E0000068012806D109483438006810B9012093
:1006F000054908700121064802F0ADFE0020D2E74E
:1007000000080140000430001400002034012142A0
:100710000002300070B505460C4645F2555002F017
:1007200017FF284602F017FF204602F017FF02F0DD
:1007300018FF02F01BFF70BD10B502F012FF10BDD4
:1007400008B500208DF8000002208DF8010003207C
:100750008DF80200684602F056FC08BD70B50646EA
:100760000C4615460121C80203F0F3F8284604F0B0
:10077000EAFB204604F0F0FB304604F008FC04F0ED
:1007800011FCFFF7DDFF04F0F8FB70BD10B5044667
:10079000204604F0FCFB10BD10B57F2004F0F1FBF7
:1007A00004F000FC0448006808B9012000E00020C3
:1007B0000149086010BD0000888122427FB50446CF
:1007C0000D460121022003F0C4F841F28830ADF853
:1007D000080041F61F40ADF804000020ADF80A0003
:1007E000ADF8060001A9174803F064FB012241217E
:1007F000144803F0D6FE1D208DF8000000208DF86F
:10080000010003208DF8020001208DF803006846E6
:1008100002F0F9FB01210B4803F0A8FE7FBD10B5E3
:100820000121084804F06BF958B10121054804F092
:1008300077F90548006808B9012000E00020024966
:10084000086010BD00040040888122424FF480718E
:10085000FE4A516149005161FD49086080215161A2
:1008600011618900116170474FF48071F74A11617D
:1008700049005161F6490860802151611161890088
:100880001161704700B503461846FFF7EDFF00BD44
:1008900010B503460C46D8B2FFF7D8FF2046FFF745
:1008A000E3FF10BD00B5EB49087AFFF7CFFF00BDAD
:1008B00010B503460C46E749887AFFF7C7FF1812C0
:1008C000FFF7D2FFD8B2FFF7CFFF591C0812FFF78E
:1008D000CBFF591C88B2FFF7C7FFDE49087BFFF743
:1008E000B5FF2012FFF7C0FFE0B2FFF7BDFF611CAC
:1008F0000812FFF7B9FF611C88B2FFF7B5FFFFF7D9
:10090000D1FF10BD30B504460D4629462046FFF7FD
:10091000CFFFD1480088FFF7A7FF30BD70B5044670
:100920000D461646CB49887AFFF790FF2012FFF755
:100930009BFFE0B2FFF798FF3012FFF795FFF0B290
:10094000FFF792FFC349087BFFF780FF2812FFF7EC
:100950008BFFE8B2FFF788FF1812FFF785FFD8B2C8
:10096000FFF782FFFFF79EFF70BD30B505460024FC
:10097000B8484088401E83B2B6480088401E82B204
:1009800000210846FFF7CAFF00BF03E02846FFF733
:100990006BFF641CAF480088AE4949884843A042B9
:1009A000F4D830BD08B50121192002F0C5FF01219E
:1009B000AA4802F050FD4FF4FC60ADF80000102092
:1009C0008DF8030003208DF8020069469F4802F06D
:1009D00071FC4FF4F8619D4802F019FD4FF6FF706D
:1009E000ADF8000069469A480C3802F063FC4FF6F7
:1009F000FF7197480C3802F00AFD08BD10B52020A1
:100A000092494861642002F0F7F920208F4908617B
:100A1000322002F0F1F910BD00B52A208D4948813D
:100A20002B2088812C200881002088714FF4A07031
:100A300008804FF4F070488008213620FFF728FF27
:100A400000BD10B5FFF7AEFFFFF7D8FFF120FFF7AD
:100A5000FDFE3620FFF708FF0420FFF705FF00200A
:100A6000FFF702FF3C20FFF7FFFE0F20FFF7FCFE21
:100A70008F20FFF7F9FEF220FFF7E8FE1820FFF7BE
:100A8000F3FEA320FFF7F0FE1220FFF7EDFE022099
:100A9000FFF7EAFEB220FFF7E7FE1220FFF7E4FEC1
:100AA000FF20FFF7E1FE1020FFF7DEFE0020FFF73A
:100AB000DBFEF820FFF7CAFE2120FFF7D5FE042059
:100AC000FFF7D2FEF920FFF7C1FE0020FFF7CCFEB2
:100AD0000820FFF7C9FE3620FFF7B8FE0820FFF711
:100AE000C3FEB420FFF7B2FE0020FFF7BDFEB62024
:100AF000FFF7ACFE0220FFF7B7FE2220FFF7B4FE9F
:100B0000C120FFF7A3FE4120FFF7AEFEC520FFF78F
:100B10009DFE0020FFF7A8FE1820FFF7A5FEE020AD
:100B2000FFF794FE0F20FFF79FFE1F20FFF79CFEAC
:100B30001C20FFF799FE0C20FFF796FE0F20FFF711
:100B400093FE0820FFF790FE4820FFF78DFE9820C7
:100B5000FFF78AFE3720FFF787FE0A20FFF784FEA3
:100B60001320FFF781FE0420FFF77EFE1120FFF720
:100B70007BFE0D20FFF778FE0020FFF775FEE120D9
:100B8000FFF764FE0F20FFF76FFE3220FFF76CFEC9
:100B90002E20FFF769FE0B20FFF766FE0D20FFF702
:100BA00063FE0520FFF760FE4720FFF75DFE75201E
:100BB000FFF75AFE3720FFF757FE0620FFF754FED7
:100BC0001020FFF751FE0320FFF74EFE2420FFF711
:100BD0004BFE2020FFF748FE0020FFF745FE3A209D
:100BE000FFF734FE5520FFF73FFE1120FFF72EFEE2
:100BF0003620FFF72BFEC820FFF736FE782002F0E4
:100C0000FBF82920FFF722FEFFF706FF0120144919
:100C100008604FF6FF70FFF7A8FE10BD2DE9F04FFA
:100C200006460F4614461D46A01B401C1FFA80FABC
:100C3000E81B401C1FFA80FB681E83B2601E82B254
:100C400039463046FFF76AFE0CE000000010014014
:100C50000C0C01400C0300201600002000023000A4
:100C6000A80122424FF000080FE04FF0000906E013
:100C70000998FFF7F9FD09F101001FFA80F9D14544
:100C8000F6DB08F101001FFA80F8D845EDDBFE48DD
:100C90004088401E83B2FC480088401E82B200217A
:100CA0000846FFF73BFEBDE8F08F2DE9FF4F84B00B
:100CB00081468A460020039002900698A0EB090521
:100CC0000798A0EB0A06CDF80490CDF800A0002DFF
:100CD00001DD012705E00DB9002702E04FF0FF37E5
:100CE0006D42002E02DD4FF0010806E016B94FF00C
:100CF000000802E04FF0FF387642B54201DD2C4695
:100D000000E034464FF0000B21E0009A91B2019AC6
:100D100090B2FFF7F7FD03982844039002983044FF
:100D200002900398A04205DD0398001B03900198F0
:100D3000384401900298A04205DD0298001B029001
:100D40000098404400900BF101001FFA80FB601CEA
:100D50008345DADD08B0BDE8F08FF0B504460D46F6
:100D600016461F462B46324629462046FFF79DFF72
:100D70003B46224629462046FFF797FF3B46324630
:100D800039462046FFF791FF3B463246294630461A
:100D9000FFF78BFFF0BD2DE9F04306460F46904666
:100DA000002445460320A0EB480948E03A1B91B2D5
:100DB000721B90B2FFF7A6FD3A1B91B2721990B266
:100DC000FFF7A0FD7A1991B2321B90B2FFF79AFD9E
:100DD0003A1B91B2721B90B2FFF794FD7A1B91B24D
:100DE000321B90B2FFF78EFD3A1991B2721990B290
:100DF000FFF788FD7A1B91B2321990B2FFF782FD9E
:100E00007A1991B2321990B2FFF77CFD3A1991B27A
:100E1000721B90B2FFF776FD641CB9F1000F03DA84
:100E2000A000801D814404E0601B80000A308144E2
:100E30006D1E7A1991B2321990B2FFF763FDAC4280
:100E4000B4DDBDE8F0832DE9F84F07468946164624
:100E50001D46BB468D4800880090E82F02DCB9F59E
:100E60009C7F01DDBDE8F88FA6F12000C6B20A988C
:100E7000002839D1002434E00C2D07D106EB4600C0
:100E8000834901EB800010F804A004E0814800EBE6
:100E9000061010F804A04FF0000816E00AF0010058
:100EA00018B17A490098088003E07B4800887749A8
:100EB000088049463846FFF725FD4FEA6A0A781C44
:100EC00087B208F1010000F0FF0805EBD571B8EB1F
:100ED000610FE3DB5F4609F101001FFA80F9601C36
:100EE000C4B2AC42C8DB2DE0002429E00C2D07D1B0
:100EF00006EB4600664901EB800010F804A004E010
:100F0000644800EB061010F804A04FF0000810E051
:100F10000AF0010038B109EB040291B207EB0802B4
:100F200090B2FFF7EFFC4FEA6A0A08F1010000F007
:100F3000FF0805EBD571B8EB610FE9DB601CC4B2AB
:100F4000AC42D3DB51490098088000BF8AE710B556
:100F50000246012000E050430B00A1F10104E1B280
:100F6000F9D110BD2DE9FF4F81B0074691461E46CD
:100F70000E9D4FF0000A002439E0301B401EC1B224
:100F80000A20FFF7E4FFB9FBF0F00A21B0FBF1F211
:100F900001FB1208BAF1000F16D1701EA04213DD3A
:100FA000B8F1000F0ED10020AB4605EBDB71491004
:100FB00001FB0471009088B22B4620220299FFF7B2
:100FC00042FF12E04FF0010A0020AB4605EBDB7157
:100FD000491001FB0471009088B208F13001CAB2D7
:100FE0002B460299FFF72FFF00BF601CC4B2B4422A
:100FF000C3DB05B0BDE8F08F2DE9FF4F81B0074698
:1010000090461D46DDE90E6A00241EE0281B401EA6
:10101000C1B20A20FFF79BFFB8FBF0F00A21B0FB3A
:10102000F1F201FB1209B34606EBDB71491001FB3B
:10103000047188B209F13001CAB23346CDF800A07C
:101040000299FFF700FF601CC4B2AC42DEDB05B0C2
:10105000BDE8F08F78B505460E46144626E0E82D2B
:1010600003DD002506F1100086B2B6F59C7F06DD93
:101070000020054606464FF6FF70FFF776FC00207D
:1010800000902278102309E00C03002016000020B5
:101090001EB1000892B5000818000020314628460D
:1010A000FFF7D1FE05F1080085B2641C2078002806
:1010B000D5D178BD10B50121042001F0DDFF01215B
:1010C000080702F046FC012002F07CFA02F099FACF
:1010D00010BD10B500214FF4FE7002F047FCFFF781
:1010E000E9FF10BD70B50025002400202E490860DE
:1010F0001AE02D48A038006818B1681CC5B2002459
:1011000008E0601CC4B2032C04DD012026490860FD
:10111000002070BD1E2001F06FFE642D04DB002056
:10112000214908600120F4E7E3E710B501201F49D9
:101130000860FFF7D7FF08B1FFF7CBFF10BD1FB561
:101140000121052002F0F8FB0120ADF80C00282059
:101150008DF80F0003A9164802F0ACF800210846EC
:1011600002F0BEF90120009000208DF80400082054
:101170008DF8050001208DF80600684601F0BAFFE1
:1011800006208DF8080002208DF809008DF80A006D
:1011900001208DF80B0002A801F035FFFFF7A2FF38
:1011A00008B9FFF787FF1FBDA001214214040140C9
:1011B0000008014008B50121102002F0BDFB4FF4EA
:1011C000C050ADF8000010208DF8030003208DF80A
:1011D000020069468A4802F06DF8012089490860DA
:1011E0008949C1F8AC0108BD10B58548406820F4B4
:1011F0007040834948600846406840F44050486069
:1012000001208049091F08607F49C1F8B00104200E
:1012100001F00EFE00207B49091F0860042001F048
:1012200007FE00207849C1F8B00110BD10B5744820
:10123000406820F47040724948600846406840F4B5
:101240004050486000206F4908606F49C1F8AC0108
:10125000042001F0EDFD01206A4908606A49C1F8E7
:10126000AC01042001F0E4FD10BD10B50024644879
:10127000406820F47040624948600846406840F485
:101280000040486001205F49091F086001F0D0FD5F
:1012900001205D49C1F8B00101F0CAFD07E0601C02
:1012A000C4B2FA2C03DDFFF7C1FF012010BD554881
:1012B000843800680028F2D15249086000BFF5E781
:1012C00010B500204F4908604D48406820F4704038
:1012D0004B4948600846406840F440504860002050
:1012E0004949C1F8AC01022001F0A2FD01204549A5
:1012F0000860022001F09CFD00204349C1F8B001C4
:1013000010BD10B500203F4908603D48406820F4FA
:1013100070403B4948600846406840F4405048608F
:1013200001203949C1F8AC01022001F081FD012002
:1013300034490860022001F07BFD00203249C1F8E9
:10134000B00110BD70B504462D48406820F47040CF
:101350002B4948600846406840F4405048600020EF
:1013600028490860002517E0E0092649091F0860A0
:101370006006040E022001F05BFD01202249C1F845
:10138000B001022001F054FD00201E490860022037
:1013900001F04EFD681CC5B2082DE5DB70BD70B5CF
:1013A000054600241648406820F4704014494860FF
:1013B0000846406840F400404860002616E00020DF
:1013C00010490860022001F033FD01200E49C1F8E8
:1013D000B0016006040E0B488438006808B1601C38
:1013E000C4B2012001F024FD701CC6B2082EE6DB59
:1013F00015B9FFF786FF01E0FFF762FF204670BDD9
:1014000000100140B00122420000224210B5FFF757
:10141000D1FE10BD70B504460026FFF7E5FE254657
:10142000E11704EB11610912A02202EB4101C8B2DD
:10143000FFF788FFFFF719FFE11704EB11610912AD
:10144000A4EB0121C8B2FFF77DFFFFF70EFFFFF706
:10145000CBFEA120FFF776FFFFF707FF0020FFF785
:101460009EFF0646FFF7E2FE304670BD70B50446AB
:101470000E46FFF7B9FE2546E11704EB116109128C
:10148000A02202EB4101C8B2FFF75CFFFFF7EDFEBF
:10149000E11704EB11610912A4EB0121C8B2FFF7B7
:1014A00051FFFFF7E2FE3046FFF74CFFFFF7DDFE8E
:1014B000FFF7BCFE0A2001F09FFC70BD2DE9F04152
:1014C00005460E461746002409E0E20026FA02F21D
:1014D000D1B22A1990B2FFF7C9FF601CC4B2BC4256
:1014E000F3DBBDE8F0812DE9F04107460C4600260C
:1014F000002509E036023919491B491E88B2FFF759
:1015000089FF0644681CC5B2A542F3DB3046BDE83E
:10151000F08110B5FF20FFF77DFF0446552C01D167
:10152000002010BD5521FF20FFF7A0FFFF20FFF78F
:1015300071FF0446552C01D10020F2E70120F0E7AD
:1015400070B506460C46154608E03046721C96B249
:10155000FFF760FF04F8010B681E85B2002DF4D17F
:1015600070BD70B505460C46164606E02178284643
:10157000FFF77CFF681C85B2641C3000A6F10101F6
:101580008EB2F3D170BD000070B50546002405E0B1
:10159000601CC4B2C82C01DD002070BD02212F48A0
:1015A00002F07DFB0028F3D029462C4802F024FBF2
:1015B000002400BF0121294802F071FB0028F9D066
:1015C000601CC4B2C82C01DD0020E6E7234802F00D
:1015D00015FBC0B2E1E708B5012141F2040002F0B9
:1015E000ABF9E020ADF8000018208DF803000320CF
:1015F0008DF8020069461A4801F05CFEE0211848A7
:1016000001F005FF0020174908804FF482704880E0
:10161000002088800220C880012008814002488183
:10162000382088810020C881072008820B4802F0FA
:101630000DFA0121094802F0AEFAFF20FFF7A4FFDE
:1016400008BD10B50446074884810146034802F0EE
:10165000FDF90121014802F09EFA10BD0030014061
:10166000000801401A03002008B51C20ADF8000056
:1016700010208DF803006946C14801F01BFE1C21B3
:10168000BF4801F0C4FEFFF7A6FF08BD10B5002457
:101690000020BC4908600520FFF776FFFF20FFF718
:1016A00073FF04460120B849C1F88801204610BDE7
:1016B00010B504460020B34908600120FFF764FF1D
:1016C0002046FFF761FF0120AF49C1F8880110BD36
:1016D00010B50020AB4908600620FFF755FF012038
:1016E000A949C1F8880110BD10B50020A5490860BE
:1016F0000420FFF749FF0120A349C1F8880110BD6C
:1017000010B5002400209F4908609020FFF73CFF9F
:101710000020FFF739FF0020FFF736FF0020FFF71A
:1017200033FFFF20FFF730FF44EA0024FF20FFF7DC
:101730002BFF044301209449C1F88801204610BDC5
:101740002DE9F04106460C46174600208D490860F9
:101750000320FFF719FFC4F30740FFF715FFC4F399
:101760000720FFF711FFE0B2FFF70EFF002505E0AD
:10177000FF20FFF709FF7055681C85B2BD42F7DBFB
:10178000012080490860BDE8F08110B500BFFFF777
:101790007DFF00F001000028F9D110BD2DE9F041D6
:1017A00006460C461746FFF793FF00207549086070
:1017B0000220FFF7E9FEC4F30740FFF7E5FEC4F39C
:1017C0000720FFF7E1FEE0B2FFF7DEFE002504E0B0
:1017D000705DFFF7D9FE681C85B2BD42F8DB0120C1
:1017E00068490860FFF7D1FFBDE8F0812DE9F041BD
:1017F00007460E461446F0B2C0F58075AC4200DCD8
:10180000254612E02A4631463846FFF7C7FFAC426C
:1018100000D10BE02F442E44601B84B2B4F5807FCE
:1018200002DD4FF4807500E02546EBE700BFBDE820
:10183000F08110B504462403FFF74AFFFFF7A5FF28
:101840000020504908602020FFF79EFEC4F30740A7
:10185000FFF79AFEC4F30720FFF796FEE0B2FFF70A
:1018600093FE01204849C1F88801FFF78EFF10BDA3
:101870002DE9F04781460F4616464FEA1738C7F361
:101880000B0ACAF58054A64200DC344644E04FEA15
:1018900008314FF480523D48FFF752FF002508E021
:1018A0000AEB05003949085CFF2800D003E0681CFA
:1018B00085B2A542F4DB00BFA54216DA4046FFF729
:1018C000B8FF002507E019F8050005EB0A012F4ACB
:1018D0005054681C85B2A542F5DB4FEA08314FF43D
:1018E00080522A48FFF782FF04E0224639464846E4
:1018F000FFF77CFFA64200D10FE008F101084FF08E
:10190000000AA1442744301B86B2B6F5805F02DD91
:101910004FF4805400E03446B9E700BFBDE8F087DB
:1019200010B5FFF7D5FEFFF730FF0020154908601E
:10193000C720FFF729FE01201349C1F88801FFF7EE
:1019400024FF10BD10B500200E490860B920FFF734
:101950001BFE01200C49C1F88801032001F068FA40
:1019600010BD10B5002007490860AB20FFF70CFE42
:1019700001200549C1F88801032001F059FA10BD82
:101980000008014088012142000021422C03002070
:10199000002100BF15E000F080021AB10122FA4BCD
:1019A0001A6002E00022F84B1A604206100E002274
:1019B000F54B0C3B1A600122F44BC3F880214A1C02
:1019C000D1B20829E7DB704770B506460025002430
:1019D0000020ED490C390860EC49C1F8B4013046EB
:1019E000FFF7D6FF062001F023FA0120E6490C3963
:1019F00008600020E549C1F8800100BF13E04FF600
:101A0000FF7000EA44040020DF490C39086001201F
:101A1000DE49C1F88001DC488438006808B1601CE8
:101A200084B2681CC5B2102DE9DB24110120D6490F
:101A300028310860204670BD2DE9F04188B080460D
:101A40000027002406E04046FFF7BEFF2DF81400F3
:101A5000601C84B20F2CF6DB002416E0601C85B2FB
:101A60000FE03DF814003DF81510884207DD3DF801
:101A700014603DF815002DF814002DF81560681C51
:101A800085B20F2DEDDB601C84B20E2CE6DB002747
:101A9000052405E03DF81400384487B2601C84B288
:101AA0000A2CF7DB052097FBF0F086B2304608B031
:101AB000BDE8F0812DE9F04104460D46B4480078B8
:101AC000FFF7BAFF0646B3480078FFF7B5FF0746B1
:101AD000642E01DB642F02DA0020BDE8F08126804D
:101AE0002F800120F9E77FB504460D4602A903A81F
:101AF000FFF7E0FF064616B9002004B070BD694646
:101B000001A8FFF7D7FF06460EB90020F5E7BDF89C
:101B10000400BDF80C10884206DCBDF80C10BDF8BE
:101B20000400323081420CDBBDF80C00BDF804101B
:101B3000884236DCBDF80410BDF80C00323081421A
:101B40002FDABDF80000BDF80810884206DCBDF8A9
:101B50000810BDF80000323081420CDBBDF80800EF
:101B6000BDF8001088421CDCBDF80010BDF808006C
:101B70003230814215DABDF80C10BDF80420881807
:101B800000EBD071C1F34F012180BDF80810BDF802
:101B90000020881800EBD071C1F34F01298001208B
:101BA000ABE70020A9E730B17B49096841F00201A9
:101BB000794A116005E07849096821F00201764A06
:101BC0001160704710B500240020FFF7ECFF0020E3
:101BD00072490872891D881EFFF785FF04E0601CAA
:101BE000C4B20A2001F008F967488838006808B9CB
:101BF000FA2CF4DD0120FFF7D6FFFA2C01DB0020E0
:101C000010BD0120FCE770B504460D46A4F10C019F
:101C100088B22B4604F10D022946FFF746F805F17C
:101C20000D0083B2193881B222462046FFF73DF8F5
:101C3000681C81B2601CFEF765FE6A1C91B2621ED0
:101C400090B2FEF75FFE681E81B2601CFEF75AFE7E
:101C50006A1E91B2621E90B2FEF754FE0622294619
:101C60002046FFF798F870BD70B504460D4629462A
:101C70002046FEF747FE2946601CFEF743FE681C1F
:101C800081B22046FEF73EFE681C81B2601CFEF762
:101C900039FE70BD2DE9F0414049891D881EFFF7CE
:101CA00022FF80B33D49B1F9140009F05BF8064604
:101CB0003A49888809F06EF807463848C1683846BE
:101CC00009F0B0F80546314608F0E0FE044609F098
:101CD00029F832490880B1F9160009F043F80646A0
:101CE0002E49C88809F056F807462C48016938463D
:101CF00009F098F80546314608F0C8FE044609F098
:101D000011F826494880BDE8F08101202349087276
:101D10000220214914310860704770B51F49C86816
:101D20001F4909F07FF8054608F0E0FF0446042249
:101D300021462820FFF7C2FB18490869184909F015
:101D400071F8054608F0D2FF0446042221462C20F3
:101D5000FFF7B4FB1148B0F9141002223020FFF74E
:101D6000ADFB0E48B0F9161002223220FFF7A6FB99
:101D70000A48017E3420FFF779FB0A2421463520EA
:101D8000FFF774FB70BD00008C012242000022426C
:101D90001C0000201D000020000401402C13002026
:101DA00020BCBE4C70B53520FFF734FB04460A2C2E
:101DB00040D104212820FFF796FB0446204608F076
:101DC000D1FF0546F84908F0CFFEF849C860042164
:101DD0002C20FFF788FB0446204608F0C3FF054689
:101DE000F14908F0C1FEF149086102213020FFF7F6
:101DF0007AFB00B2ED49888202213220FFF773FBA3
:101E000000B2EA49C8823420FFF704FBE7490876AC
:101E10000846007E30B19020E5490870D020E549A1
:101E2000087005E0D020E24908709020E149087070
:101E3000012070BD0020FCE710B50446DEA2282179
:101E40000846FFF707F9E2A23C212820FFF702F934
:101E5000E5A250212820FFF7FDF8E9A264212820FF
:101E6000FFF7F8F8E6A264212820FFF7F3F82246EE
:101E700078212820FFF7EEF810BD00B591B00020C2
:101E80000B900B901F20E44908804FF6FF70E34948
:101E90000880FEF76AFD4FF47840DF4908804FF66E
:101EA000FF70FEF762FD14210846FFF7ACFE00202C
:101EB000BE490872C8607DE2BC48007A012875D12D
:101EC000FFF780FE88B1B948808801B20CAA0B9850
:101ED00022F82010B548C08801B20B9802EB8000B0
:101EE00041800B98401CC0B20B900B98012806D083
:101EF00002280DD0032815D0042808D11CE04FF685
:101F0000FF70FEF732FD1421DC20FFF77CFEF5E3C5
:101F10004FF6FF70FEF729FD4FF496711420FFF77E
:101F200072FEF4E74FF6FF70FEF71FFD4FF4967157
:101F3000DC20FFF768FEEAE7BDF93000BDF9341098
:101F4000401A0590002801DB059801E00598404201
:101F50000890BDF93210BDF93600081A0590002826
:101F600001DB059801E0059840420790089840433E
:101F70000890079840430790DDE907100844019056
:101F800008F099FBCDE9020108F036FBCDE9040128
:101F900008F064FB80B20A90BDF93800BDF93C102E
:101FA000401A0590002802DB059802E0D6E3059868
:101FB00040420890BDF93A10BDF93E00081A05905C
:101FC000002801DB059801E0059840420790089839
:101FD00040430890079840430790DDE90710084404
:101FE000019008F068FBCDE9020108F005FBCDE99E
:101FF000040108F033FB80B20990099808F0CAFE8A
:1020000005900A9808F0C6FE0490059908F0ACFD0A
:102010000690069808F00EFD4FF06632804BCDE931
:10202000040108F05BFB0ED3069808F003FD7D4A1F
:102030007D4BCDE9040108F0E1FB04D30A9810B10F
:102040000998002876D100200B904FF6FF70FEF71C
:102050008CFC14210846FFF7D6FD74A0FFF7ECFEB8
:1020600010200090BDF9300004230246282105907D
:102070004020FEF777FF10200090BDF932000423C6
:102080000246282105909020FEF76CFF102000905A
:10209000BDF93400042302463C2105904020FEF7A0
:1020A00061FF10200090BDF93600042302463C2158
:1020B00005909020FEF756FF10200090BDF93800E3
:1020C00004230246502105904020FEF74BFF1020CC
:1020D0000090BDF93A00042302465021059090205B
:1020E000FEF740FF10200090BDF93C00042302469B
:1020F000642105904020FEF735FF10200090BDF9C7
:102100003E0004230246642105909020FEF72AFF3A
:102110004949069808F086FE049008F003FE0590F1
:102120001020032300908C212820059AFEF71AFF27
:1021300015E3FFE7BDF93000BDF93810401A0590EE
:10214000002801DB059801E0059840420890BDF9A0
:102150003210BDF93A00081A0590002801DB0598F5
:1021600001E005984042079008984043089007987E
:1021700040430790DDE907100844019008F09BFAFE
:10218000CDE9020108F038FACDE9040108F066FA59
:1021900080B20A90BDF93400BDF93C10401A059098
:1021A00000284BDB05984BE020BCBE4C2C130020D4
:1021B0001C0000201D00002078313A202020202023
:1021C000202079313A20202020202020000000000B
:1021D00078323A2020202020202079323A202020F6
:1021E000202020200000000078333A2020202020EA
:1021F000202079333A2020202020202000000000D9
:1022000078343A2020202020202079343A202020C1
:1022100020202020000000001600002018000020D0
:102220006666EE3FCDCCCCCCCCCCF03F7665722050
:102230006661632069733A000000C8420598404215
:102240000890BDF93610BDF93E00081A0590002827
:1022500001DB059801E0059840420790089840434B
:102260000890079840430790DDE907100844019063
:1022700008F021FACDE9020108F0BEF9CDE9040128
:1022800008F0ECF980B20990099808F083FD0590F8
:102290000A9808F07FFD0490059908F065FC069007
:1022A000069808F0C7FB4FF06632F94BCDE9040100
:1022B00008F014FA09D3069808F0BCFBF54AF64B6F
:1022C000CDE9040108F09AFA76D200200B904FF67F
:1022D000FF70FEF74AFB14210846FFF794FCEFA0BD
:1022E000FFF7AAFD10200090BDF93000042302463C
:1022F000282105904020FEF735FE10200090BDF902
:10230000320004230246282105909020FEF72AFE81
:1023100010200090BDF93400042302463C210590B2
:102320004020FEF71FFE10200090BDF93600042368
:1023300002463C2105909020FEF714FE10200090EC
:10234000BDF9380004230246502105904020FEF7D5
:1023500009FE10200090BDF93A00042302465021E6
:1023600005909020FEF7FEFD10200090BDF93C0086
:1023700004230246642105904020FEF7F3FD10205F
:102380000090BDF93E000423024664210590902090
:10239000FEF7E8FDC449069808F044FD049008F0F3
:1023A000C1FC05901020032300908C212820059A61
:1023B000FEF7D8FDD3E1FFE7BDF93400BDF93810D1
:1023C000401A0590002801DB059801E0059840427D
:1023D0000890BDF93610BDF93A00081A059000289A
:1023E00001DB059801E005984042079008984043BA
:1023F0000890079840430790DDE9071008440190D2
:1024000008F059F9CDE9020108F0F6F8CDE9040128
:1024100008F024F980B20A90BDF93000BDF93C10F3
:10242000401A0590002801DB059801E0059840421C
:102430000890BDF93210BDF93E00081A0590002839
:1024400001DB059801E00598404207900898404359
:102450000890079840430790DDE907100844019071
:1024600008F029F9CDE9020108F0C6F8CDE9040128
:1024700008F0F4F880B20990099808F08BFC0590F8
:102480000A9808F087FC0490059908F06DFB069007
:10249000069808F0CFFA4FF066327D4BCDE9040183
:1024A00008F01CF909D3069808F0C4FA794A7A4B67
:1024B000CDE9040108F0A2F976D200200B904FF686
:1024C000FF70FEF752FA14210846FFF79CFB77A035
:1024D000FFF7B2FC10200090BDF930000423024643
:1024E000282105904020FEF73DFD10200090BDF909
:1024F000320004230246282105909020FEF732FD89
:1025000010200090BDF93400042302463C210590C0
:102510004020FEF727FD10200090BDF9360004236F
:1025200002463C2105909020FEF71CFD10200090F3
:10253000BDF9380004230246502105904020FEF7E3
:1025400011FD10200090BDF93A00042302465021ED
:1025500005909020FEF706FD10200090BDF93C008C
:1025600004230246642105904020FEF7FBFC102066
:102570000090BDF93E00042302466421059090209E
:10258000FEF7F0FC4849069808F04CFC049008F06F
:10259000C9FB05901020032300908C212820059A68
:1025A000FEF7E0FCDBE0FFE7BDF93400BDF93010D9
:1025B000401A049008F0D6FB014605903E4808F00A
:1025C000D3FA3E49C860BDF93400BDF93010084463
:1025D000019008F0C7FB02903848C068014601909E
:1025E000029808F01FFC3649039008F018FD4FF0E0
:1025F0008041049008F0B8FA059008F077FB00B22B
:102600002E498882BDF93A00BDF93210401A049073
:1026100008F0A8FB014605902A4808F0A5FA2749CA
:102620000861BDF93A00BDF932100844019008F084
:1026300099FB02902148006901460190029808F038
:10264000F1FB2149039008F0EAFC4FF0804104902F
:1026500008F08AFA059008F049FB00B21749C882D1
:102660000846C068039008F041FB0490002801DB95
:10267000049801E00498404202282BDC0F480069CE
:10268000039008F033FB059000281FDB05981FE03E
:102690006666EE3FCDCCCCCCCCCCF03F686F7220E0
:1026A0006661632069733A000000C8426469612072
:1026B0006661632069733A00000048432C130020D0
:1026C0000000704300008C430000A0430598404286
:1026D00002282CDD00200B904FF6FF70FEF745F925
:1026E00014210846FFF78FFA4AA26E212320FEF735
:1026F000B1FC4D48007E10B9012001E02DE0002022
:10270000494908760846007E30B190204749087054
:10271000D0204749087005E0D02044490870902037
:10272000434908704FF4FA7000F066FB17E01F2071
:10273000404908804FF6FF70FEF717F93EA26E2160
:102740002320FEF787FC4FF4FA7000F055FB4FF69C
:10275000FF70FEF70AF911B000BD00BF00BFFFF720
:10276000ABBB1FB50121112001F0E6F842F20900D0
:10277000ADF8080010208DF80B0003208DF80A003A
:1027800002A9334800F096FD0620ADF80800482065
:102790008DF80B0002A92E4800F08CFD2249891DFE
:1027A000881EFFF787F907208DF80C0002208DF8AE
:1027B0000D0000208DF80E0001208DF80F0003A8F9
:1027C00000F021FC0121084601F0B6F801210220A9
:1027D00000F086FE0220009000208DF804000C20FE
:1027E0008DF8050001208DF80600684600F082FC97
:1027F000FEF70CFEFFF7D6FA00B11FBD4FF6FF70D3
:10280000FEF7B3F8FFF739FBFFF787FAFFF7CAFACD
:1028100000BFF2E75450204E656564207265616424
:102820006A757374210000002C1300201C00002026
:102830001D00002016000020546F7563682053634C
:102840007265656E2041646A757374204F4B210078
:102850000010014010B504462046FEF795FE10BD5D
:1028600010B53820FEF7EDFE10BD10B50020FEF7C4
:10287000E8FE10BD08B50121042001F05DF81C2020
:10288000ADF8000010208DF8030003208DF8020041
:102890006946FE4800F00EFD1C21FC4800F0B7FD23
:1028A000FEF799FE0120FA49086008BD10B5012025
:1028B000F7490860FF20FFF7CDFF10BD10B50024D9
:1028C00000BFFF20FFF7C6FFFF2801D1002010BD89
:1028D000641C6FF07F408442F3D30120F7E710B50A
:1028E0000020EB490860FFF7E9FF08B9002010BDA0
:1028F000FFF7DCFF0120FAE770B5054640F6FF74EC
:1029000001E0601E84B2FF20FFF7A4FFA84201D0BF
:10291000002CF6D10CB9FF2070BD0020FCE770B58B
:1029200004460D46FE20FFF7E7FF08B1012070BD09
:1029300004E0FF20FEF728FE2070641C2800A5F1AB
:1029400001018DB2F5D1FF20FFF784FFFF20FFF7D3
:1029500081FF0020EBE770B506460D46FFF7AEFF9E
:1029600008B1012070BD2846FFF774FFFD2D19D076
:10297000002404E0305DFEF707FE601C84B2B4F56D
:10298000007FF7DBFF20FFF765FFFF20FFF762FF07
:10299000FF20FFF75FFF044604F01F00052801D069
:1029A0000220DFE70020DDE72DE9F04105460C4677
:1029B00017464FF00008FFF779FFFFF790FF10B1BF
:1029C000FF20BDE8F08145F04000FFF743FF200EF7
:1029D000FFF740FFC4F30740FFF73CFFC4F30720B5
:1029E000FFF738FFE0B2FFF735FF3846FFF732FF59
:1029F0000C2D02D1FF20FFF72DFF4FF01F0800BF65
:102A0000FF20FFF727FF064606F0800030B15FEA9F
:102A10000800A8F1010101F0FF08F1D13046D0E72C
:102A200070B50546012200210A20FFF7BDFF0446CC
:102A300024B910212846FFF772FF0446FFF736FF3E
:102A40000CB1012070BD0020FCE770B505460122E5
:102A500000210920FFF7A8FF044624B910212846C9
:102A6000FFF75DFF0446FFF721FF0CB1012070BDA9
:102A70000020FCE77FB56846FFF7E7FF10B10020B4
:102A800004B070BD9DF8000000F0C000402809D1DE
:102A90009DF809009DF8081000EB0120401C84B24D
:102AA000A50220E09DF8050000F00F009DF80A1037
:102AB00000EBD1109DF8091001F0030100EB41007B
:102AC000861C9DF8080080119DF8071000EB81001E
:102AD0009DF8061001F0030100EB8120441CA6F1D3
:102AE000090004FA00F52846CAE770B5002401E0A1
:102AF000601C84B2B4F5706FFADB002404E0FF20A0
:102B0000FEF742FD601C84B20A2CF8DB002500BFF2
:102B1000952200210846FFF747FF0446681CC5B20E
:102B2000012C01D0C82DF3DBC82D01D1012070BDCF
:102B30000020FCE7F8B5FFF79DFEFFF791FE0025AA
:102B400004E0FF20FFF786FE681C85B20A2DF8DB43
:102B5000142600BF952200210846FFF725FF0446F2
:102B6000012C04D03000A6F101018EB2F2D1002078
:102B700048490870012C4AD187224FF4D5710820AA
:102B8000FFF712FF012847D1002506E0FF20FFF7DD
:102B900061FE0DF80500681C85B2042DF6DB9DF87A
:102BA00002000128E7D19DF80300AA287CD14FF646
:102BB000FE7600BF012200213720FFF7F5FE01223B
:102BC00091072920FFF7F0FE044624B13000A6F15A
:102BD00001018EB2EED1002E66D0012200213A20F2
:102BE000FFF7E2FE00285FD1002506E0FF20FFF797
:102BF00031FE0DF80500681C85B2042DF6DB9DF84A
:102C0000000000F0400018B10620224908704BE097
:102C100004202049087047E0012200213720FFF7F7
:102C2000C3FE012200212920FFF7BEFE0446012C2D
:102C300017DC0220174908704FF6FE7600BF01220C
:102C400000213720FFF7B0FE012200212920FFF7E5
:102C5000ABFE0446BCB13000A6F101018EB2EED14C
:102C600011E001200B4908704FF6FE7600BF0122EB
:102C700000211046FFF798FE044624B13000A6F16B
:102C800001018EB2F3D166B1012205E000080140D6
:102C90008C0121421E00002051021020FFF784FE0B
:102CA00010B1002046490870FFF700FEFFF7DDFD78
:102CB0004348007808B10020F8BD0CB12046FBE77E
:102CC000AA20F9E72DE9F04106460F4615463C4893
:102CD0000078062800D07F02012D0CD10122394650
:102CE0001120FFF761FE0446FCB969023046FFF788
:102CF00016FE044619E0012239461220FFF754FE61
:102D0000044600BF4FF400713046FFF708FE04464A
:102D100006F50076681EC0B2050001D0002CF1D087
:102D2000012200210C20FFF73FFEFFF7BFFD2046E8
:102D3000BDE8F0812DE9F04106460F4615462048D2
:102D40000078062800D07F02012D0CD101223946DF
:102D50001820FFF729FE04466CBBFE213046FFF722
:102D6000FAFD044627E016480078012809D0012220
:102D700000213720FFF718FE012229461720FFF710
:102D800013FE012239461920FFF70EFE044694B9BE
:102D900000BFFC213046FFF7DEFD044606F5007655
:102DA000681EC0B2050001D0002CF2D0FD21002029
:102DB000FFF7D1FD0446FFF779FD2046BDE8F0811D
:102DC0001E00002010B504466FF0040000F065F905
:102DD000E11704EB5171C1F3C701234A117010468A
:102DE000007800EB4001C1EBC0104FF6FF7101EA23
:102DF000C0001E49088010BD01461C4A12884A4383
:102E00004FF0E0235A6100229A6101221A6100BF4B
:102E10004FF0E022106900F001021AB100F4803294
:102E2000002AF5D000224FF0E0231A619A61704722
:102E300001460D4A12784A434FF0E0235A610022BE
:102E40009A6101221A6100BF4FF0E022106900F080
:102E500001021AB100F48032002AF5D000224FF0AE
:102E6000E0231A619A6170472000002022000020B0
:102E700010B54FF4A06000F0C1F810BD014600BFCE
:102E8000704700BF494A128802F04002002AF9D078
:102E9000C2B2464B1B1D1A80704710B586B004465F
:102EA000012144F2050000F047FD4FF40070ADF839
:102EB000140003208DF8160018208DF8170005A9BE
:102EC0003B4800F0F7F94FF48060ADF8140004209F
:102ED0008DF8170005A9364800F0ECF925208DF88B
:102EE000000003208DF801008DF8020001208DF80C
:102EF0000300684600F087F801940020ADF8080050
:102F0000ADF80A00ADF80C00ADF810000C20ADF8DB
:102F10000E0001A9254801F04AFE012240F2255188
:102F2000224801F0DCFE0121204801F0CCFE06B071
:102F300010BD10B540F225511C4801F0B5FF10B38B
:102F40001A4801F031FFC4B21A48007800F080003E
:102F5000C8B91848007800F0400060B10A2C03D0CE
:102F600000201449087020E01248007840F08000EA
:102F70001049087019E00D2C06D10E48007840F079
:102F800040000C49087010E00A48007800F03F004B
:102F900009490C5407480078401C06490870084647
:102FA00000783F2801DD0020087010BD0038014086
:102FB00000080140280000204813002009488047ED
:102FC00009480047FEE7FEE7FEE7FEE7FEE7FEE70B
:102FD000FEE7FEE7FEE7FEE704480549054A064B23
:102FE00070470000C7040008ED000008603A0020A8
:102FF00060400020603C0020603C002031490143DB
:10300000314A1160704770B5002100230F22C47847
:1030100004B32D4C246804F4E064C4F5E064210A90
:10302000C1F10403CA40447804FA03F184781440DF
:1030300021430901254C0678A155047804F01F05A9
:103040000124AC4005786D11AD0005F1E025C5F80F
:10305000004109E0047804F01F050124AC401C4D38
:103060000678761145F8264070BD1A4A0A40024398
:10307000154B1B1F1A60704739B1134A121D126895
:103080000243114B1B1D1A6006E00F4A121D126805
:1030900082430D4B1B1D1A607047042808D14FF066
:1030A000E021096941F004014FF0E022116107E0DD
:1030B0004FF0E021096921F004014FF0E022116195
:1030C000704700000000FA050CED00E000E400E0AD
:1030D00080E100E080FFFF1F002044490860091DD7
:1030E0000860091D0860091D086041483F49143106
:1030F0000860704700213D498279002A3AD00A468B
:10310000126803689A430B461A600A1D1268036826
:103110009A430B1D1A60027911440A6803681A4326
:103120000A60324A0832126803689A432F4B083308
:103130001A601A1D126803689A432C4B0C331A60EC
:103140004279102A0ED11A1F126803681A43274BBE
:1031500008331A601A1D126803681A43234B0C3394
:103160001A600DE02149427911440A6803681A4344
:103170000A6005E0027911440A6803689A430A600C
:1031800070470021016001710C21417100218171A2
:1031900070471649103109680143144A1032116012
:1031A000704701460020114A143212680A400AB1E1
:1031B000012000E0002070470C491431086070477E
:1031C000014600200022094B1B6803EA0102074B5D
:1031D00014331B680B4013B10AB1012000E000203A
:1031E0007047024914310860704700000004014034
:1031F000FFFF0F0010B50446CC48844208D10121DE
:10320000042000F0B3FB0021042000F0AFFB46E0F7
:10321000C748844208D10121082000F0A7FB002103
:10322000082000F0A3FB3AE0C248844208D1012103
:10323000102000F09BFB0021102000F097FB2EE0F7
:10324000BD48844208D10121202000F08FFB0021DD
:10325000202000F08BFB22E0B848844208D10121F5
:10326000402000F083FB0021402000F07FFB16E0AF
:10327000B348844208D10121802000F077FB00216F
:10328000802000F073FB0AE0AE48844207D10121A0
:10329000801500F06BFB0021A01500F067FB10BD4E
:1032A00010B50121084600F061FB0021012000F06B
:1032B0005DFB10BD2DE9F0410246002500260020EF
:1032C00000230024002791F803C00CF00F0591F8AB
:1032D00003C00CF0100CBCF1000F03D091F802C039
:1032E0004CEA050591F800C0BCF1000F31D014681C
:1032F00000202BE04FF0010C0CFA00F3B1F800C0F5
:103300000CEA03069E4220D183004FF00F0C0CFA0A
:1033100003F7BC4305FA03FC4CEA040491F803C02C
:10332000BCF1280F06D14FF0010C0CFA00FCC2F8DA
:1033300014C00AE091F803C0BCF1480F05D14FF06A
:10334000010C0CFA00FCC2F810C0401C0828D1D3B4
:103350001460B1F800C0BCF1FF0F34DD54680020E8
:103360002EE000F1080C4FF0010808FA0CF3B1F858
:1033700000C00CEA03069E4221D183004FF00F0CDF
:103380000CFA03F7BC4305FA03FC4CEA040491F879
:1033900003C0BCF1280F05D100F1080C08FA0CF8A5
:1033A000C2F8148091F803C0BCF1480F07D100F1B6
:1033B000080C4FF0010808FA0CF8C2F81080401C05
:1033C0000828CED35460BDE8F0814FF6FF7101802C
:1033D000022181700421C170704702460020936869
:1033E0000B400BB1012000E00020704701468868C7
:1033F00080B2704702460020D3680B400BB1012019
:1034000000E0002070470146C86880B27047016143
:103410007047416170470AB1016100E04161704746
:10342000C16070474FF480320A43826181618261DA
:1034300082698269704702460020434B18684FF644
:103440008073184040EA021008433F4B18607047F1
:103450003E49C8617047F0B50A46002300240021A8
:10346000002500F00046B6F1004F02D1364EF1695A
:1034700001E0354E7168C0F3034583B200F4401695
:10348000B6F5401F08D121F070612F4E766826F006
:1034900070662D4F7E6012E000F48016B6F5801F36
:1034A00006D1032606FA05F4A14341F0706106E057
:1034B000460D360103FA06F6B14341F0706122B1C0
:1034C000460D360103FA06F6314300F00046B6F128
:1034D000004F02D11C4EF16101E01B4E7160F0BD46
:1034E00030B500228B071C0F0F2303FA04F2164B92
:1034F00008338C1053F824309343134C08348D1048
:1035000044F8253023468C1053F824308C07240FC0
:1035100000FA04F423430C4C08348D1044F8253091
:1035200030BD0A49DC3108607047000000080140E6
:10353000000C01400010014000140140001801403F
:10354000001C01400020014000000140000020421A
:103550000E49086070470D49486070470B49886004
:1035600070474AF6AA200949086070474CF6CC40DB
:1035700006490860704701460020044AD2680A40A4
:103580000AB1012000E00020704700000030004038
:1035900010B50121080700F0F6F900214FF0805026
:1035A00000F0F1F910BD2A49086270472849086106
:1035B000704701460020274A106820F0E0000843C9
:1035C000106070472249A0310860704710B502466C
:1035D0000020204B186820F00300104318601E4B99
:1035E0001B6843F004031C4C2360012901D130BF48
:1035F00000E020BF184B1B6823F00403164C236027
:1036000010BD1448006840F00400124908600846E4
:10361000006840F0020008600F48006840F00400B5
:103620000D49086000BF00BF30BF70470146002051
:10363000084A52680A400AB1012000E000207047A1
:103640000449096841EA8001024A1160704700009C
:1036500000000E420070004010ED00E0DF480068FE
:1036600040F00100DD49086008464068DC49084038
:10367000DA49486008460068DA490840D7490860D6
:103680000846006820F4802008600846406820F45E
:10369000FE0048604FF41F0088607047CF490968FA
:1036A00021F48031CD4A11601146096821F480214E
:1036B0001160B0F5803F03D0B0F5802F0ED106E049
:1036C000C649096841F48031C44A116007E0C34922
:1036D000096841F4A021C14A116000E000BF00BFA9
:1036E000704710B501460022002300204A11012A2C
:1036F00002D1BA4C236806E0022A02D1B74C236AF1
:1037000001E0B64C636A01F01F02012494401C40A2
:103710000CB1012000E0002010BD38B50020009061
:103720000024002500BF3120FFF7DBFF054600988D
:10373000401C00900098B0F5A06F01D0002DF2D091
:103740003120FFF7CEFF08B1012400E0002420461D
:1037500038BD01460020A14A106820F0F80040EA78
:10376000C10010607047A049086070470246002001
:103770009A4B586820F47C1042EA01031843974B97
:103780005860704798490866704701460020934A80
:10379000506820F003000843506070478F4840682D
:1037A00000F00C007047014600208C4A506820F061
:1037B000F00008435060704701460020874A506877
:1037C00020F4E06008435060704701460020834ABF
:1037D000506820F4605040EAC1005060704729B141
:1037E0007E4A527A02437D4B5A7204E07B4A527AF7
:1037F00082437A4B5A7270477B49D83108607047D0
:1038000001460020754A506820F44040084350604B
:1038100070470021714A20321170704A82F82010DE
:10382000012802D004280AD104E001216B4A203289
:10383000117005E00521694A2032117000E000BFD7
:1038400000BF70476949086070476449096A0143CD
:10385000624A11627047654944390860704730B563
:1038600000210022002400235C4D6D6805F00C014E
:1038700021B1042905D0082923D105E05C4D05605C
:1038800022E05B4D05601FE0544D6D6805F4701239
:10389000524D6D6805F48034022505EB92421CB947
:1038A000544D554305600BE04C4D6D6805F40035F3
:1038B0001DB1504D5543056002E04D4D5543056027
:1038C00002E04B4D056000BF00BF444D6D6805F040
:1038D000F0010909484D6B5C0568DD4045603F4DCE
:1038E0006D6805F4E061090A434D6B5C4568DD4095
:1038F00085603A4D6D6805F46051C90A3E4D6B5CB8
:103900004568DD40C560354D6D6805F44041890B63
:103910003A4D6B5CC568B5FBF3F5056130BD29B167
:103920002E4A526902432D4B5A6104E02B4A5269D8
:1039300082432A4B5A61704729B1284A926902434F
:10394000264B9A6104E0254A92698243234B9A618F
:10395000704729B1214AD2690243204BDA6104E061
:103960001E4AD26982431D4BDA61704729B11B4A56
:10397000D2680243194BDA6004E0184AD2688243E5
:10398000164BDA60704729B1144A12690243134B8F
:103990001A6104E0114A12698243104B1A617047A0
:1039A00012494039086070470F49C86470470B4995
:1039B000C87170470948406A40F080700749486202
:1039C000704701460020054A92680A400AB101206A
:1039D00000E00020704701498872704700100240E3
:1039E0000000FFF8FFFFF6FE000042428004424262
:1039F00000127A0000093D00290000203900002053
:103A000010B50446BE48844208D101218014FFF756
:103A1000ADFF0021A014FFF7A9FF16E0B9488442CA
:103A200008D101210014FFF7AEFF00212014FFF799
:103A3000AAFF0AE0B448844207D10121C013FFF76E
:103A4000A2FF0021E013FFF79EFF10BD10B500227A
:103A5000028802F441520B884C8823438C8823430C
:103A6000CC8823430C8923434C8923438C892343EB
:103A7000CC8923431A430280838B4FF2FF74234087
:103A800083830B8A038210BD2DE9F04F85B0054674
:103A90000C464FF0000902274FF000084FF0010BD1
:103AA0000026B246A88B4FF240010840A8830220AE
:103AB0002884B5F81C90A068022801D100BF38E026
:103AC000A08810B94FF0010B01E04FF0020B8D48B8
:103AD000854200D100E000BF6846FFF7C0FEDDF878
:103AE00000A0E088B0F5007F0AD14FEA1A2000EB71
:103AF00080004000A168B0FBF1F0401D86B20BE0F1
:103B00004FEA4B10BAFBF0F000EB80004000A168D8
:103B1000B0FBF1F0401D86B20A20B6FBF0F606F0CD
:103B20000108A6EB0800C0F34F074FF6FF7000EA4C
:103B30000828022F01DBFF2F02DD02274FF00008CB
:103B4000E08840EA080038432884A088A189084317
:103B5000618808432188084340F4006040EA09096D
:103B6000A5F81C9005B0BDE8F08F002101804180D0
:103B70008180C180018141818181C18107210182D0
:103B800070470021018041808180C18002218160D5
:103B900000218181704721B1028842F040020280F9
:103BA00004E002884FF6BF731A400280704721B1CB
:103BB000828B42F48062828304E0828B4FF6FF3373
:103BC0001A408283704730B5002400230C11012570
:103BD000A540ABB21AB185881D43858002E0858877
:103BE0009D43858030BD1AB183880B43838002E0FA
:103BF00083888B4383807047818170470146888921
:103C000070474FF6FF62914204D0028842F48072FE
:103C1000028004E002884FF6FF631A40028070477A
:103C200021B1828842F00402828004E082884FF64B
:103C3000FB731A408280704702884FF2FF731A406C
:103C4000028002880A4302807047018841F4805153
:103C50000180704721B1028842F40052028004E0E2
:103C600002884DF6FF731A4002807047024600201A
:103C7000012901D0108B00E0908A70470146088A24
:103C80007047B1F5804F04D1028842F4804202802F
:103C900004E002884BF6FF731A4002807047024628
:103CA000002013890B400BB1012000E00020704779
:103CB000CA4302817047F0B5024600200024002369
:103CC000002501F00F070126BE40B4B20B110126FA
:103CD0009E40B3B2968806EA03051689264016B1BF
:103CE0000DB1012000E00020F0BD10B5002201F070
:103CF0000F040123A3409AB2D343038110BD0000F7
:103D00000030014000380040003C004010B504463F
:103D1000FE48844208D10121C014FFF727FE00218C
:103D2000E014FFF723FEC4E0B4F1804F08D1012175
:103D30000846FFF728FE00210120FFF724FEB8E027
:103D4000F348844208D101210220FFF71CFE002124
:103D50000220FFF718FEACE0EE48844208D10121B2
:103D60000420FFF710FE00210420FFF70CFEA0E066
:103D7000E948844208D101210820FFF704FE002110
:103D80000820FFF700FE94E0E448844208D10121B6
:103D90001020FFF7F8FD00211020FFF7F4FD88E068
:103DA000DF48844208D101212020FFF7ECFD0021EB
:103DB0002020FFF7E8FD7CE0DA48844208D10121A9
:103DC0004014FFF7D3FD00216014FFF7CFFD70E032
:103DD000D548844209D10121C804FFF7C7FD00215D
:103DE0004FF40020FFF7C2FD63E0D048844209D1C0
:103DF00001210805FFF7BAFD00214FF48010FFF7FD
:103E0000B5FD56E0CA48844209D101214805FFF7B3
:103E1000ADFD00214FF40010FFF7A8FD49E0C548B3
:103E2000844208D101214020FFF7ADFD0021402050
:103E3000FFF7A9FD3DE0C048844208D10121802060
:103E4000FFF7A1FD00218020FFF79DFD31E0BB4879
:103E5000844208D101218015FFF795FD0021A015AE
:103E6000FFF791FD25E0B648844209D101210804FD
:103E7000FFF77CFD00214FF48030FFF777FD18E05D
:103E8000B048844209D101214804FFF76FFD0021A9
:103E90004FF40030FFF76AFD0BE0AB48844208D1D5
:103EA00001218804FFF762FD00214FF48020FFF715
:103EB0005DFD10BD00220288944B98420ED0994BB4
:103EC00098420BD0B0F1804F08D0914B984205D06A
:103ED000904B984202D0904B984204D14FF68F738A
:103EE0001A404B881A438D4B984207D08C4B98420E
:103EF00004D04FF6FF431A40CB881A4302808B88C8
:103F000083850B880385814B98420BD0854B984263
:103F100008D08B4B984205D08A4B984202D08A4BEE
:103F2000984201D10B7A038601238382704770B5D2
:103F3000002400220023058C4FF6FE7635400584D0
:103F4000028C8388048B4FF68F752C40B51E2C4055
:103F50000D882C43751E2A400D892A434D882A431B
:103F60006A4DA8420BD06F4DA84208D0744DA842AC
:103F700005D0744DA84202D0734DA84213D14FF61C
:103F8000F7752A404D892A434FF6FB752A408D88E4
:103F90002A434FF6FF652B404FF6FF552B408D8986
:103FA0002B43CD892B4383800483CD88858602846F
:103FB00070BD70B5002400220023058C4FF6EF760B
:103FC00035400584028C8388048B48F6FF752C40AD
:103FD0004FF6FF452C400D884FF6FF7606EA052583
:103FE0002C434FF6DF752A400D8906EA05152A4352
:103FF0004D8806EA05152A43444DA84202D0494D92
:10400000A8421DD14FF67F752A404D894FF6FF76A5
:1040100006EA05152A434FF6BF752A408D8806EA41
:1040200005152A434FF6FF352B404FF2FF752B4005
:104030008D8906EA85052B43CD8906EA85052B4344
:1040400083800483CD880587028470BD70B5002409
:1040500000220023058C4FF6FF6635400584028C54
:104060008388848B4FF68F752C404FF6FC752C405F
:104070000D882C434FF6FF552A400D894FF6FF76E9
:1040800006EA05252A434D8806EA05252A431F4DE1
:10409000A84202D0234DA8421DD14FF2FF752A40FD
:1040A0004D894FF6FF7606EA05252A434FF6FF3580
:1040B0002A408D8806EA05252A434EF6FF752B40D7
:1040C0004DF6FF752B408D8906EA05152B43CD89EA
:1040D00006EA05152B4383808483CD888587028477
:1040E00070BD70B5002200230024058C4EF6FF76CB
:1040F00035400584038C8488828B48F6FF752A40FE
:104100004FF6FF452A400D8820E00000002C0140BA
:104110000004004000080040000C00400010004077
:104120000014004000340140004C014000500140A8
:104130000054014000180040001C004000200040D6
:104140000040014000440140004801404FF6FF7626
:1041500006EA05252A434DF6FF752B400D8906EA30
:1041600005352B434D8806EA05352B43FA4DA84209
:1041700002D0FA4DA84208D14BF6FF752C408D892C
:104180004FF6FF7606EA85152C4384808283CD881E
:10419000A0F84050038470BD828B4FF2FF331A4069
:1041A0008283828B4FF6FF7303EA01231A438283D3
:1041B0007047F0B50C461546002200210026078CFA
:1041C0004EF6FF7C07EA0C070784828B018C4FF6C2
:1041D000FF7707EA043640F6FF473A404FF6FF778D
:1041E00007EA05273A434FF6FF7707EA03373A43D2
:1041F000D94FB8420ED0D94FB8420BD0B0F1804F52
:1042000008D0D74FB84205D0D64FB84202D0D64FCB
:10421000B84206D14DF6FF77394046F4805739430E
:1042200005E047F6FF57394044F48057394382830D
:104230000184F0BD828B4FF6F3731A408283828B28
:104240000A4382837047F0B50C46154600220021D0
:104250000026078C4FF6FF6C07EA0C070784828B59
:10426000018C4FF6FF7707EA04264FF60C773A40A9
:104270004FF6FF7707EA03172F433A43B64FB8428A
:104280000ED0B64FB8420BD0B0F1804F08D0B44F2B
:10429000B84205D0B34FB84202D0B34FB84206D1AE
:1042A0004FF6FF57394046F48077394305E04FF227
:1042B000FF57394044F48077394382830184F0BD4D
:1042C000028B4FF2FF331A400283028B4FF6FF73CB
:1042D00003EA01231A4302837047F0B50C461546E2
:1042E000002200210026078C4FF6EF7C07EA0C071E
:1042F0000784028B018C4FF6FF7707EA041640F61D
:10430000FF473A404FF6FF7707EA03373A434FF645
:10431000FF7707EA05273A438F4FB8420ED08F4FF9
:10432000B8420BD0B0F1804F08D08D4FB84205D0C5
:104330008C4FB84202D08C4FB84206D14FF6DF778F
:10434000394046F01007394305E04FF65F773940B2
:1043500044F01007394302830184F0BD028B4FF60D
:10436000F3731A400283028B0A4302837047F0B54D
:104370000C46154600220021068C4FF6FE773E4083
:104380000684028B018C4FF60C7632407E1C06EAC6
:1043900003162E433243704EB0420ED06F4EB042E1
:1043A0000BD0B0F1804F08D06D4EB04205D06D4EAD
:1043B000B04202D06C4EB04206D14FF6FD7631408D
:1043C00044F00106314305E04FF6F576314044F004
:1043D0000106314302830184F0BD70B505460C46E9
:1043E0005D4885420ED05D4885420BD0B5F1804FC7
:1043F00008D05B48854205D05A48854202D05A48C9
:10440000854200D100E000BF208850B92389A288EE
:1044100061882846FFF7ABFFE1882846FFF79EFF3B
:1044200025E0208804280AD12389A28861882846AB
:10443000FFF753FFE1882846FFF742FF17E0208887
:1044400008280AD12389A28861882846FFF7FBFE45
:10445000E1882846FFF7EEFE09E02389A2886188FB
:104460002846FFF7A6FEE1882846FFF795FE70BDB7
:104470002DE9F04105460C4600260127608808B961
:10448000022600E00026A088012801D1022700E0D2
:1044900001272088A0B92389A28861882846FFF7D0
:1044A00066FFE1882846FFF759FF23893A463146DF
:1044B0002846FFF712FFE1882846FFF701FF13E0C7
:1044C0002389A28861882846FFF707FFE1882846EC
:1044D000FFF7F6FE23893A4631462846FFF747FFA5
:1044E000E1882846FFF73AFFBDE8F0810A884B884B
:1044F0001A438B881A43CB881A430B891A434B897A
:104500001A438B891A43A0F8442070474FF6FF7175
:10451000818000210180C1804180017270470021AB
:10452000018041808180C180018141818181C1817F
:104530007047002101804180012181800021C180DC
:10454000018170470021018041808180C18001810B
:104550004181818170470000002C014000340140FE
:104560000004004000080040000C004021B1028817
:1045700042F00102028004E002884FF6FE731A4006
:104580000280704731B1B0F8442042F40042A0F8F4
:10459000442005E0B0F84420C2F30E02A0F8442005
:1045A00070471AB183890B43838102E083898B436F
:1045B000838170478182704741EA0203A0F8483046
:1045C00070471AB183890B43838102E083898B434F
:1045D0008381704701894FF6F8721140018170475D
:1045E0000A46002101894FF68F731940114301815A
:1045F000704730B504460D4629462046FFF7F0FFC8
:10460000208940F00700208130BD2DE9F0410446AB
:104610000D4616461F46602D06D13B460122314607
:104620002046FFF75AFE05E03B4601223146204670
:10463000FFF79DFE29462046FFF7D2FF208940F074
:1046400007002081BDE8F08130B50C4600210189CA
:10465000C9B24FF6FF7505EA0325154325432943E3
:10466000018130BD2DE9F04105460E4617469846BA
:10467000002443463A4631462846FFF7E5FF2C8999
:104680004FF6F870044044F007044FF68F70044072
:1046900044F070042C81BDE8F081F0B504460D466D
:1046A00016461F463B46324629462046FFF7CCFFBA
:1046B000208940F480402081F0BD018582827047CE
:1046C0000A46002101884FF68F731940114301807B
:1046D0007047F0B50C4615461E4600210022002307
:1046E0000189028B038C4FF6F877394021434FF64E
:1046F000FC473A4040F201173A434FF6DD773B4022
:104700004FF6FF7707EA06172F433B4301810283E9
:104710000384F0BD0A460021018B4FF68F731940C8
:104720001143018370470A460021018B48F6FF734D
:1047300019404FF6FF7303EA0223194301837047C0
:104740000A460021818B4FF68F73194011438183F4
:1047500070470A460021818B48F6FF7319404FF6D7
:10476000FF7303EA022319438183704721B1028852
:1047700042F08002028004E002884FF67F731A4004
:104780000280704721B1828842F00402828004E0F6
:1047900082884FF6FB731A408280704721B182886D
:1047A00042F00802828004E082884FF6F7731A40D4
:1047B0008280704721B1828842F00102828004E049
:1047C00082884FF6FE731A40828070470A460021A5
:1047D000018B4FF6F77319401143018370470A4666
:1047E0000021018B4FF2FF7319404FF6FF7303EA6C
:1047F00002231943018370470A460021818B4FF63B
:10480000F77319401143818370470A460021818B59
:104810004FF2FF7319404FF6FF7303EA0223194367
:10482000818370470A460021018B4FF6FB731940C4
:104830001143018370470A460021018B4FF6FF3375
:1048400019404FF6FF7303EA0223194301837047AF
:104850000A460021818B4FF6FB7319401143818377
:1048600070470A460021818B4FF6FF3319404FF6FF
:10487000FF7303EA02231943818370470A4600212C
:10488000018B4FF67F7319401143018370470A462D
:104890000021018BC1F30E014FF6FF7303EA0223DF
:1048A0001943018370470A460021818B4FF67F73BD
:1048B00019401143818370470A460021818BC1F35F
:1048C0000E014FF6FF7303EA0223194381837047F9
:1048D0000A460021018C4FF6FD73194011430184F3
:1048E00070470A460021018C4FF6F77319401143B7
:1048F000018470470A460021018C4FF6DF7319408E
:104900004FF6FF7303EA02131943018470470A4606
:104910000021018C4FF67F7319404FF6FF7303EAB5
:1049200002131943018470470A460021018C4FF697
:10493000FF5319404FF6FF7303EA02231943018422
:1049400070470A460021018C4FF2FF7319404FF661
:10495000FF7303EA02231943018470470A460021CA
:10496000018C4DF6FF7319404FF6FF7303EA0233D3
:1049700019430184704730B5002301248C40A3B251
:10498000048C9C430484048C02FA01F5ADB22C43E0
:10499000048430BD30B5002304248C40A3B2048CC1
:1049A0009C430484048C02FA01F5ADB22C430484C8
:1049B00030BD70B50346002000241846183001258C
:1049C0008D40ACB21D8CA5431D8409B1082909D1C5
:1049D00000EB6100056825F070050560056815436A
:1049E00005600EE00D1FC5F34E052844056825F44B
:1049F000E045056005684FF6FF7606EA0226354376
:104A0000056070BD21B1028842F00202028004E01C
:104A100002884FF6FD731A400280704721B1028868
:104A200042F00402028004E002884FF6FB731A4051
:104A30000280704721B1828842F08002828004E0C7
:104A400082884FF67F731A408280704702884FF643
:104A5000F7731A40028002880A43028070478288F6
:104A60004FF68F731A40828082880A438280704793
:104A700002894FF6F8731A40028102890A430281C3
:104A8000704702894FF67F731A40028102890A43F8
:104A900002817047818470478185704781867047A5
:104AA0000187704781877047A0F8401070470288DF
:104AB0004FF6FF431A40028002880A430280704783
:104AC0000146888E70470146088F70470146888FDF
:104AD00070470146B1F8400070470146888C704726
:104AE0000146088D704702460020138A0B400BB127
:104AF000012000E000207047CA430282704730B5B1
:104B00000246002000230024158A05EA0103958946
:104B100005EA010413B10CB1012000E0002030BD12
:104B2000CA4302827047000010B50446FB48844225
:104B300009D101218803FEF719FF00214FF48040BD
:104B4000FEF714FF32E0F648844209D101214804FF
:104B5000FEF719FF00214FF40030FEF714FF25E0A7
:104B6000F048844209D101218804FEF70CFF00219E
:104B70004FF48020FEF707FF18E0EB48844209D18C
:104B80000121C804FEF7FFFE00214FF40020FEF7CC
:104B9000FAFE0BE0E548844208D101210805FEF742
:104BA000F2FE00214FF48010FEF7EDFE10BD2DE95E
:104BB000F04786B005460E460024A24600BFA14637
:104BC0000027B08900B100BF2F462C8A4CF6FF7039
:104BD0000440F08804432C82AC894EF6F310044064
:104BE000B08831890843718908430443AC81AC8A99
:104BF0004FF6FF400440B0890443AC8201A8FEF7A1
:104C00002EFEC648874202D1DDF810A001E0DDF893
:104C10000CA0A88900F4004040B10AEBCA0000EBE8
:104C20000A1031684900B0FBF1F807E00AEBCA004E
:104C300000EB0A1031688900B0FBF1F86420B8FB82
:104C4000F0F004012009642101FB1089A88900F417
:104C5000004040B1322000EBC900B0FBF1F000F0A1
:104C60000700044308E0322000EB09106421B0FB88
:104C7000F1F000F00F0004432C8106B0BDE8F0878E
:104C80004FF41651016000218180C18001810C2107
:104C9000418100218181704710B502460020108AB1
:104CA0004FF2FF0318400B884C8823438C88234322
:104CB000CC8823431843108210BD0021018041801D
:104CC0008180C180704721B1828942F40052828183
:104CD00004E082894DF6FF731A4082817047F0B577
:104CE0000346002400260025002040F66A17B9423A
:104CF00000D100BF1846C1F3421401F01F0601277E
:104D000007FA06F5012C01D10C3004E0022C01D188
:104D1000103000E014301AB107682F43076002E03A
:104D20000768AF430760F0BD1AB1838A0B438382E3
:104D300002E0838A8B4383827047028A4FF6F073C6
:104D40001A400282028A0A430282704782894FF225
:104D5000FF731A40828182890A438281704721B1A0
:104D6000828942F00202828104E082894FF6FD735B
:104D70001A4082817047028A4FF6DF731A4002821E
:104D8000028A0A430282704721B1028A42F48042B9
:104D9000028204E0028A4BF6FF731A4002827047D7
:104DA000C1F308028280704701468888C0F308007A
:104DB0007047818941F0010181817047028BD2B235
:104DC0000283028B42EA012202837047028B02F4C3
:104DD0007F420283028B0A430283704721B1828A99
:104DE00042F02002828204E0828A4FF6DF731A408A
:104DF0008282704721B1828A42F01002828204E0EE
:104E0000828A4FF6EF731A408282704721B1828AFC
:104E100042F00802828204E0828A4FF6F7731A4059
:104E20008282704721B1828942F40042828103E08C
:104E30008289C2F30E028281704721B1828A42F4D4
:104E40000062828204E0828A4FF2FF731A408282FB
:104E50007047828A4FF6FB731A408282828A0A4325
:104E60008282704721B1828A42F00202828204E08B
:104E7000828A4FF6FD731A408282704702460020F4
:104E8000B1F5007F00D100BF13880B400BB10120AA
:104E900000E00020704701F40072B2F5007F00D1FD
:104EA00000BFCA430280704770B502460024002349
:104EB0000025002040F66A16B14200D100BFC1F3C0
:104EC000421501F01F03012606FA03F3012D02D15A
:104ED0009689334006E0022D02D1168A334001E064
:104EE000968A33400C12012606FA04F416883440E0
:104EF00013B10CB1012000E0002070BD10B50022FC
:104F0000002340F66A14A14200D100BF0A12012416
:104F10009440A3B2DC43048010BD0000003801407F
:104F20000044004000480040004C00400050004059
:104F300010B50121C802FEF726FD00214FF40060E4
:104F4000FEF721FD10BD0021194A126822F4C0713C
:104F50000143174A1160704708B5002100911449B8
:104F6000096821F07F01009100F07F01009A114350
:104F700000910F4A0099116008BD01200D49086099
:104F8000704700F07F010A4A121F1160704740F01D
:104F90008001074A121F116070470548001D006814
:104FA000C0B2704700200249091D08607047000028
:104FB000042C0040A48005420146412901DA08463C
:104FC0007047612903DBA1F12000C0B2F8E7084671
:104FD000F6E72DE9FC4105460027002405E0601CAA
:104FE000C4B2287800B902E06D1CFA2CF7DB00BFD0
:104FF000FA2C02D1FF20BDE8FC81002408E06D1EE0
:1050000028782E2802D16D1C2F4603E0601CC4B204
:10501000052CF4DB00BF3946684605F0F2F90024A0
:1050200007E01DF80400FFF7C7FF0DF80400601C3F
:10503000C4B2042CF5DB002425E000261EE004EBBE
:10504000840000EBC400124901EB800050F82600F8
:10505000007800B914E004EB840101EBC4010C4AB0
:1050600002EB810151F82600694605F02DFA18B9C6
:1050700046EA0410C0B2BEE7701CC6B20D2EDEDBDD
:1050800000BF601CC4B2062CD7DBFF20B3E70000D2
:105090004000002070B503460C4603E014F8015BA5
:1050A00003F8015B1500A2F10102F7D170BD30B524
:1050B000034601E003F8011B1400A2F10102F9D13B
:1050C00030BDF0B503461C460D46002000BF16005B
:1050D000A2F1010207D014F8017B15F801CBA7EB70
:1050E0000C063000F3D0F0BD024600E0521C1078F0
:1050F00010B110788842F9D1107870472DE9F0414D
:1051000004460D46266BAE422FD0207908B3607856
:105110000123324604F1340103F02AF810B10120D2
:10512000BDE8F08100202071D4E908100844B042A5
:105130000FD9E7780AE0206A0644607801233246F6
:1051400004F1340103F014F8781EC7B2012FF2DC29
:1051500000BF55B1607801232A4604F1340102F002
:10516000D4FF08B10120DBE725630020D8E770B544
:10517000044600212046FFF7C1FF0546002D59D106
:10518000207803284FD1607900284CD0002020637C
:105190004FF40072002104F13400FFF788FF55211D
:1051A00084F83212AA2184F83312522084F8340091
:1051B00052213520015561213620015541213720EA
:1051C0000155722184F8181284F81912412184F8CB
:1051D0001A12612184F81B12217C84F81C12208A87
:1051E000010A84F81D122069010C84F81E1220693E
:1051F000010E84F81F12217B84F82012A089010A75
:1052000084F82112E068010C84F82212E068010E93
:1052100084F823126078012304F13401626902F0FA
:10522000A7FF0020607160780022114602F0D3FFD2
:1052300000B10125284670BD0246891ED069801E36
:10524000884201D8002070479378D06A01FB0300A0
:10525000F9E72DE9F04105460C46022C02D3E86936
:10526000A04202D80120BDE8F0812878012804D0AE
:1052700002282CD003285AD13DE0274607EB5707D8
:10528000686A00EB57212846FFF738FF00B14EE06F
:10529000C7F3080105F1340010F801807F1C686A2B
:1052A00000EB57212846FFF729FF00B13FE0C7F385
:1052B000080105F13400405C48EA002804F00100D0
:1052C00010B14FEA1810CEE7C8F30B00CBE7686ABD
:1052D00000EB14212846FFF711FF00B127E040F250
:1052E000FF1000EA440105F134000E18307871789F
:1052F00040EA0120B7E7686A00EBD4112846FFF7BF
:10530000FDFE00B113E040F2FF1000EA840105F158
:1053100034000E18F0780006B17840EA0140717848
:1053200040EA01203178084320F070409BE700BF3D
:105330004FF0FF3097E72DE9F04705460E46174638
:10534000022E02D3E869B04202D84FF002088AE088
:105350002878012804D0022841D003287DD154E0C8
:10536000B14609EB5909686A00EB59212846FFF755
:10537000C5FE8046B8F1000F00D071E0C9F3080106
:1053800005F134000C1806F0010020B1F9B22078C4
:1053900061F31F1000E03846207009F10109012077
:1053A0002871686A00EB59212846FFF7A7FE80465E
:1053B000B8F1000F00D053E0C9F3080105F1340043
:1053C0000C1806F0010010B1C7F3071005E02078B3
:1053D00000F0F000C7F303210843207040E0686A42
:1053E00000EB16212846FFF789FE8046B8F1000F32
:1053F00000D035E040F2FF1000EA460105F134002C
:105400000C182770380A60702AE0686A00EBD61121
:105410002846FFF773FE8046B8F1000F00D01FE06A
:1054200040F2FF1000EA860105F134000C18E07824
:105430000006A17840EA0140617840EA0120217825
:10544000084300F0704007432770380A6070380C3A
:10545000A070380EE07003E0FFE74FF0020800BFD5
:1054600000BF012028714046BDE8F0872DE9F041DA
:1054700004460E46022E02D3E069B04201D802274C
:1054800025E000271FE031462046FFF7E2FE0546F3
:1054900005B91BE0012D01D1022717E0681C08B9EE
:1054A000012713E0002231462046FFF744FF07465C
:1054B00007B10BE02069401C20B12069401C20612D
:1054C000012060712E46E069B042DCD800BF38464A
:1054D000BDE8F0812DE9F04704468946B9F1000F97
:1054E00006D1E76817B1E069B84211D801270FE08B
:1054F00049462046FFF7ADFE0646022E02D20120A5
:10550000BDE8F087E069B04201D93046F8E74F4680
:105510003D4600BF6D1CE069A84204D80225BD428B
:1055200001D90020ECE729462046FFF792FE064607
:1055300006B909E0701C08B1012E01D13046DFE741
:10554000BD42E7D10020DBE700BF6FF07042294683
:105550002046FFF7F0FE8046B8F1000F08D1B9F100
:10556000000F05D02A4649462046FFF7E4FE804654
:10557000B8F1000F09D1E5602069401C68B12069CD
:10558000401E20610120607107E0B8F1010F02D1D7
:105590004FF0FF3000E0012005462846B0E770B527
:1055A00003460D46586A021D680A1E68B678B0FBAD
:1055B000F6F400BF02CA09B9002070BD8C4200D2C7
:1055C00002E0641A121DF5E700BF10682044F4E7FA
:1055D0002DE9F04104460E46E680A568012D03D072
:1055E0002068C069A84202D80220BDE8F0812DB928
:1055F00020680078032801D12068856A65B9E560D4
:1056000020680089B04201DC0220EEE72068806A51
:1056100000EB1610206120E020688078070112E07E
:1056200029462068FFF715FE0546681C08B90120C9
:10563000DBE7022D03D32068C069A84201D802200D
:10564000D3E7F01B86B2BE42EADAE560294620685D
:10565000FFF7F2FD00EB161020612068343006F0F1
:105660000F0100EB411060610020BEE72DE9F04121
:1056700004468846E088401C86B20EB1206910B905
:105680000420BDE8F08106F00F0000286FD12069EA
:10569000401C2061E06828B920680089B04266DCBF
:1056A0000420EEE720688078401E00EA16100028EB
:1056B0005DD1E1682068FFF7CCFD0546012D01D8DA
:1056C0000220DEE7681C08B90120DAE72068C0691B
:1056D000A84246D8B8F1000F01D10420D1E7E16813
:1056E0002068FFF7F7FE05460DB90720C9E7012D31
:1056F00001D10220C5E7681C08B90120C1E70021DB
:105700002068FFF7FBFC08B10120BAE7216801F12E
:1057100034004FF400720021FFF7C9FC29462068CD
:10572000FFF78AFD21680863002710E00120216847
:10573000087100212068FFF7E1FC08B10120A0E713
:105740002068006B401C21680863781CC7B2206881
:105750008078B842EADC2068006BC01B21680863CF
:1057600000BFE56029462068FFF766FD2061E680FE
:105770002068343006F00F0100EB4110606100201A
:105780007FE72DE9F04705460C46207820F04000E1
:10579000401E00EB800101EBC00600274FF001081E
:1057A00000BFFE48C05D205CFC49C95D21444978CA
:1057B00040EA0129B8F1000F10D0484602F0A2FDDE
:1057C0008046FF2E07D23146761C35F8110002F0D4
:1057D00099FD404508D00020BDE8F0874FF6FF70E6
:1057E000814501D00020F7E7781C07460D28D8D363
:1057F000207800F0400038B1B8F1000F04D035F83F
:10580000160008B10020E7E70120E5E7F0B5034600
:10581000087800F03F00401E00EB800707EBC00255
:105820000025012600BFDD48405D085CDB4F7F5D41
:105830000F447F7840EA07244EB1FF2A01D30020AD
:10584000F0BD26461046521C23F8104005E04FF6E6
:10585000FF70844201D00020F2E7681C05460D2845
:10586000E1D3087800F0400030B1FF2A01D30020D6
:10587000E6E7002023F812000120E1E7F0B5044636
:105880001D464D730F27CF7200270F738F76BC46CE
:1058900081F81BC0571E07EB870C0CEBC7060027CF
:1058A00038463B4600BF4FF6FF77B84203D0374635
:1058B000761C34F81700DFF8E4C21CF803C001F8C6
:1058C0000C000712DFF8D4C21CF803C08C448CF81B
:1058D000017008B94FF6FF705F1C3B460D2FE2D3F5
:1058E0004FF6FF77B84202D034F816700FB942F085
:1058F00040020A70F0BD2DE9FC4707468A469046F3
:105900001C460B2251463846FFF7C4FB052C0BDD25
:1059100000BF601000EBC43138F8022B881884B245
:10592000B8F800000028F4D1072600BF2046E11790
:1059300004EB11710911A4EB0111303101F0FF09E1
:10594000B9F1390F03DD09F1070000F0FF09304616
:10595000761E0DF800902046E11704EB1171C1F39B
:105960000F14002CE2D17E200DF8060000250BE07C
:10597000785D812807DB785DFE2804DC701EA84274
:1059800000D106E06D1C6D1CB54202D2785D202866
:10599000EED100BF00BF082E04D23046761C1DF8A1
:1059A000000000E0202029466D1C7854082DF2D319
:1059B000BDE8FC8730B5014600200B2200BF431034
:1059C00003EBC01411F8015B6319D8B2531E1A001F
:1059D000F5D130BD2DE9F047044600212046FFF700
:1059E000F7FD074617B13846BDE8F0874FF0FF09CD
:1059F000CA4600BF21692068FFF780FB074607B150
:105A000054E065692E780EB904274FE0E87A00F07B
:105A10003F08E52E05D008F0080028B1B8F10F0FB7
:105A200002D04FF0FF093AE0B8F10F0F1CD1E06946
:105A3000A0B306F0400030B195F80DA026F0400666
:105A4000B146E08820844E450AD1687B504507D195
:105A50002946E069FFF795FE10B1A9F1010000E0C9
:105A6000FF2000F0FF091AE0B9F1000F05D1284628
:105A7000FFF7A0FF504500D118E04FF0FF094FF6A7
:105A8000FF702084A069C07A00F0010030B90B22B9
:105A90002846A169FFF715FB00B907E0FFE70021E1
:105AA0002046FFF7E3FD0746002FA3D000BF38468E
:105AB0009AE72DE9F04704464FF0FF09CA4604274C
:105AC0004BE021692068FFF719FB074607B147E063
:105AD00065692E780EB9042742E0E87A00F03F08A5
