:03000000021428BF
:0C142800787FE4F6D8FD7581070213C43C
:1013C4001205F37F007EF812123A7FB87E0B1213D7
:1013D400F37FE07E0712123A7FB87E0B1213F37F7D
:0F13E4001F7E0012123A7FB87E0B1213F380D1D6
:02146200200068
:0F1419008FA0C2B6D2B6AF058FA0C2B6D2B62290
:071451008FA0C2B6D2B62243
:05145800D2B5021419D9
:0B143400AD07AC06D2B5ECFF021419A6
:05143F001214447F03BC
:05144400D2B5021451B5
:05145D00C2B5021451AC
:0814490012145DAF050214440A
:10137D00900024EEF0A3EFF07F2A12145D9000246C
:10138D00E0FF121444A3E0FF121444EAFF121444C8
:10139D00AF031214447F2B12145DECFF121444AFF3
:1013AD000512144490002AE0FF121444A3E0FF122A
:0713BD0014447F2C02145DB3
:1005F300D290209057E4FDFF1214497BFF7A1479BF
:1006030062FCFFFE121091900004120ED500000050
:1006130000E4900008F0FDFCFFFE120F06E49000DA
:1006230006F0FBFAFDFCFFFE1211B8E4FDFCFFFE31
:100633001212E8E4900006F0A3F0FBFAFDFCFFFEC3
:10064300120FE7E4FBFDFCFFFE1207FDD2B7D2B6A3
:10065300C2927F147E001213F3D2927F147E001293
:1006630013F3C2907FCF12145DE4FF1214447FC1D1
:100673001214447F301214447FED12145D7F641210
:10068300143F7F121214447F811214447FCB12143F
:100693005D7F391214447F2C121444FF1214447FDB
:1006A300341214447F021214447FEA12145DFF12C1
:1006B30014441214447FE812145D7F851214447F9E
:1006C300101214447F791214447FC012145D7F23E7
:1006D3001214447FC112145D7F111214447FC2129D
:1006E300145D7F111214447FC512145D7F3D1214F3
:1006F300447F301214447FC712145D7FAA1214443E
:100703007F3A12145D7F551214447F3612145D7FB5
:10071300081214447FB112145DFF1214447F1112A6
:1007230014447FB612145D7F0A1214447FA212147C
:10073300447FF212145DFF1214447FF712145D7F9D
:10074300201214447FF112145D7F011214447F3090
:100753001214447F2612145D7F011214447FE012A9
:10076300145D7F0F1214447F3F1214447F2F121421
:10077300447F0C1214447F101214447F0A12144451
:100783007F531214447FD51214447F401214447FC4
:100793000A1214447F1312143F7F0812143FFF12EE
:1007A30014447FE112145DFF1214441214447F10A9
:1007B30012143F7F0F1214447F051214447F2C122E
:1007C30014447FA21214447F3F1214447F05121471
:1007D300447F0E1214447F0C1214447F37121444C6
:1007E3007F3C1214447F0F1214447F1112145D7F57
:0A07F30050FE1213F37F2902145D7B
:02123A00AC0600
:10123C00EC900007F0A90790002A7401F0A3743F0A
:10124C00F07BEF7A00E4FDFCFFFE12137DE49000CE
:10125C0008F0A3F0E4FBFA900007E0FFAD011214D4
:10126C00580BBB00010ABA01EEBB40EB900009E041
:10127C0004F07006900008E004F0C3900009E094BC
:09128C00F0900008E0940040CB52
:011295002236
:10129600900004E0FEA3E0FF900001E02FFF900025
:1012A60000E03E900006FEE0FCA3E0FD900003E0B7
:0812B6002DFD900002E03CFC5C
:1012BE00AB07AA068D828C83C006C007AE83AF82B1
:1012CE0090002AEEF0A3EFF0D007D00612137D9017
:0A12DE00002CE0FEA3E0FF02143430
:1012E800AB07AA068D828C83EB24FFFFEA34FFFE4E
:1012F800C006C007E58224FFFDE58334FFFCEB242C
:1013080001FBE43AFAAE83AF82EF2401FFE43E909A
:101318000006F0A3EFF090002CE0FFA3E090000897
:0C132800CFF0A3EFF0D007D00602113286
:10113200900000EEF0A3EFF0A3ECF0A3EDF0A3EA31
:04114200F0A3EBF03B
:10114600C007A3E0FFA3E090002ACFF0A3EFF0D002
:101156000712137D900002E0FFA3E090000ACFF093
:10116600A3EFF0900006E0FEA3E0FFD390000BE0B3
:101176009F90000AE09E5039900000E0FEA3E0FB3D
:10118600AA06C3900005E09B900004E09A401290E6
:101196000008E0FEA3E0FF1214340BBB00010A8036
:1011A600E190000BE004F070BA90000AE004F080D1
:0111B600B286
:0111B7002215
:0E09F400900008EEF0A3EFF0A3ECF0A3EDF0FE
:100A0200E4900012F0A3F0A3F0A3F0900008E0FE3F
:100A1200A3E0FFC3EB9FFFEA9E900016F0A3EFF066
:100A220090000AE0FAA3E0FBC390000FE09BFE9067
:100A3200000EE09A900018F0A3CEF0900008E0FFBC
:100A4200A3E0900020CFF0A3EFF0A3EAF0A3EBF035
:100A5200900016E0FEA3E0FFD39400EE6480948041
:100A6200400A90001CE4F0A304F08021EF4E7008CD
:100A720090001CF0A3F0801574FF90001CF0A3F00E
:100A8200C3E49FFFE49E900016F0A3EFF0900018DD
:100A9200E0FEA3E0FFD39400EE64809480400A90CD
:100AA200001EE4F0A304F08021EF4E700890001EB7
:100AB200F0A3F0801574FF90001EF0A3F0C3E49F32
:100AC200FFE49E900018F0A3EFF0900018E0FEA360
:100AD200E0FF900016E0FCA3E0FDD39FEE6480F8F7
:100AE200EC64809890001A4007ECF0A3EDF08005CA
:100AF200EEF0A3EFF0E4900010F0A3F090001BE002
:100B02002401FF90001AE03400FED3900011E09F10
:100B1200900010E09E4003020BDE900020E0FEA356
:100B2200E0FFA3E0FCA3E0FD1212BE900016E0FE7F
:100B3200A3E0FF900013E02FF0900012E03EF0904F
:100B42000018E0FEA3E0FF900015E02FF0900014E3
:100B5200E03EF090001AE0FEA3E0FF900012E0FCFD
:100B6200A3E0FDD39FEE6480F8EC6480984020ED12
:100B72009FFFEC9E900012F0A3EFF090001CE0FEAD
:100B8200A3E0FF900021E02FF0900020E03EF090E3
:100B9200001AE0FEA3E0FF900014E0FCA3E0FDD306
:100BA2009FEE6480F8EC6480984020ED9FFFEC9EFD
:100BB200900014F0A3EFF090001EE0FEA3E0FF907F
:100BC2000023E02FF0900022E03EF0900011E004BC
:0C0BD200F07006900010E004F0020AFE33
:010BDE0022F4
:100FE700900004EAF0A3EBF0900000EEF0A3EFF01E
:100FF700A3ECF0A3EDF0C007A3E0FAA3E0FB900099
:1010070002E0FFA3E090000ECFF0A3EFF0D00712AD
:1010170009F4900000E0FAA3E0FBFFAE02C007A3CB
:10102700E0FCA3E0FD900006E0FFA3E090000ECFF8
:10103700F0A3EFF0D0071209F4900006E0FCA3E05C
:10104700FD900004E0FAA3E0FBA3E0FFA3E090001B
:101057000ECFF0A3EFF0900000E0FEA3E0FF12092F
:10106700F4900004E0FAA3E0FBFFAE02C007900093
:1010770002E0FCA3E0FD900006E0FFA3E090000E75
:0A108700CFF0A3EFF0D0070209F448
:0E07FD00900000EEF0A3EFF0A3ECF0A3EDF0FF
:10080B00E4A3F0A3F0EBFF7E00A3EEF0A3EFF02543
:10081B00E0FFEE33FEC374039F900009F0E49E905B
:10082B000008F0900006E0FEA3E0FFD3900005E087
:10083B009FEE6480F8900004E06480984003020906
:10084B00F3C3900001E09FFF900000E09EFE90003C
:10085B0004E0FCA3E0FDC3900003E09DFD900002CB
:10086B00E09CFC1212BE900006E0FEA3E0FF90009D
:10087B0001E02FFF900000E03EFE900004E0FCA39F
:10088B00E0FDC3900003E09DFD900002E09CFC1294
:10089B0012BE900004E0FEA3E0FFC3900001E09FB6
:1008AB00FF900000E09E1212A9900006E0FEA3E06C
:1008BB00FFC3900001E09FFF900000E09EFE9000C0
:1008CB0004E0FCA3E0FDC3900003E09DFD9000025B
:1008DB00E09CFC1212BE900004E0FEA3E0FFC3906C
:1008EB000001E09FFF900000E09EFE900006E0FC00
:1008FB00A3E0FDC3900003E09DFD900002E09CFC93
:10090B001212BE900006E0FEA3E0FF900001E02F64
:10091B00FF900000E03E9000041212AC900004E047
:10092B00FEA3E0FF900001E02FFF900000E03EFEF1
:10093B00900006E0FCA3E0FDC3900003E09DFD905A
:10094B000002E09CFC1212BE121296900006E0FE12
:10095B00A3E0FFC3900001E09FFF900000E09EFE2C
:10096B009000041212AD900005E004F070069000A8
:10097B0004E004F0C3900008E0648094805024905D
:10098B000004E0FEA3E07802C333CE33CED8F924C3
:10099B0006FFE43EFE900009E02FF0900008E03ED9
:1009AB00F0803F900006E0FEA3E0FFC3900005E05F
:1009BB009FFF900004E09EFEEF7802C333CE33CE50
:1009CB00D8F9240AFFE43EFE900009E02FF09000D6
:1009DB0008E03EF0900007E024FFF0900006E034C2
:0809EB00FFF012129602082E23
:0109F30022E1
:060BDF00FBE4900011F0A0
:100BE50090000CEEF0A3EFF0A3ECF0A3EDF0A3EB77
:010BF500F00F
:100BF60090000CE0FEA3E0FF900014EEF0A3EFF0EF
:100C060090002CE0FDA3E0900016CDF0A3EDF0D30C
:100C1600EF94E0EE94004003020D7C90000EE0FCA1
:100C2600A3E0FD9430EC94014003020D7C9000108B
:100C3600E024E0F090000CE0FAA3E0FFAE02C0066C
:100C4600C0072407FBE43AFAA3E0FEA3E0240FFF63
:100C5600E43E90002AF0A3EFF0D007D00612137DF1
:100C6600900011E06003020D04F9900010E075F0A9
:100C760010A4FFE97C002FFFEC35F0FE74032FF57E
:100C86008274003EF583E493900012F0E4A3F090A2
:100C96000012E030E005900016800390002EE0FF81
:100CA600A3E090002CCFF0A3EFF090002CE0FEA381
:100CB600E0FF121434900012E0C313F090000DE030
:100CC60004F0700690000CE004F0900013E004F0CD
:100CD600E0C3940840B9900014E0FFA3E090000C34
:100CE600CFF0A3EFF090000FE004F0700690000E36
:100CF600E004F009E964106003020C708069E4F90D
:100D0600900010E075F010A4FFE97C002FFFEC3591
:100D1600F0FE74032FF58274003EF583E493900091
:100D260012F0E4A3F0900013E0FFC3940850339050
:100D36000012E030E01F90000DE02FFF90000CE065
:100D46003400FEE9FD90000FE02DFD90000EE0342A
:100D560000FC1212BE900012E0C313F0A3E004F0F0
:100D660080C309E9B41099900016E0FFA3E0900053
:060D76002CCFF0A3EFF00A
:010D7C002254
:0813340090000CEFF0A3EDF0B6
:10133C00A3120ED50000000190000DE0FF14F0EF99
:10134C006020A3E0F8A3E0F9A3E0FAA3E0FB90008F
:10135C000CE0FFE4FCFDFE120DAC90000E120EC969
:10136C0080D690000EE0FCA3E0FDA3E0FEA3E0FF1E
:01137C00224E
:0E0F0600900000EEF0A3EFF0A3ECF0A3EDF0EE
:100F1400E490000BF0900004A3A3E0FEA3E0FFE440
:100F2400FCFD900004120EC9E4900009F090000842
:100F3400E0FFA3E0FEC39F4003020FE6C3EF9E144D
:100F4400FD7F0A121334A804A905AA06AB07900072
:100F540004E0FCA3E0FDA3E0FEA3E0FF120E37E4EF
:100F64007B0AFAF9F8120E3790000AEBF0A3E0704E
:100F74003B900008E014FFA3E0FEC39F502EA3E0C3
:100F84007024EE75F008A4FF900001E02FFF90009C
:100F940000E035F0FE900002E0FCA3E0FDE49000E8
:100FA40011F07B20803090000B7401F0900009E078
:100FB40075F008A4FF900001E02FFF900000E035D9
:100FC400F0FE900002E0FCA3E0FD90000AE0243073
:100FD400FBE4900011F0120BE5900009E004F0022C
:020FE4000F31CB
:010FE60022E8
:1011B800900000EEF0A3EFF0A3ECF0A3EDF0A3EAAB
:0411C800F0A3EBF0B5
:1011CC00E4900007F0900006E0F9A3E0FFC399500B
:1011DC005CC3E99F14FD7F0A121334A804A905AA65
:1011EC0006AB07900004E0FEA3E0FFE4FCFD120E4A
:1011FC0037E47B0AFAF9F8120E37AF03900008EFC8
:10120C00F0900007E075F008A4FF900001E02FFFBC
:10121C00900000E035F0FE900002E0FCA3E0FDEB56
:0D122C002430120BDF900007E004F08098E2
:011239002292
:10109100900000EEF0A3EFF0A3ECF0A3EDF0A3EBD2
:1010A100F0A3EAF0A3E9F0900004E0FBA3E0FAA3C7
:1010B100E0F9120D7D6079D3900001E094E0900099
:1010C10000E094004012E4F0A3F0900003E024104B
:1010D100F0900002E03400F0D3900003E0943090EF
:1010E1000002E094014011E4900000F0A3F0A3F0AD
:1010F100A3F0FF7EF812123A900000E0FEA3E0FF99
:10110100A3E0FCA3E0FDA3E0FBA3E0FAA3E0F91256
:101111000D7D120BDF900001E02408F0900000E04B
:101121003400F0900005E475F001120D960210A84C
:01113100229B
:1013F300E4FDFCC3ED9FEE6480F8EC648098501527
:10140300E4FBFA0BBB00010ABA03F8BBE8F50DBD18
:0514130000010C80DE69
:0114180022B1
:1000030000000000000000000000000000000000ED
:100013000000000808080808080800001818000075
:1000230000486C24120000000000000000000000E3
:100033000000002424247F1212127F1212120000E7
:100043000000081C2A2A0A0C1828282A2A1C080837
:1000530000000022251515152A5854545422000077
:100063000000000C1212120A76252911916E00006D
:10007300000606040300000000000000000000006A
:10008300004020101008080808080810102040003D
:1000930000020408081010101010100808040200D1
:1000A3000000000008086B1C1C6B0808000000001F
:1000B30000000000080808087F080808080000007E
:1000C300000000000000000000000000060604031A
:1000D3000000000000000000FE000000000000001F
:1000E3000000000000000000000000000606000001
:1000F3000000804040202010100808040402020081
:1001030000000018244242424242424224180000A6
:10011300000000080E08080808080808083E000048
:100123000000003C4242422020100804427E0000AE
:100133000000003C4242201820404042221C0000A4
:10014300000000203028242422227E202078000072
:100153000000007E0202021A26404042221C0000D8
:10016300000000382402021A2642424224180000EA
:100173000000007E2222101008080808080800006A
:100183000000003C4242422418244242423C000008
:10019300000000182442424264584040241C0000DE
:1001A30000000000000018180000000018180000EC
:1001B3000000000000000008000000000008080420
:1001C3000000004020100804020408102040000032
:1001D3000000000000007F0000007F00000000001E
:1001E3000000000204081020402010080402000050
:1001F3000000003C42424640201010001818000046
:100203000000001C225A555555552D42221C000052
:100213000000000808181414243C224242E700009E
:100223000000001F2222221E22424242221F0000FF
:100233000000007C4242010101010142221C000036
:100243000000001F2242424242424242221F00005B
:100253000000003F4212121E12120242423F0000EF
:100263000000003F4212121E121202020207000097
:100273000000003C2222010101712122221C000006
:10028300000000E7424242427E42424242E700000F
:100293000000003E0808080808080808083E000097
:1002A3000000007C10101010101010101010110F0F
:1002B3000000007722120A0E0A121222227700008F
:1002C300000000070202020202020202427F000053
:1002D30000000077363636362A2A2A2A2A6B00008F
:1002E300000000E346464A4A525252626247000007
:1002F3000000001C2241414141414141221C0000B8
:100303000000003F424242423E0202020207000056
:100313000000001C2241414141414D53321C600009
:100323000000003F4242423E1212222242C7000016
:100333000000007C4242020418204042423E00007A
:100343000000007F4908080808080808081C000086
:10035300000000E74242424242424242423C000025
:10036300000000E742422224241414180808000065
:100373000000006B494949495555362222220000A5
:10038300000000E7422424181818242442E7000040
:10039300000000772222141408080808081C000033
:1003A3000000007E2120101008040442423F000098
:1003B30000780808080808080808080808087800EA
:1003C3000000020204040808081010202020404006
:1003D300001E1010101010101010101010101E001E
:1003E300003844000000000000000000000000008E
:1003F300000000000000000000000000000000FFFB
:1004030000060800000000000000000000000000DB
:10041300000000000000003C4278444242FC00001F
:10042300000000030202021A26424242261A00007A
:1004330000000000000000384402020244380000BB
:1004430000000060404040784442424264D80000CB
:10045300000000000000003C427E0202423C00001B
:10046300000000F08808087E08080808083E00001D
:10047300000000000000007C22221C023C42423C9F
:10048300000000030202023A4642424242E70000F1
:100493000000000C0C00000E08080808083E0000CD
:1004A3000000003030000038202020202020221EB1
:1004B3000000000302020272120A161222770000E1
:1004C3000000000E0808080808080808083E000095
:1004D300000000000000007F9292929292B7000009
:1004E300000000000000003B4642424242E7000099
:1004F300000000000000003C42424242423C000037
:10050300000000000000001B26424242221E020798
:10051300000000000000007844424242447840E07A
:1005230000000000000000774C040404041F0000D6
:10053300000000000000007C42023C40423E0000FC
:10054300000000000008083E080808080830000002
:1005530000000000000000634242424262DC0000EF
:1005630000000000000000E74224241408080000F3
:1005730000000000000000EB49495555222200000D
:10058300000000000000007624181818246E0000F4
:1005930000000000000000E74224241418080807A4
:1005A300000000000000007E22100808447E0000C6
:1005B30000C0202020202010202020202020C00048
:1005C3001010101010101010101010101010101028
:1005D30000060808080808100808080808080600A4
:1005E3000C32C20000000000000000000000000008
:100D7D00BB010689828A83E0225002E722BBFE0274
:090D8D00E32289828A83E49322A7
:100D9600C5F0F8A3E028F0C5F0F8E58215827002E8
:060DA6001583E038F02285
:100DAC00E88FF0A4CC8BF0A42CFCE98EF0A42CFCE6
:100DBC008AF0EDA42CFCEA8EF0A4CDA8F08BF0A464
:100DCC002DCC3825F0FDE98FF0A42CCD35F0FCEBC3
:100DDC008EF0A4FEA9F0EB8FF0A4CFC5F02ECD3988
:0F0DEC00FEE43CFCEAA42DCE35F0FDE43CFC22F5
:100DFB0075F008758200EF2FFFEE33FECD33CDCCAF
:100E0B0033CCC58233C5829BED9AEC99E582984031
:100E1B000CF582EE9BFEED9AFDEC99FC0FD5F0D60E
:100E2B00E4CEFBE4CDFAE4CCF9A88222B800C1B938
:100E3B000059BA002DEC8BF084CFCECDFCE5F0CB76
:100E4B00F97818EF2FFFEE33FEED33FDEC33FCEBAF
:100E5B0033FB10D703994004EB99FB0FD8E5E4F96A
:100E6B00FA227818EF2FFFEE33FEED33FDEC33FC57
:100E7B00C933C910D7059BE99A4007EC9BFCE99A4B
:100E8B00F90FD8E0E4C9FAE4CCFB2275F010EF2F90
:100E9B00FFEE33FEED33FDCC33CCC833C810D70790
:100EAB009BEC9AE899400AED9BFDEC9AFCE899F8CB
:0E0EBB000FD5F0DAE4CDFBE4CCFAE4C8F9225E
:0C0EC900ECF0A3EDF0A3EEF0A3EFF0229C
:100ED500A8828583F0D083D082120EEC120EEC121C
:100EE5000EEC120EECE473E493A3C583C5F0C58341
:100EF500C8C582C8F0A3C583C5F0C583C8C582C867
:010F050022C9
:00000001FF
