:030000000201B446
:0C01B400787FE4F6D8FD75810702000397
:10018800900002EFF07F057E001201D6900002E099
:06019800FF7E000201CB16
:10019E00900002EFF07F047E001201D6900002E084
:0601AE00FF7E000201CB00
:10000300E4900000F0A304F012016474FFFFFE12F9
:10001300008F900001E0FF1201887F007EF812003C
:100023008F900001E0FF12019E7F207E0312013EAC
:10003300900000E0FF1201887FE07E0712008F909E
:100043000000E0FF12019E7F207E0312013E90001C
:1000530001E0FF1201887F1F7E0012008F900001D4
:10006300E0FF12019E7F207E0312013E900000E01C
:10007300FF12018874FFFFFE12008F900000E0FF63
:0C00830012019E7F207E0312013E808649
:0B01C0008FA0AF058F80C2B6D2B62220
:0501E100D2B50201C0CF
:0B01CB00AD07AC06D2B5ECFF0201C08E
:0B01D600AD07AC06C2B5ECFF0201C093
:1000EB00900005EEF0A3EFF08D828C837F027E00F3
:1000FB001201D6AE83AF821201CB7F037E001201B9
:10010B00D6900005E0FEA3E0FF1201CB7F067E0038
:10011B001201D690000BE0FEA3E0FF1201CB7F078C
:10012B007E001201D6AE02AF031201CB7F0F7E0011
:03013B000201D6E8
:10016400D2B7D2B6C2927F147E0012013ED2927FE1
:10017400147E0012013EC2907F017E001201D67FE0
:04018400100201CB99
:02008F00AC06BD
:10009100EC900002F0A90790000B7401F0A374DF4B
:1000A100F07B1F7A03E4FDFCFFFE1200EBE49000FD
:1000B10003F0A3F0E4FBFA900002E0FFAD011201AE
:1000C100E10BBB00010ABA01EEBBE0EB900004E0DA
:1000D10004F07006900003E004F0C3900004E09483
:0900E10020900003E0940340CBE1
:0100EA0022F3
:10013E00E4FDFCC3ED9FEE6480F8EC6480985015EE
:10014E00E4FBFA0BBB00010ABA13F8BB88F50DBD30
:05015E0000010C80DE31
:010163002279
:00000001FF
