:030000000201E218
:0C01E200787FE4F6D8FD75812002022928
:05000300120008D2B05C
:0100080022D5
:0A04A700D2B1120003C2B102000836
:0A04B100C2B1120003D2B10200082C
:10043D00E4FFD2B012000830B109EFC394FA5003B3
:09044D000F80F4C2B0120008D3C4
:010456002283
:10040300E4FEEF25E0FFC2B012000892B112000330
:0E0413000EBE08EEC2B0120008D2B102000800
:1003BC00C2B0120008D2B1120008E4FED2B0120092
:1003CC0008EF25E0FDA2B1E4334DFFC2B0120008E6
:0403DC000EBE08E861
:0103E00022FA
:10037000AC071204A77FD012040312043D50FBAF58
:100380000412040312043D50FBAF051204031204CF
:060390003D50FB0204B128
:0202EF00AD0759
:1002F1001204A77FD012040312043D50FBAF051274
:10030100040312043D50FB1204A77FD1120403120F
:0A031100043D50FB1203BC1204B1BE
:01031B0022BF
:0D0499000B09FC84BAAEC66E7EA4FEEE0018
:10026E00E516C4540F60072409F8E6FD8002AD13AD
:10027E007F6812046FE516540F2409F8E6FD7F6AB5
:10028E0012046FE514C4540F2409F8E6FD7F6C12B6
:10029E00046FE514540F2409F8E6FFA200E4334F6F
:0602AE00FD7F6E02046FEB
:10048600758901758C3C758AB0C28CD2A9758F109E
:03049600D2AF22C0
:100348007F021202EF8F167F011202EF8F14E5165B
:10035800C394215007E516C3940750047D218002F9
:080368007D617F4812046F2241
:1002B4007F071202EFEF64226030E4FDFF12037047
:1002C4007D117F011203707D207F021203707D1562
:1002D4007F061203707D117F051203707D137F0466
:0B02E4001203707D227F0712037022BE
:100056001204867D617F4812046F1202B4E4FD7FAC
:100066000E120370120396BF47170515E515D394B4
:10007600034006E4F515120348120396EF64476041
:10008600F8E51514601B14700302012614700302B0
:1000960001A8240370CEE58F641060C8758F1080A8
:1000A600C3E4F58FD200D28C7F011202EF8F14E5E4
:1000B6000860097F021202EF8F1680037516AA12D6
:1000C600026E120396EF6477709A7F021202EF8F28
:1000D60018E518C4540F75F00AA4FFE518540F2F3D
:1000E600F5180518E518C394184003E4F518E51843
:1000F60075F00A84C454F0FFE51875F00A84E5F03B
:100106004FF518FD7F021203707F021202EF8F1661
:1001160012026E120396EF6477600302006A80F3A0
:10012600E4F58FD200D28C7F021202EF8F16E5081B
:1001360060097F011202EF8F1480037514AA120260
:100146006E120396EF6477600302006A7F01120263
:10015600EF8F18E518C4540F75F00AA4FFE518547C
:100166000F2FF5180518E518C3943C4003E4F5185D
:10017600E51875F00A84C454F0FFE51875F00A8492
:10018600E5F04FF518FD7F011203707F011202EFB3
:100196008F1412026E120396EF6477600302006AF0
:1001A60080F3E4F58FD200C28C7516AAFF1202EF17
:1001B6008F1412026E120396EF6477600302006AD0
:1001C600FDFF120370E4FF1202EF8F1412026E128B
:0C01D6000396EF6477600302006A80F378
:03000B0002031CD1
:09031C00C0E0C0D075D000C0079C
:10032500758C3C758AB00519E519B4050F7519006A
:0C033500E50870047F0180027F008F0843
:07034100D007D0D0D0E0325C
:0300530002000E9A
:10000E00C0E0C0F0C083C082C0D075D000C000C0B8
:10001E0001C002C003C004C005C006C007B2001272
:10002E00034812026ED007D006D005D004D003D0FC
:10003E0002D001D000D0D0D082D083D0F0D0E03228
:06045700D2B27F057E0019
:10045D00D3EF9400EE9400400800EF1F70F21E8061
:02046D00EF227C
:0A04BB00D2B2D2B3120459C2B32228
:030421001203E1E2
:100424007D01120457C2B230B309EDD39464500372
:080434000D80F4120459C2B25C
:01043C00229D
:0A04C500D2B2C2B3120459D2B3221E
:0203E100AD0766
:1003E300C2B27F017E0012045DE4FCED25E0FD92C4
:0F03F300B3C2B2120459120457C2B20CBC08ECC8
:0104020022D7
:100396001204BB7F49120421E4FDD2B2EB25E0FB37
:1003A60030B3010B120459C2B20DBD08ED1204247C
:0503B6001204C5AF03B5
:0103BB00221F
:10046F00AB05AD071204BBAF05120421AF03120396
:07047F00E11204240204C590
:1001EE00020056E493A3F8E493A34003F68001F2D1
:1001FE0008DFF48029E493A3F85407240CC8C33312
:10020E00C4540F4420C8834004F456800146F6DFE0
:10021E00E4800B0102040810204080900499E47ED3
:10022E00019360BCA3FF543F30E509541FFEE493D5
:10023E00A360010ECF54C025E060A840B8E493A39C
:10024E00FAE493A3F8E493A3C8C582C8CAC583CAC7
:10025E00F0A3C8C582C8CAC583CADFE9DEE780BE7F
:0104A6000055
:00000001FF
