:105F2400E4900000F0A3F053B1FB43B2041249DB48
:105F3400900001E05403FF125DFB900001E004F0C7
:105F44007006900000E004F0125856123FE6124723
:105F5400F9124B5C1257871259DB1254D57FE87E35
:095F6400031260BE123DA480C7C7
:10149100514474656368B0E6C8A8CBF9D3D000C8DD
:1014A100ABB6AFB5E7D7D3D7DBBACFB2E2CAD4B3C5
:1014B100CCD0F200C8ABB6AFB5E7D7D300D7DBBA13
:1014C100CFB2E2CAD4B3CCD0F200332E35272049B3
:1014D1004C4939343836203332305834383000787A
:1014E10069616F46656E6740514474656368203277
:1014F1003031342D30322D323500B2E2CAD4313A96
:10150100B4BFC9ABCCEEB3E4B2E2CAD40057686948
:10151100746500426C61636B0052656400477265DB
:10152100656E00426C756500B2E2CAD4323A475525
:1015310049BED8D0CECCEEB3E4B2E2CAD400B2E216
:10154100CAD4333A475549BBADD4B2CCEEB3E4B2B9
:10155100E2CAD400B2E2CAD4343AD3A2CEC4CFD4C0
:10156100CABEB2E2CAD400365831323A616263640B
:1015710065666768696A6B6C6D6E6F7071727374A2
:1015810075767778797A00365831323A4142434458
:1015910045464748494A4B4C4D4E4F503031323306
:1015A10034353637383900365831323A7E214023C6
:1015B10024255E262A28295F2B7B7D3A3C3E3F2F3E
:1015C1007C2D2B2E00385831363A61626364656692
:1015D1006768696A6B6C6D6E6F7071727374757622
:1015E1007700385831363A414243444546474849E5
:1015F1004A4B4C4D4E303132333435363700385842
:1016010031363A7E21402324255E262A28295F2B64
:101611007B7D3A3C3E3F2F7C00B2E2CAD4353AD6BC
:10162100D0CEC4CFD4CABEB2E2CAD400313658310A
:10163100363AC8ABB6AFB5E7D7D3BCBCCAF5D3D041
:10164100CFDEB9ABCBBEBBB6D3ADC4FA0031365891
:1016510031363A57656C636F6D65C8ABB6AFB5E7A8
:10166100D7D30032345832343AC9EEDBDACAD0D695
:10167100D0CEC4B2E2CAD40033325833323AD7D6CC
:10168100CCE5B2E2CAD400B2E2CAD4363ACDBCC685
:10169100ACCFD4CABEB2E2CAD400515100B2E2CA40
:1016A100D4373A546F756368B2E2CAD400525354C6
:1016B10000FFFFFFFFFFFFFFFFFFFFFFFFFFFFFF38
:1016C100FFFFFFFFFFFFFFFFFFFFFFFFFFFFFFBE6A
:1016D100F7FFFFDEFF38C6928C8E6B6E6B107C9627
:1016E100AD3CE7FFFFFFFFFFFFFFFFFFFFFFFFFF36
:1016F100FFFFFFFFFFFFFFFFFFFFFFFFFFFFFFFFF9
:10170100FFFFFFFFFFFFFFFFFFFFFFFFFFFFFFFFE8
:10171100FFFFFFFFFFFFFFFFFFFFFFFFFFFFFF5D7A
:10172100EF159D4F636C420A3288294619251945E8
:1017310021E8318E6B38C6FFFFFFFFFFFFFFFFFF80
:10174100FFFFFFFFFFFFFFFFFFFFFFFFFFFFFFFFA8
:10175100FFFFFFFFFFFFFFFFFFFFFFFFFFFFFFFF98
:10176100FFFFFFFFFFFFFFFFFFFFFFFFFF36A5109A
:1017710053104B51530F4B6C3AE93167212519E452
:1017810010A30862008308CB529AD6FFFFFFFFFF28
:10179100FFFFFFFFFFFFFFFFFFFFFFFFFFFFFFFF58
:1017A100FFFFFFFFFFFFFFFFFFFFFFFFFFFFFFFF48
:1017B100FFFFFFFFFFFFFFFFFF3CE77063B363B86D
:1017C1007CF56311434D32EA298821261905190553
:1017D1001904110411E4108300A308728CFFFFFFA8
:1017E100FFFFFFFFFFFFFFFFFFFFFFFFFFFFFFFF08
:1017F100FFFFFFFFFFFFFFFFFFFFFFFFFFFFFFFFF8
:10180100FFFFFFFFFFFFFFDBDE4B3AF042356C5479
:101811004BB1322E2AEB21A92167190519041104B4
:10182100110411041104110519E4104200AF73FFF2
:10183100FFFFFFFFFFFFFFFFFFFFFFFFFFFFFFFFB7
:10184100FFFFFFFFFFFFFFFFFFFFFFFFFFFFFFFFA7
:10185100FFFFFFFFFF5DEF09324C32104B8F324F1C
:101861002A2E2ACC1989198921471905190411042D
:1018710011C410C410041104110411E41042003108
:1018810084FFFFFFFFFFFFFFFFFFFFFFFFFFFFFFE2
:10189100FFFFFFFFFFFFFFFFFFFFFFFFFFFFFFFF57
:1018A100FFFFFFFFFFEC5247194C320B2AEC21ECF2
:1018B100210C22915BEE4A061126190419E410E469
:1018C10010A7296621A308051904110411E4108247
:1018D10000F7BDFFFFFFFFFFFFFFFFFFFFFFFFFF60
:1018E100FFFFFFFFFFFFFFFFFFFFFFFFFFFFFFFF07
:1018F100FFFFFF35A58308882188218921AA218A34
:10190100216B42718CFFFF728C83080411C408297A
:1019110042FBDE5DEFEC5A830804110411041183CC
:1019210008E831DFFFFFFFFFFFFFFFFFFFFFFFFFC2
:10193100FFFFFFFFFFFFFFFFFFFFFFFFFFFFFFFFB6
:10194100FFBEF7C731C4102519261947194719A831
:10195100298A52284A55ADFFFFE831A30805194DE0
:101961006B4D6BFFFF7DEF4521C410041104110481
:1019710011620076ADFFFFFFFFFFFFFFFFFFFFFFDB
:10198100FFFFFFFFFFFFFFFFFFFFFFFFFFFFFFFF66
:10199100FF96B562000411041905110519C4088BDD
:1019A1004AB6B55DEFF7BDFFFF8E6B62002942AA13
:1019B1005A0842FFFFFFFFCC5283080411041104AF
:1019C10011A308AD52FFFFFFFFFFFFFFFFFFFFFF66
:1019D100FFFFFFFFFFFFFF1CE7FFFFFFFFFFFFFF11
:1019E100FF4E636200041104110411E41062008EC1
:1019F10063FFFFFFFFFFFFFFFFCF730100F39C2C8D
:101A01006396B5FFFFFFFF2D5B83000411041104F2
:101A110011E41067213DEFFFFFFFFFFFFFFFFFFF15
:101A2100FFF8BDB7B59EEFCB52B394FFFFFFFFDFC9
:101A3100FFE831A3080411041104110411A308499A
:101A410042FFF7FFF7FFFFFFFF6A4A01007284FFC1
:101A5100FFFFFFFFF7DFEF093AA3080411041104A8
:101A6100110411051118BEFFFFFFFFFFFFFFFFFF6C
:101A7100FFF07B6200E831C731410035A5FFFF5D12
:101A8100EF4621C4100411041104110411E410A340
:101A910008769DFFF7FFFFB7ADA308A308C7319EE6
:101AA100E7FFF7FFF776A5A308E41004110411047A
:101AB100110511051135A5FFFFFFFFFFFFFFFFFF17
:101AC100FFDBDEA7298300C410C410C4101CE79EED
:101AD100EF0511E41004110411041104110419C4D7
:101AE10008E510D16BD16BC5086400A50843002B34
:101AF10032779DB3842519C4100411041104110413
:101B01001125192609359DFFFFFFFFFFFFFFFFFF8D
:101B1100FFFFFFAF7362000419051982000D5B8E90
:101B21009B62100511041104110419E410850005CC
:101B310011C439815A407B229C43AC03A4839B820C
:101B4100728249C218A400C500E4100419041105E9
:101B51001947196711EC5ABEFFFFFFFFFFFFFFFF97
:101B6100FFDFFFDBDEC410E41004110511A418012E
:101B7100C08388E40005190419C50844214383235F
:101B8100D542FEE4FE27FF07FFA4FE64FE03FEA389
:101B9100FDE2FC42EC83B32462E510C4080419267B
:101BA10019A81987210090D3BCFFFFFFFFFFFFFF9A
:101BB100FFDFFFFFFF107C4200051905118328019B
:101BC100D044F8A348E400C508445A02EDE2FD02FE
:101BD100FE66FE74FFB8FF73FFE7F6A6F645F6A4AE
:101BE100F5C3FC62FCC2FCC2FCE3CBC4490611880C
:101BF100198701A49001F8EC9AFFFFFFFFFFFFFF97
:101C0100FFFFFFFFFFBEF7E83183000509824001B6
:101C1100C023F885F0A348A400445A02FD23CCC296
:101C2100DC04FE28FE48F646F624F6E4F564FDE3FE
:101C3100FC62FCC2FC02E402DCE2FCA47A4801671B
:101C410001C47824F802F884B07DE7FFFFFFFFFFAD
:101C5100FFFFFFFFFFFFFFDBDE2519A300C43802F2
:101C6100E022D844F8A6F8A4786300432183728364
:101C710039829B21F561FD22FDE2FCA2FC42FC427E
:101C8100FC42FC22AB8341C392045226012519A4D4
:101C91009844F823F802F8A4D09EEFFFFFFFFFFF5E
:101CA100FFFFFFFFFFFFFFFFFF9AD68729A5004334
:101CB100B822F823E065F8E8F807C983484200A391
:101CC1000084006329A27A62B3A2CB62D302BB82F1
:101CD1008A8339A400E500E500E508C46064D844BE
:101CE100F824F823F802F88388DBC6FFFFFFFFFF23
:101CF100FFFFFFFFFFFFFFFFFFFFFF3DE7505B0817
:101D01003123E843F844F065F809F9ABF989D106C4
:101D110089A3484218020042006100820062006209
:101D2100008300A320C450A58885D865F844F844F1
:101D3100F823F823F803D08210C7295DEFFFFFFFD6
:101D4100FFFFFFFFFFFFFFFFFFFFFFFFFFFFFF6C35
:101D510032A53802D823F865F866F8A7F84AF90CD5
:101D6100FA4DFA4CEA0BD2A9B968B147A927B107D4
:101D7100B907D1E7E8C7F8A7F865F865F844F8238B
:101D8100F803F802D0A3280509C408EC5AFFFFFFA5
:101D9100FFFFFFFFFFFFFFFFFFFFFFFFFFFBDE0571
:101DA10019C400A741E6C003F886F8A7F887F886AA
:101DB100F8C7F829F98AF9ABF9ABF98BF96AF9296E
:101DC100F908F9C7F8A6F886F865F864F823F80267
:101DD100F006B12529E400E41025192519149DFF09
:101DE100FFFFFFFFFFFFFFFFFFFFFFFFFF96AD625A
:101DF1000082083595BACE8BA244D025F887F8A782
:101E0100F8C7F8A7F887F886F886F886F887F8A75C
:101E1100F8A7F8A6F885F865F864F824F064B80D19
:101E210093BBB6CF6383080411E4106621493A5D80
:101E3100EFFFFFFFFFFFFFFFFFFFFFFFFFD3944215
:101E410000E410BBCEFFFFBEE776B5CCAA07C145C3
:101E5100E045F846F866F886F886F886F886F8656B
:101E6100F845F865F865E844D043A8018882903CBC
:101E7100D7FFEF559583080411041105194619B3CD
:101E810094FFFFFFFFFFFFFFFFFFFFFFFFB3944141
:101E91000086215DDFFFFFFFFFFFFFDFE77AC6D38B
:101EA100B44EB32AC268D1E6E0A6E8A5E8A5E8E603
:101EB100D888C906A922A802A800A000C800D8F79E
:101EC100E5FFE7F8ADC410E4100411E41005118B2F
:101ED1004AFFFFFFFFFFFFFFFFFFFFFFFF55A54188
:101EE10000A7295DDFFFF7FFFFFFFFFFFFFFFFFFF8
:101EF100FFFFEF7DDFDBCE59CEF8CDD7CDF7C5792A
:101F0100CEFBBEABA203F045F842D043E800F0722D
:101F1100D4FFDF39AEE410E4100411E41005118799
:101F210029FFFFFFFFFFFFFFFFFFFFFFFF59CE83E9
:101F31000846211CD7FFF7FFFFFFFFFFFFFFFFFF51
:101F4100FFFFFFFFFFFFFFFFFFFFFFFFFFFFFFFFA0
:101F5100FFFFEF8BBA04F845F862E044F000F88E19
:101F6100DBFFDFF8A5C410E410E4100411E4102530
:101F710019FFFFFFFFFFFFFFFFFFFFFFFFBEF78717
:101F810029830839B6FFF7DFF7FFFFFFFFFFFFFFE8
:101F9100FFFFFFFFFFFFFFFFFFFFFFFFFFFFFFFF50
:101FA100FFBEE74ABA03F845F864F844F800F86E52
:101FB100E3FFD7F48C83080411E410E410E4100566
:101FC10019FFFFFFFFFFFFFFFFFFFFFFFFFFFFEF16
:101FD1007300007284FFEFBEEFDFFFFFFFFFFFFF23
:101FE100FFFFFFFFFFFFFFFFFFFFFFFFFFFFFFFF00
:101FF100FFDFE78BBA03F845F845F823F800F8D37B
:10200100D4FFD74E5B2100293A55A58308C410257A
:1020110019FFFFFFFFFFFFFFFFFFFFFFFFFFFFFBB9
:10202100DEA308E8319EDF9EE7BFEFFFFFFFFFFF62
:10203100FFFFFFFFFFFFFFFFFFFFFFFFFFFFFFFFAF
:10204100FFFFF751BC02E003F803F043E0ECC27E6E
:10205100CFFCBE46212100D394FFFF5184000087AD
:1020610029FFFFFFFFFFFFFFFFFFFFFFFFFFFFFF55
:10207100FF51840000F48CFFEF9EE7BFEFDFFFFF0D
:10208100FFFFFFFFFFFFFFFFFFFFFFFFFFFFFFFF5F
:10209100FFFFFF3DDF55BD52BC72BCB7B55DC7FF49
:1020A100DFF06B0000093ABFF7FFFFFFFF149D55FA
:1020B100A5FFFFFFFFFFFFFFFFFFFFFFFFFFFFFF89
:1020C100FFFFFFAC4AA408BBBEDFE77EE7BEEFDF40
:1020D100F7DFFFFFFFFFFFFFFFFFFFFFFFFFFFFF37
:1020E100FFDFFFDFF7FFEFDFDFBFD79ED7DFDFD8EF
:1020F100A583082611DBD6FFFFFFFFFFFFFFFFFFD0
:10210100FFFFFFFFFFFFFFFFFFFFFFFFFFFFFFFFDE
:10211100FF79EE8BDC2131A9213DCFBFDF7EDF9E30
:10212100E7BEEFBFEFDFF7DFF7DFF7DFF7DFF7BF7F
:10213100EFBEEF9EE77EDF5ED75ED7DFDF9AB62682
:10214100194208EDA3BFFFFFFFFFFFFFFFFFFFFFE6
:10215100FFFFFFFFFFFFFFFFFFFFFFFFFFFFFF7419
:10216100DDC0DB00FE42EE024289217BB6DFDF7E6D
:10217100D77EDF7EDF9EE79EE79EE79EE79EE77EB6
:10218100DF7EDF5DD75DD79EDFFFE7F8A50711E3AF
:102191001802C560FDE6D3DBEEFFFFFFFFFFFFFF87
:1021A100FFFFFFFFFFFFFFFFFFFFFFFFFF9EF78422
:1021B100BAC1FC42FE82FEA2FE8183452174745E97
:1021C100C7DFDF7ED75ED75DD75ED75ED75DD75DD0
:1021D100D75ED79EDFFFE73DC7F1638408425226F1
:1021E100E629FF86FEE0F36AC3FFFFFFFFFFFFFF63
:1021F100FFFFFFFFFFFFFFFFFFFFFFFFFF18DEC134
:10220100D2A2FD22FE42FE42FE62FEE2D4416A49B2
:102211004253743BA63EC7BFD7BFD7BFD7BFDFBFAF
:10222100D73EC71AA6F263A729824122B462FE8370
:10223100FEAAFE0FFF67FD63BA3CEFFFFFFFFFFF42
:10224100FFFFFFFFFFFFFFFFFFFFFFFFFF9AE6809A
:10225100D221FDC2FDE2F5C2F582F582FD62FD618A
:10226100DC219B846AE96A2C63AF6311746E632C71
:1022710063895A0452817AC2CBE2FC62FD82FDC2BB
:10228100FDC2FDE4FD24FD62CA1CE7FFFFFFFFFF65
:10229100FFFFFFFFFFFFFFFFFFFFFFFFFFFFFFB19B
:1022A100CC81D2C0F3C1FC02FD02FDE2FCC2FCC242
:1022B100FC81FC80FBC0C9A48135AD59CE719C2144
:1022C1008100DAA1FB82FCA2FC82FCA2FC02FD22BD
:1022D100FDE2FC00FC60DA90CCFFFFFFFFFFFFFF97
:1022E100FFFFFFFFFFFFFFFFFFFFFFFFFFFFFFFFFD
:1022F100FF59DE0DC406CBE4D203DB03DBE3DAC313
:10230100D2A4C209B3D2BC9EF7FFFFFFFFFFFFFBC0
:10231100E60EB4A6BA83D2E3E202EB22EB22E30398
:10232100DBE4D26AC3B6D5FFFFFFFFFFFFFFFFFF6C
:01233100FFAC
:0D6092004A00AEF81FFFE0F80007E0001F15
:0653DE007BFF7A16799EA8
:1053E400900007EBF0A3EAF0A3E9F0900084E0FA60
:1053F400A3E0FB900011E4F0A37414F0A3E4F0A381
:10540400741FF0E4FDFCFFFE1255CB900086E0FE15
:10541400A3E0FF24ECFDEE34FFFC900084E0FAA34B
:10542400E0FB900011EEF0A3EFF0A3E4F0A3741FEF
:10543400F0E4FFFE1255CB74FF900080F0A3F090CF
:105444000010E4F0A3741FF0900007E0F9A3E0FA61
:10545400A3E0900012C9F0A3EAF0A3E9F0A374104A
:10546400F0A37401F074FFFBFA7D027C00E4FFFEFC
:10547400125BEE900087E024EEFD900086E034FF9E
:10548400FC900010E4F0A3741FF0A374FFF0A37465
:1054940014F0A37491F0A37410F0A37401F074FFDA
:1054A400FBFAE4FFFE125BEE900084E0FAA3E0FB5B
:1054B400900087E024ECFE900086E034FF90001119
:1054C400F0A3CEF0E4A3F0A3F07D14FCFFFE02559C
:0154D400CB0C
:105856007BFF7A1479A01253E4900010E4F0A3744D
:105866001FF0A374FFF0A37414F0A374B5F0A3742F
:1058760010F0A37401F07B007AF87D1E7C00E4FF33
:10588600FE125BEE900010E4F0A3741FF0A374FF09
:10589600F0A37414F0A374BEF0A37410F0A3740103
:1058A600F07B007AF87D3C7C00E4FFFE125BEE9014
:1058B6000010E4F0A3741FF0A374FFF0A37414F0B7
:1058C600A374CBF0A37410F0A37401F07BE07AFF0D
:1058D6007D5A7C00E4FFFE125BEE900010E4F0A31C
:1058E600741FF0A374FFF0A37414F0A374E0F0A384
:1058F6007410F0A37401F07B1F7A007D787C00E4BD
:10590600FFFE125BEE7FDC7E051260BE7FDC7E054D
:035916000260BE6E
:103FE6007BFF7A1479FB1253E4900084E0FAA3E095
:103FF600FB900087E024ECFE900086E034FF900002
:1040060011F0A3CEF074FFA3F0A3F07D147C00E4BE
:10401600FFFE1255CB900085E024CEFF900084E091
:1040260034FFFE90001D74FFF0A374E0F0A374FF4C
:10403600F0A37415F0A3740EF0A37410F0A374012A
:10404600F07B1F7A007D1E7C0012343A7FF47E01DD
:104056001260BE900084E0FAA3E0FB900087E024A3
:10406600ECFE900086E034FF900011F0A3CEF0E461
:10407600A3F0A3F07D14FCFFFE1255CB900085E063
:1040860024CEFF900084E034FFFE90001D74FFF004
:10409600A374E0F0A374FFF0A37415F0A37414F0F6
:1040A600A37410F0A37401F07B1F7A007D1E7C00C0
:1040B60012343A7FF47E011260BE900084E0FAA3C7
:1040C600E0FB900087E024ECFE900086E034FF9051
:1040D6000011F0A3CEF0A374F8F0A3E4F07D14FC75
:1040E600FFFE1255CB900085E024CEFF900084E0C1
:1040F60034FFFE90001D74FFF0A374E0F0A374FF7C
:10410600F0A37415F0A3741AF0A37410F0A374014D
:10411600F07B1F7A007D1E7C0012343A7FF47E010C
:104126001260BE900084E0FAA3E0FB900087E024D2
:10413600ECFE900086E034FF900011F0A3CEF0A3D1
:104146007407F0A374E0F07D147C00E4FFFE1255C2
:10415600CB900085E024CEFF900084E034FFFE90F3
:10416600001D74FFF0A374E0F0A374FFF0A37415B0
:10417600F0A3741EF0A37410F0A37401F07B1F7AF1
:10418600007D1E7C0012343A7FF47E011260BE90E0
:104196000084E0FAA3E0FB900087E024ECFE9000A8
:1041A60086E034FF900011F0A3CEF0A3E4F0A374F0
:1041B6001FF07D147C00E4FFFE1255CB900085E0D5
:1041C60024CEFF900084E034FFFE90001D74FFF0C3
:1041D600A374E0F0A374FFF0A37415F0A37424F0A5
:1041E600A37410F0A37401F074FFFBFA7D1E7C002B
:0A41F60012343A7FF47E010260BE2D
:1047F900E4900002F07BFF7A1579291253E49000C6
:1048090084E0FAA3E0FB900087E024ECFE900086A8
:10481900E034FF900011F0A3CEF074FFA3F0A3F0F1
:104829007D147C00E4FFFE1255CBE4900002F09069
:104839000084E0C313FEA3E01324B0FDEE34FFFCB3
:10484900900002E0F975F00FA4FBAAF02DFFEA3CF5
:10485900FEC006C007900086E0C313FEA3E0132440
:10486900B0FFEE34FFCF2BFDEF3AFCC004C005903A
:104879000084E0C313FCA3E013FDE975F00FA42D38
:10488900FFE5F03CCF24ECFBEF34FFFAA3E0C313C0
:10489900FCA3E013FDE975F00FA42DFFE5F03CCF73
:1048A90024ECCF34FF900009F0A3EFF0D005D00439
:1048B900D007D006125A9B900002E025E024AEF5FD
:1048C90082E43400F583E0FFA3E0900080CFF0A3F9
:1048D900EFF0900002E004F0E0C3940550030248B1
:1048E900387FDC7E051260BE900084E0FAA3E0FB0D
:1048F900900087E024ECFE900086E034FF900011E0
:10490900F0A3CEF074FFA3F0A3F07D147C00E4FFC4
:10491900FE1255CBE4900002F0900084E0C313FE30
:10492900A3E01324B0FDEE34FFFC900002E0F9751A
:10493900F00FA4FBAAF02DFFEA3CFEC006C00790C9
:104949000086E0C313FEA3E01324B0FFEE34FFCFCB
:104959002BFDEF3AFCC004C005900084E0C313FCB2
:10496900A3E013FDE975F00FA42DFFE5F03CCF247A
:10497900ECFBEF34FFFAA3E0C313FCA3E013FDE95A
:1049890075F00FA42DFFE5F03CCF24ECCF34FF9058
:104999000009F0A3EFF0D005D004D007D0061261CA
:1049A9000A900002E025E024AEF582E43400F583A4
:1049B900E0FFA3E0900080CFF0A3EFF0900002E0C9
:1049C90004F0E0C3940550030249227FDC7E05020E
:0249D90060BEBE
:104B5C00E4900002F07BFF7A15793F1253E4900049
:104B6C0084E0FAA3E0FB900087E024ECFE90008642
:104B7C00E034FF900011F0A3CEF074FFA3F0A3F08B
:104B8C007D147C00E4FFFE1255CBE4900002F09003
:104B9C000084E0C313FEA3E01324B0FDEE34FFFC4D
:104BAC00900002E0F975F019A4FBAAF02DFFEA3C85
:104BBC00FEC006C007900086E0C313FEA3E01324DA
:104BCC00CEFFEE34FFCF2BFDEF3AFCE925E024AE0F
:104BDC00F582E43400F583E0FAA3E0FB900009E4ED
:104BEC00F0A3741EF0E4A3F0A3F0D007D006124497
:104BFC0018900002E004F0E0C3940540927FDC7E44
:104C0C00051260BE900084E0FAA3E0FB900087E000
:104C1C0024ECFE900086E034FF900011F0A3CEF05F
:104C2C0074FFA3F0A3F07D147C00E4FFFE1255CBBF
:104C3C00E4900002F0900084E0C313FEA3E0132480
:104C4C00B0FDEE34FFFC900002E0F975F019A4FB06
:104C5C00AAF02DFFEA3CFEC006C007900086E0C318
:104C6C0013FEA3E01324CEFFEE34FFCF2BFDEF3A5F
:104C7C00FCE925E024AEF582E43400F583E0FAA3E8
:104C8C00E0FB900009E4F0A3741EF0A3E4F0A3048D
:104C9C00F0D007D006124418900002E004F0E0C3F4
:0B4CAC00940540917FDC7E050260BE95
:105787007BFF7A1579551253E490008074F8F0A3E3
:10579700E4F0900082F0A3741FF090000C74FFF007
:1057A700A37415F0A37468F0E4A3F07B0C7D1EFCD2
:1057B7007F0AFE12591990000C74FFF0A37415F0BC
:1057C700A37488F0A37401F07B0C7D2D7C007F0A05
:1057D7007E0012591990000C74FFF0A37415F0A302
:1057E70074A8F0E4A3F07B0C7D3CFC7F0AFE125901
:1057F7001990000C74FFF0A37415F0A374C6F0E4BD
:10580700A3F07B107D50FC7F0AFE12591990000C03
:1058170074FFF0A37415F0A374E3F0A37401F07B95
:10582700107D647C007F0A7E0012591990000C7469
:10583700FFF0A37415F0A374FFF0E4A3F07B107DD1
:0F58470078FC7F0AFE1259197FB07E040260BE02
:1059DB007BFF7A16791A1253E490001D74FFF0A323
:1059EB0074E0F0A374FFF0A37416F0A3742DF0A36E
:1059FB007410F0E4A3F07B1FFA7D1EFC7F0AFE12ED
:105A0B00343A90001D74FFF0A374E0F0A374FFF020
:105A1B00A37416F0A3744EF0A37410F0A37401F0EA
:105A2B007B1F7A007D327C007F0A7E0012343A9015
:105A3B00001D74FFF0A374E0F0A374FFF0A37416C1
:105A4B00F0A37464F0A37418F0A37401F07B1F7AB5
:105A5B00007D467C007F0A7E0012343A90001D7454
:105A6B00FFF0A374E0F0A374FFF0A37416F0A3741B
:105A7B0079F0A37420F0A37401F07B1F7A007D648E
:105A8B007C007F0A7E0012343A7FB07E040260BE37
:1054D5007BFF7A1679881253E4900084E0FAA3E002
:1054E500FB900087E024ECFE900086E034FF9000FE
:1054F50011F0A3CEF074FFA3F0A3F07D147C00E4BB
:10550500FFFE1255CB7BFF7A1679B27D1E7C007F9C
:105515001E7E001256B490001D74FFF0A374E0F0D7
:10552500A374FFF0A37416F0A3749BF0A37410F09A
:10553500A37401F07B1F7A007D4B7C007F2A7E00DF
:1055450012343A7BFF7A1679B27D1E7C007F5A7E33
:10555500001256B490001D74FFF0A374E0F0A3741C
:10556500FFF0A37416F0A3749BF0A37410F0A3745A
:1055750001F07B1F7A007D4B7C007F667E00123434
:105585003A7BFF7A1679B27D1E7C007F967E0012EB
:1055950056B490001D74FFF0A374E0F0A374FFF0FF
:1055A500A37416F0A3749BF0A37410F0A37401F018
:1055B5007B1F7A007D4B7C007FA27E0012343A7FF0
:0655C500B07E040260BE8E
:103DA400E4900002F0A3F0A3F0A3F0A3F01253DE1A
:103DB400900085E024E8FF900084E034FFFE90004A
:103DC4000C74FFF0A37416F0A374AEF0A37401F0A6
:103DD4007B10E4FDFC125919900084E0FCA3E0FD83
:103DE40024CCFFEC34FFFEED24E2FBEC34FFFA902C
:103DF4000011E4F0A37412F0A374F8F0A3E4F07DCE
:103E040002FC1255CB90008074F8F0A3E4F0124F3A
:103E14004BEF7003023FDC900084E0FEA3E0FF90D0
:103E24000095E0FCA3E0FDC39FEC9E50E19000866A
:103E3400E0FEA3E0FF900097E0FAA3E0FBC39FEA53
:103E44009E50CB900085E024E8FF900084E034FF8E
:103E5400FED3ED9FEC9E407BEB9410EA94005073EC
:103E64001253DE900005E0FFA3E0900080CFF0A3A2
:103E7400EFF0900085E024E8FF900084E034FFFE3A
:103E840090000C74FFF0A37416F0A374AEF0A37446
:103E940001F07B10E4FDFC125919900084E0FCA3AE
:103EA400E0FD24CCFFEC34FFFEED24E2FBEC34FF18
:103EB400FA900011E4F0A37412F0900080E0FDA3E6
:103EC400E0900013CDF0A3EDF07D027C001255CB01
:103ED400023E12900084E0FEA3E0FF24C4FDEE3411
:103EE400FFFC900095E0FAA3E0FBD39DEA9C50030D
:103EF400023FC0EF24E2FFEE34FFFEC3EB9FEA9ED5
:103F04004003023FC0C3900098E09414900097E0EF
:103F140094004003023FC0900084E0FCA3E0FD2431
:103F2400CCFFEC34FFFEC006C007ED24E2FBEC340A
:103F3400FFFA900011E4F0A37412F0900003E0FE85
:103F4400A3E0FF7C007D05123215ED25E0FFEC3384
:103F5400FE74AE2FF58274003EF583E0FFA3E0907B
:103F64000013CFF0A3EFF0D007D0067D027C00123F
:103F740055CB900003E475F001123280AFF0FE7C63
:103F8400007D05123215ED25E0FFEC33FE74AE2FF3
:103F9400F58274003EF583E0FFA3E0900080CFF04B
:103FA400A3EFF0900080E0FFA3E0900005CFF0A322
:103FB400EFF07F0A7E001260BE023E12900095E090
:103FC400FEA3E0FFA3E0FCA3E0FD900080E0FAA3E1
:103FD400E0FB125D87023E127F0A7E001260BE0281
:023FE4003E128B
:1000030000000000000000000000000000000404E5
:10001300040404040004000000140A0A00000000A1
:1000230000000000000014143F140A3F0A0A0000F5
:1000330000041E1505060C14150F0400000012150C
:100043000D0A142C2A1200000000040A0A1E1515BA
:100053000936000000020201000000000000000059
:1000630000201008080808080810200000020408EF
:10007300080808080804020000000004150E0E1505
:100083000400000000000404041F04040400000032
:100093000000000000000000000202010000000058
:1000A300001F00000000000000000000000000002E
:1000B3000002000000100808080404020202010004
:1000C30000000E1111111111110E000000000406A1
:1000D30004040404040E000000000E1111080402BD
:1000E300011F000000000E11100C1010110E000073
:1000F3000000080C0A0A091E0818000000001F016E
:10010300010F1010110E000000000E09010F111154
:10011300110E000000001F09080404040404000079
:1001230000000E11110E1111110E000000000E112E
:1001330011111E10120E0000000000000400000048
:10014300000400000000000000040000000404009C
:100153000020100804020408102000000000000022
:100163001F00001F000000000002040810201008F8
:100173000402000000000E11110804040004000032
:1001830000000E111915151D011E000000000404C6
:100193000C0A0A1E1233000000000F12120E121274
:1001A300120F000000001E1101010101110E0000D9
:1001B30000000F1212121212120F000000001F1281
:1001C3000A0E0A02121F000000001F120A0E0A0282
:1001D3000207000000001C1201013911120C00007B
:1001E30000003312121E12121233000000001F040B
:1001F30004040404041F000000003E080808080863
:1002030008090700000037120A060A0A123700001D
:100213000000070202020202223F000000001B1B33
:100223001B1B15151515000000003B1216161A1A94
:100233001217000000000E1111111111110E000010
:1002430000000F12120E02020207000000000E113E
:1002530011111117190E180000000F12120E0A12B5
:100263001237000000001E1101060810110F0000D4
:1002730000001F1504040404040E000000003312E0
:1002830012121212120C000000003312120A0A0C8E
:100293000404000000001515150E0A0A0A0A0000DE
:1002A30000001B0A0A04040A0A1B000000001B0AC0
:1002B3000A040404040E000000001F0908040402D9
:1002C300121F0000001C04040404040404041C00A2
:1002D300000202020404080808100000000E0808C7
:1002E3000808080808080E0000040A0000000000BF
:1002F3000000000000000000000000000000003FBC
:1003030000040000000000000000000000000000E6
:10031300000C121C123C000000000302020E121219
:10032300120E000000000000001C1202021C00005C
:1003330000001810101C1212123C000000000000F4
:10034300000C121E021C000000003804041E0404EA
:10035300041E000000000000003C120C021E221CC0
:1003630000000302020E1212123700000000040004
:1003730000060404040E000000000800000C080836
:100383000808080700000302023A0A0E12370000A9
:100393000000070404040404041F0000000000001C
:1003A300000F15151515000000000000000F1212B4
:1003B3001237000000000000000C1212120C0000A3
:1003C30000000000000F1212120E020700000000CE
:1003D300001C1212121C103800000000001B060241
:1003E3000207000000000000001E020C101E0000A7
:1003F30000000004040E04040418000000000000C0
:10040300001B1212123C0000000000000037120A09
:100413000C040000000000000015150E0A0A00007D
:1004230000000000001B0A040A1B0000000000007B
:100433000037120A0C04040300000000001E080425
:10044300041E00000018080808040808080818001B
:10045300080808080808080808080808000604042B
:100463000408040404040600022518000000000028
:100473000000000000000000000000000000000079
:100483000000000000000008080808080808000031
:100493001818000000486C2412000000000000003F
:1004A300000000000000002424247F1212127F1297
:1004B300121200000000081C2A2A0A0C1828282AF5
:1004C3002A1C080800000022251515152A58545423
:1004D300542200000000000C1212120A7625291182
:1004E300916E0000000606040300000000000000F7
:1004F3000000000000402010100808080808081039
:1005030010204000000204080810101010101008FA
:10051300080402000000000008086B1C1C6B08089C
:100523000000000000000000080808087F08080811
:1005330008000000000000000000000000000000B0
:10054300060604030000000000000000FE00000097
:100553000000000000000000000000000000000098
:100563000606000000008040402020101008080408
:100573000402020000000018244242424242424266
:1005830024180000000000080E08080808080808DE
:10059300083E00000000003C4242422020100804B4
:1005A300427E00000000003C4242201820404042AE
:1005B300221C0000000000203028242422227E2058
:1005C300207800000000007E0202021A264040420A
:1005D300221C0000000000382402021A2642424274
:1005E300241800000000007E2222101008080808CA
:1005F300080800000000003C424242241824424202
:10060300423C00000000001824424242645840402B
:10061300241C000000000000000018180000000067
:10062300181800000000000000000008000000008F
:100633000008080400000040201008040204081009
:10064300204000000000000000007F0000007F0049
:1006530000000000000000020408102040201008E1
:10066300040200000000003C4242464020101000FB
:10067300181800000000001C225A555555552D42EC
:10068300221C00000000000808181414243C224215
:1006930042E700000000001F2222221E22424242A3
:1006A300221F00000000007C4242010101010142BF
:1006B300221C00000000001F2242424242424242EA
:1006C300221F00000000003F4212121E12120242BB
:1006D300423F00000000003F4212121E12120202AB
:1006E300020700000000003C2222010101712122C7
:1006F300221C0000000000E7424242427E42424286
:1007030042E700000000003E08080808080808083F
:10071300083E00000000007C101010101010101094
:100723001010110F0000007722120A0E0A12122273
:100733002277000000000007020202020202020206
:10074300427F000000000077363636362A2A2A2AEE
:100753002A6B0000000000E346464A4A52525262A6
:10076300624700000000001C2241414141414141D8
:10077300221C00000000003F424242423E020202AD
:10078300020700000000001C2241414141414D533A
:10079300321C60000000003F4242423E12122222FD
:1007A30042C700000000007C42420204182040427D
:1007B300423E00000000007F4908080808080808B6
:1007C300081C0000000000E742424242424242420B
:1007D300423C0000000000E7424222242414141883
:1007E300080800000000006B494949495555362265
:1007F30022220000000000E74224241818182424B1
:1008030042E70000000000772222141408080808B9
:10081300081C00000000007E212010100804044280
:10082300423F00000078080808080808080808087C
:1008330008087800000002020404080808101020C9
:1008430020204040001E1010101010101010101027
:1008530010101E00003844000000000000000000DB
:100863000000000000000000000000000000000085
:10087300000000FF00060800000000000000000068
:1008830000000000000000000000003C42784442E9
:1008930042FC0000000000030202021A2642424208
:1008A300261A000000000000000000384402020283
:1008B3004438000000000060404040784442424217
:1008C30064D80000000000000000003C427E0202E9
:1008D300423C0000000000F08808087E0808080871
:1008E300083E0000000000000000007C22221C02E1
:1008F3003C42423C000000030202023A46424242AA
:1009030042E700000000000C0C00000E0808080875
:10091300083E000000000030300000382020202076
:100923002020221E0000000302020272120A161285
:10093300227700000000000E0808080808080808CD
:10094300083E0000000000000000007F9292929297
:1009530092B70000000000000000003B4642424204
:1009630042E70000000000000000003C4242424217
:10097300423C0000000000000000001B26424242EF
:10098300221E020700000000000000784442424299
:10099300447840E000000000000000774C040404A9
:1009A300041F0000000000000000007C42023C40E5
:1009B300423E0000000000000008083E0808080846
:1009C3000830000000000000000000634242424281
:1009D30062DC000000000000000000E74224241451
:1009E3000808000000000000000000EB49495555CD
:1009F30022220000000000000000007624181818CE
:100A0300246E000000000000000000E742242414CC
:100A130018080807000000000000007E22100808E4
:100A2300447E000000C02020202020102020202011
:100A33002020C000101010101010101010101010F3
:100A43001010101000060808080808100808080805
:100A5300080806000C32C20000000000000000007D
:100A630000000000C9EE000027FC140414A4811048
:100A730042084040104017FC2040E0E0215022484B
:100A83002C4620400040DBDA1104112411241124E8
:100A93001124FD24112411241124112411241D24B3
:100AA300E124422402040404CAD00200010000002D
:100AB3007FFC0100010001003FF821082108210803
:100AC30021082128211001000100C8AB000000000B
:100AD300018002400430180860061FF9010001007C
:100AE30001003FF80100010001007FFEB6AF0000E6
:100AF300000000203E20007C002200227F221022E2
:100B0300102212221222224223423D82009CB5E788
:100B13000000010001001FF0610C410441047FFC4F
:100B23004104410441047FFC01000102010201FC74
:100B3300D7D3000000003FF80010006000800100E0
:100B430000807FFE0040004000200020002018406D
:100B53000780BCBC00000000104013FE10407C4026
:100B6300104013FC1104190830885050106010D045
:100B730013087C06CAF500000100013001080100DA
:100B83007FFE018003400540052009101108210460
:100B9300410201000100D3D00000010002007FFEEA
:100BA300040008001FFC700490041FFC10041004D0
:100BB3001FFC10041004103CCFDE000000007BFC7F
:100BC3004A044A044BFC52044A044BFC4A404A443C
:100BD3007A2842304210420843C6B9AB00000000F5
:100BE30004400420081010101008210442020220BF
:100BF30004100810080810081FFC0004CBBE0000F6
:100C030000003FFC000400043FF400043FE4202400
:100C130020242024202420241FC40004007CBBB6ED
:100C23000000000000807EFC02A202A222A4152480
:100C330014240C300C300C481248228442840102E4
:100C4300D3AD000000002398246414440444644496
:100C5300144414441444144415C4125C1040284032
:100C630047FEC4FA00000000120013FE24222522CE
:100C7300652862242224242020E0050814842444C7
:100C8300241A47F2B4BF00000020102013FE2020D6
:100C930026244A247A241224222423FC7C200022A2
:100CA30004227822003CC9AB0000000004000FF0CE
:100CB300102020207FFC20842084208420843FF87F
:100CC3002000200220021FFECCEE00000000204086
:100CD30023FE204079FC220423FC220423FC22046B
:100CE30023FC3A0465FA01980204B3E4000001000E
:100CF30001007FFE02200410040808043FFC0442A4
:100D030004400440044208421042607EBED8000002
:100D13000000207E3E804880488048FE48827F82D3
:100D230008820C8214FA12842280218040FED0CEE5
:100D3300000000007F842208223022C02202220405
:100D43007FC8223022C222022204220822304040DD
:100D5300BBAD000000007FFE00000FF0111011106A
:100D6300111051125FF25112511251124FF24002FF
:100D73007FFCD4B2000000007FFE47E24812481215
:100D830047E24FF2501250125112511242924472E2
:100D9300580A3FFCCDBC000000003FFE440247F26E
:100DA3004C225362408243625E1A41824062430294
:100DB30040C240223FFCC6AC00000040204020401F
:100DC30020403FFE2000200020003FE020102010A4
:100DD3002010201040104010CFD4000000003FFC32
:100DE300200420043FFC200420041FF8244414485A
:100DF300144814480C5004407FFECABE0000000093
:100E03003FFC0000000000007FFE0080089008887F
:100E1300108810842084208240820780B2CB000097
:100E2300002008207FFE002000783F8811080890EA
:100E330009207FFE018003400D30310C4002B5A52F
:100E430000000010081004203FF8210421043FFC97
:100E5300210421043FF801007FFE0100010001008D
:100E6300D6D000000100010001003FFC2104210451
:100E730021042104210421043FFC0100010001009D
:100E83000100D3A20000000008207FFE08200920F3
:100E930001003FF82108210821081FF40140022026
:100EA3000C10700ECEC400000100010000803F7CD6
:100EB3000810081004100420022002400180018061
:100EC30002601C18E006D7DB00000000102011FEB2
:100ED3002202220249FC5800300013FE25287924FF
:100EE30001240D24722202A2BACF00000000018067
:100EF30002400430180860061FF800001FF82004A1
:100F030020042004200420041FF8C1C100000100B4
:100F130001007FFE00003FF820083FF83FF840063D
:100F230047C24824082008221022603EB6C80000A9
:100F3300000000803FFE44105FFC4410441043F067
:100F430040005FF84408423041C04360BC1EB2E237
:100F53000000000067C2145205520552C5522552C3
:100F63000552055215521752228222424442483EEC
:100F7300CAD4000000002014101417FE0012001041
:100F8300601013F0109010901090149214EA1F0A3E
:100F93000006B3CC0000000019FE72021202120216
:100FA3007DFC18001BFE3420502053FE102010201F
:100FB300102013FED0F20000000000803FFE40002E
:100FC30047FC4208413040C05FFE4042404240443B
:100FD300404840404440B5F70000000023FE122281
:100FE30002FA0222E22212FE1272128A128A128A72
:100FF30016BA1A421202040EB9E2000001000104FB
:1010030011080908091009207FFE04400440044028
:101013000440084208421042607CB0E60000000031
:1010230048FE4900490049007EFE4182414479441B
:10103300452845284510452846440382C8A8000092
:101043001000100013FC7D04110419041884348863
:101053005048505010201050108813041402CBF93C
:10106300000000003F7C204020403E40227E22447E
:10107300224422443E842084208440844104420448
:10108300C9EE0000000000001000000800080C7FFB
:10109300FC04401001C8A002186042301832231823
:1010A30012C30014030004030C047FF0080F80082C
:1010B3000B4078136018332018631818831C190326
:1010C30008180300000300000000DBDA0000000042
:1010D300000004100C04180C04108C04108C041071
:1010E3008C04108C04D08C3F108C04108C04108C56
:1010F30004108C04108C04108C04108C05F08C0EDE
:10110300208C78208C20408C00808C01000C020005
:101113000C000000CAD000000000000000300000F6
:10112300180000180800001C1FFFE000180000183A
:101133002007FFF0041820041820041820041820A6
:10114300041820041820041820041820041820046C
:1011530018E0041840001800001800000000D6D062
:101163000000000000000000000000000018000064
:1011730018000018000018003FFFFE301806301852
:10118300063018063018063018063FFFFE301806E2
:1011930000180000180000180000180000180000D4
:1011A3000000000000000000CEC4000000000000AA
:1011B300000000003800001C00000600FFFFFF06CF
:1011C30000300600300300600300600180C000C1EE
:1011D3008000E300003600001C0000770003C1E03C
:1011E3001E003C600007000000000000000000003B
:1011F3000000B2E200000000000000000000000058
:1012030040000321FF33398333118333019B33C1FF
:101213009B33719B33199B33019B33019B33119B8D
:101223003319B333303033306C0330C60363830375
:101233002E01BE000000000000000000CAD4000020
:10124300000000000000000000004000D83000CE85
:101253001800C21C00C001FFFF0000C0F800C01846
:1012630000C019FFC01818401818601918601B181F
:10127300611E18311C1FB139F01910000F00000056
:10128300000000000000D7D60000000000060000A8
:10129300000300000000C0000001C0C0000107C03F
:1012A3000001FF00021FFE0007F01C0007C07000D2
:1012B3000F00E0000E03F0001C0FF0003C0F700065
:1012C3003C00E0001800C0000000C0000000C000A7
:1012D3000000600000002000000037000001FF0054
:1012E300007FF80007F830001F80300000803000D6
:1012F30000C03000006060000018E000000FC00074
:101303000006000000000000CCE500000000000023
:101313000000000000C0000000E0002001B80070E1
:101323003FF80061FFC000C3030001C60600038C41
:10133300060003080C0006080C000E18183F1E10C8
:101343001BF31F903F0700803C1C0190707C0190B1
:1013530060FE01A0C3F801A00FD803A00818036022
:1013630000180340001803C000180380001803008E
:1013730000180000001800000010000000300000FA
:1013830000300000000000000000B2E20000000096
:10139300000000000000000000000000020C100824
:1013A300071FF80403BFF00201BC300303EC300352
:1013B300015C600300D8600300D860038098620377
:1013C30061B8430771B14306313243063376C3062E
:1013D3003A64C7063EECC0063E78C0063C30400681
:1013E3007C70000678E060067BFFF006F7C000061D
:1013F300E400000640000006000000060000007C38
:1014030000008FF000007C0000000000CAD4000040
:101413000000000000000000000000003F0000008A
:101423007F8000000180000000C0000000C00000B9
:1014330000CE038000CFFFC000DD41800FFE000718
:10144300FFFC000C00F000180FC03E19FF40F31121
:10145300BC6083307FE003B1FE2003338020037040
:101463000030036000100360001807C0000C07C0C1
:1014730000040780000201000003000000010000D7
:0E14830000000000000000000000000000005B
:10605F00900019FEE0FCA3E0FD900018E02DFD90EC
:0D606F000017E03CFC90001DE0FAA3E0FBF0
:10607C0090001FEAF0A3EBF0125ECA90001FE0FE46
:06608C00A3E0FF026172B7
:0E55CB0090000BEEF0A3EFF0A3ECF0A3EDF0D8
:1055D90090000BE0FEA3E0FFC3EB9FFFEA9ECF2400
:1055E90001CF3400900015F0A3EFF090000DE0FE1C
:1055F900A3E0FFC3900012E09FFF900011E09ECF4F
:105609002401CF3400900017F0A3EFF090000DE0D3
:10561900FCA3E0FDEB24FFFBEA34FFFA900011E064
:10562900FEA3E024FFFFEE34FF900041F0A3EFF06A
:1056390090000BE0FEA3E0FF126028D292C293E42F
:10564900FDFCD3900018E09D900017E09C4030E4E9
:10565900FBFAD3900016E09B900015E09A40199050
:105669000013E0F580C291D291A3E0F580C291D2F6
:10567900910BBB00010A80DA0DBD00010C80C3D279
:1056890093900085E024FFFB900084E034FFFA90BA
:105699000087E024FFFE900086E034FF900041F08F
:0B56A900A3CEF0E4FDFCFFFE02602831
:0E460E0090000BEEF0A3EFF0A3ECF0A3EDF0A4
:10461C00E4900015F0A3F0A3F0A3F090000BE0FEE3
:10462C00A3E0FFC3EB9FFFEA9E900019F0A3EFF00D
:10463C0090000DE0FAA3E0FBC3900012E09BFE900B
:10464C000011E09A90001BF0A3CEF090000BE0FF5D
:10465C00A3E0900023CFF0A3EFF0A3EAF0A3EBF0DC
:10466C00900019E0FEA3E0FFD39400EE64809480E8
:10467C00400A90001FE4F0A304F08021EF4E700874
:10468C0090001FF0A3F0801574FF90001FF0A3F0B2
:10469C00C3E49FFFE49E900019F0A3EFF090001B81
:1046AC00E0FEA3E0FFD39400EE64809480400A9077
:1046BC000021E4F0A304F08021EF4E70089000215B
:1046CC00F0A3F0801574FF900021F0A3F0C3E49FD9
:1046DC00FFE49E90001BF0A3EFF090001BE0FEA304
:1046EC00E0FF900019E0FCA3E0FDD39FEE6480F89E
:1046FC00EC64809890001D4007ECF0A3EDF0800571
:10470C00EEF0A3EFF0E4900013F0A3F090001EE0A5
:10471C002401FF90001DE03400FED3900014E09FB4
:10472C00900013E09E40030247F8900023E0FEA3A4
:10473C00E0FFA3E0FCA3E0FD126151900019E0FE44
:10474C00A3E0FF900016E02FF0900015E03EF090F3
:10475C00001BE0FEA3E0FF900018E02FF090001784
:10476C00E03EF090001DE0FEA3E0FF900015E0FCA1
:10477C00A3E0FDD39FEE6480F8EC6480984020EDBC
:10478C009FFFEC9E900015F0A3EFF090001FE0FE51
:10479C00A3E0FF900024E02FF0900023E03EF09087
:1047AC00001DE0FEA3E0FF900017E0FCA3E0FDD3AA
:1047BC009FEE6480F8EC6480984020ED9FFFEC9EA7
:1047CC00900017F0A3EFF0900021E0FEA3E0FF9023
:1047DC000026E02FF0900025E03EF0900014E0045D
:0C47EC00F07006900013E004F002471883
:0147F800229E
:105A9B00900007EAF0A3EBF0900003EEF0A3EFF019
:105AAB00A3ECF0A3EDF0C007A3E0FAA3E0FB90009A
:105ABB0005E0FFA3E0900011CFF0A3EFF0D00712A9
:105ACB00460E900003E0FAA3E0FBFFAE02C007A373
:105ADB00E0FCA3E0FD900009E0FFA3E0900011CFF4
:105AEB00F0A3EFF0D00712460E900009E0FCA3E004
:105AFB00FD900007E0FAA3E0FBA3E0FFA3E090001A
:105B0B0011CFF0A3EFF0900003E0FEA3E0FF1246ED
:105B1B000E900007E0FAA3E0FBFFAE02C007900077
:105B2B0005E0FCA3E0FD900009E0FFA3E09000116D
:0A5B3B00CFF0A3EFF0D00702460EF2
:10610A00C007900009E0FFA3E0900011CFF0A3EFD1
:10611A00F0900080E0FFA3E0900013CFF0A3EFF02F
:05612A00D0070255CB77
:104E0E0090001BF0A3EFF0900007E0FFA3E09000EE
:0E4E1E001DCFF0A3EFF0900003E0FEA3E0FF35
:104E2C00900017ECF0A3EDF0900015EEF0A3EFF06E
:104E3C00900019EAF0A3EBF02FFFEE3AA312606298
:104E4C00900019E0FEA3E0FFC3900016E09FFF90D6
:104E5C000015E09EFE90001B126063900019E0FEAE
:104E6C00A3E0FF900016E02FFF900015E03EFE90AF
:104E7C00001BE0FCA3E0FDC3900018E09DFD90003A
:104E8C0017E09C126073900019E0FEA3E0FFC39042
:104E9C000016E09FFF900015E09EFE90001BE0FCCA
:104EAC00A3E0FDC3900018E09DFD900017E09C125C
:104EBC00607390001BE0FEA3E0FF900016E02FFF54
:104ECC00900015E03E12605F90001BE0FEA3E0FF37
:104EDC00C3900016E09FFF900015E09E12605F905B
:104EEC00001BE0FEA3E0FF900016E02FFF900015E2
:104EFC00E03EFE900019E0FCA3E0FDC3900018E03A
:104F0C009DFD900017E09C12607390001BE0FEA3C7
:104F1C00E0FFC3900016E09FFF900015E09EFE900E
:104F2C000019E0FCA3E0FDC3900018E09DFD90008B
:0F4F3C0017E09CFC90001DE0FAA3E0FB02607CF4
:10441800900003EEF0A3EFF0A3ECF0A3EDF0A3EA15
:04442800F0A3EBF022
:10442C00E490000DF0A3F0900009E0FEA3E0FF90F3
:10443C00000FEEF0A3EFF025E0FFEE33FEC37403A4
:10444C009F900014F0E49E900013F090000BE0702D
:10445C0002A3E0700302455B90000FE0FEA3E0FFB7
:10446C0090000DE0FCA3E0FDD39FEE6480F8EC64BB
:10447C008098400302460D900011ECF0A3EDF090F3
:10448C00000FE0FEA3E0FFD3900012E09FEE6480EB
:10449C00F8900011E0648098502B900005E0FCA38C
:1044AC00E0FD90000DE0FAA3E0FB900011E0FFA30B
:1044BC00E0CF124E0E900012E004F070C29000118A
:1044CC00E004F080BA900013E0FCA3E0FDC3EC64C0
:1044DC00809480502390000DE0FEA3E07802C3335B
:1044EC00CE33CED8F92DFFEC3ECF2406CF3400903E
:1044FC000013F0A3EFF0804390000FE0FEA3E0FF69
:10450C00C390000EE09FFF90000DE09EFEEF78023E
:10451C00C333CE33CED8F9FF900014E02FFF9000B8
:10452C0013E03ECF240ACF3400F0A3EFF09000103C
:10453C00E024FFF090000FE034FFF090000EE00458
:10454C00F0600302446490000DE004F002446490B7
:10455C00000FE0FEA3E0FF90000DE0FAA3E0FBD318
:10456C009FEE6480F8EA648098400302460D900048
:10457C0005E0FCA3E0FDEE124E0E900013E0FCA350
:10458C00E0FDC3EC64809480502390000DE0FEA30A
:10459C00E07802C333CE33CED8F92DFFEC3ECF24D6
:1045AC0006CF3400900013F0A3EFF0804390000F7F
:1045BC00E0FEA3E0FFC390000EE09FFF90000DE033
:1045CC009EFEEF7802C333CE33CED8F9FF900014A1
:1045DC00E02FFF900013E03ECF240ACF3400F0A36D
:1045EC00EFF0900010E024FFF090000FE034FFF0AB
:1045FC0090000EE004F0700690000DE004F002450F
:01460C005B52
:01460D00228A
:10420000F0900023E0900031F090001BE0FAA3E072
:01421000FBB2
:10421100900027EEF0A3EFF090002BEAF0A3EBF073
:08422100900029ECF0A3EDF080
:10422900900080E0FFA3E0900035CFF0A3EFF0907D
:10423900002FE024E0F0A3E0F9C313FF7E00900013
:1042490027E0FAA3E02FFFEE3ACF24FFFBEF34FF7C
:10425900FAE9FFA3E0F8A3E02FFFEE38CF24FFCF60
:1042690034FF900041F0A3EFF0900027E0FEA3E0B7
:10427900FF126028900031E0600302432090003370
:10428900F0900030E0FF900033E0FEC39F4003024E
:1042990043DFEFB40C1790002FE075F00CA4240352
:1042A900F582E5F03400F583E5822E801A9000331B
:1042B900E0FF90002FE075F010A42477F582E5F077
:1042C9003404F583E5822FF582E43583F583E4939D
:1042D900900032F0E4900034F0900030E0C313FF16
:1042E900900034E0C39F5026900032E030E0059002
:1042F900002B800390002DE0FEA3E0FF1261729075
:104309000032E0C313F0900034E004F080CB900059
:1043190033E004F002428AE4900033F0900030E088
:10432900FF900033E0FEC39F40030243DFEFB40C6C
:104339001790002FE075F00CA42403F582E5F03402
:1043490000F583E5822E801A900033E0FF90002F5C
:10435900E075F010A42477F582E5F03404F583E5DF
:10436900822FF582E43583F583E493900032F0E4FB
:10437900900034F0900030E0C313FF900034E0FE69
:10438900C39F504990002BE0FDA3E0900080CDF041
:10439900A3EDF0900032E030E024EEFF900028E039
:1043A9002FFF900027E03400FE900033E0FD9000DD
:1043B9002AE02DFD900029E03400FC1261519000A3
:1043C90032E0C313F0900034E004F080A79000338A
:1043D900E004F0024325900035E0FFA3E09000805F
:1043E900CFF0A3EFF0900085E024FFFB900084E07C
:1043F90034FFFA900087E024FFFE900086E034FF46
:0F440900900041F0A3CEF0E4FDFCFFFE0260281E
:10591900900007EEF0A3EFF0A3ECF0A3EDF0A3EBFA
:10592900F090000CE0FBA3E0FAA3E0F91231BDFF0F
:10593900D3947E40030259DAEFC3942050030259ED
:10594900DA900085E024FFFD900084E034FFFC90AC
:105959000007E0FEA3E0FFD39DEE9C507490008702
:10596900E024FFFB900086E034FFFA900009E0FC98
:10597900A3E0FDD39BEC9A5058900082E0FBA3E092
:1059890090002DCBF0A3EBF090000CE0FBA3E0FA24
:10599900A3E0F91231BD90002FF090000BE09000C8
:1059A90030F090000FE0900031F090008012420C2E
:1059B90090000BE0C313FF900008E02FF090000760
:1059C900E03400F090000DE475F00112326A0259DA
:0259D9002A2280
:085F6D009000B8EFF0A3EDF085
:105F7500A31233FD000000019000B9E0FF14F0EF1B
:105F85006020A3E0F8A3E0F9A3E0FAA3E0FB90000A
:105F9500B8E0FFE4FCFDFE1232B59000BA1233F111
:105FA50080D69000BAE0FCA3E0FDA3E0FEA3E0FFED
:015FB50022C9
:0E52CD009000A1EEF0A3EFF0A3ECF0A3EDF043
:1052DB00E49000ADF09000ABF09000A9E0FF9000DF
:1052EB00ABE0FEC39F40030253DDC3EF9E14FD7F73
:1052FB000A125F6DA804A905AA06AB079000A5E0EA
:10530B00FCA3E0FDA3E0FEA3E0FF123340E47B0A25
:10531B00FAF9F81233409000ACEBF0A3E070579021
:10532B0000A9E014FF9000ABE0FEC39F5048A3E040
:10533B00703E9000AAE0F9C3138EF0A4FF9000A278
:10534B00E02FFF9000A1E035F0FEC0079000A3E036
:10535B00FCA3E0FD900080E0FAA3E0FB900082E06C
:10536B00FFA3E090002DCFF0A3EFF0A37420804DAE
:10537B009000AD7401F09000AAE0F9C313FFA3E015
:10538B00FEEF8EF0A4FF9000A2E02FFF9000A1E0B3
:10539B0035F0FEC0079000A3E0FCA3E0FD90008079
:1053AB00E0FAA3E0FB900082E0FFA3E090002DCF9A
:1053BB00F0A3EFF09000ACE0243090002FF0A3E9C5
:1053CB00F0E4A3F0D0071242119000ABE004F0021E
:0253DB0052E49A
:0153DD0022AD
:1036DB00900029ECF0A3EDF0A3EAF0A3EBF090003F
:0636EB0027EEF0A3EFF052
:1036F100900039EEF0A3EFF0900037E4F0A3742EC0
:10370100F0E4900035F0A3F0900037E0FEA3E0FF75
:10371100900035E0FCA3E0FDC39FEC9E400302381E
:10372100F490002FE0FBA3E0FAA3E0F91231BDFF12
:10373100900A6775F022ED12342EEC75F022A42563
:1037410083F583E4936F60030238E3900001123143
:10375100D6FF900035A3E0900A6875F02212342E4E
:10376100EC75F022A42583F583E4936F600302389E
:10377100E3900027E0FAA3E0FBFFAE02C006C0071A
:10378100A3E0FCA3E0FDEB240FFBE43AFA9000294F
:10379100E0FEA3E0240FFFE43E900041F0A3EFF030
:1037A100D007D006126028E4900033F0E490003492
:1037B100F0900034E0FFC3940840030238D4900035
:1037C10032E0705AA3E0FE900035E0FCA3E0900ADD
:1037D1006975F02212342EEC75F022A42583F5834D
:1037E100E5822EF582E43583F583E493FD3395E09C
:1037F100FC74807E00A807088006CEA2E713CE13D2
:10380100D8F8FFEE5CFEEF5D4E600590002B800363
:1038110090002DE0FEA3E0FF1261720238CB900010
:103821002BE0FFA3E0900080CFF0A3EFF0900033F6
:10383100E0FF900035E0FCA3E0900A6975F02212E8
:10384100342EEC75F022A42583F583E5822FF582D1
:10385100E43583F583E493FD3395E0FC900034E097
:10386100FF74807E00A807088006CEA2E713CE135E
:10387100D8F8FFEE5CFEEF5D4E6011900027E0FE90
:10388100A3E0FFA3E0FCA3E0FD126151900028E05A
:1038910004F07006900027E004F0900039E0FEA3E8
:1038A100E0FFC3900028E09FFD900027E09EFCED23
:1038B10064104C7015EEF0A3EFF090002AE004F0D4
:1038C1007011900029E004F08009900034E004F0C8
:1038D1000237B2900033E004F0E0C39420500302B9
:1038E10037AD900036E004F07006900035E004F04A
:1038F100023709900085E024FFFB900084E034FF4B
:10390100FA900087E024FFFE900086E034FF9000EB
:0D39110041F0A3CEF0E4FDFCFFFE026028B3
:10391E00900029ECF0A3EDF0A3EAF0A3EBF09000F9
:06392E0027EEF0A3EFF00C
:10393400900039EEF0A3EFF0900037E4F0A37407A1
:10394400F0E4900035F0A3F0900037E0FEA3E0FF30
:10395400900035E0FCA3E0FDC39FEC9E4003023BD6
:103964003790002FE0FBA3E0FAA3E0F91231BDFF8A
:1039740090108375F04AED12342EEC75F04AA425AC
:1039840083F583E4936F6003023B269000011231B8
:10399400D6FF900035A3E090108475F04A12342EBF
:1039A400EC75F04AA42583F583E4936F6003023B2E
:1039B40026900027E0FAA3E0FBFFAE02C006C00792
:1039C400A3E0FCA3E0FDEB2417FBE43AFA90002902
:1039D400E0FEA3E02417FFE43E900041F0A3EFF0E3
:1039E400D007D006126028E4900033F0E49000344D
:1039F400F0900034E0FFC394084003023B179000AA
:103A040032E0705AA3E0FE900035E0FCA3E0901091
:103A14008575F04A12342EEC75F04AA42583F5839B
:103A2400E5822EF582E43583F583E493FD3395E056
:103A3400FC74807E00A807088006CEA2E713CE138C
:103A4400D8F8FFEE5CFEEF5D4E600590002B80031E
:103A540090002DE0FEA3E0FF126172023B0E900085
:103A64002BE0FFA3E0900080CFF0A3EFF0900033B1
:103A7400E0FF900035E0FCA3E090108575F04A1259
:103A8400342EEC75F04AA42583F583E5822FF58264
:103A9400E43583F583E493FD3395E0FC900034E052
:103AA400FF74807E00A807088006CEA2E713CE1319
:103AB400D8F8FFEE5CFEEF5D4E6011900027E0FE4B
:103AC400A3E0FFA3E0FCA3E0FD126151900028E015
:103AD40004F07006900027E004F0900039E0FEA3A3
:103AE400E0FFC3900028E09FFD900027E09EFCEDDE
:103AF40064184C7015EEF0A3EFF090002AE004F087
:103B04007011900029E004F08009900034E004F082
:103B14000239F5900033E004F0E0C3944850030206
:103B240039F0900036E004F07006900035E004F0BF
:103B340002394C900085E024FFFB900084E034FFC0
:103B4400FA900087E024FFFE900086E034FF9000A6
:0D3B540041F0A3CEF0E4FDFCFFFE0260286E
:103B6100900029ECF0A3EDF0A3EAF0A3EBF09000B4
:063B710027EEF0A3EFF0C7
:103B7700900039EEF0A3EFF0900037E4F0A374045F
:103B8700F0E4900035F0A3F0900037E0FEA3E0FFEB
:103B9700900035E0FCA3E0FDC39FEC9E4003023D8F
:103BA7007A90002FE0FBA3E0FAA3E0F91231BDFF02
:103BB70090128975F082ED12342EEC75F082A425EF
:103BC70083F583E4936F6003023D6990000112312E
:103BD700D6FF900035A3E090128A75F08212342E3A
:103BE700EC75F082A42583F583E4936F6003023DAF
:103BF70069900027E0FAA3E0FBFFAE02C006C0070A
:103C0700A3E0FCA3E0FDEB241FFBE43AFA900029B4
:103C1700E0FEA3E0241FFFE43E900041F0A3EFF095
:103C2700D007D006126028E4900033F0E490003407
:103C3700F0900034E0FFC394084003023D5A90001F
:103C470032E0705AA3E0FE900035E0FCA3E090124A
:103C57008B75F08212342EEC75F082A42583F583E0
:103C6700E5822EF582E43583F583E493FD3395E011
:103C7700FC74807E00A807088006CEA2E713CE1347
:103C8700D8F8FFEE5CFEEF5D4E600590002B8003D9
:103C970090002DE0FEA3E0FF126172023D519000FB
:103CA7002BE0FFA3E0900080CFF0A3EFF09000336C
:103CB700E0FF900035E0FCA3E090128B75F08212D4
:103CC700342EEC75F082A42583F583E5822FF582E7
:103CD700E43583F583E493FD3395E0FC900034E00D
:103CE700FF74807E00A807088006CEA2E713CE13D4
:103CF700D8F8FFEE5CFEEF5D4E6011900027E0FE06
:103D0700A3E0FFA3E0FCA3E0FD126151900028E0CF
:103D170004F07006900027E004F0900039E0FEA35D
:103D2700E0FFC3900028E09FFD900027E09EFCED98
:103D370064204C7015EEF0A3EFF090002AE004F039
:103D47007011900029E004F08009900034E004F03D
:103D5700023C38900033E004F0E0C3948050030243
:103D67003C33900036E004F07006900035E004F034
:103D7700023B8F900085E024FFFB900084E034FF36
:103D8700FA900087E024FFFE900086E034FF900061
:0D3D970041F0A3CEF0E4FDFCFFFE02602829
:10343A00900019ECF0A3EDF0A3EAF0A3EBF09000F2
:06344A0017EEF0A3EFF005
:10345000900024EEF0A3EFF0E4A3F090001FE0FB57
:10346000A3E0FAA3E0F91231BD70030236DA90004E
:1034700026E0600302359C900022E0FFC313FDC3E9
:10348000900085E09DFD900084E09400FCD39000C6
:1034900018E09D900017E09C40030236DAC39000CC
:1034A00087E09FFF900086E09400FE900019E0FC0A
:1034B000A3E0FDD39FEC9E40030236DA90001FE0AC
:1034C000FBA3E0FAA3E0F91231BDFFD394804008DA
:1034D0009000267401F08083EFB40D2E900022E05E
:1034E000FF90001AE02FF0900019E03400F09000F7
:1034F00024E0FFA3E0900017CFF0A3EFF0900020AE
:10350000E475F00112326A02358F900022E0D39404
:1035100010900017E0FEA3E0FF402F90001DE0FB9D
:10352000A3E090002DCBF0A3EBF090001FE0FBA3F5
:10353000E0FAA3E0F91231BD90002FF0A37410124D
:103540004200900018E02408803DA3E0FCA3E0FDC9
:1035500090001DE0FBA3E090002DCBF0A3EBF090DA
:10356000001FE0FBA3E0FAA3E0F91231BD90002FA9
:10357000F0900022E0900030124200900022E0C360
:1035800013FF900018E02FF0900017E03400F09047
:103590000020E475F00112326A02345B900022E0F0
:1035A000F9FF7E00C3900085E09FFD900084E09EBF
:1035B000FCD3900018E09D900017E09C4003023679
:1035C000DAC3900087E09FFF900086E09EFE9000A7
:1035D00019E0FCA3E0FDD39FEC9E40030236DAE441
:1035E000900026F0E9B42042900017E0FEA3E0FF2F
:1035F00090001DE0FBA3E090002DCBF0A3EBF0903A
:10360000001FE0F9A3E0FAA3E090002FC9F0A3EABD
:10361000F0A3E9F0900023E0900032F090001BE06E
:10362000FAA3E0FB123B610236BB900022E0641873
:103630009000177044E0FEA3E0FFA3E0FCA3E0FDD0
:1036400090001DE0FBA3E090002DCBF0A3EBF090E9
:10365000001FE0F9A3E0FAA3E090002FC9F0A3EA6D
:10366000F0A3E9F0900023E0900032F090001BE01E
:10367000FAA3E0FB12391E8042E0FEA3E0FFA3E0C4
:10368000FCA3E0FD90001DE0FBA3E090002DCBF03B
:10369000A3EBF090001FE0F9A3E0FAA3E090002F65
:1036A000C9F0A3EAF0A3E9F0900023E0900032F023
:1036B00090001BE0FAA3E0FB1236DB900020E475DB
:1036C000F00212326A900022E0FF900018E02FF022
:0A36D000900017E03400F002345BB4
:0136DA0022CD
:105BEE0090000AEEF0A3EFF0A3ECF0A3EDF0A3EA21
:045BFE00F0A3EBF035
:105C0200900012E0FBA3E0FAA3E0F9126205EF783C
:105C120003C333CE33CED8F9FFC3900085E09FFF94
:105C2200900084E09EC313FEEF13FF90000BE02F61
:105C3200FF90000AE03EFE90000CE0FCA3E0FD9025
:105C42000010E0FBA3E090001DCBF0A3EBF090006E
:105C520012E0F9A3E0FAA3E090001FC9F0A3EAF072
:105C6200A3E9F0900015E0900022F0900016E09079
:0E5C72000023F090000EE0FAA3E0FB02343AAB
:1056B400900002EEF0A3EFF0900006EBF0A3EAF006
:0B56C400A3E9F0900004ECF0A3EDF06F
:1056CF00900002E0FAA3E0FFAE02C006C007242755
:1056DF00FBE43AFAA3E0FEA3E02427FFE43E9000A8
:1056EF0041F0A3EFF0D007D006126028E490000934
:1056FF00F0A3F090000AE025E0FF900009E033FEF0
:10570F00900006E0FBA3E0FAA3E0F98F828E8312EC
:10571F0031D690000CF0E92FF9EA3EFA9000011211
:10572F0031D690000BF0FEA3E0FDEDFF12617290F9
:10573F00000AE004F07006900009E004F0C3900046
:10574F000AE09440900009E06480948640A59000A0
:10575F0085E024FFFB900084E034FFFA900087E09F
:10576F0024FFFE900086E034FF900041F0A3CEF0BE
:08577F00E4FDFCFFFE026028BE
:1060BE00E4FDFCC3ED9FEE6480F8EC64809850150F
:1060CE00E4FBFA0BBB00010ABA03F8BBE8F50DBD01
:0560DE0000010C80DE52
:0160E300229A
:1060E400E4FDFCC3ED9FEE6480F8EC6480985015E9
:1060F400E4FBFA0BBB00010AEB64014A70F50DBD29
:0561040000010C80DE2B
:016109002273
:03000000025C801F
:0C5C8000787FE4F6D8FD758107025CC750
:105FF00056583A0056793A004348583A00434859AF
:106000003A0041646A757374204F4B2100546F75D8
:10601000636820416E79776865726520546F20430C
:086020006F6E74696E75650076
:10609F0042009D2C7342009F1E134200910F284215
:0460AF00009300EA70
:06624B00A2C0E433FF22B3
:09624200D2B7D2B6D2B4D2B62212
:1061A900E4FEC2B6EF25E0FF92B4C2B6000000D209
:0961B900B60000000EEEB408EB84
:0161C20022BA
:10612F00E4FDFFFEEF25E0FFEE33FED2B6000000E8
:10613F00C2B600000030B504EF4401FF0DEDB40C02
:01614F00E36C
:01615000222C
:1061C300C2B71261A9D2B600000000C2B600000037
:0661D3000012612FD2B79B
:0161D90022A3
:024CB700A9074B
:104CB900E490003EF0A3F0FBFAAF011261C3AC0629
:104CC900AD07EB25E0FFEA33FE74202FF58274006F
:104CD9003EF583ECF0A3EDF00BBB00010AEB640F8A
:104CE9004A70D6E4FAFBEB2401FEE43A90001EF088
:104CF900A3CEF090001EE0FEA3E0FFC3940FEE9454
:104D0900004003024DB3EF25E0FFEE33FE74202F80
:104D1900F58274003EF583E0FCA3E0FDEB25E0FF9E
:104D2900EA33FE74202FF58274003EF583E0FEA37A
:104D3900E0FFD39DEE9C405E900040EEF0A3EFF0C3
:104D490090001FE025E0FF90001EE033FE74202F45
:104D5900F58274003EF583E0FCA3E0FDEB25E0FF5E
:104D6900EA33FE74202FF58274003EF583ECF0A33C
:104D7900EDF0900040E0FCA3E0FD90001FE025E08D
:104D8900FF90001EE033FE74202FF58274003EF57B
:104D990083ECF0A3EDF090001FE004F06003024CF7
:104DA900FC90001EE004F0024CFC0BBB00010AEB76
:104DB900640E4A6003024CEFE490003EF0A3F0FA5F
:104DC9007B05EB25E0FFEA33FE74202FF5827400A2
:104DD9003EF583E0FEA3E0FF90003FE02FF0900056
:104DE9003EE03EF00BBB00010AEB640A4A70D39027
:104DF900003EE0FEA3E0FF7C007D05123215A3EE24
:044E0900F0A3EFF033
:014E0D002282
:0B5E6700900016EBF0A3EAF0A3E9F0B6
:105E72007FD0124CB790001CEEF0A3EFF07F90128F
:105E82004CB7C390001DE0946490001CE094004065
:105E920008EF9464EE940050037F002290001CE00F
:105EA200F9A3E0FD900016E0FBA3E0FAA3E0C98DA0
:105EB200F0123296900019E0FBA3E0FAA3E0F9EEAB
:075EC2008FF01232967F0100
:015EC90022B6
:0B508400900008EBF0A3EAF0A3E9F0B5
:10508F009000197401F0A37400F0A37410F07B0169
:10509F007A00790E125E67EF7002FF22900019748A
:1050AF0001F0A37400F0A37414F07B017A0079125D
:1050BF00125E67EF7002FF2290000EE0FEA3E0FF8A
:1050CF00900012E0FCA3E0FDD39FEC9E500EED2468
:1050DF0014FDE43CFCC3EF9DEE9C402A900012E0CF
:1050EF00FEA3E0FF90000EE0FCA3E0FDD39FEC9E3B
:1050FF0040030251B2ED2414FDE43CFCC3EF9DEEDE
:10510F009C40030251B2900010E0FEA3E0FF90001C
:10511F0014E0FCA3E0FDD39FEC9E500EED2414FD94
:10512F00E43CFCC3EF9DEE9C4024900014E0FEA3F2
:10513F00E0FF900010E0FCA3E0FDD39FEC9E5063D6
:10514F00ED2414FDE43CFCC3EF9DEE9C5055900004
:10515F0012E0FEA3E0FF90000FE02FFF90000EE0A3
:10516F003EC313F9EF13FF900008E0FBA3E0FAA38F
:10517F00E0C98FF0123296900014E0FEA3E0FF908A
:10518F000011E02FFF900010E03EC313F9EF13FF63
:10519F0090000BE0FBA3E0FAA3E0C98FF012329668
:0551AF007F01227F00DA
:0151B40022D8
:105D0C00E49000C4F09000C4E0706A90000B740141
:105D1C00F0A37400F0A3749BF07B017A00799912C4
:105D2C005084EF60E67F0A7E001260BE90000B7418
:105D3C0001F0A37400F0A374C7F07B017A0079C55D
:105D4C00125084EF60E69000C5E0FEA3E0FF9000E7
:105D5C0099E0B506B0A3E0B507AB9000C7E0FEA391
:105D6C00E0FF90009BE06E7003A3E06F70979000D3
:0A5D7C00C404F080909000C4E0FF22
:015D860022FA
:1051B5009000C9EEF0A3EFF0A3ECF0A3EDF09000A2
:1051C5008074F8F0A3E4F09000C9E0FAA3E0FB24B2
:1051D500F4FFEA34FFFEC007EB240DFBE43AFAA323
:1051E500E0FFA3E0900011CFF0A3EFF0D007124647
:1051F5000E9000C9E0FAA3E0FBFFAE02C006C007AF
:105205009000CCE024F4FD9000CBE034FFFCE0FE00
:10521500A3E0240DFFE43E900011F0A3EFF0D007CA
:10522500D00612460E9000CAE02401FF9000C9E0A6
:105235003400FE9000CCE02401FD9000CBE034006A
:10524500FC1261519000CAE024FFFF9000C9E034D0
:10525500FFFE9000CCE02401FD9000CBE03400FC83
:105265001261519000CAE02401FF9000C9E03400AA
:10527500FE9000CCE024FFFD9000CBE034FFFC1253
:1052850061519000CAE024FFFF9000C9E034FFFEA1
:105295009000CCE024FFFD9000CBE034FFFC1261D0
:1052A500519000C9E0FEA3E0FFA3E0FCA3E0FD9060
:1052B5000080E0FAA3E0FB900009E4F0A37406F097
:0852C500E4A3F0A3F002441879
:105D8700900007EEF0A3EFF0A3ECF0A3EDF0AF0364
:105D9700900080EAF0A3EFF0900007E0FEA3E0FF99
:105DA700126151900008E02401FF900007E03400E1
:105DB700FE900009E0FCA3E0FD126151900007E0AE
:105DC700FEA3E0FF90000AE02401FD900009E03403
:105DD70000FC126151900008E02401FF900007E0E9
:105DE7003400FE90000AE02401FD900009E0340031
:045DF700FC026151F8
:104F4B00E4900007F07B0190000B04F0A37400F0D9
:104F5B00A3749BF07A007999125084EF700302507E
:104F6B00489000077401F0900091E0FEA3E0FFD39E
:104F7B0090009AE09F900099E09E400BAB07AA0629
:104F8B00E0FEA3E0FF8013900099E0FEA3E0FBAAF4
:104F9B0006900091E0FEA3E0FFC3EF9BFFEE9AFEAD
:104FAB00E49400FDE49400FCE47BE87A03F9F81246
:104FBB0032B5C006C00790009DE0FEA3E0FBAA0639
:104FCB00E4F9F8D007D006123340900095EEF0A329
:104FDB00EFF0900093E0FEA3E0FFD390009CE09FE6
:104FEB0090009BE09E400BAB07AA06E0FEA3E0FF00
:104FFB00801390009BE0FEA3E0FBAA06900093E0D9
:10500B00FEA3E0FFC3EF9BFFEE9AFEE49400FDE4EA
:10501B009400FCE47BE87A03F9F81232B5C006C0C1
:10502B000790009FE0FEA3E0FBAA06E4F9F8D00787
:10503B00D006123340900097EEF0A3EFF09000955E
:10504B00E0FEA3E0FFA3E0FDA3E0900095CDF0A36D
:10505B00EDF0A3EEF0A3EFF0900095E0FEA3E0FFE0
:10506B00C3900085E09FFF900084E09E900095F038
:08507B00A3EFF0900007E0FF35
:01508300220A
:10233200E490007FF0F0900080F0A3741FF074FF2F
:10234200900082F0A3F0FFFE125B4590008074F8CB
:10235200F0A3E4022AD620C0FD125D0CEF60429089
:102362000099E0FEA3E0FFE4FCFD90007FE0FB7536
:10237200F008A4245FF582E43400F5831233F1906F
:10238200009BE0FEA3E0FFE4FCFDEB75F008A42453
:1023920063F582E43400F5831233F190007FE004A8
:1023A200F090007FE024FE602914604514606B24E5
:1023B2000370A374FFFFFE125B4530C0FD900085E1
:1023C200E024CDFF900084E034FFFE7D327C0002E9
:1023D2002AE674FFFFFE125B4530C0FD900087E0E5
:1023E20024CDFD900086E034FFFC7F327E00022A7D
:1023F200E674FFFFFE125B4530C0FD900085E024CD
:10240200CDFF900084E034FFFE900087E024CDFDF4
:10241200900086E034FFFC022AE674FFFFFE125BA6
:102422004530C0FD90005FE0FCA3E0FDA3E0FEA309
:10243200E0FF900067E0F8A3E0F9A3E0FAA3E0FB75
:10244200D31233E0403490005FE0F8A3E0F9A3E058
:10245200FAA3E0FB900067E0FCA3E0FDA3E0FEA38B
:10246200E09BFFEE9AFEED99FDEC98FCEF2401FF54
:10247200E43EFEE43DFDE43C8036900067E0F8A3D4
:10248200E0F9A3E0FAA3E0FB90005FE0FCA3E0FD2B
:10249200A3E0FEA3E0C39BFFEE9AFEED99FDEC984C
:1024A200FCEF24FFFFEE34FFFEED34FFFDEC34FFC2
:1024B200FCE47BE87A03F9F81232B5C006C0079053
:1024C2000085E0249CFF900084E034FFAB07FAE42F
:1024D200F9F8D007D006123340E41230FE900043E0
:1024E2001233F190005FE0FCA3E0FDA3E0FEA3E065
:1024F200FF900067E0F8A3E0F9A3E0FAA3E0FBD3C2
:102502001233E0E4FFFE7D487C42900043E0F8A3F2
:10251200E0F9A3E0FAA3E0FB4034122EDFE4FBFA79
:10252200797A7844122FE8C004C005C006C007902B
:10253200005FE0FCA3E0FDA3E0FEA3E0FFE41230B5
:10254200FED003D002D001D000122DEA8032122E2A
:10255200DFE4FBFA797A7844122FE8C004C005C0A0
:1025620006C00790005FE0FCA3E0FDA3E0FEA3E04D
:10257200FFE41230FED003D002D001D000122DEEC3
:1025820012313C900053EEF0A3EFF0900063E0FCB8
:10259200A3E0FDA3E0FEA3E0FF900073E0F8A3E058
:1025A200F9A3E0FAA3E0FBD31233E0401D900063ED
:1025B200E0F8A3E0F9A3E0FAA3E0FB900073E0FCEB
:1025C200A3E0FDA3E0FEA3E0801C900073E0F8A36B
:1025D200E0F9A3E0FAA3E0FB900063E0FCA3E0FDD6
:1025E200A3E0FEA3E0C39BFFEE9AFEED99FDEC98FB
:1025F200FCEF24FFFFEE34FFFEED34FFFDEC34FF71
:10260200FCE47BE87A03F9F81232B5C006C0079001
:102612000087E0249CFF900086E034FFAB07FAE4D9
:10262200F9F8D007D006123340E41230FE90004B86
:102632001233F1900063E0FCA3E0FDA3E0FEA3E00F
:10264200FF900073E0F8A3E0F9A3E0FAA3E0FBD364
:102652001233E0E4FFFE7D487C4290004BE0F8A399
:10266200E0F9A3E0FAA3E0FB4034122EDFE4FBFA28
:10267200797A7844122FE8C004C005C006C00790DA
:102682000063E0FCA3E0FDA3E0FEA3E0FFE4123060
:10269200FED003D002D001D000122DEA8032122ED9
:1026A200DFE4FBFA797A7844122FE8C004C005C04F
:1026B20006C007900063E0FCA3E0FDA3E0FEA3E0F8
:1026C200FFE41230FED003D002D001D000122DEE72
:1026D20012313C900057EEF0A3EFF090006FE0FC57
:1026E200A3E0FDA3E0FEA3E0FF900077E0F8A3E003
:1026F200F9A3E0FAA3E0FBD31233E0403490006F79
:10270200E0F8A3E0F9A3E0FAA3E0FB900077E0FC95
:10271200A3E0FDA3E0FEA3E09BFFEE9AFEED99FD90
:10272200EC98FCEF2401FFE43EFEE43DFDE43C8036
:1027320036900077E0F8A3E0F9A3E0FAA3E0FB907B
:10274200006FE0FCA3E0FDA3E0FEA3E0C39BFFEE6D
:102752009AFEED99FDEC98FCEF24FFFFEE34FFFEAC
:10276200ED34FFFDEC34FFFCE47BE87A03F9F81268
:1027720032B5C006C007900085E0249CFF9000841B
:10278200E034FFAB07FAE4F9F8D007D00612334081
:10279200E41230FE9000471233F190006FE0FCA388
:1027A200E0FDA3E0FEA3E0FF900077E0F8A3E0F9EC
:1027B200A3E0FAA3E0FBD31233E0E4FFFE7D487C02
:1027C20042900047E0F8A3E0F9A3E0FAA3E0FB405F
:1027D20034122EDFE4FBFA797A7844122FE8C0042F
:1027E200C005C006C00790006FE0FCA3E0FDA3E0B7
:1027F200FEA3E0FFE41230FED003D002D001D000ED
:10280200122DEA8032122EDFE4FBFA797A78441232
:102812002FE8C004C005C006C00790006FE0FCA30B
:10282200E0FDA3E0FEA3E0FFE41230FED003D002FD
:10283200D001D000122DEE12313C900055EEF0A3E3
:10284200EFF090006BE0FCA3E0FDA3E0FEA3E0FF4D
:1028520090007BE0F8A3E0F9A3E0FAA3E0FBD31237
:1028620033E0401D90006BE0F8A3E0F9A3E0FAA387
:10287200E0FB90007BE0FCA3E0FDA3E0FEA3E08090
:102882001C90007BE0F8A3E0F9A3E0FAA3E0FB9040
:10289200006BE0FCA3E0FDA3E0FEA3E0C39BFFEE20
:1028A2009AFEED99FDEC98FCEF24FFFFEE34FFFE5B
:1028B200ED34FFFDEC34FFFCE47BE87A03F9F81217
:1028C20032B5C006C007900087E0249CFF900086C6
:1028D200E034FFAB07FAE4F9F8D007D00612334030
:1028E200E41230FE90004F1233F190006BE0FCA333
:1028F200E0FDA3E0FEA3E0FF90007BE0F8A3E0F997
:10290200A3E0FAA3E0FBD31233E0E4FFFE7D487CB0
:102912004290004FE0F8A3E0F9A3E0FAA3E0FB4005
:1029220034122EDFE4FBFA797A7844122FE8C004DD
:10293200C005C006C00790006BE0FCA3E0FDA3E069
:10294200FEA3E0FFE41230FED003D002D001D0009B
:10295200122DEA8032122EDFE4FBFA797A784412E1
:102962002FE8C004C005C006C00790006BE0FCA3BE
:10297200E0FDA3E0FEA3E0FFE41230FED003D002AC
:10298200D001D000122DEE12313C900059EEF0A38E
:10299200EFF0900047E0FCA3E0FDA3E0FEA3E0FF20
:1029A200900043E0F8A3E0F9A3E0FAA3E0FB1230C1
:1029B2008560324030E4FFFE7D7A7C44900047E03F
:1029C200F8A3E0F9A3E0FAA3E0FB122DEE90004396
:1029D200E0F8A3E0F9A3E0FAA3E0FB12308560057A
:1029E2004003022AD2900047E0FCA3E0FDA3E0FEF0
:1029F200A3E0FF900043E0F8A3E0F9A3E0FAA3E02C
:102A0200FB123085502EE4FFFE7D7A7CC490004795
:102A1200E0F8A3E0F9A3E0FAA3E0FB122DEE9000A8
:102A220043E0F8A3E0F9A3E0FAA3E0FB12308550FB
:102A320003022AD290004FE0FCA3E0FDA3E0FEA334
:102A4200E0FF90004BE0F8A3E0F9A3E0FAA3E0FB7B
:102A5200123085602F402DE4FFFE7D7A7C44900089
:102A62004FE0F8A3E0F9A3E0FAA3E0FB122DEE9009
:102A7200004BE0F8A3E0F9A3E0FAA3E0FB123085F3
:102A82006002504C90004FE0FCA3E0FDA3E0FEA3E7
:102A9200E0FF90004BE0F8A3E0F9A3E0FAA3E0FB2B
:102AA2001230855045E4FFFE7D7A7CC490004FE0F1
:102AB200F8A3E0F9A3E0FAA3E0FB122DEE90004B9D
:102AC200E0F8A3E0F9A3E0FAA3E0FB123085501A84
:102AD200E490007FF074FFFFFE125B457D327C00C4
:102AE2007F327E001251B5022358900047E0FCA3CA
:102AF200E0FDA3E0FEA3E0FF900043E0F8A3E0F9CD
:102B0200A3E0FAA3E0FB122DEEE4FBFAF9784012FF
:102B12002FE812313C90009DEEF0A3EFF090004FB1
:102B2200E0FCA3E0FDA3E0FEA3E0FF90004BE0F891
:102B3200A3E0F9A3E0FAA3E0FB122DEEE4FBFAF91D
:102B42007840122FE812313C90009FEEF0A3EFF094
:102B5200900055E0FEA3E0FF900054E02FFF9000AC
:102B620053E03EC313FEEF13FF900091EEF0A3EF8C
:102B7200F0900059E0FEA3E0FF900058E02FFF9094
:102B82000057E03EC313FEEF13FF900093EEF0A355
:102B9200EFF074FFFFFE125B45E4900080F0A3F0BB
:102BA200900082F0A3741FF090005BE4F0A37432F3
:102BB200F0A3E4F0A37496F090000C74FFF0A374F9
:102BC2005FF0A374F0F0A37401F07B107D967C009B
:102BD2007F327E0012591990005CE02428F09000A8
:102BE2005BE03400F090009DE0FEA3E0FFE4FCFD1A
:102BF2009000A51233F19000A97406F0A37410F0AE
:102C020090005DE0FCA3E0FD90005BE0FEA3E0FF2E
:102C12001252CD90005BE4F0A37432F090005EE0BB
:102C22002414F090005DE03400F0E0FCA3E0FD909D
:102C3200000C74FFF0A3745FF0A374F4F0A37401AA
:102C4200F07B107F327E0012591990005CE024283C
:102C5200F090005BE03400F090009FE0FEA3E0FF04
:102C6200E4FCFD9000A51233F19000A97406F0A3D4
:102C72007410F090005DE0FCA3E0FD90005BE0FECC
:102C8200A3E0FF1252CD90005BE4F0A37432F09007
:102C9200005EE02414F090005DE03400F0E0FCA35C
:102CA200E0FD90000C74FFF0A3745FF0A374F8F0E1
:102CB200A37401F07B107F327E0012591990005CE0
:102CC200E02428F090005BE03400F0900091E0FEF8
:102CD200A3E0FFE4FCFD9000A51233F19000A9747B
:102CE20006F0A37410F090005DE0FCA3E0FD9000FC
:102CF2005BE0FEA3E0FF1252CD90005BE4F0A37410
:102D020032F090005EE02414F090005DE03400F0B8
:102D1200E0FCA3E0FD90000C74FFF0A3745FF0A34D
:102D220074FDF0A37401F07B107F327E00125919FA
:102D320090005CE02428F090005BE03400F090000A
:102D420093E0FEA3E0FFE4FCFD9000A51233F190B6
:102D520000A97406F0A37410F090005DE0FCA3E0FB
:102D6200FD90005BE0FEA3E0FF1252CD90005BE419
:102D7200F0A3741EF090005EE0241EF090005DE06F
:102D82003400F0E0FCA3E0FD90000C74FFF0A374AB
:102D920060F0A37402F0A37401F07B107F1E7E002A
:102DA20012591990005BE4F0A3741EF090005EE0EB
:102DB200241EF090005DE03400F0E0FCA3E0FD9002
:102DC200000C74FFF0A37460F0A3740DF0A37401FF
:102DD200F07B107F1E7E00125919125D0C74FFFFEA
:042DE200FE125B453D
:012DE60022CA
:0A60B3004200800000420082FFFF5F
:0F621A00C2938FA0AF058F80C291D291D29322F1
:05625100D29202621A66
:0B61DA001261FA90008FE0FEA3E0FFCE
:0B61E500AD07AC06C292ECFF02621A8C
:0A61F000E0FF7E001261FAA3E0FF59
:0B61FA00AD07AC06D292ECFF02621A67
:0E622900AB05AA041261E5AE02AF030261FAF2
:0B62370090008BE0FEA3E0FF0261E599
:085B45009000BEEEF0A3EFF0AA
:105B4D00A31233FD00000000900085E024FFFB90C0
:105B5D000084E034FFFA900087E024FFFE90008679
:105B6D00E034FF900041F0A3CEF0E4FDFCFFFE1207
:105B7D006028D292C2939000C01233FD0000000045
:105B8D00900086E0FCA3E0FD900084E0FEA3E0FF22
:105B9D00123203E4FCFD9000C0E0F8A3E0F9A3E0AD
:105BAD00FAA3E0FBC31233E050349000BEE0FCA337
:105BBD00E0FDECF580C291D2918D80C291D291A37E
:105BCD00E0FCA3E0FDA3E0FEA3E02401FFE43EFE24
:105BDD00E43DFDE43CFC9000C01233F180A2D29371
:015BED002295
:10615100125ECAC293D290D292900080E0FCA3E07A
:10616100FDECF580C291D2918D80C291D291D293F2
:01617100220B
:10617200AD07AC06C293D290D292ECF580C291D216
:0C61820091AF058F80C291D291D2932280
:10618E00D2B37F327E001260BEC2B37F327E001267
:0B619E0060BED2B37F327E000260BE04
:1049DB0012618ED2907FF17E001261E57F361261FB
:1049EB00FA7F041261FAE4FF1261FA7F3C1261FA5A
:1049FB007F0F1261FA7F8F1261FA7FF21261E57FEE
:104A0B00181261FA7FA31261FA7F121261FA7F0208
:104A1B001261FA7FB21261FA7F121261FA7FFF12F2
:104A2B0061FA7F101261FAE4FF1261FA7FF81261EA
:104A3B00E57F211261FA7F041261FA7FF91261E5B9
:104A4B00E4FF1261FA7F081261FA7F361261E57F8B
:104A5B00081261FA7FB41261E5E4FF1261FA7FB6C6
:104A6B001261E57F021261FA7F221261FA7FC11295
:104A7B0061E57F411261FA7FC51261E5E4FF1261C6
:104A8B00FA7F181261FA7FE01261E57F0F1261FA6B
:104A9B007F1F1261FA7F1C1261FA7F0C1261FA7F81
:104AAB000F1261FA7F081261FA7F481261FA7F9840
:104ABB001261FA7F371261FA7F0A1261FA7F1312C1
:104ACB0061FA7F041261FA7F111261FA7F0D126194
:104ADB00FAE4FF1261FA7FE11261E57F0F1261FACE
:104AEB007F321261FA7F2E1261FA7F0B1261FA7F0D
:104AFB000D1261FA7F051261FA7F471261FA7F7519
:104B0B001261FA7F371261FA7F061261FA7F101277
