:020000040800F2
:10000000E00600202D3200083532000837320008A3
:10001000393200083B3200083D3200080000000081
:100020000000000000000000000000003F32000857
:100030004132000800000000433200084532000849
:1000400047320008473200084732000847320008AC
:10005000473200084732000847320008473200089C
:10006000473200084732000847320008473200088C
:10007000473200084732000847320008473200087C
:10008000473200084732000847320008473200086C
:10009000473200084732000847320008473200085C
:1000A000473200084732000847320008473200084C
:1000B000473200084732000847320008473200083C
:1000C000473200084732000847320008473200082C
:1000D000473200084732000847320008473200081C
:1000E000473200084732000847320008473200080C
:1000F00047320008473200084732000847320008FC
:1001000047320008473200084732000847320008EB
:1001100047320008473200084732000847320008DB
:1001200047320008473200084732000847320008CB
:1001300000F002F800F03AF80AA090E8000C8244BF
:100140008344AAF10107DA4501D100F02FF8AFF29C
:10015000090EBAE80F0013F0010F18BFFB1A43F0A5
:1001600001031847186B0000386B0000103A24BFD9
:1001700078C878C1FAD8520724BF30C830C144BF0C
:1001800004680C607047000000230024002500264E
:10019000103A28BF78C1FBD8520728BF30C148BFEA
:1001A0000B6070471FB51FBD10B510BD03F088FF71
:1001B0001146FFF7F7FF00F008F803F0A6FF03B4BD
:1001C000FFF7F2FF03BC03F0A7FF01F043FA01F0D1
:1001D0001DFD0FE000F053F800F08FF800F036F945
:1001E00000F0F8F900F0DAFA00F018FB00F053FB29
:1001F00000F09DFBEEE700003EB504461F20009096
:10020000FE48028814230021084600F04FFD1F20FD
:100210000090FA48438802884088143881B2002050
:1002200000F044FD4FF6FF70F549088001201021D1
:100230001F234FF6FF72CDE90041029002210020FA
:1002400001F0B6F901201021EEA2CDE900210290C3
:10025000EA484088123881B21F234FF6FF7200200F
:1002600001F0A6F900200090E4484088143883B2D9
:10027000E24802881421002000F018FD3EBD0EB5B2
:10028000E4A0FFF7B9FF01201021E8A21F23CDE968
:1002900000210290DA021E21002001F089F90120DC
:1002A0001021E5A21F23CDE900210290DA023C21B2
:1002B000002001F07DF901201021E3A21F23CDE9E8
:1002C000002102904FF6E0725A21002001F070F9EF
:1002D00001201021E2A21F23CDE9002102901A463D
:1002E0007821002001F064F940F2DC5001F0EFF9D0
:1002F00040F2DC5001F0EBF90EBD0EB5DEA0FFF7C9
:100300007BFF4FF6FF700090BC484088143883B2E2
:10031000BA4802881421002000F0C8FC01201021F6
:10032000DAA2CDE900210290B4490988323988B2B5
:100330004FF6E0731F221E2101F0A8F84FF4FA7067
:1003400001F0C5F900200090AC484088143883B211
:10035000AA4802881421002000F0A8FC01201021E6
:10036000CCA2CDE900210290A4490988323988B293
:100370004FF6E0731F221E2101F088F84FF4FA7047
:1003800001F0A5F94FF4784000909C48408814385B
:1003900083B29A4802881421002000F087FC0120D3
:1003A0001021BEA2CDE9002102909449098832397A
:1003B00088B24FF6E0731F221E2101F067F84FF458
:1003C000FA7001F084F94FF4FC6000908B4840888B
:1003D000143883B2894802881421002000F066FC9A
:1003E00001201021AEA2CDE90021029083490988A5
:1003F000323988B24FF6E0731F221E2101F046F811
:100400004FF4FA7001F063F91F2000907B48408898
:10041000143883B2794802881421002000F046FC89
:1004200001201021A0A2CDE9002102907349098882
:10043000323988B24FF6E0734FF6FF721E2101F099
:1004400025F84FF4FA7001F042F90EBD2DE9F8439A
:10045000002497A0FFF7D0FE4FF6FF70009067488A
:100460004088143883B2654802881421002000F0C7
:100470001DFC00BF48E0DFF884C1BCF8025005EB6A
:10048000D57C4FEA6C0CACF1500CC4EB0419CC4495
:100490000CF13C0C1FFA8CF3DFF860C1BCF8006073
:1004A00006EBD67C4FEA6C0CACF1500CC4EB041993
:1004B000CC440CF13C0C1FFA8CF2DFF840C1BCF8C4
:1004C000027007EBD77C4FEA6C0CACF1500CC4EB1C
:1004D0000419CC441FFA8CF1DFF820C1BCF800806D
:1004E00008EBD87C4FEA6C0CACF1500CC4EB04194F
:1004F000CC441FFA8CF000F065FC734830F814000F
:100500003F490880601CC4B2052CB4DB40F2DC50CB
:1005100001F0DDF84FF6FF7000903848408814383D
:1005200083B2364802881421002000F0BFFB00246B
:1005300048E0DFF8C8C0BCF8027007EBD77C4FEA90
:100540006C0CACF1500CC4EB0419CC440CF13C0C19
:100550001FFA8CF3DFF8A4C0BCF8005005EBD57C83
:100560004FEA6C0CACF1500CC4EB0419CC440CF108
:100570003C0C1FFA8CF2DFF884C0BCF8028008EB58
:10058000D87C4FEA6C0CACF1500CC4EB0419CC4491
:100590001FFA8CF1DFF864C0BCF8006006EBD67C73
:1005A0004FEA6C0CACF1500CC4EB0419CC441FFAAC
:1005B0008CF000F027FC444830F814001049088003
:1005C000601CC4B2052CB4DB40F2DC5001F07FF8B3
:1005D000BDE8F883F8B500243CA0FFF70DFE4FF608
:1005E000FF70009005484088143883B203480288A1
:1005F0001421002000F05AFB00BF93E0700000209F
:1006000024000020D6D0BEB0D4B0B0E6C8A8CBF944
:10061000D3D02000D6D0BEB0D4B0B5E7D7D3D7DB87
:10062000BACFB2E2CAD4B3CCD0F20000D6D0BEB0BA
:10063000D4B0B5E7D7D30000D7DBBACFB2E2CAD483
:10064000B3CCD0F200000000332E322720494C49B1
:100650003933343120323430583332300000000026
:10066000D6D0BEB0D4B0B5E7D7D320323031342D98
:1006700030352D3035000000B2E2CAD4313AB4BF73
:10068000C9ABCCEEB3E4B2E2CAD4000057686974D7
:1006900065000000426C61636B00000052656400FD
:1006A000477265656E000000426C756500000000D1
:1006B000B2E2CAD4323A475549BED8D0CECCEEB316
:1006C000E4B2E2CAD400000000000020B2E2CAD4C2
:1006D000333A475549BBADD4B2CCEEB3E4B2E2CA2B
:1006E000D40000000020F84B00905D8805EBD57326
:1006F0005B10323B04EBC40707EB0417D919F24B2C
:100700001E8806EBD6735B10503B04EBC40707EB67
:100710000417D819ED4B33F814201E2300F0C3FB47
:10072000601CC4B2052CDDDB40F2DC5000F0CFFFD2
:100730004FF6FF700090E4484088143883B2E248D6
:1007400002881421002000F0B1FA00241FE00120EB
:10075000DD4B00905D8805EBD5735B10323B04EBFD
:10076000C40707EB0417D919D74B1E8806EBD673BD
:100770005B10503B04EBC40707EB0417D819D34BAD
:1007800033F814201E2300F08EFB601CC4B2052C2D
:10079000DDDB40F2DC5000F09AFFF8BD08B5CCA0DC
:1007A000FFF72AFD4FF47840CE4908801F20CE493C
:1007B00008800020CDA30C221E2100900A2000F00A
:1007C00049FC0120D4A30C222D2100900A2000F026
:1007D00041FC0020DBA30C223C2100900A2000F009
:1007E00039FC0020DFA31022502100900A2000F0E5
:1007F00031FC0120E6A31022642100900A2000F0C1
:1008000029FC0020EDA31022782100900A2000F09E
:1008100021FC4FF4966000F05AFF08BD0EB5EFA022
:10082000FFF7EAFC00201021F1A24FF6E073CDE9BA
:10083000002102901F221E210A2000F027FE012025
:100840001021F4A24FF6E073CDE9002102901F229F
:1008500032210A2000F01AFE01201821F2A24FF6E0
:10086000E073CDE9002102901F2246210A2000F00A
:100870000DFE01202021F2A24FF6E073CDE9002108
:1008800002901F2264210A2000F000FE4FF49660BF
:1008900000F01DFF0EBD0EB5EDA0FFF7ADFC4FF64D
:1008A000FF70009088484088143883B286480288D8
:1008B0001421002000F0FAF9EA4A1E21084600F04F
:1008C00099FE01201021E8A24FF6E073CDE9002146
:1008D00002901F224B212A2000F0D8FDE14A1E2160
:1008E0005A2000F087FE01201021DFA24FF6E073AE
:1008F000CDE9002102901F224B21662000F0C6FDA9
:10090000D84A1E21962000F075FE01201021D6A2A3
:100910004FF6E073CDE9002102901F224B21A22067
:1009200000F0B4FD4FF4966000F0D1FE0EBD08B5A6
:1009300000250026002702F0F6FB00F0E5FF01F09D
:1009400090FFCAA0FFF758FC01205F49009009887A
:10095000183988B2C9A31022002100F07BFB4FF4A4
:1009600078405949009009881E398AB25649098849
:10097000343988B21223022100F098F94FF47840FC
:100980005849088083E100F0D9FF0446BC4841681B
:1009900000208847BA48007D00F08000002879D008
:1009A000B748008A48490988884276DAB448408ABC
:1009B00045494988884270DAB148018A424800882E
:1009C0001838814222DDAE48408A10281EDAA7A0DE
:1009D000FFF712FC01203C4900900988183988B2C1
:1009E000A6A31022002100F035FB3E4807800088B6
:1009F0003549009009881E398AB23349098834394B
:100A000088B21223022100F051F946E09C48018A85
:100A10002D4800883C38814234DD9948018A2A48B3
:100A200000881E3881422DDA9548408A142829DA38
:100A3000052096FBF0F100FB1160244931F810808D
:100A40002149CDF8008009881E398AB21E490988DB
:100A5000343988B21223022100F028F93046711C83
:100A60008EB2052190FBF1F201FB1200174931F81B
:100A700010001C490880084607880A2000F027FE5D
:100A80000BE007E07E4A518A108A164A128801F06C
:100A900016FD02E00A2000F01AFE012C08D14FF6E4
:100AA000FF7000F0FBFF01F0A0FD70A0FFF7A4FBBA
:100AB000681CC5B2142D06D100257248006808B91B
:100AC0000120E2E0E0E0E2E0700000200000002011
:100AD000B2E2CAD4343AD3A2CEC4CFD4CABEB2E2B0
:100AE000CAD40000240000202600002036583132ED
:100AF0003A6162636465666768696A6B6C6D6E6FA4
:100B0000707172737475767778797A3031323334E4
:100B10003536373839000000365831323A414243D1
:100B20004445464748494A4B4C4D4E4F505152530D
:100B30005455565758595A30313233343536373880
:100B400039000000365831323A7E21402324255E98
:100B5000262A28295F2B7B7D3A3C3E3F2F7C2D2B7C
:100B60002E000000385831363A616263646566676A
:100B700068696A6B6C6D6E6F70717273747576777D
:100B800078797A30313233343536373839000000ED
:100B9000385831363A4142434445464748494A4B22
:100BA0004C4D4E4F505152535455565758595A3038
:100BB0003132333435363738390000003858313661
:100BC0003A7E21402324255E262A28295F2B7B7D1F
:100BD0003A3C3E3F2F7C2D2B2E000000B2E2CAD4BF
:100BE000353AD6D0CEC4CFD4CABEB2E2CAD4000001
:100BF00031365831363AD6D0BEB0D4B0B5E7D7D3B7
:100C0000BCBCCAF5D3D0CFDEB9ABCBBEBBB6D3AD7F
:100C1000C4FA000031365831363A57656C636F6D4F
:100C200065D6D0BEB0D4B00032345832343AC9EEB2
:100C3000DBDACAD0D6D0CEC4B2E2CAD400000000FB
:100C400033325833323AD7D6CCE5B2E2CAD40000B8
:100C5000B2E2CAD4363ACDBCC6ACCFD4CABEB2E238
:100C6000CAD40000564B000851510000B2E2CAD469
:100C7000373A546F756368B2E2CAD40052535400D5
:100C80002C000020A00121420020014908607AE6E2
:100C9000A001214270B505460E461446314628464D
:100CA00000F0A0FE204600F08CFE70BD2DE9F84F4C
:100CB00006460F4614461D46DDF82890A01B401C32
:100CC0001FFA80FAE81B401C1FFA80FB0BFB0AF09E
:100CD0000090681E83B2601E82B23946304600F032
:100CE000B7FE4FF0000804E0F748A0F8009008F1C4
:100CF000010800988045F7D3F4484088401E83B22D
:100D0000F2480088401E82B20021084600F0A0FE92
:100D1000BDE8F88F2DE9FF4F85B081468A46002057
:100D2000049003900798A0EB09050898A0EB0A0629
:100D3000CDF80890CDF804A0002D01DD012705E0D5
:100D40000DB9002702E04FF0FF376D42002E02DDA3
:100D50004FF0010806E016B94FF0000802E04FF02E
:100D6000FF387642B54201DD2C4600E034464FF0B4
:100D7000000B21E0019A91B2029A90B200F05CFE61
:100D80000498284404900398304403900498A042A7
:100D900005DD0498001B04900298384402900398E3
:100DA000A04205DD0398001B039001984044019088
:100DB0000BF101001FFA80FB601C8345DADD09B0EE
:100DC000BDE8F08F2DE9F04104460D4616461F465A
:100DD0002B46324629462046FFF79CFF3B462246DB
:100DE00029462046FFF796FF3B46324639462046C5
:100DF000FFF790FF3B46324629463046FFF78AFF11
:100E0000BDE8F081F8B504460D4616461F46B048C9
:100E100000883B463246294600902046FFF746FFB1
:100E2000F8BD2DE9F04104460D4616461F46DDF893
:100E30001880EA1991B2A21990B24246FFF72AFF30
:100E4000EA1991B2A21B90B24246FFF723FFEA1BB8
:100E500091B2A21990B24246FFF71CFFEA1B91B271
:100E6000A21B90B24246FFF715FFAA1991B2E219F0
:100E700090B24246FFF70EFFAA1991B2E21B90B260
:100E80004246FFF707FFAA1B91B2E21990B2424611
:100E9000FFF700FFAA1B91B2E21B90B24246FFF798
:100EA000F9FEBDE8F0812DE9FF4F81B0824617467B
:100EB0009846DDF838B0002445464FEA4800C0F1B6
:100EC0000306BBF1000F1FD01BE0A14608E04B4614
:100ED0002246009750460299FFF7A3FF09F1010946
:100EE000A945F4DD002E04DA042000FB0460861D11
:100EF00006E0601B042101FB006000F10A066D1E84
:100F0000641CAC42E1DD18E015E02B462246009758
:100F100050460299FFF785FF002E04DA042000FBFB
:100F20000460861D06E0601B042101FB006000F1E7
:100F30000A066D1E641CAC42E7DD05B0BDE8F08F0B
:100F40002DE9FF4F83B081468A469346DDE9106460
:100F50005F4800880290A6F12000C6B204EBD4706E
:100F600009EB6000401E82B20AEB0400401E83B20F
:100F700051464846019400F06BFD129850BB002585
:100F800025E00C2C07D106EB4600524901EB80000E
:100F900010F8058004E0504800EB061010F80580BA
:100FA00000270DE008F0010018B1584600F009FDD7
:100FB00002E0069800F005FD4FEA6808781CC7B209
:100FC00004EBD471B7EB610FECDB681CC5B2A54232
:100FD000D7DB2DE0002529E00C2C07D106EB4600DD
:100FE0003C4901EB800010F8058004E03A4800EB32
:100FF000061010F80580002711E03548A0F800B071
:1010000008F0010038B10AEB050291B209EB0702C2
:1010100090B200F011FD4FEA6808781CC7B204EBEB
:10102000D471B7EB610FE8DB681CC5B2A542D3DB16
:1010300027490298088025484088401E83B22348EB
:101040000088401E82B20021084600F001FD07B072
:10105000BDE8F08F2DE9FE4306460F4615461C46B7
:10106000DDF828801DE019480088401EB04204DBEE
:1010700016484088401EB84201DABDE8FE83207859
:101080008DE8210115480388114802883946304609
:10109000FFF756FF284605EBD07106EB61018EB2D3
:1010A000641C20787E2802DC20782028DBDA00BF50
:1010B000E3E710B50246012000E050430B00A1F128
:1010C0000104E1B2F9D110BD0008006C70000020ED
:1010D00024000020D65700084A5C000826000020A3
:1010E0002DE9FF4F83B0074691461E46109C4FF0F6
:1010F000000A002543E0701B401EC1B20A20FFF722
:10110000D8FFB9FBF0F00A21B0FBF1F201FB1208A5
:10111000BAF1000F1BD1701EA84218DDB8F1000F04
:1011200013D100202021A346CDE90014029004EB46
:10113000DB71491001FB057188B2FD490B88FD493F
:101140000A880499FFF7FCFE17E04FF0010A00211E
:1011500008F13000C0B2A346CDE90141009004EB94
:10116000DB71491001FB057188B2F1490B88F14927
:101170000A880499FFF7E4FE00BF681CC5B2B542B7
:10118000B9DB07B0BDE8F08F2DE9FC5F0546884666
:1011900091469A46DDF830B000952B20019000244E
:1011A0005FE004EB0410E44911F810009BF8001014
:1011B000884253D104EB0410DF4901EB4000407832
:1011C0009BF80110884249D108F10F0083B205F164
:1011D0000F0082B24146284600F03AFC00263BE070
:1011E000002734E00D9890B904EB0410D24901EBCC
:1011F0004000801C805D80213941084018B148467C
:1012000000F0DFFB21E0504600F0DBFB1DE0C948A9
:10121000A0F8009004EB0410C74901EB4000801CCB
:10122000805D80213941084018B14146284600F0D0
:1012300003FC681C85B20098281A102805D1009D6F
:1012400008F101001FFA80F803E0781CC7B2082FEC
:10125000C8DB00BF701CC6B2202EC1DB00BF601C03
:1012600084B2019884429CDBB4484088401E83B21B
:10127000B2480088401E82B20021084600F0E8FB18
:10128000BDE8FC9F2DE9FC5F0546884691469A46DD
:10129000DDF830B0009507200190002467E004EBF2
:1012A000840000EB4410A64911F810009BF80010D0
:1012B000884259D104EB840000EB4410A04901EBB3
:1012C000400040789BF8011088424DD108F117008A
:1012D00083B205F1170082B24146284600F0B8FB00
:1012E00000263FE0002738E00D98A0B904EB840009
:1012F00000EB4410924901EB4000801C805D80218E
:101300003941084018B1484600F05BFB23E05046E5
:1013100000F057FB1FE08748A0F8009004EB840022
:1013200000EB4410864901EB4000801C805D802169
:101330003941084018B14146284600F07DFB681C41
:1013400085B20098281A182805D1009D08F10100DF
:101350001FFA80F803E0781CC7B2082FC4DB00BF77
:10136000701CC6B2482EBDDB00BF601C84B2019861
:10137000844294DB71484088401E83B26F480088E5
:10138000401E82B20021084600F062FBBDE8FC9FCF
:101390002DE9FC5F0546884691469A46DDF830B057
:1013A00000950420019000245FE004EB841065495F
:1013B00011F810009BF80010884253D104EB841000
:1013C000604901EB400040789BF80110884249D108
:1013D00008F11F0083B205F11F0082B24146284682
:1013E00000F036FB00263BE0002734E00D9890B972
:1013F00004EB8410534901EB4000801C805D802188
:101400003941084018B1484600F0DBFA21E0504667
:1014100000F0D7FA1DE04748A0F8009004EB8410D4
:10142000484901EB4000801C805D80213941084023
:1014300018B14146284600F0FFFA681C85B20098B2
:10144000281A202805D1009D08F101001FFA80F814
:1014500003E0781CC7B2082FC8DB00BF701CC6B2FF
:10146000802EC1DB00BF601C84B2019884429CDBEB
:1014700032484088401E83B230480088401E82B205
:101480000021084600F0E4FABDE8FC9F2DE9FF4F7B
:1014900083B0064688469146DDE91147109DB24665
:1014A0004FF0000B7EE0BBF1000F4DD104EBD47187
:1014B000224A1288A2EB6101B14204DB1F4949882C
:1014C000091B414502DA07B0BDE8F08F2878802873
:1014D00002DD4FF0010B65E028780D2806D108EBFE
:1014E00004001FFA80F856466D1C1EE0102C0DDD1E
:1014F000102128788DE883004A4641463046069BF5
:10150000FFF71EFD06F1080086B20EE028788DE890
:1015100091004A4641463046069BFFF711FD2046A2
:1015200004EBD07106EB61018EB26D1C3AE0000055
:1015300026000020240000203A62000870000020ED
:10154000F0670008F669000841480088001BB042B7
:1015500004DB3F484088001B404500DAB3E74FF00A
:10156000000B202C08D1CDE900574A4641463046B1
:10157000069BFFF70DFF12E0182C08D1CDE90057AC
:101580004A4641463046069BFFF77CFE07E0CDE920
:1015900000574A4641463046069BFFF7F5FDAD1C15
:1015A000301986B2287800287FF47DAF00BF8AE723
:1015B0002DE9FF4F83B004460F469046DDE9119AAE
:1015C000109D284602F046FD86B221490988A1EB0C
:1015D000C60000EBD071C1F34F0B04EB0B0188B2D6
:1015E0008DE8200642463946069BFFF74FFF07B0BD
:1015F000BDE8F08F2DE9F04706460F46154607F186
:10160000270083B206F1270082B23946304600F047
:101610001FFA00240AE015F8149005EB440090F836
:10162000018049EA082000F0C8F9641CB4F5C86FCD
:10163000F1DB07484088401E83B205480088401E01
:1016400082B20021084600F003FABDE8F0870000EE
:101650007000002010B56FF0040001F056FE2E4817
:1016600000682E49B0FBF1F02D490870084600785B
:1016700000EB4001C1EBC0104FF6FF7101EAC00062
:101680002849088010BD0146254A12784A434FF088
:10169000E0235A6100229A611A46126942F001025F
:1016A0001A6100BF4FF0E022106900F001021AB188
:1016B00000F48032002AF5D04FF0E022126922F0C7
:1016C00001024FF0E0231A6100229A61704701463F
:1016D000144A12884A434FF0E0235A6100229A616B
:1016E0001A46126942F001021A6100BF4FF0E0226F
:1016F000106900F001021AB100F48032002AF5D01E
:101700004FF0E022126922F001024FF0E0231A614B
:1017100000229A61704700001000002000127A0039
:101720000A0000200C0000200CB500200190009061
:101730006C48006840F480306A49086000BF69481E
:10174000006800F4003000900198401C019000985F
:1017500018B90198B0F5A06FF1D16248006800F4A3
:10176000003010B10120009001E0002000900098AE
:10177000012843D15C48006840F010005A490860D5
:101780000846006820F0030008600846006840F042
:101790000200086053484068524948600846406863
:1017A00048600846406840F48060486008464068E9
:1017B00020F47C1048600846406840F4E810486017
:1017C0000846006840F08070086000BF4548006827
:1017D00000F000700028F9D04248406820F0030073
:1017E000404948600846406840F00200486000BF39
:1017F0003C48406800F00C000828F9D10CBD10B539
:10180000FFF792FF10BD10B53648006840F00100A8
:101810003449086008464068344908403149486006
:1018200008460068324908402E49086008460068AA
:1018300020F4802008600846406820F4FE004860DC
:101840004FF41F008860FFF7DAFF4FF0006029496E
:10185000086010BD10B5002100200022214B5B68FC
:1018600003F00C0121B1042906D0082928D107E092
:10187000214B224C236027E01F4B204C236023E0A8
:10188000184B5B6803F47010164B5B6803F48032EE
:10189000022303EB904022B9194B4343174C2360BA
:1018A0000DE0104B5B6803F4003323B1144B43434A
:1018B000124C236003E0104B4343104C236003E0C1
:1018C0000D4B0E4C236000BF00BF064B5B68C3F39B
:1018D00003130C4CE15C094B1B68CB40074C2360A5
:1018E00010BD000000100240002002400000FFF880
:1018F000FFFFF6FE08ED00E000127A001000002065
:1019000000093D001400002008B50121442002F028
:1019100037F81C20ADF8000048208DF80300694618
:10192000224801F071FD0120ADF8000028208DF85B
:10193000030069461E4801F067FD08BD10B510217F
:101940001A4801F0F4FD78B10821184801F0EFFDC4
:1019500050B10421154801F0EAFD28B101211448D5
:1019600001F0E5FD01281FD10A20FFF7B0FE10218C
:101970000E4801F0DCFD08B9012010BD08210B481C
:1019800001F0D5FD08B90220F7E70421074801F06E
:10199000CEFD08B90320F0E70121054801F0C7FD9D
:1019A000012801D10420E8E70020E6E70018014003
:1019B00000080140FE4908807047FD49891C0880E5
:1019C000704700B502461046FFF7F7FF00BDF84A22
:1019D0001080921C1180704700B5F6490889FFF706
:1019E000E9FF00BD00B502460B46F2494889FFF702
:1019F000E1FF1012FFF7E1FFD0B2FFF7DEFF511C4D
:101A00000812FFF7DAFF511C88B2FFF7D6FFE94949
:101A10008889FFF7CFFF1812FFF7CFFFD8B2FFF783
:101A2000CCFF591C0812FFF7C8FF591C88B2FFF7FA
:101A3000C4FFFFF7D1FF00BD30B504460D4629466F
:101A40002046FFF7CFFFDC480088FFF7B6FF30BD28
:101A500030B504460D46D7494889FFF7ABFF201241
:101A6000FFF7ABFFE0B2FFF7A8FF1012FFF7A5FFEB
:101A7000D0B2FFF7A2FFCF498889FFF79BFF28125A
:101A8000FFF79BFFE8B2FFF798FF1812FFF795FFEB
:101A9000D8B2FFF792FFFFF79FFF30BD30B5044685
:101AA0000025C4484088401E83B2C2480088401EBA
:101AB00082B200210846FFF7CBFF00BF03E0BC481D
:101AC000801C04806D1CB5F5163FF8D330BD00B501
:101AD0009FB00121080201F046FF012140F2691088
:101AE00001F04EFF0120ADF8780010208DF87B004A
:101AF00003208DF87A001EA9B04801F085FC4CF255
:101B00003370ADF8780018208DF87B0003208DF835
:101B10007A001EA9AA4801F077FC4FF68070ADF854
:101B2000780018208DF87B0003208DF87A001EA91C
:101B3000A44801F069FC41F20100ADF878001820DA
:101B40008DF87B0003208DF87A001EA99E4801F0D5
:101B50005BFC01200890002009900F200A900020D3
:101B60000B900C900D900E9002200190002002909E
:101B70000520039000200490059006900790062011
:101B80000F900020109011901020129000201390C0
:101B900015901490169017904FF4805018900020D4
:101BA00019904FF480401A9000201B9008A81C90B8
:101BB00001A81D900FA801F093FF0121062002F05B
:101BC000F7F81FB000BD10B520208049486164209F
:101BD000FFF77DFD20207D4908613220FFF777FD6A
:101BE00010BD00B52A20734948812B2088812C2004
:101BF0000881012088714FF4F07008804FF4A070C4
:101C00004880A8213620FFF7E2FE00BD10B5FFF79F
:101C10005EFFFFF7D8FFF120FFF7CCFE3620FFF77D
:101C2000CCFE0420FFF7C9FE0020FFF7C6FE3C20D3
:101C3000FFF7C3FE0F20FFF7C0FE8F20FFF7BDFEAA
:101C4000F220FFF7B7FE1820FFF7B7FEA320FFF73B
:101C5000B4FE1220FFF7B1FE0220FFF7AEFEB22065
:101C6000FFF7ABFE1220FFF7A8FEFF20FFF7A5FE4F
:101C70001020FFF7A2FE0020FFF79FFEF820FFF7DD
:101C800099FE2120FFF799FE0420FFF796FEF92028
:101C9000FFF790FE0020FFF790FE0820FFF78DFE73
:101CA000E020FFF787FE0020FFF787FE1020FFF7F8
:101CB00084FE0F20FFF781FE0E20FFF77EFE11202D
:101CC000FFF77BFE0A20FFF778FE4420FFF775FE42
:101CD0007720FFF772FE3820FFF76FFE0820FFF72E
:101CE0006CFE1320FFF769FE0520FFF766FE0B2050
:101CF000FFF763FE0220FFF760FE0020FFF75DFEA6
:101D0000E120FFF757FE0F20FFF757FE3B20FFF7BC
:101D100054FE3920FFF751FE0D20FFF74EFE0F2035
:101D2000FFF74BFE0520FFF748FE5320FFF745FE67
:101D30004320FFF742FE3D20FFF73FFE0520FFF75F
:101D40003CFE0F20FFF739FE0420FFF736FE23206C
:101D5000FFF733FE1F20FFF730FE0F20FFF72DFEA9
:101D60003620FFF727FE0820FFF727FE3A20FFF76F
:101D700021FE5520FFF721FEB120FFF71BFEB0200A
:101D8000FFF71BFE1120FFF718FEB420FFF712FE2D
:101D90000220FFF712FEB620FFF70CFE0020FFF72F
:101DA0000CFE4220FFF709FE3B20FFF706FE0FE086
:101DB000FE07006C7000002024000020000C014091
:101DC00000140140001801400020014000100140B3
:101DD000B720FFF7EFFDC620FFF7EFFDC020FFF7AC
:101DE000E9FD0520FFF7E9FD0520FFF7E6FDC1202D
:101DF000FFF7E0FD4120FFF7E0FD0020FFF7DDFDEC
:101E0000C220FFF7D7FD2220FFF7D7FDC520FFF73F
:101E1000D1FD0020FFF7D1FD3120FFF7CEFD80205E
:101E2000FFF7CBFD1120FFF7C5FD7820FFF74FFC32
:101E30002920FFF7BFFDFFF7D4FE0120034908600A
:101E40004FF6FF70FFF72AFE10BD0000808121428F
:101E500008B50121082001F093FDC020ADF8000075
:101E600010208DF8030003208DF802006946904889
:101E700001F0CAFAC0218E4801F073FB08BD10B50D
:101E80008B48006820F07040894908600846006867
:101E900040F0405008600120864908608649C1F83A
:101EA00098010420FFF7EFFB00208249086004201E
:101EB000FFF7E9FB00208049C1F8980110BD10B57B
:101EC0007B48006820F07040794908600846006847
:101ED00040F04050086000207649091F08607649AC
:101EE000C1F89C010420FFF7CEFB01207149091FB6
:101EF00008607149C1F89C010420FFF7C4FB10BDC4
:101F000010B500246A48006820F0704068490860F5
:101F10000846006840F000400860012065490860FC
:101F2000FFF7B1FB01206449C1F89801FFF7ABFB53
:101F300007E0601CC4B2FA2C03DDFFF7C0FF0120EC
:101F400010BD5C48803800680028F2D15949091F4B
:101F5000086000BFF4E710B500205649091F08606B
:101F60005348006820F070405149086008460068F6
:101F700040F04050086000204F49C1F89C01022009
:101F8000FFF781FB01204B49091F08600220FFF782
:101F90007AFB00204849C1F8980110BD10B5002017
:101FA0004449091F08604248006820F070404049D9
:101FB00008600846006840F04050086001203E4933
:101FC000C1F89C010220FFF75EFB01203949091F7F
:101FD00008600220FFF757FB00203749C1F898013D
:101FE00010BD70B504463248006820F0704030499A
:101FF00008600846006840F04050086000202D4905
:10200000091F086000251DE0E00918B101202949D9
:10201000086002E00020274908606006040E0220E4
:10202000FFF731FB01202349091F08600220FFF759
:102030002AFB00202049C1F898010220FFF723FB6A
:10204000681CC5B2082DDFDB70BD70B505460024E5
:102050001748006820F0704015490860084600687D
:1020600040F000400860002617E000201149091FD9
:1020700008600220FFF707FB01200F49C1F8980113
:102080006006040E0B488038006808B1601CC4B2BA
:102090000120FFF7F8FA701CC6B2082EE5DB15B96F
:1020A000FFF77CFF01E0FFF756FF204670BD000000
:1020B000000C01409C8121420080214210B5FFF7B5
:1020C000C7FE10BD70B504460026FFF7D8FE2546B2
:1020D000E11704EB11610912A02202EB4101C8B221
:1020E000FFF77FFFFFF70CFFE11704EB1161091207
:1020F000A4EB0121C8B2FFF774FFFFF701FFFFF760
:10210000BEFEA120FFF76DFFFFF7FAFE0020FFF7EC
:102110009CFF0646FFF7D3FE304670BD70B50446FF
:102120000E46FFF7ACFE2546E11704EB11610912DC
:10213000A02202EB4101C8B2FFF753FFFFF7E0FE18
:10214000E11704EB11610912A4EB0121C8B2FFF7FA
:1021500048FFFFF7D5FE3046FFF743FFFFF7D0FEFD
:10216000FFF7ADFE42F21070FFF78DFA70BD2DE95A
:10217000F04105460E461746002409E0E20026FA23
:1021800002F2D1B22A1990B2FFF7C8FF601CC4B2A4
:10219000BC42F3DBBDE8F0812DE9F04107460C4677
:1021A0000026002509E036023919491B491E88B26C
:1021B000FFF788FF0644681CC5B2A542F3DB304632
:1021C000BDE8F08110B5FF20FFF77CFF0446552CD9
:1021D00001D1002010BD5521FF20FFF79FFFFF20F8
:1021E000FFF770FF0446552C01D10020F2E70120D3
:1021F000F0E770B506460C46154608E03046721CFE
:1022000096B2FFF75FFF04F8010B681E85B2002D40
:10221000F4D170BD70B505460C46164606E021782F
:102220002846FFF77BFF681C85B2641C3000A6F1CE
:1022300001018EB2F3D170BD002100BF14E000F0A7
:1022400080021AB10122FE4B1A6002E00022FC4B10
:102250001A604206100E0022FA4B1A600122FA4B55
:10226000C3F884214A1CD1B20829E8DB704770B555
:102270000646002500240020F2490860F349C1F811
:10228000A401EF49083108603046FFF7D5FF06206A
:10229000FFF7F9F90020EC49C1F884010120FFF7AC
:1022A000F2F90120E74908600020E749C1F88401FC
:1022B00000BF12E04FF6FF7000EA44040020E1493D
:1022C00008600120E049C1F88401DE487C380068DC
:1022D00008B1601C84B2681CC5B2102DEADB241161
:1022E0000120D74908310860204670BD2DE9FE4322
:1022F00080460027002406E04046FFF7B8FF2DF88F
:102300001400601C84B2052CF6DB002416E0601C6F
:1023100085B20FE03DF814003DF81510884207DD46
:102320003DF814603DF815002DF814002DF81560E7
:10233000681C85B2052DEDDB601C84B2042CE6DB45
:102340000027012405E03DF81400384487B2601CE2
:1023500084B2042CF7DB032097FBF0F086B2304602
:10236000BDE8FE832DE9F04104460D46B8480078EB
:10237000FFF7BCFF0646B7480078FFF7B7FF0746F0
:1023800026802F800120BDE8F0817FB504460D46F0
:1023900002A903A8FFF7E6FF064616B9002004B01D
:1023A00070BD694601A8FFF7DDFF06460EB90020A3
:1023B000F5E7BDF80400BDF80C10884206DCBDF856
:1023C0000C10BDF80400323081420CDBBDF80C006B
:1023D000BDF80410884236DCBDF80410BDF80C00CE
:1023E000323081422FDABDF80000BDF80810884273
:1023F00006DCBDF80810BDF80000323081420CDB6D
:10240000BDF80800BDF8001088421CDCBDF80010C3
:10241000BDF808003230814215DABDF80C10BDF865
:102420000420881800EBD071C1F34F012180BDF862
:102430000810BDF80020881800EBD071C1F34F01DF
:1024400029800120ABE70020A9E7F8B504460D4636
:1024500016468148068004F10D018AB2193988B206
:102460002B462946FEF756FC05F10D0083B21938BC
:1024700081B222462046FEF74DFC6A1C91B2621CD6
:1024800090B2FFF7D9FA6A1C91B2621E90B2FFF7C0
:10249000D3FA6A1E91B2621C90B2FFF7CDFA6A1E9F
:1024A00091B2621E90B2FFF7C7FA00200623009097
:1024B0006948028829462046FEF7F5FCF8BD70B54C
:1024C00004460D4616466448068029462046FFF716
:1024D000B3FA611C88B22946FFF7AEFA681C81B2D4
:1024E0002046FFF7A9FA6A1C91B2621C90B2FFF76E
:1024F000A3FA70BD2DE9F041044651487C380068CC
:10250000002853D124B15549881EFFF73EFF3CE017
:102510005249881EFFF739FFB8B350491239B1F953
:10252000200002F0ABF907464C491239088A02F044
:10253000BDF98046494812388169404602F0CAF91F
:102540000646394602F03AF8054602F077F9434963
:1025500012390882B1F9220002F090F907463F498A
:102560001239488A02F0A2F980463C481238C16903
:10257000404602F0AFF90646394602F01FF805461C
:1025800002F05CF935491239488234481238007D2E
:1025900000F0800010BBC020304912390875084691
:1025A000008A88810846408AC88117E02B48123883
:1025B000007D00F0800040B128481238007D20F0F6
:1025C000800026491239087508E000202349123995
:1025D0008881C8814FF6FF70088248821F481238F0
:1025E000007D00F08000BDE8F08170B51B49123914
:1025F00088691B4902F06EF9054602F003F90446AA
:10260000042221462820FFF7B2FD14491239C86977
:10261000134902F05FF9054602F0F4F8044604227B
:1026200021462C20FFF7A3FD0C481238B0F92010EA
:1026300002223020FFF79BFD0848123812E000000C
:10264000A4812342848121420080214200802342D0
:102650005400002055000020240000203E000020EF
:1026600020BCBE4CB0F9221002223220FFF77FFDC1
:10267000FA4890F824103420FFF750FD0A24214630
:102680003520FFF74BFD70BD70B53520FFF71AFD03
:1026900004460A2C42D104212820FFF77DFD044680
:1026A000204602F0EBF80546ED4901F0E9FFEB4961
:1026B000886104212C20FFF76FFD0446204602F0BC
:1026C000DDF80546E64901F0DBFFE449C861022177
:1026D0003020FFF761FD00B2E0490884022132207A
:1026E000FFF75AFD00B2DD4948843420FFF7EAFCC9
:1026F000DA4981F82400084690F8240030B190208F
:10270000D8490870D020D849087005E0D020D549B4
:1027100008709020D4490870012070BD0020FCE7AB
:102720002DE9F84F04460D4617461E46DDE90CAB71
:10273000DDE90A894FF47840CC4908800120CCA318
:102740001022A02100902820FEF784FC0120C9A3BC
:102750001022A02100907820FEF77CFC0120C6A367
:102760001022B42100902820FEF774FC0120C3A39E
:102770001022B42100907820FEF76CFC0120C0A349
:102780001022C82100902820FEF764FC0120BDA380
:102790001022C82100907820FEF75CFC0120BAA32B
:1027A0001022DC2100902820FEF754FC0120B7A362
:1027B0001022DC2100907820FEF74CFC0120B4A30D
:1027C0001022F02100902820FEF744FC1020042362
:1027D0002246A02100904020FEF782FC1020042316
:1027E0002A46A02100909020FEF77AFC10200423B6
:1027F0003A46B42100904020FEF772FC10200423DA
:102800003246B42100909020FEF76AFC1020042389
:102810004246C82100904020FEF762FC10200423AD
:102820004A46C82100909020FEF75AFC102004234D
:102830005246DC2100904020FEF752FC1020042379
:102840005A46DC2100909020FEF74AFC10200090B0
:1028500091480188032360200E9AFEF741FCBDE8F1
:10286000F88F00B595B0002010900A9010901F20AE
:102870007E4908804FF6FF7088490880FFF70EF9FF
:102880004FF47840794908804FF6FF70FFF706F95A
:10289000002076490880012081A310222821009081
:1028A0000A20FEF7D7FB012085A3102238210090D3
:1028B0000A20FEF7CFFB01208AA3102248210090B6
:1028C0000A20FEF7C7FB01208EA31022582100909A
:1028D0000A20FEF7BFFB4FF4784214210846FFF7A9
:1028E000B4FD00205D490875886154E25B4840688A
:1028F00009900120099988475848007D00F0C000E0
:1029000040287AD100200A905448007D20F04000F1
:10291000524908750846018A11AA109822F8201019
:102920004E48418A109802EB800041801098401C6C
:10293000C0B210901098012806D0022815D00328A4
:1029400029D0042810D141E04FF6FF721421084627
:10295000FFF77BFD50480088143880B24FF478426E
:1029600014210990FFF771FDC8E34B480088143823
:1029700080B24FF6FF7214210990FFF766FD4648BA
:102980004088143880B24FF47842014609901420F0
:10299000FFF75BFDB2E340484088143880B24FF641
:1029A000FF72014609901420FFF74FFD3A48408816
:1029B000143880B2099038480088143880B24FF437
:1029C000784208900999FFF740FD97E3BDF844006D
:1029D000BDF84810401A0990002801DB099801E071
:1029E000099840420D90BDF8461011A8C088081AF9
:1029F0000990002802DB099802E080E30998404230
:102A00000C900D9840430D900C9840430C90DDE9DC
:102A10000C100844059001F0E6FBCDE9060101F039
:102A200082FBCDE9080101F0B1FB80B20F90BDF847
:102A30004C00BDF85010401A0990002801DB09989D
:102A400001E0099840420D9011A84189C089081AF7
:102A50000990002864DB099864E061E02C00002004
:102A600020BCBE4C54000020550000202400002053
:102A700078313A0079313A0078323A0079323A00C6
:102A800078333A0079333A0078343A0079343A00AE
:102A90006661632069733A00700000202600002000
:102AA000506C65617365207573652074686520736B
:102AB00074796C757320636C69636B20746865004E
:102AC00063726F7373206F6E207468652073637216
:102AD00065656E2E5468652063726F737320776925
:102AE0006C6C0000616C77617973206D6F76652086
:102AF000756E74696C207468652073637265656EA9
:102B00002000000061646A7573746D656E742069DD
:102B10007320636F6D706C657465642E0000000037
:102B2000099840420C900D9840430D900C984043FA
:102B30000C90DDE90C100844059001F054FBCDE940
:102B4000060101F0F0FACDE9080101F01FFB80B2A7
:102B50000E900E9801F0AAFE09900F9801F0A6FEC3
:102B60000890099901F08CFD0B900B9801F0FAFC8C
:102B70004FF06632FE4BCDE9080101F047FB0DD363
:102B80000B9801F0EFFCFB4AFB4BCDE9080101F08B
:102B9000CDFB03D30F9808B10E98E8BB002010902E
:102BA000F6484088143880B20990F44800881438F8
:102BB00080B24FF6FF7208900999FFF746FC4FF478
:102BC000784214210846FFF740FCED490B9801F0CC
:102BD00081FE089001F032FE80B211A90990C989E6
:102BE000BDF8502011AB5B89CDE90132CDE903106E
:102BF000BDF84C00009011A8C0880890BDF84800AE
:102C00000790BDF846000690BDF84400059006A95F
:102C10000EC9FFF785FD81E2FFE7BDF84400BDF86E
:102C20004C10401A0990002801DB099801E009982E
:102C300040420D90BDF8461011A84089081A09902D
:102C4000002801DB099801E0099840420C900D989A
:102C500040430D900C9840430C90DDE90C10084463
:102C6000059001F0C0FACDE9060101F05CFACDE96A
:102C7000080101F08BFA80B20F90BDF84800BDF852
:102C80005010401A0990002801DB099801E00998CA
:102C900040420D9011A8C188C089081A09900028E7
:102CA00001DB099801E0099840420C900D984043DF
:102CB0000D900C9840430C90DDE90C1008440590F1
:102CC00001F091FACDE9060101F02DFACDE90801F4
:102CD00001F05CFA80B20E900E9801F0E7FD0990C9
:102CE0000F9801F0E3FD0890099901F0C9FC0B90E1
:102CF0000B9801F037FC4FF066329D4BCDE908018F
:102D000001F084FA09D30B9801F02CFC994A9A4BF4
:102D1000CDE9080101F00AFB3ED20020109097484F
:102D20004088143880B2099094480088143880B2E2
:102D30004FF6FF7208900999FFF787FB4FF478422E
:102D400014210846FFF781FB8D490B9801F0C2FD65
:102D5000089001F073FD80B20146099011A8C28964
:102D6000BDF8500011AB5B89CDE90130CDE90321FD
:102D7000BDF84C00009011A8C0880890BDF848002C
:102D80000790BDF846000690BDF84400059006A9DE
:102D90000EC9FFF7C5FCC1E1BDF84800BDF84C10F5
:102DA000401A0990002801DB099801E00998404287
:102DB0000D9011A8C1884089081A0990002801DBEC
:102DC000099801E0099840420C900D9840430D90FD
:102DD0000C9840430C90DDE90C100844059001F07C
:102DE00002FACDE9060101F09EF9CDE9080101F0F2
:102DF000CDF980B20F90BDF84400BDF85010401AD4
:102E00000990002801DB099801E0099840420D90E3
:102E1000BDF8461011A8C089081A0990002801DBE6
:102E2000099801E0099840420C900D9840430D909C
:102E30000C9840430C90DDE90C100844059001F01B
:102E4000D2F9CDE9060101F06EF9CDE9080101F0F2
:102E50009DF980B20E900E9801F028FD09900F9810
:102E600001F024FD0890099901F00AFC0B900B98E1
:102E700001F078FB4FF066323D4BCDE9080101F0DF
:102E8000C5F909D30B9801F06DFB3A4A3A4BCDE9ED
:102E9000080101F04BFA3ED20020109037484088DC
:102EA000143880B2099035480088143880B24FF643
:102EB000FF7208900999FFF7C8FA4FF4784214217D
:102EC0000846FFF7C2FA2E490B9801F003FD08905F
:102ED00001F0B4FC80B20246099011A8C089BDF887
:102EE000501011AB5B89CDE90131CDE90302BDF88A
:102EF0004C00009011A8C0880890BDF848000790C9
:102F0000BDF846000690BDF84400059006A90EC91C
:102F1000FFF706FC02E1BDF84800BDF84410401A76
:102F2000079001F0ABFC09901448008828380790FE
:102F300001F0A4FC0890099901F0A2FB11498861F5
:102F4000BDF84800BDF844100844049001F096FC18
:102F500005900C48806901460490059801F0BAFC80
:102F6000079006480088059001F0A0FC06900BE051
:102F70006666EE3FCDCCCCCCCCCCF03F70000020D0
:102F80000000C8422C000020079901F06FFD4FF0AF
:102F90008041089001F074FB099001F033FC00B20D
:102FA0009049088411A84089BDF84610401A07903E
:102FB00001F064FC09908C4840882838079001F0A3
:102FC0005DFC0890099901F05BFB8649C86111A876
:102FD0004089BDF846100844049001F04FFC05906C
:102FE0008048C06901460490059801F073FC079081
:102FF0007D484088059001F059FC0690079901F042
:1030000035FD4FF08041089001F03AFB099001F046
:10301000F9FB00B27349488408468069079001F0C3
:10302000F1FB0890002801DB089801E00898404275
:1030300002280DDC6B48C069079001F0E3FB0990A2
:10304000002801DB099801E00998404202283ADD96
:103050000020109064484088143880B2099062487B
:103060000088143880B24FF6FF7208900999FFF774
:10307000ECF94FF4784214210846FFF7E6F90120F5
:103080005AA310221A2100902820FDF7E3FF55488B
:1030900090F8240008B9012000E00020514981F88F
:1030A0002400084690F8240030B19020544908705C
:1030B000D0205449087005E0D02051490870902074
:1030C000504908702AE01F204F4908804FF6FF70D2
:1030D000FEF7E4FC01204DA310226E210090232076
:1030E000FDF7B8FF4FF47A70FEF7F1FAFFF77DFABB
:1030F0004FF6FF70FEF7D2FC15B000BD00BF0A20EE
:10310000FEF7E5FA0A98401C80B20A900A98B0F5DA
:103110007A7F02DDFFF7B8FA02E000BFFFF7E6BBF7
:1031200000BF00BFE8E708B50121882000F028FCB7
:103130000220ADF8000010208DF8030003208DF868
:1031400002006946374800F05FF90221354800F077
:1031500008FA0420ADF8000048208DF80300694605
:10316000304800F051F904212E4800F0FAF94FF4EC
:103170002060ADF8000010208DF8030003208DF8CA
:1031800002006946284800F03FF94FF420612648C4
:1031900000F0E7F94FF48060ADF8000048208DF8AA
:1031A00003006946204800F02FF94FF480611E4863
:1031B00000F0D7F90B491231881EFFF7D3F8FEF75C
:1031C0007DFFFFF761FA08B1002008BD4FF6FF70E0
:1031D000FEF764FCFFF745FBFFF707FAFFF754FA29
:1031E0000120F2E72C000020700000205450204EF7
:1031F00065656420726561646A75737421000000FE
:10320000540000205500002024000020546F7563F6
:10321000682053637265656E2041646A757374201B
:103220004F4B2100000C0140001C01400948804721
:1032300009480047FEE7FEE7FEE7FEE7FEE7FEE798
:10324000FEE7FEE7FEE7FEE704480549054A064BB0
:10325000704700000718000831010008E000002056
:10326000E0060020E0020020E00200203149014396
:10327000314A1160704770B5002100230F22C478D5
:1032800004B32D4C246804F4E064C4F5E064210A1E
:10329000C1F10403CA40447804FA03F1847814406D
:1032A00021430901254C0678A155047804F01F0537
:1032B0000124AC4005786D11AD0005F1E025C5F89D
:1032C000004109E0047804F01F050124AC401C4DC6
:1032D0000678761145F8264070BD1A4A0A40024326
:1032E000154B1B1F1A60704739B1134A121D126823
:1032F0000243114B1B1D1A6006E00F4A121D126893
:1033000082430D4B1B1D1A607047042808D14FF0F3
:10331000E021096941F004014FF0E022116107E06A
:103320004FF0E021096921F004014FF0E022116122
:10333000704700000000FA050CED00E000E400E03A
:1033400080E100E080FFFF1F10B50446CC488442B6
:1033500008D10121042000F02DFB0021042000F001
:1033600029FB46E0C748844208D10121082000F02B
:1033700021FB0021082000F01DFB3AE0C2488442F6
:1033800008D10121102000F015FB0021102000F0D1
:1033900011FB2EE0BD48844208D10121202000F01D
:1033A00009FB0021202000F005FB22E0B848844200
:1033B00008D10121402000F0FDFA0021402000F05A
:1033C000F9FA16E0B348844208D10121802000F0C8
:1033D000F1FA0021802000F0EDFA0AE0AE488442C4
:1033E00007D10121801500F0E5FA0021A01500F0B9
:1033F000E1FA10BD10B50121084600F0DBFA00210A
:10340000012000F0D7FA10BD2DE9F0410246002559
:103410000026002000230024002791F803C00CF0B0
:103420000F0591F803C00CF0100CBCF1000F03D095
:1034300091F802C04CEA050591F800C0BCF1000FFC
:1034400031D0146800202BE04FF0010C0CFA00F38F
:10345000B1F800C00CEA03069E4220D183004FF071
:103460000F0C0CFA03F7BC4305FA03FC4CEA040406
:1034700091F803C0BCF1280F06D14FF0010C0CFAF3
:1034800000FCC2F814C00AE091F803C0BCF1480F78
:1034900005D14FF0010C0CFA00FCC2F810C0401C22
:1034A0000828D1D31460B1F800C0BCF1FF0F34DD9F
:1034B000546800202EE000F1080C4FF0010808FAD3
:1034C0000CF3B1F800C00CEA03069E4221D1830040
:1034D0004FF00F0C0CFA03F7BC4305FA03FC4CEA5F
:1034E000040491F803C0BCF1280F05D100F1080CC9
:1034F00008FA0CF8C2F8148091F803C0BCF1480F28
:1035000007D100F1080C4FF0010808FA0CF8C2F8D6
:103510001080401C0828CED35460BDE8F0814FF6DF
:10352000FF710180022181700421C1707047024641
:10353000002093680B400BB1012000E00020704791
:103540000146886880B2704702460020D3680B406D
:103550000BB1012000E0002070470146C86880B22E
:10356000704701617047416170470AB1016100E035
:1035700041617047C16070474FF480320A438261F5
:103580008161826182698269704702460020434BF3
:1035900018684FF68073184040EA021008433F4B0A
:1035A000186070473E49C8617047F0B50A4600236D
:1035B00000240021002500F00046B6F1004F02D1A2
:1035C000364EF16901E0354E7168C0F3034583B2B0
:1035D00000F44016B6F5401F08D121F070612F4E5F
:1035E000766826F070662D4F7E6012E000F480163B
:1035F000B6F5801F06D1032606FA05F4A14341F073
:10360000706106E0460D360103FA06F6B14341F05B
:10361000706122B1460D360103FA06F6314300F01F
:103620000046B6F1004F02D11C4EF16101E01B4E85
:103630007160F0BD30B500228B071C0F0F2303FA19
:1036400004F2164B08338C1053F824309343134C78
:1036500008348D1044F8253023468C1053F824305C
:103660008C07240F00FA04F423430C4C08348D100B
:1036700044F8253030BD0A49DC310860704700004D
:1036800000080140000C01400010014000140140FE
:1036900000180140001C01400020014000000140D2
:1036A00000002042DF48006840F00100DD4908606A
:1036B00008464068DC490840DA4948600846006826
:1036C000DA490840D74908600846006820F480209D
:1036D00008600846406820F4FE0048604FF41F0070
:1036E00088607047CF49096821F48031CD4A116064
:1036F0001146096821F480211160B0F5803F03D0A4
:10370000B0F5802F0ED106E0C649096841F480313A
:10371000C44A116007E0C349096841F4A021C14AC5
:10372000116000E000BF00BF704710B501460022E5
:10373000002300204A11012A02D1BA4C236806E076
:10374000022A02D1B74C236A01E0B64C636A01F049
:103750001F02012494401C400CB1012000E0002015
:1037600010BD38B5002000900024002500BF312096
:10377000FFF7DBFF05460098401C00900098B0F56D
:10378000A06F01D0002DF2D03120FFF7CEFF08B19D
:10379000012400E00024204638BD01460020A14A53
:1037A000106820F0F80040EAC10010607047A0499E
:1037B00008607047024600209A4B586820F47C103D
:1037C00042EA01031843974B5860704798490866CE
:1037D000704701460020934A506820F003000843D8
:1037E000506070478F48406800F00C0070470146F9
:1037F00000208C4A506820F0F00008435060704769
:1038000001460020874A506820F4E0600843506079
:10381000704701460020834A506820F4605040EA17
:10382000C1005060704729B17E4A527A02437D4BF5
:103830005A7204E07B4A527A82437A4B5A7270473A
:103840007B49D8310860704701460020754A5068AE
:1038500020F440400843506070470021714A2032F4
:103860001170704A82F82010012802D004280AD171
:1038700004E001216B4A2032117005E00521694AFC
:103880002032117000E000BF00BF70476949086036
:1038900070476449096A0143624A11627047654989
:1038A00044390860704730B500210022002400230D
:1038B0005C4D6D6805F00C0121B1042905D0082983
:1038C00023D105E05C4D056022E05B4D05601FE003
:1038D000544D6D6805F47012524D6D6805F48034D6
:1038E000022505EB92421CB9544D554305600BE08F
:1038F0004C4D6D6805F400351DB1504D55430560C4
:1039000002E04D4D5543056002E04B4D056000BFA0
:1039100000BF444D6D6805F0F0010909484D6B5C2E
:103920000568DD4045603F4D6D6805F4E061090ABA
:10393000434D6B5C4568DD4085603A4D6D6805F42C
:103940006051C90A3E4D6B5C4568DD40C560354D30
:103950006D6805F44041890B3A4D6B5CC568B5FB59
:10396000F3F5056130BD29B12E4A526902432D4B52
:103970005A6104E02B4A526982432A4B5A617047CC
:1039800029B1284A92690243264B9A6104E0254AEC
:1039900092698243234B9A61704729B1214AD269C7
:1039A0000243204BDA6104E01E4AD26982431D4B78
:1039B000DA61704729B11B4AD2680243194BDA60B9
:1039C00004E0184AD2688243164BDA60704729B186
:1039D000144A12690243134B1A6104E0114A126936
:1039E0008243104B1A617047124940390860704792
:1039F0000F49C86470470B49C87170470948406A4D
:103A000040F0807007494862704701460020054A2F
:103A100092680A400AB1012000E000207047014985
:103A200088727047001002400000FFF8FFFFF6FEAA
:103A3000000042428004424200127A0000093D0028
:103A40005C0000206C00002030B943F2DB028100F2
:103A5000A1F1C0410A6005E043F2D2028100A1F168
:103A6000C0410A606FF07042411C8900A1F1C04161
:103A70000A608100A1F1C041C1F8042170471028FB
:103A80000AD118214FF020421166402151664FF0B3
:103A9000FC319166D16610E01821F74A116040218F
:103AA0004FF02042C2F884104FF0FC31F24A083245
:103AB00011604FF02042C2F88C1070471820EE4978
:103AC0002031086000200906C1F8A4004FF0FC3046
:103AD000E94928310860091D0860091D0860704720
:103AE000D0E901121143C2681143026911434269CE
:103AF000114382691143C2691143026A1143426A48
:103B00001143826A1143C26A1143026B1143026876
:103B10009200A2F1C0421160816808290BD10168AE
:103B20008900A1F1C041096841F0400201688900A3
:103B3000A1F1C0410A60416B0968426B526841EAD9
:103B40000211426B926841EA0221426B928941EA7A
:103B50000241426B128A41EA0251426B127D41EAF4
:103B60000261426B926911430268521C9200A2F1F9
:103B7000C0421160C16AB1F5804F1BD1816B0968E9
:103B8000826B526841EA0211826B926841EA02211B
:103B9000826B128A41EA0251826B127D41EA026114
:103BA000826B9269114302689200A2F1C042C2F88E
:103BB000041107E06FF0704201688900A1F1C04173
:103BC000C1F80421704730B5002100220023446869
:103BD00044F0080485682C43C5682C4305692C43D0
:103BE000456944EA4524856944EA4531C469246845
:103BF000C5696D6844EA0524C5692D8944EA054410
:103C0000C5692D7B44EA0562046A2468056A6D680B
:103C100044EA0524056A2D8944EA0544056A2D7B9A
:103C200044EA05630468102C05D14FF02044216656
:103C3000A266E36608E0904C21604FF02044C4F88F
:103C400088208D4C0C34236030BD016841F0100198
:103C5000426841EA4221826841EA4231864A203282
:103C60001160C1680968C268526841EA0221C268ED
:103C7000128941EA0241C268127B41EA02617E4A2E
:103C800028321160016909680269526841EA02211B
:103C90000269128941EA02410269127B41EA02612A
:103CA000754A2C321160416909684269526841EADB
:103CB00002214269128941EA02414269127B41EACA
:103CC00002614FF02042C2F8B0107047002101603D
:103CD0000221416000218160C16001614161816117
:103CE000C16101624FF4805141624900816200214B
:103CF000C16201630F21426B1160426B5160FF2171
:103D0000426B91600F21426BD160426B1161426B3B
:103D100051610021426B91610F21826B1160826BB6
:103D20005160FF21826B91600F21826BD160826BA9
:103D30001161826B51610021826B9161704710218A
:103D40000160002141608160C16001614161816168
:103D5000FC21C2691160C2695160C2699160C26987
:103D6000D160026A1160026A5160026A9160026A5F
:103D7000D16070470021016041608160FC21C26810
:103D80001160C2685160C2689160C268D160026906
:103D9000116002695160026991600269D1604269F3
:103DA000116042695160426991604269D160704717
:103DB00051B18200A2F1C042126842F001038200B8
:103DC000A2F1C042136009E08200A2F1C042126871
:103DD0002A4B1A408300A3F1C0431A60704799B17F
:103DE000102808D14FF02042126E42F004024FF02A
:103DF00020431A661DE0204A126842F004024FF088
:103E00002043C3F8802014E0102809D14FF020424D
:103E1000126E1A4BDB1E1A404FF020431A6608E060
:103E2000154A1268154BDB1E1A404FF02043C3F8A9
:103E30008020704748B110492031096841F00401E1
:103E40004FF02042C2F8A01009E00B492031096868
:103E50000A4AD21E11404FF02042C2F8A01070470B
:103E6000B9B110280CD14FF02042126E42F040023E
:103E70004FF020431A661FE0800000A0FEFF0F00F5
:103E8000724A126842F040024FF02043C3F880208B
:103E900012E0102808D14FF02042126E6C4B1A40ED
:103EA0004FF020431A6607E0684A1268684B1A40D0
:103EB0004FF02043C3F880207047014600201029AE
:103EC00003D14FF02042506F02E0604A1432106874
:103ED000704710B5F2B1102807D14FF020435B6E48
:103EE0000B434FF02044636632E0B0F5807F08D189
:103EF000564B1B1D1B680B434FF02044C4F8843005
:103F000026E0524B24331B680B434FF02044C4F887
:103F1000A4301DE0102807D14FF020435B6E8B4387
:103F20004FF02044636613E0B0F5807F08D1474B23
:103F30001B1D1B688B434FF02044C4F8843007E0FE
:103F4000424B24331B688B434FF02044C4F8A43009
:103F500010BD10B5024600200023102A03D14FF0F7
:103F60002044636E09E0B2F5807F03D1374C241DF5
:103F7000236802E0354C2434236803EA01040CB1C1
:103F8000012000E0002010BD102807D14FF0204292
:103F9000526E8A434FF020435A6613E0B0F5807F9B
:103FA00008D12A4A121D12688A434FF02043C3F8F1
:103FB000842007E0254A243212688A434FF02043C8
:103FC000C3F8A420704770B50246002000230024E7
:103FD0000025102A03D14FF02046736E09E0B2F598
:103FE000807F03D1194E361D336802E0174E243608
:103FF000336803EA010403EAD10514B10DB10120CD
:1040000000E0002070BD102808D14FF02042526E11
:1040100022EAD1024FF020435A6615E0B0F5807FC6
:1040200009D10A4A121D126822EAD1024FF0204338
:10403000C3F8842008E0054A2432126822EAD1023B
:104040004FF02043C3F8A42070470000800000A078
:10405000BFFF0F0010B5431C02E010F8011B71B147
:104060008107FAD14FF0013202C88C1A8C4314EA4E
:10407000C211F9D0C01A0A0603D0C01E10BDC01A62
:1040800010BD0A0401D0801E10BD0902FCD0401EE4
:1040900010BD70477047704710B500F009F8006810
:1040A00010BD10B5044600F003F8046010BD000018
:1040B00000487047800000200048704780000020C2
:1040C0007546FFF7F9FFAE4605006946534620F0F6
:1040D0000700854618B020B5FFF7B6F8BDE82040C8
:1040E0004FF000064FF000074FF000084FF0000BB4
:1040F00021F00701AC46ACE8C009ACE8C009ACE867
:10410000C009ACE8C0098D4670470446AFF3008093
:104110002046FCF754F8000001491820ABBEFEE72A
:104120002600020070472DE9F04106460F4600F0D8
:1041300033F904000D4618BF0120284320F0004049
:10414000C0F17F6000F1E040C00F0ED0301C18BFFE
:104150000120384320F00040C0F17F6000F1E040D2
:10416000C00F04BF0120FFF79CFF20462946BDE891
:10417000F081491058BFC1F140415B1058BFC3F1F5
:1041800040438B42EFF30080704700004FEA115329
:10419000A3F58063D3F11E03A8BFD3F1200C08DB85
:1041A0004FF0004242EAC12252EA505232FA03F082
:1041B000704709420BD4102BC4BF0020704703F591
:1041C000787CBCF1FF3F05D04FF0FF3070474FF0D7
:1041D0000000704770B500F055F800BF4992248088
:1041E00000207047F0E7B0FA80F310FA03F10AD02C
:1041F000C3F11D0303F580634FEA41504FEA0352B8
:1042000002EBD12170474FF00000704751EA030CD8
:1042100017D41CF5801F58BFBCF5801F00F1068025
:10422000994218BF704708BF9042704707D711F5F1
:10423000801F58BF13F5801F19D4994270478942D7
:1042400070471CF5801F08D5BCF5801FF7D58B4241
:1042500018BF704708BF824270474FF4001C1CEB28
:10426000410F38BF1CEB430F01D28B42704770B532
:1042700000F008F8922449004FF000514FF08053AD
:10428000FFF777BF0EF1020E2EF0030E5EF8046BFF
:10429000364205D4012A43EB030515F5001F12D859
:1042A000012841EB010C1CF5001F0CD80ED14FEA80
:1042B000D17C15F5001F0CEB4C0C0CF1020C08BF67
:1042C0004CEBD37C04E04FF0080C01E04FEAD37CC8
:1042D0000CEB4C0526FA05F606F00706B6F1040CC1
:1042E00006D20EEB860CBDE870404CF0010C604726
:1042F000DFE80CF0090B02024FF000414FF0000024
:10430000A1F5002170BD19461046012851EB0104AA
:1043100018BFD4F5001484BF002001F0004170BD27
:104320000808A0F500114FEA3101704753EA010C6B
:1043300017D41CF5801F58BFBCF5801F00F1068004
:104340008B4218BF704708BF8242704707D713F5EA
:10435000801F58BF11F5801F19D48B4270479B42B4
:1043600070471CF5801F08D5BCF5801FF7D5994212
:1043700018BF704708BF904270474FF4001C1CEBF9
:10438000430F38BF1CEB410F01D2994270470FB465
:104390000CBC03BCFFF76BBF2DE9F04101F5801C9D
:1043A000BCF5001FC0F2C3804FEA115C21EA0C513A
:1043B0000CF1FD0C41F480115FEA5C0C0CF5C07C43
:1043C00001D3400049413DA4890241EA905187024E
:1043D0008E0E0A0CA45D04FB04F602FB06F6C6F181
:1043E0004046A4FB0662F60D46EA422606FB06F4AA
:1043F000A4FB01235242C3F1404338BF5B1EA6FB1E
:1044000002420024E6FB0324D20B42EA4446A6FB08
:104410000623A1FB02E2A3FB07E4A4184FF000026D
:1044200052F10002E3FB01426442C2F1404E38BF48
:10443000AEF1010EA6FB04234FF00002E6FB0E32A4
:10444000A2FB03464FF00004B61954F10004E2FB4E
:104450000264A1FB06E6A4FB07E816EB08064FF092
:10446000000858F10008E4FB01687642C8F14058A2
:1044700038BFA8F10108A2FB06E4A3FB08E52D194B
:104480004FF0000454F10004E2FB0854A1FB05E6E0
:10449000A7FB04E818EB06084FF0000656F10006EB
:1044A000E1FB048618F1200556F10006A809A8F1E1
:1044B0001B08B10908F03F08B8F10A0F40EA86600E
:1044C0001CD901EB0C51BDE8F08100BFFCF5EEE812
:1044D000E2DDD8D3CFCBC7C3C0BDB9B6B4B1AEACA3
:1044E000A9A7A5A3A19F9D9B9A9896959392908F1B
:1044F0008D8C8B898887868584838281A0FB006868
:1045000000FB01F208EB4208B8EB872807D5341806
:1045100058EB0104D5D5401C51F10001D1E7341A04
:1045200078EB0104CDD4401E71F10001C9E75FEAC8
:104530004C0C5FEA9C5C0DD105D34FF0000001F0FC
:104540000041BDE8F081BDE8F04170B5FFF79AFE8B
:104550006DDBFFBEBDE8F0414FF000000049704741
:104560000000F87F43004FEAD30C4FEA3C0C434075
:104570001FBF40070CF1605113F0FE4F70471CF055
:10458000006F03D100200CF0004170470CF0004395
:1045900043EA507010B540EACC0000F01CFA00BFAE
:1045A000000000924FEA0001FFF7BABE4FF0004151
:1045B0004FF00000A1F500217047000090EA010FC4
:1045C00048BF81F0004100F15882421A3CBF801A76
:1045D00089184FEAD0524FF07F4C1CEA410FA2EBF2
:1045E000D15318BF9CEA026F00F03B804FF0004CA3
:1045F0004CEA00204CEA012121FA03FC10EB0C0CE0
:104600001ED202F1FF325FEA1C2040EBC25038BFDD
:1046100070471CF07F0F4FEA400C18BFBCF17F4F72
:1046200038BF7047C3F12003994008BF20F0010054
:10463000BCF17F4F38BF7047A0F1C04000F011BA05
:104640004FEA3C00000A40EBC25028BF1CF0FF0FAD
:104650004FEA400CE6D018BFBCF17F4F38BF70471F
:10466000EAE79CEA026F05D010EA5C0F08BF00F091
:104670000040704710B500F0AEF900BF64FBBE3ECD
:104680004FF47F0C1CEAD0121EBF1CEAD11392EA31
:104690000C0F93EA0C0F00F0858090EA010F48BFE1
:1046A00042F4807240F4000C41F400002CF07F4191
:1046B00020F07F4000B58142A2EB03020FF2081CFC
:1046C000ACEB504EC0F100009EF800E04FEA4E0EF9
:1046D00000FB0EFC38BF49004FEA2C1C02F5FA0221
:1046E0000CFB0EF34FEACE1E4FEA112C4FEAC1210C
:1046F0000EEB635E42EB22420EFB0CFC4FEA1C53B6
:1047000000FB03114FEA112C4FEA01310EFB0CFCA8
:104710004FEADC4C00FB0C11C14228BF09184CEBDE
:1047200003335DF804EB10EB410143EBC250B2F5EB
:104730007C0F38BF704729D512F0F00F1CBF00F175
:10474000C04000F0004070470081828384858687E6
:1047500088898B8C8D8E8F919293959697999A9C40
:104760009D9FA0A2A3A5A7A8AAACAEB0B2B3B5B7AF
:10477000B9BCBEC0C2C5C7C9CCCED1D4D7D9DCDF85
:10478000E2E6E9ECF0F3F7FAFE0000004FEA400C35
:104790000CF1807CBCF17E4F28BF7047B0F1C04067
:1047A00000F05FB990EA010F0CEAD11348BF42F460
:1047B0008072624538BF634507D213F47F0F16D06D
:1047C00080EA010000F00040704710B500F003F9E6
:1047D000097EFC3E00F005B880EA010000F00040D0
:1047E000704780EA010000F0004000F03AB912F48E
:1047F0007F0F04BF0248704780EA010000F031B922
:104800000000C07F41000B0ED3F19E0208D950F486
:1048100000034FEA032323FA02F048BF40427047E7
:1048200010B500F0D8F800BF4992248000207047EE
:104830006FF0004282EA200070470000C10DD1F104
:104840009E0206DB4FEA002343F0004323FA02F006
:104850007047004207D54FEA4001B1F1FE4F02D246
:104860004FF00000704710B500F0B5F84992248071
:10487000002070476FEA20007047000010F00041F0
:1048800048BF4042B0FA80F310FA03F2C3F19D032F
:104890000BD051EAC35101EB1220530638BF7047C9
:1048A00000F1010008BF20F001007047B0FA80F36A
:1048B00010FA03F2C3F19D030AD0D90501EB1220CF
:1048C000530638BF704700F1010008BF20F0010017
:1048D000704700004FF47F0C1CEAD0121EBF1CEA88
:1048E000D11392EA0C0F93EA0C0F00F0478090EA84
:1048F000010F48BF42F480724FF0004C4CEA002098
:104900004CEA012102EB0302A0FB0113A2F5000215
:10491000002918BF43F001035B0028BF4FEA3303AF
:1049200042EB22425FEA132C4CEBC2502EBFBCEB91
:10493000436FB2F57C0F70474FEA036CBCF1004F38
:1049400008BF20F00100B2F57C0F38BF70470BD5CF
:1049500082F0FF0212F5803FC8BF704700F1C040EF
:10496000D8BF00F00040704700F5000C5FEA4C0C27
:1049700048BF7047B0F1C04000F073B890EA010F33
:104980000CEAD11348BF42F48072624538BF6345D8
:1049900004D280EA010000F00040704710B500F03A
:1049A0001AF800BF8900013E00F007B800F009B80E
:1049B0005FEA410C5FEA1C6C08D080EA010000F05D
:1049C00050B85FEA400C5FEA1C6CF6D14FF0004033
:1049D000A0F5800070470EF1020E2EF0030E5EF877
:1049E000044B244204D44FEA4102B2F17F4F11D864
:1049F0004FEA4003B3F17F4F0CD80ED14FEAD07C81
:104A0000B2F17F4F0CEB4C0C0CF1020C08BF4CEBDD
:104A1000D17C04E04FF0080C01E04FEAD17C0CEBB4
:104A20004C0324FA03F404F00704B4F1040C06D296
:104A30000EEB840CBDE810404CF0010C6047DFE841
:104A40000CF0070802024FF00040A0F5800010BDF6
:104A50000846420018BFD2F1807288BF00F00040C3
:104A600010BDFF2141EAD050C005704790EA010F08
:104A700048BF81F000413FF5A8AD421A04D882F04A
:104A80000042A0EB020011444FEAD0524FF07F4C9D
:104A90001CEA410FA2EBD15318BF9CEA026F4AD027
:104AA0004FF0004C4CEA00204CEA012121FA03FCB3
:104AB000B0EB0C0C0FD412F0FE0F36D05FEA4C00B6
:104AC0001DD5001240EBC25038BF70471CF03F0F9D
:104AD00018BF70470BE0A2F101025FEA1C2040EB17
:104AE000C25038BF70471CF07F0F18BF7047C3F12A
:104AF0002003994014BF401E20F001007047800839
:104B00004FEA122308BF7047B0FA80FCA2EB0C02F8
:104B1000CCF1280C60FA0CF093EA122F04BF00EBE2
:104B2000C25070474FEAC3707047130A5FEADC1047
:104B300008BF7047F6E79CEA026F04D010EA5C0FEA
:104B400008BF0020704710B5FFF745FF40DFF63E75
:104B500081F000407047FFFFFFFFFFFFFFFFFFFFF7
:104B6000FFFFFFFFFFFFFFFFFFFFFFFFFFFFFFFF55
:104B7000FFFFFFFFBEF7FFFFDEFF38C6928C8E6B94
:104B80006E6B107C96AD3CE7FFFFFFFFFFFFFFFF62
:104B9000FFFFFFFFFFFFFFFFFFFFFFFFFFFFFFFF25
:104BA000FFFFFFFFFFFFFFFFFFFFFFFFFFFFFFFF15
:104BB000FFFFFFFFFFFFFFFFFFFFFFFFFFFFFFFF05
:104BC000FFFFFFFF5DEF159D4F636C420A3288299E
:104BD000461925194521E8318E6B38C6FFFFFFFFC6
:104BE000FFFFFFFFFFFFFFFFFFFFFFFFFFFFFFFFD5
:104BF000FFFFFFFFFFFFFFFFFFFFFFFFFFFFFFFFC5
:104C0000FFFFFFFFFFFFFFFFFFFFFFFFFFFFFFFFB4
:104C1000FFFF36A51053104B51530F4B6C3AE9313F
:104C200067212519E410A30862008308CB529AD6A5
:104C3000FFFFFFFFFFFFFFFFFFFFFFFFFFFFFFFF84
:104C4000FFFFFFFFFFFFFFFFFFFFFFFFFFFFFFFF74
:104C5000FFFFFFFFFFFFFFFFFFFFFFFFFFFF3CE73F
:104C60007063B363B87CF56311434D32EA29882140
:104C700026190519051904110411E4108300A3086D
:104C8000728CFFFFFFFFFFFFFFFFFFFFFFFFFFFF34
:104C9000FFFFFFFFFFFFFFFFFFFFFFFFFFFFFFFF24
:104CA000FFFFFFFFFFFFFFFFFFFFFFFFDBDE4B3AD2
:104CB000F042356C544BB1322E2AEB21A9216719F1
:104CC0000519041104110411041104110519E4104B
:104CD0004200AF73FFFFFFFFFFFFFFFFFFFFFFFF7C
:104CE000FFFFFFFFFFFFFFFFFFFFFFFFFFFFFFFFD4
:104CF000FFFFFFFFFFFFFFFFFFFF5DEF09324C32B9
:104D0000104B8F324F2A2E2ACC1989198921471925
:104D1000051904110411C410C41004110411041164
:104D2000E41042003184FFFFFFFFFFFFFFFFFFFFA2
:104D3000FFFFFFFFFFFFFFFFFFFFFFFFFFFFFFFF83
:104D4000FFFFFFFFFFFFFFFFFFFFEC5247194C3251
:104D50000B2AEC21EC210C22915BEE4A061126195C
:104D60000419E410E410A7296621A3080519041109
:104D70000411E4108200F7BDFFFFFFFFFFFFFFFFFC
:104D8000FFFFFFFFFFFFFFFFFFFFFFFFFFFFFFFF33
:104D9000FFFFFFFFFFFFFFFF35A583088821882164
:104DA0008921AA218A216B42718CFFFF728C8308B2
:104DB0000411C4082942FBDE5DEFEC5A830804119C
:104DC000041104118308E831DFFFFFFFFFFFFFFF3D
:104DD000FFFFFFFFFFFFFFFFFFFFFFFFFFFFFFFFE3
:104DE000FFFFFFFFFFFFBEF7C731C41025192619CB
:104DF00047194719A8298A52284A55ADFFFFE831BB
:104E0000A30805194D6B4D6BFFFF7DEF4521C410C5
:104E1000041104110411620076ADFFFFFFFFFFFFD4
:104E2000FFFFFFFFFFFFFFFFFFFFFFFFFFFFFFFF92
:104E3000FFFFFFFFFFFF96B5620004110419051183
:104E40000519C4088B4AB6B55DEFF7BDFFFF8E6B41
:104E500062002942AA5A0842FFFFFFFFCC52830892
:104E6000041104110411A308AD52FFFFFFFFFFFF5F
:104E7000FFFFFFFFFFFFFFFFFFFFFFFF1CE7FFFF3D
:104E8000FFFFFFFFFFFF4E636200041104110411D6
:104E9000E41062008E63FFFFFFFFFFFFFFFFCF7391
:104EA0000100F39C2C6396B5FFFFFFFF2D5B830091
:104EB000041104110411E41067213DEFFFFFFFFF0F
:104EC000FFFFFFFFFFFFF8BDB7B59EEFCB52B394D6
:104ED000FFFFFFFFDFFFE831A308041104110411F5
:104EE0000411A3084942FFF7FFF7FFFFFFFF6A4ADB
:104EF00001007284FFFFFFFFFFF7DFEF093AA3080D
:104F00000411041104110411051118BEFFFFFFFF65
:104F1000FFFFFFFFFFFFF07B6200E831C731410078
:104F200035A5FFFF5DEF4621C410041104110411E3
:104F30000411E410A308769DFFF7FFFFB7ADA308A7
:104F4000A308C7319EE7FFF7FFF776A5A308E41093
:104F50000411041104110511051135A5FFFFFFFF10
:104F6000FFFFFFFFFFFFDBDEA7298300C410C41093
:104F7000C4101CE79EEF0511E41004110411041184
:104F800004110419C408E510D16BD16BC508640085
:104F9000A50843002B32779DB3842519C410041152
:104FA00004110411041125192609359DFFFFFFFF87
:104FB000FFFFFFFFFFFFFFFFAF736200041905193A
:104FC00082000D5B8E9B62100511041104110419FF
:104FD000E41085000511C439815A407B229C43AC02
:104FE00003A4839B82728249C218A400C500E41006
:104FF00004190411051947196711EC5ABEFFFFFF88
:10500000FFFFFFFFFFFFDFFFDBDEC410E410041132
:105010000511A41801C08388E40005190419C50806
:105020004421438323D542FEE4FE27FF07FFA4FE6D
:1050300064FE03FEA3FDE2FC42EC83B32462E510B0
:10504000C40804192619A81987210090D3BCFFFFB2
:10505000FFFFFFFFFFFFDFFFFFFF107C420005198E
:105060000511832801D044F8A348E400C508445A38
:1050700002EDE2FD02FE66FE74FFB8FF73FFE7F685
:10508000A6F645F6A4F5C3FC62FCC2FCC2FCE3CB69
:10509000C449061188198701A49001F8EC9AFFFF12
:1050A000FFFFFFFFFFFFFFFFFFFFBEF7E8318300B9
:1050B0000509824001C023F885F0A348A400445AA2
:1050C00002FD23CCC2DC04FE28FE48F646F624F698
:1050D000E4F564FDE3FC62FCC2FC02E402DCE2FCF9
:1050E000A47A48016701C47824F802F884B07DE707
:1050F000FFFFFFFFFFFFFFFFFFFFFFFFDBDE2519C5
:10510000A300C43802E022D844F8A6F8A4786300CB
:10511000432183728339829B21F561FD22FDE2FCEC
:10512000A2FC42FC42FC42FC22AB8341C3920452EB
:1051300026012519A49844F823F802F8A4D09EEF7C
:10514000FFFFFFFFFFFFFFFFFFFFFFFFFFFF9AD6FD
:105150008729A50043B822F823E065F8E8F807C9D5
:1051600083484200A30084006329A27A62B3A2CBE1
:1051700062D302BB828A8339A400E500E500E5081A
:10518000C46064D844F824F823F802F88388DBC6A6
:10519000FFFFFFFFFFFFFFFFFFFFFFFFFFFFFFFF1F
:1051A0003DE7505B083123E843F844F065F809F91E
:1051B000ABF989D10689A348421802004200610078
:1051C0008200620062008300A320C450A58885D8B5
:1051D00065F844F844F823F823F803D08210C7296F
:1051E0005DEFFFFFFFFFFFFFFFFFFFFFFFFFFFFF81
:1051F000FFFFFFFF6C32A53802D823F865F866F888
:10520000A7F84AF90CFA4DFA4CEA0BD2A9B968B1E1
:1052100047A927B107B907D1E7E8C7F8A7F865F8A4
:1052200065F844F823F803F802D0A3280509C40858
:10523000EC5AFFFFFFFFFFFFFFFFFFFFFFFFFFFF36
:10524000FFFFFBDE0519C400A741E6C003F886F89E
:10525000A7F887F886F8C7F829F98AF9ABF9ABF906
:105260008BF96AF929F908F9C7F8A6F886F865F8FC
:1052700064F823F802F006B12529E400E4102519AA
:105280002519149DFFFFFFFFFFFFFFFFFFFFFFFF3B
:10529000FFFF96AD620082083595BACE8BA244D04E
:1052A00025F887F8A7F8C7F8A7F887F886F886F8EA
:1052B00086F887F8A7F8A7F8A6F885F865F864F8DF
:1052C00024F064B80D93BBB6CF6383080411E410D7
:1052D0006621493A5DEFFFFFFFFFFFFFFFFFFFFF82
:1052E000FFFFD3944200E410BBCEFFFFBEE776B5CC
:1052F000CCAA07C145E045F846F866F886F886F876
:1053000086F886F865F845F865F865E844D043A85E
:10531000018882903CD7FFEF559583080411041152
:1053200005194619B394FFFFFFFFFFFFFFFFFFFFC3
:10533000FFFFB394410086215DDFFFFFFFFFFFFF0A
:10534000DFE77AC6D3B44EB32AC268D1E6E0A6E856
:10535000A5E8A5E8E6D888C906A922A802A800A061
:1053600000C800D8F7E5FFE7F8ADC410E410041159
:10537000E41005118B4AFFFFFFFFFFFFFFFFFFFF58
:10538000FFFF55A54100A7295DDFFFF7FFFFFFFFE6
:10539000FFFFFFFFFFFFFFEF7DDFDBCE59CEF8CD34
:1053A000D7CDF7C579CEFBBEABA203F045F842D00E
:1053B00043E800F072D4FFDF39AEE410E4100411CA
:1053C000E41005118729FFFFFFFFFFFFFFFFFFFF2D
:1053D000FFFF59CE830846211CD7FFF7FFFFFFFFD1
:1053E000FFFFFFFFFFFFFFFFFFFFFFFFFFFFFFFFCD
:1053F000FFFFFFFFFFFFFFEF8BBA04F845F862E005
:1054000044F000F88EDBFFDFF8A5C410E410E410D0
:105410000411E4102519FFFFFFFFFFFFFFFFFFFF4F
:10542000FFFFBEF78729830839B6FFF7DFF7FFFFD5
:10543000FFFFFFFFFFFFFFFFFFFFFFFFFFFFFFFF7C
:10544000FFFFFFFFFFFFBEE74ABA03F845F864F825
:1054500044F800F86EE3FFD7F48C83080411E410DD
:10546000E410E4100519FFFFFFFFFFFFFFFFFFFF40
:10547000FFFFFFFFEF7300007284FFEFBEEFDFFF5F
:10548000FFFFFFFFFFFFFFFFFFFFFFFFFFFFFFFF2C
:10549000FFFFFFFFFFFFDFE78BBA03F845F845F892
:1054A00023F800F8D3D4FFD74E5B2100293A55A545
:1054B0008308C4102519FFFFFFFFFFFFFFFFFFFF59
:1054C000FFFFFFFFFBDEA308E8319EDF9EE7BFEF93
:1054D000FFFFFFFFFFFFFFFFFFFFFFFFFFFFFFFFDC
:1054E000FFFFFFFFFFFFFFF751BC02E003F803F0EF
:1054F00043E0ECC27ECFFCBE46212100D394FFFFE7
:10550000518400008729FFFFFFFFFFFFFFFFFFFF20
:10551000FFFFFFFFFFFF51840000F48CFFEF9EE7C9
:10552000BFEFDFFFFFFFFFFFFFFFFFFFFFFFFFFFFB
:10553000FFFFFFFFFFFFFFFF3DDF55BD52BC72BC09
:10554000B7B55DC7FFDFF06B0000093ABFF7FFFF9B
:10555000FFFF149D55A5FFFFFFFFFFFFFFFFFFFFAC
:10556000FFFFFFFFFFFFFFFFAC4AA408BBBEDFE762
:105570007EE7BEEFDFF7DFFFFFFFFFFFFFFFFFFF6D
:10558000FFFFFFFFFFFFDFFFDFF7FFEFDFDFBFD72B
:105590009ED7DFDFD8A583082611DBD6FFFFFFFFEC
:1055A000FFFFFFFFFFFFFFFFFFFFFFFFFFFFFFFF0B
:1055B000FFFFFFFFFFFF79EE8BDC2131A9213DCFFB
:1055C000BFDF7EDF9EE7BEEFBFEFDFF7DFF7DFF77E
:1055D000DFF7DFF7BFEFBEEF9EE77EDF5ED75ED778
:1055E000DFDF9AB626194208EDA3BFFFFFFFFFFFDA
:1055F000FFFFFFFFFFFFFFFFFFFFFFFFFFFFFFFFBB
:10560000FFFFFFFF74DDC0DB00FE42EE0242892196
:105610007BB6DFDF7ED77EDF7EDF9EE79EE79EE7FD
:105620009EE79EE77EDF7EDF5DD75DD79EDFFFE7EB
:10563000F8A50711E31802C560FDE6D3DBEEFFFF16
:10564000FFFFFFFFFFFFFFFFFFFFFFFFFFFFFFFF6A
:10565000FFFF9EF784BAC1FC42FE82FEA2FE818358
:10566000452174745EC7DFDF7ED75ED75DD75ED716
:105670005ED75DD75DD75ED79EDFFFE73DC7F1639D
:105680008408425226E629FF86FEE0F36AC3FFFF44
:10569000FFFFFFFFFFFFFFFFFFFFFFFFFFFFFFFF1A
:1056A000FFFF18DEC1D2A2FD22FE42FE42FE62FED4
:1056B000E2D4416A494253743BA63EC7BFD7BFD725
:1056C000BFD7BFDFBFD73EC71AA6F263A729824163
:1056D00022B462FE83FEAAFE0FFF67FD63BA3CEFB1
:1056E000FFFFFFFFFFFFFFFFFFFFFFFFFFFFFFFFCA
:1056F000FFFF9AE680D221FDC2FDE2F5C2F582F5F8
:1057000082FD62FD61DC219B846AE96A2C63AF63E0
:1057100011746E632C63895A0452817AC2CBE2FC05
:1057200062FD82FDC2FDC2FDE4FD24FD62CA1CE7EC
:10573000FFFFFFFFFFFFFFFFFFFFFFFFFFFFFFFF79
:10574000FFFFFFFFB1CC81D2C0F3C1FC02FD02FD1F
:10575000E2FCC2FCC2FC81FC80FBC0C9A48135AD67
:1057600059CE719C218100DAA1FB82FCA2FC82FC53
:10577000A2FC02FD22FDE2FC00FC60DA90CCFFFFFF
:10578000FFFFFFFFFFFFFFFFFFFFFFFFFFFFFFFF29
:10579000FFFFFFFFFFFF59DE0DC406CBE4D203DBA2
:1057A00003DBE3DAC3D2A4C209B3D2BC9EF7FFFF86
:1057B000FFFFFFFFFBE60EB4A6BA83D2E3E202EBE3
:1057C00022EB22E303DBE4D26AC3B6D5FFFFFFFF7F
:1057D000FFFFFFFFFFFF00000000000000000000CF
:1057E0000000000004040404040400040000001489
:1057F0000A0A0000000000000000000014143F141A
:105800000A3F0A0A000000041E1505060C14150FB5
:105810000400000012150D0A142C2A1200000000CA
:10582000040A0A1E151509360000000202010000D4
:1058300000000000000000201008080808080810F8
:1058400020000002040808080808080402000000FC
:105850000004150E0E150400000000000404041FCF
:10586000040404000000000000000000000000022A
:10587000020100000000001F000000000000000006
:1058800000000000000000020000001008080804EA
:1058900004020202010000000E1111111111110E7B
:1058A00000000000040604040404040E00000000CC
:1058B0000E1111080402011F000000000E11100C4F
:1058C0001010110E00000000080C0A0A091E08182A
:1058D000000000001F01010F1010110E0000000059
:1058E0000E09010F1111110E000000001F0908041C
:1058F00004040404000000000E11110E1111110E19
:10590000000000000E1111111E10120E0000000008
:10591000000004000000000400000000000000047B
:1059200000000004040000201008040204081020F5
:105930000000000000001F00001F00000000000227
:105940000408102010080402000000000E111108C5
:1059500004040004000000000E111915151D011E9D
:105960000000000004040C0A0A1E123300000000AC
:105970000F12120E1212120F000000001E11010170
:105980000101110E000000000F1212121212120F6C
:10599000000000001F120A0E0A02121F0000000081
:1059A0001F120A0E0A020207000000001C12010169
:1059B0003911120C000000003312121E12121233A1
:1059C000000000001F0404040404041F0000000081
:1059D0003E080808080808090700000037120A06F0
:1059E0000A0A123700000000070202020202223FE8
:1059F000000000001B1B1B1B1515151500000000E7
:105A00003B1216161A1A1217000000000E1111117F
:105A10001111110E000000000F12120E02020207F7
:105A2000000000000E1111111117190E18000000CE
:105A30000F12120E0A121237000000001E1101068A
:105A40000810110F000000001F1504040404040EC8
:105A500000000000331212121212120C000000009B
:105A60003312120A0A0C0404000000001515150E6A
:105A70000A0A0A0A000000001B0A0A04040A0A1B98
:105A8000000000001B0A0A040404040E00000000C9
:105A90001F0908040402121F0000001C040404046F
:105AA000040404041C000002020204040808081094
:105AB0000000000E08080808080808080E00000486
:105AC0000A000000000000000000000000000000CC
:105AD00000000000003F0004000000000000000083
